{
  "contractName": "BlackMarket",
  "abi": [
    {
      "inputs": [
        {
          "internalType": "address",
          "name": "_nfr",
          "type": "address"
        },
        {
          "internalType": "address",
          "name": "_merge",
          "type": "address"
        },
        {
          "internalType": "address",
          "name": "_rareRelics",
          "type": "address"
        }
      ],
      "stateMutability": "nonpayable",
      "type": "constructor"
    },
    {
      "inputs": [
        {
          "internalType": "uint256",
          "name": "",
          "type": "uint256"
        }
      ],
      "name": "DAILY_MERGE_RATE",
      "outputs": [
        {
          "internalType": "uint256",
          "name": "",
          "type": "uint256"
        }
      ],
      "stateMutability": "view",
      "type": "function",
      "constant": true
    },
    {
      "inputs": [],
      "name": "MINIMUM_STAKE_TIME",
      "outputs": [
        {
          "internalType": "uint256",
          "name": "",
          "type": "uint256"
        }
      ],
      "stateMutability": "view",
      "type": "function",
      "constant": true
    },
    {
      "inputs": [
        {
          "internalType": "uint256",
          "name": "",
          "type": "uint256"
        }
      ],
      "name": "card_limits",
      "outputs": [
        {
          "internalType": "uint16",
          "name": "",
          "type": "uint16"
        }
      ],
      "stateMutability": "view",
      "type": "function",
      "constant": true
    },
    {
      "inputs": [
        {
          "internalType": "uint256",
          "name": "",
          "type": "uint256"
        }
      ],
      "name": "isStaked",
      "outputs": [
        {
          "internalType": "bool",
          "name": "",
          "type": "bool"
        }
      ],
      "stateMutability": "view",
      "type": "function",
      "constant": true
    },
    {
      "inputs": [
        {
          "internalType": "uint256",
          "name": "",
          "type": "uint256"
        }
      ],
      "name": "stakedPool",
      "outputs": [
        {
          "internalType": "uint256",
          "name": "stakeStart",
          "type": "uint256"
        },
        {
          "internalType": "uint256",
          "name": "redeemLast",
          "type": "uint256"
        },
        {
          "internalType": "enum NFRTypes.Ranks",
          "name": "rank",
          "type": "uint8"
        },
        {
          "internalType": "uint256",
          "name": "arrayIndex",
          "type": "uint256"
        },
        {
          "internalType": "bool",
          "name": "defended",
          "type": "bool"
        }
      ],
      "stateMutability": "view",
      "type": "function",
      "constant": true
    },
    {
      "inputs": [
        {
          "internalType": "uint256",
          "name": "spellTokenId",
          "type": "uint256"
        },
        {
          "internalType": "uint256[]",
          "name": "relicTokenIds",
          "type": "uint256[]"
        }
      ],
      "name": "useDefendSpell",
      "outputs": [],
      "stateMutability": "nonpayable",
      "type": "function"
    },
    {
      "inputs": [
        {
          "internalType": "uint256",
          "name": "spellTokenId",
          "type": "uint256"
        }
      ],
      "name": "useStealSpell",
      "outputs": [
        {
          "internalType": "uint8",
          "name": "",
          "type": "uint8"
        }
      ],
      "stateMutability": "nonpayable",
      "type": "function"
    },
    {
      "inputs": [
        {
          "internalType": "uint256",
          "name": "spellTokenId",
          "type": "uint256"
        },
        {
          "internalType": "uint256[]",
          "name": "relicTokenIds",
          "type": "uint256[]"
        }
      ],
      "name": "useSwapSpell",
      "outputs": [
        {
          "internalType": "uint8",
          "name": "",
          "type": "uint8"
        }
      ],
      "stateMutability": "nonpayable",
      "type": "function"
    },
    {
      "inputs": [
        {
          "internalType": "uint256",
          "name": "spellTokenId",
          "type": "uint256"
        },
        {
          "internalType": "uint256[]",
          "name": "relicTokenIds",
          "type": "uint256[]"
        }
      ],
      "name": "useDuplicateSpell",
      "outputs": [],
      "stateMutability": "nonpayable",
      "type": "function"
    },
    {
      "inputs": [
        {
          "internalType": "uint256",
          "name": "spellTokenId",
          "type": "uint256"
        },
        {
          "internalType": "uint256[]",
          "name": "relicTokenIds",
          "type": "uint256[]"
        }
      ],
      "name": "useTransformSpell",
      "outputs": [],
      "stateMutability": "nonpayable",
      "type": "function"
    },
    {
      "inputs": [
        {
          "internalType": "uint256",
          "name": "tokenId",
          "type": "uint256"
        }
      ],
      "name": "stake",
      "outputs": [],
      "stateMutability": "nonpayable",
      "type": "function"
    },
    {
      "inputs": [
        {
          "internalType": "uint256",
          "name": "tokenId",
          "type": "uint256"
        },
        {
          "internalType": "bool",
          "name": "unstakeToken",
          "type": "bool"
        }
      ],
      "name": "redeemMerge",
      "outputs": [
        {
          "internalType": "uint256",
          "name": "",
          "type": "uint256"
        }
      ],
      "stateMutability": "nonpayable",
      "type": "function"
    }
  ],
  "bytecode": "0x60806040526040518060a0016040528061060f61ffff16815260200161045761ffff16815260200161022b61ffff16815260200160d461ffff168152602001606561ffff16815250600390600562000059929190620001ec565b506040518060a0016040528067016345785d8a000067ffffffffffffffff1681526020016702c68af0bb14000067ffffffffffffffff1681526020016703782dace9d9000067ffffffffffffffff1681526020016706f05b59d3b2000067ffffffffffffffff168152602001670de0b6b3a764000067ffffffffffffffff168152506004906005620000ed92919062000290565b50348015620000fb57600080fd5b50604051620048573803806200485783398181016040528101906200012191906200036a565b826000806101000a81548173ffffffffffffffffffffffffffffffffffffffff021916908373ffffffffffffffffffffffffffffffffffffffff16021790555081600160006101000a81548173ffffffffffffffffffffffffffffffffffffffff021916908373ffffffffffffffffffffffffffffffffffffffff16021790555080600260006101000a81548173ffffffffffffffffffffffffffffffffffffffff021916908373ffffffffffffffffffffffffffffffffffffffff160217905550505050620003c6565b826005600f016010900481019282156200027d5791602002820160005b838211156200024b57835183826101000a81548161ffff021916908361ffff160217905550926020019260020160208160010104928301926001030262000209565b80156200027b5782816101000a81549061ffff02191690556002016020816001010492830192600103026200024b565b505b5090506200028c9190620002e1565b5090565b8260058101928215620002ce579160200282015b82811115620002cd578251829067ffffffffffffffff16905591602001919060010190620002a4565b5b509050620002dd9190620002e1565b5090565b5b80821115620002fc576000816000905550600101620002e2565b5090565b600080fd5b600073ffffffffffffffffffffffffffffffffffffffff82169050919050565b6000620003328262000305565b9050919050565b620003448162000325565b81146200035057600080fd5b50565b600081519050620003648162000339565b92915050565b60008060006060848603121562000386576200038562000300565b5b6000620003968682870162000353565b9350506020620003a98682870162000353565b9250506040620003bc8682870162000353565b9150509250925092565b61448180620003d66000396000f3fe608060405234801561001057600080fd5b50600436106100b45760003560e01c8063748dbdb111610071578063748dbdb11461019d5780638b70e604146101cd578063a694fc3a146101eb578063ab17fd7114610207578063baa51f8614610237578063bd573ec714610267576100b4565b8063113a44b5146100b95780631583bcfd146100e957806319483b85146101055780631ea167d2146101215780633a02edc6146101515780633eadc0f014610181575b600080fd5b6100d360048036038101906100ce919061310d565b61029b565b6040516100e09190613149565b60405180910390f35b61010360048036038101906100fe91906132bd565b6102b6565b005b61011f600480360381019061011a91906132bd565b6108ff565b005b61013b6004803603810190610136919061310d565b611063565b6040516101489190613335565b60405180910390f35b61016b60048036038101906101669190613388565b611636565b6040516101789190613149565b60405180910390f35b61019b600480360381019061019691906132bd565b61196c565b005b6101b760048036038101906101b2919061310d565b611f59565b6040516101c491906133e5565b60405180910390f35b6101d5611f87565b6040516101e29190613149565b60405180910390f35b6102056004803603810190610200919061310d565b611f8e565b005b610221600480360381019061021c91906132bd565b612421565b60405161022e9190613335565b60405180910390f35b610251600480360381019061024c919061310d565b612dc4565b60405161025e919061340f565b60405180910390f35b610281600480360381019061027c919061310d565b612de4565b6040516102929594939291906134a1565b60405180910390f35b600481600581106102ab57600080fd5b016000915090505481565b3373ffffffffffffffffffffffffffffffffffffffff16600260009054906101000a900473ffffffffffffffffffffffffffffffffffffffff1673ffffffffffffffffffffffffffffffffffffffff16636352211e846040518263ffffffff1660e01b81526004016103289190613149565b60206040518083038186803b15801561034057600080fd5b505afa158015610354573d6000803e3d6000fd5b505050506040513d601f19601f820116820180604052508101906103789190613552565b73ffffffffffffffffffffffffffffffffffffffff16146103ce576040517f08c379a00000000000000000000000000000000000000000000000000000000081526004016103c5906135dc565b60405180910390fd5b6000806000600260009054906101000a900473ffffffffffffffffffffffffffffffffffffffff1673ffffffffffffffffffffffffffffffffffffffff16635d5c6a45866040518263ffffffff1660e01b815260040161042e9190613149565b60606040518083038186803b15801561044657600080fd5b505afa15801561045a573d6000803e3d6000fd5b505050506040513d601f19601f8201168201806040525081019061047e9190613672565b925092509250600360048111156104985761049761342a565b5b8360048111156104ab576104aa61342a565b5b146104eb576040517f08c379a00000000000000000000000000000000000000000000000000000000081526004016104e290613711565b60405180910390fd5b8160ff1684511115610532576040517f08c379a0000000000000000000000000000000000000000000000000000000008152600401610529906137a3565b60405180910390fd5b60005b84518110156107a5573373ffffffffffffffffffffffffffffffffffffffff1660008054906101000a900473ffffffffffffffffffffffffffffffffffffffff1673ffffffffffffffffffffffffffffffffffffffff16636352211e8784815181106105a4576105a36137c3565b5b60200260200101516040518263ffffffff1660e01b81526004016105c89190613149565b60206040518083038186803b1580156105e057600080fd5b505afa1580156105f4573d6000803e3d6000fd5b505050506040513d601f19601f820116820180604052508101906106189190613552565b73ffffffffffffffffffffffffffffffffffffffff161461066e576040517f08c379a00000000000000000000000000000000000000000000000000000000081526004016106659061383e565b60405180910390fd5b6001151560096000878481518110610689576106886137c3565b5b6020026020010151815260200190815260200160002060009054906101000a900460ff161515146106ef576040517f08c379a00000000000000000000000000000000000000000000000000000000081526004016106e6906138aa565b60405180910390fd5b8160068111156107025761070161342a565b5b600a6000878481518110610719576107186137c3565b5b6020026020010151815260200190815260200160002060020160009054906101000a900460ff1660068111156107525761075161342a565b5b14610792576040517f08c379a000000000000000000000000000000000000000000000000000000000815260040161078990613916565b60405180910390fd5b808061079d90613965565b915050610535565b50600260009054906101000a900473ffffffffffffffffffffffffffffffffffffffff1673ffffffffffffffffffffffffffffffffffffffff16631f243d84866040518263ffffffff1660e01b81526004016108019190613149565b600060405180830381600087803b15801561081b57600080fd5b505af115801561082f573d6000803e3d6000fd5b5050505060005b84518110156108f75760008054906101000a900473ffffffffffffffffffffffffffffffffffffffff1673ffffffffffffffffffffffffffffffffffffffff1663dcb9a6eb86838151811061088e5761088d6137c3565b5b60200260200101516040518263ffffffff1660e01b81526004016108b29190613149565b600060405180830381600087803b1580156108cc57600080fd5b505af11580156108e0573d6000803e3d6000fd5b5050505080806108ef90613965565b915050610836565b505050505050565b3373ffffffffffffffffffffffffffffffffffffffff16600260009054906101000a900473ffffffffffffffffffffffffffffffffffffffff1673ffffffffffffffffffffffffffffffffffffffff16636352211e846040518263ffffffff1660e01b81526004016109719190613149565b60206040518083038186803b15801561098957600080fd5b505afa15801561099d573d6000803e3d6000fd5b505050506040513d601f19601f820116820180604052508101906109c19190613552565b73ffffffffffffffffffffffffffffffffffffffff1614610a17576040517f08c379a0000000000000000000000000000000000000000000000000000000008152600401610a0e906135dc565b60405180910390fd5b6000806000600260009054906101000a900473ffffffffffffffffffffffffffffffffffffffff1673ffffffffffffffffffffffffffffffffffffffff16635d5c6a45866040518263ffffffff1660e01b8152600401610a779190613149565b60606040518083038186803b158015610a8f57600080fd5b505afa158015610aa3573d6000803e3d6000fd5b505050506040513d601f19601f82011682018060405250810190610ac79190613672565b925092509250600480811115610ae057610adf61342a565b5b836004811115610af357610af261342a565b5b14610b33576040517f08c379a0000000000000000000000000000000000000000000000000000000008152600401610b2a906139fa565b60405180910390fd5b8160ff1684511115610b7a576040517f08c379a0000000000000000000000000000000000000000000000000000000008152600401610b7190613a8c565b60405180910390fd5b600b6001826006811115610b9157610b9061342a565b5b610b9b9190613aac565b60ff1660058110610baf57610bae6137c3565b5b018054905084511115610bf7576040517f08c379a0000000000000000000000000000000000000000000000000000000008152600401610bee90613b2f565b60405180910390fd5b60005b8451811015610e6a573373ffffffffffffffffffffffffffffffffffffffff1660008054906101000a900473ffffffffffffffffffffffffffffffffffffffff1673ffffffffffffffffffffffffffffffffffffffff16636352211e878481518110610c6957610c686137c3565b5b60200260200101516040518263ffffffff1660e01b8152600401610c8d9190613149565b60206040518083038186803b158015610ca557600080fd5b505afa158015610cb9573d6000803e3d6000fd5b505050506040513d601f19601f82011682018060405250810190610cdd9190613552565b73ffffffffffffffffffffffffffffffffffffffff1614610d33576040517f08c379a0000000000000000000000000000000000000000000000000000000008152600401610d2a9061383e565b60405180910390fd5b6001151560096000878481518110610d4e57610d4d6137c3565b5b6020026020010151815260200190815260200160002060009054906101000a900460ff16151514610db4576040517f08c379a0000000000000000000000000000000000000000000000000000000008152600401610dab906138aa565b60405180910390fd5b816006811115610dc757610dc661342a565b5b600a6000878481518110610dde57610ddd6137c3565b5b6020026020010151815260200190815260200160002060020160009054906101000a900460ff166006811115610e1757610e1661342a565b5b14610e57576040517f08c379a0000000000000000000000000000000000000000000000000000000008152600401610e4e90613916565b60405180910390fd5b8080610e6290613965565b915050610bfa565b50600260009054906101000a900473ffffffffffffffffffffffffffffffffffffffff1673ffffffffffffffffffffffffffffffffffffffff16631f243d84866040518263ffffffff1660e01b8152600401610ec69190613149565b600060405180830381600087803b158015610ee057600080fd5b505af1158015610ef4573d6000803e3d6000fd5b5050505060005b845181101561105b576000600b6001846006811115610f1d57610f1c61342a565b5b610f279190613aac565b60ff1660058110610f3b57610f3a6137c3565b5b0180549050610f48612e34565b610f529190613b7e565b90506000600b846006811115610f6b57610f6a61342a565b5b60ff1660058110610f7f57610f7e6137c3565b5b018281548110610f9257610f916137c3565b5b9060005260206000200154905060008054906101000a900473ffffffffffffffffffffffffffffffffffffffff1673ffffffffffffffffffffffffffffffffffffffff1663e8ce4c23888581518110610fee57610fed6137c3565b5b6020026020010151836040518363ffffffff1660e01b8152600401611014929190613baf565b600060405180830381600087803b15801561102e57600080fd5b505af1158015611042573d6000803e3d6000fd5b505050505050808061105390613965565b915050610efb565b505050505050565b60003373ffffffffffffffffffffffffffffffffffffffff16600260009054906101000a900473ffffffffffffffffffffffffffffffffffffffff1673ffffffffffffffffffffffffffffffffffffffff16636352211e846040518263ffffffff1660e01b81526004016110d79190613149565b60206040518083038186803b1580156110ef57600080fd5b505afa158015611103573d6000803e3d6000fd5b505050506040513d601f19601f820116820180604052508101906111279190613552565b73ffffffffffffffffffffffffffffffffffffffff161461117d576040517f08c379a0000000000000000000000000000000000000000000000000000000008152600401611174906135dc565b60405180910390fd5b6000806000600260009054906101000a900473ffffffffffffffffffffffffffffffffffffffff1673ffffffffffffffffffffffffffffffffffffffff16635d5c6a45866040518263ffffffff1660e01b81526004016111dd9190613149565b60606040518083038186803b1580156111f557600080fd5b505afa158015611209573d6000803e3d6000fd5b505050506040513d601f19601f8201168201806040525081019061122d9190613672565b925092509250600160048111156112475761124661342a565b5b83600481111561125a5761125961342a565b5b1461129a576040517f08c379a000000000000000000000000000000000000000000000000000000000815260040161129190613c24565b60405180910390fd5b600b8160068111156112af576112ae61342a565b5b60ff16600581106112c3576112c26137c3565b5b01805490508260ff16111561130d576040517f08c379a000000000000000000000000000000000000000000000000000000000815260040161130490613cb6565b60405180910390fd5b600260009054906101000a900473ffffffffffffffffffffffffffffffffffffffff1673ffffffffffffffffffffffffffffffffffffffff16631f243d84866040518263ffffffff1660e01b81526004016113689190613149565b600060405180830381600087803b15801561138257600080fd5b505af1158015611396573d6000803e3d6000fd5b505050506000805b8360ff16811080156113dd57506000600b8460068111156113c2576113c161342a565b5b60ff16600581106113d6576113d56137c3565b5b0180549050115b15611629576000600b8460068111156113f9576113f861342a565b5b60ff166005811061140d5761140c6137c3565b5b018054905061141a612e34565b6114249190613b7e565b90506000600b85600681111561143d5761143c61342a565b5b60ff1660058110611451576114506137c3565b5b018281548110611464576114636137c3565b5b90600052602060002001549050600a600082815260200190815260200160002060040160009054906101000a900460ff16156114ce576000600a600083815260200190815260200160002060040160006101000a81548160ff021916908315150217905550611614565b60008054906101000a900473ffffffffffffffffffffffffffffffffffffffff1673ffffffffffffffffffffffffffffffffffffffff1663234bfab660008054906101000a900473ffffffffffffffffffffffffffffffffffffffff1673ffffffffffffffffffffffffffffffffffffffff16636352211e846040518263ffffffff1660e01b81526004016115639190613149565b60206040518083038186803b15801561157b57600080fd5b505afa15801561158f573d6000803e3d6000fd5b505050506040513d601f19601f820116820180604052508101906115b39190613552565b33846040518463ffffffff1660e01b81526004016115d393929190613ce5565b600060405180830381600087803b1580156115ed57600080fd5b505af1158015611601573d6000803e3d6000fd5b50505050838061161090613d1c565b9450505b5050808061162190613965565b91505061139e565b5080945050505050919050565b60003373ffffffffffffffffffffffffffffffffffffffff1660008054906101000a900473ffffffffffffffffffffffffffffffffffffffff1673ffffffffffffffffffffffffffffffffffffffff16636352211e856040518263ffffffff1660e01b81526004016116a89190613149565b60206040518083038186803b1580156116c057600080fd5b505afa1580156116d4573d6000803e3d6000fd5b505050506040513d601f19601f820116820180604052508101906116f89190613552565b73ffffffffffffffffffffffffffffffffffffffff161461174e576040517f08c379a000000000000000000000000000000000000000000000000000000000815260040161174590613d92565b60405180910390fd5b600115156009600085815260200190815260200160002060009054906101000a900460ff161515146117b5576040517f08c379a00000000000000000000000000000000000000000000000000000000081526004016117ac906138aa565b60405180910390fd5b6203f480600a600085815260200190815260200160002060000154426117db9190613db2565b101561181c576040517f08c379a000000000000000000000000000000000000000000000000000000000815260040161181390613e32565b60405180910390fd5b811561182c5761182b83612e87565b5b6000620151806004600a600087815260200190815260200160002060020160009054906101000a900460ff16600681111561186a5761186961342a565b5b60ff166005811061187e5761187d6137c3565b5b0154600a600087815260200190815260200160002060010154426118a29190613db2565b6118ac9190613e52565b6118b69190613eac565b905042600a600086815260200190815260200160002060010181905550600160009054906101000a900473ffffffffffffffffffffffffffffffffffffffff1673ffffffffffffffffffffffffffffffffffffffff166340c10f1933836040518363ffffffff1660e01b8152600401611930929190613edd565b600060405180830381600087803b15801561194a57600080fd5b505af115801561195e573d6000803e3d6000fd5b505050508091505092915050565b3373ffffffffffffffffffffffffffffffffffffffff16600260009054906101000a900473ffffffffffffffffffffffffffffffffffffffff1673ffffffffffffffffffffffffffffffffffffffff16636352211e846040518263ffffffff1660e01b81526004016119de9190613149565b60206040518083038186803b1580156119f657600080fd5b505afa158015611a0a573d6000803e3d6000fd5b505050506040513d601f19601f82011682018060405250810190611a2e9190613552565b73ffffffffffffffffffffffffffffffffffffffff1614611a84576040517f08c379a0000000000000000000000000000000000000000000000000000000008152600401611a7b906135dc565b60405180910390fd5b6000806000600260009054906101000a900473ffffffffffffffffffffffffffffffffffffffff1673ffffffffffffffffffffffffffffffffffffffff16635d5c6a45866040518263ffffffff1660e01b8152600401611ae49190613149565b60606040518083038186803b158015611afc57600080fd5b505afa158015611b10573d6000803e3d6000fd5b505050506040513d601f19601f82011682018060405250810190611b349190613672565b92509250925060006004811115611b4e57611b4d61342a565b5b836004811115611b6157611b6061342a565b5b14611ba1576040517f08c379a0000000000000000000000000000000000000000000000000000000008152600401611b9890613f52565b60405180910390fd5b8160ff1684511115611be8576040517f08c379a0000000000000000000000000000000000000000000000000000000008152600401611bdf90613fe4565b60405180910390fd5b60005b8451811015611e5b573373ffffffffffffffffffffffffffffffffffffffff1660008054906101000a900473ffffffffffffffffffffffffffffffffffffffff1673ffffffffffffffffffffffffffffffffffffffff16636352211e878481518110611c5a57611c596137c3565b5b60200260200101516040518263ffffffff1660e01b8152600401611c7e9190613149565b60206040518083038186803b158015611c9657600080fd5b505afa158015611caa573d6000803e3d6000fd5b505050506040513d601f19601f82011682018060405250810190611cce9190613552565b73ffffffffffffffffffffffffffffffffffffffff1614611d24576040517f08c379a0000000000000000000000000000000000000000000000000000000008152600401611d1b9061383e565b60405180910390fd5b6001151560096000878481518110611d3f57611d3e6137c3565b5b6020026020010151815260200190815260200160002060009054906101000a900460ff16151514611da5576040517f08c379a0000000000000000000000000000000000000000000000000000000008152600401611d9c906138aa565b60405180910390fd5b816006811115611db857611db761342a565b5b600a6000878481518110611dcf57611dce6137c3565b5b6020026020010151815260200190815260200160002060020160009054906101000a900460ff166006811115611e0857611e0761342a565b5b14611e48576040517f08c379a0000000000000000000000000000000000000000000000000000000008152600401611e3f90613916565b60405180910390fd5b8080611e5390613965565b915050611beb565b50600260009054906101000a900473ffffffffffffffffffffffffffffffffffffffff1673ffffffffffffffffffffffffffffffffffffffff16631f243d84866040518263ffffffff1660e01b8152600401611eb79190613149565b600060405180830381600087803b158015611ed157600080fd5b505af1158015611ee5573d6000803e3d6000fd5b5050505060005b8451811015611f51576001600a6000878481518110611f0e57611f0d6137c3565b5b6020026020010151815260200190815260200160002060040160006101000a81548160ff0219169083151502179055508080611f4990613965565b915050611eec565b505050505050565b60038160058110611f6957600080fd5b60109182820401919006600202915054906101000a900461ffff1681565b6203f48081565b3373ffffffffffffffffffffffffffffffffffffffff1660008054906101000a900473ffffffffffffffffffffffffffffffffffffffff1673ffffffffffffffffffffffffffffffffffffffff16636352211e836040518263ffffffff1660e01b8152600401611ffe9190613149565b60206040518083038186803b15801561201657600080fd5b505afa15801561202a573d6000803e3d6000fd5b505050506040513d601f19601f8201168201806040525081019061204e9190613552565b73ffffffffffffffffffffffffffffffffffffffff16146120a4576040517f08c379a000000000000000000000000000000000000000000000000000000000815260040161209b90613d92565b60405180910390fd5b600015156009600083815260200190815260200160002060009054906101000a900460ff1615151461210b576040517f08c379a000000000000000000000000000000000000000000000000000000000815260040161210290614050565b60405180910390fd5b60008060008054906101000a900473ffffffffffffffffffffffffffffffffffffffff1673ffffffffffffffffffffffffffffffffffffffff1663efde66ec846040518263ffffffff1660e01b81526004016121679190613149565b60806040518083038186803b15801561217f57600080fd5b505afa158015612193573d6000803e3d6000fd5b505050506040513d601f19601f820116820180604052508101906121b791906140c1565b50509150915060008263ffffffff16141580156121db575060008163ffffffff1614155b61221a576040517f08c379a000000000000000000000000000000000000000000000000000000000815260040161221190614174565b60405180910390fd5b600073__NFRTypes______________________________631ae9f640846040518263ffffffff1660e01b815260040161225391906141a3565b60206040518083038186803b15801561226b57600080fd5b505af415801561227f573d6000803e3d6000fd5b505050506040513d601f19601f820116820180604052508101906122a391906141be565b9050600b8160068111156122ba576122b961342a565b5b60ff16600581106122ce576122cd6137c3565b5b018490806001815401808255809150506001900390600052602060002001600090919091909150556040518060a001604052804281526020014281526020018260068111156123205761231f61342a565b5b81526020016001600b84600681111561233c5761233b61342a565b5b60ff16600581106123505761234f6137c3565b5b018054905061235f9190613db2565b815260200160001515815250600a6000868152602001908152602001600020600082015181600001556020820151816001015560408201518160020160006101000a81548160ff021916908360068111156123bd576123bc61342a565b5b02179055506060820151816003015560808201518160040160006101000a81548160ff02191690831515021790555090505060016009600086815260200190815260200160002060006101000a81548160ff02191690831515021790555050505050565b60003373ffffffffffffffffffffffffffffffffffffffff16600260009054906101000a900473ffffffffffffffffffffffffffffffffffffffff1673ffffffffffffffffffffffffffffffffffffffff16636352211e856040518263ffffffff1660e01b81526004016124959190613149565b60206040518083038186803b1580156124ad57600080fd5b505afa1580156124c1573d6000803e3d6000fd5b505050506040513d601f19601f820116820180604052508101906124e59190613552565b73ffffffffffffffffffffffffffffffffffffffff161461253b576040517f08c379a0000000000000000000000000000000000000000000000000000000008152600401612532906135dc565b60405180910390fd5b6000806000600260009054906101000a900473ffffffffffffffffffffffffffffffffffffffff1673ffffffffffffffffffffffffffffffffffffffff16635d5c6a45876040518263ffffffff1660e01b815260040161259b9190613149565b60606040518083038186803b1580156125b357600080fd5b505afa1580156125c7573d6000803e3d6000fd5b505050506040513d601f19601f820116820180604052508101906125eb9190613672565b925092509250600260048111156126055761260461342a565b5b8360048111156126185761261761342a565b5b14612658576040517f08c379a000000000000000000000000000000000000000000000000000000000815260040161264f90613f52565b60405180910390fd5b8160ff168551111561269f576040517f08c379a00000000000000000000000000000000000000000000000000000000081526004016126969061425d565b60405180910390fd5b600b8160068111156126b4576126b361342a565b5b60ff16600581106126c8576126c76137c3565b5b018054905085511115612710576040517f08c379a0000000000000000000000000000000000000000000000000000000008152600401612707906142ef565b60405180910390fd5b60005b8551811015612983573373ffffffffffffffffffffffffffffffffffffffff1660008054906101000a900473ffffffffffffffffffffffffffffffffffffffff1673ffffffffffffffffffffffffffffffffffffffff16636352211e888481518110612782576127816137c3565b5b60200260200101516040518263ffffffff1660e01b81526004016127a69190613149565b60206040518083038186803b1580156127be57600080fd5b505afa1580156127d2573d6000803e3d6000fd5b505050506040513d601f19601f820116820180604052508101906127f69190613552565b73ffffffffffffffffffffffffffffffffffffffff161461284c576040517f08c379a00000000000000000000000000000000000000000000000000000000081526004016128439061383e565b60405180910390fd5b6001151560096000888481518110612867576128666137c3565b5b6020026020010151815260200190815260200160002060009054906101000a900460ff161515146128cd576040517f08c379a00000000000000000000000000000000000000000000000000000000081526004016128c4906138aa565b60405180910390fd5b8160068111156128e0576128df61342a565b5b600a60008884815181106128f7576128f66137c3565b5b6020026020010151815260200190815260200160002060020160009054906101000a900460ff1660068111156129305761292f61342a565b5b14612970576040517f08c379a000000000000000000000000000000000000000000000000000000000815260040161296790613916565b60405180910390fd5b808061297b90613965565b915050612713565b50600260009054906101000a900473ffffffffffffffffffffffffffffffffffffffff1673ffffffffffffffffffffffffffffffffffffffff16631f243d84876040518263ffffffff1660e01b81526004016129df9190613149565b600060405180830381600087803b1580156129f957600080fd5b505af1158015612a0d573d6000803e3d6000fd5b505050506000805b8651811015612db6576000600b846006811115612a3557612a3461342a565b5b60ff1660058110612a4957612a486137c3565b5b0180549050612a56612e34565b612a609190613b7e565b90506000600b856006811115612a7957612a7861342a565b5b60ff1660058110612a8d57612a8c6137c3565b5b018281548110612aa057612a9f6137c3565b5b90600052602060002001549050600a600082815260200190815260200160002060040160009054906101000a900460ff1615612b0a576000600a600083815260200190815260200160002060040160006101000a81548160ff021916908315150217905550612da1565b60008054906101000a900473ffffffffffffffffffffffffffffffffffffffff1673ffffffffffffffffffffffffffffffffffffffff1663234bfab63360008054906101000a900473ffffffffffffffffffffffffffffffffffffffff1673ffffffffffffffffffffffffffffffffffffffff16636352211e856040518263ffffffff1660e01b8152600401612ba09190613149565b60206040518083038186803b158015612bb857600080fd5b505afa158015612bcc573d6000803e3d6000fd5b505050506040513d601f19601f82011682018060405250810190612bf09190613552565b8c8781518110612c0357612c026137c3565b5b60200260200101516040518463ffffffff1660e01b8152600401612c2993929190613ce5565b600060405180830381600087803b158015612c4357600080fd5b505af1158015612c57573d6000803e3d6000fd5b5050505060008054906101000a900473ffffffffffffffffffffffffffffffffffffffff1673ffffffffffffffffffffffffffffffffffffffff1663234bfab660008054906101000a900473ffffffffffffffffffffffffffffffffffffffff1673ffffffffffffffffffffffffffffffffffffffff16636352211e846040518263ffffffff1660e01b8152600401612cf09190613149565b60206040518083038186803b158015612d0857600080fd5b505afa158015612d1c573d6000803e3d6000fd5b505050506040513d601f19601f82011682018060405250810190612d409190613552565b33846040518463ffffffff1660e01b8152600401612d6093929190613ce5565b600060405180830381600087803b158015612d7a57600080fd5b505af1158015612d8e573d6000803e3d6000fd5b505050508380612d9d90613d1c565b9450505b50508080612dae90613965565b915050612a15565b508094505050505092915050565b60096020528060005260406000206000915054906101000a900460ff1681565b600a6020528060005260406000206000915090508060000154908060010154908060020160009054906101000a900460ff16908060030154908060040160009054906101000a900460ff16905085565b6000600160106000828254612e49919061430f565b92505081905550444260105433604051602001612e6994939291906143ce565b6040516020818303038152906040528051906020012060001c905090565b600115156009600083815260200190815260200160002060009054906101000a900460ff16151514612eee576040517f08c379a0000000000000000000000000000000000000000000000000000000008152600401612ee5906138aa565b60405180910390fd5b6000600a600083815260200190815260200160002060020160009054906101000a900460ff166006811115612f2657612f2561342a565b5b90506000600a600084815260200190815260200160002060030154905060006001600b8460ff1660058110612f5e57612f5d6137c3565b5b0180549050612f6d9190613db2565b90506000600b8460ff1660058110612f8857612f876137c3565b5b018281548110612f9b57612f9a6137c3565b5b9060005260206000200154905080600b8560ff1660058110612fc057612fbf6137c3565b5b018481548110612fd357612fd26137c3565b5b906000526020600020018190555082600a600083815260200190815260200160002060030181905550600b8460ff1660058110613013576130126137c3565b5b018054806130245761302361441c565b5b60019003818190600052602060002001600090559055600a600086815260200190815260200160002060008082016000905560018201600090556002820160006101000a81549060ff021916905560038201600090556004820160006101000a81549060ff0219169055505060006009600087815260200190815260200160002060006101000a81548160ff0219169083151502179055505050505050565b6000604051905090565b600080fd5b600080fd5b6000819050919050565b6130ea816130d7565b81146130f557600080fd5b50565b600081359050613107816130e1565b92915050565b600060208284031215613123576131226130cd565b5b6000613131848285016130f8565b91505092915050565b613143816130d7565b82525050565b600060208201905061315e600083018461313a565b92915050565b600080fd5b6000601f19601f8301169050919050565b7f4e487b7100000000000000000000000000000000000000000000000000000000600052604160045260246000fd5b6131b282613169565b810181811067ffffffffffffffff821117156131d1576131d061317a565b5b80604052505050565b60006131e46130c3565b90506131f082826131a9565b919050565b600067ffffffffffffffff8211156132105761320f61317a565b5b602082029050602081019050919050565b600080fd5b6000613239613234846131f5565b6131da565b9050808382526020820190506020840283018581111561325c5761325b613221565b5b835b81811015613285578061327188826130f8565b84526020840193505060208101905061325e565b5050509392505050565b600082601f8301126132a4576132a3613164565b5b81356132b4848260208601613226565b91505092915050565b600080604083850312156132d4576132d36130cd565b5b60006132e2858286016130f8565b925050602083013567ffffffffffffffff811115613303576133026130d2565b5b61330f8582860161328f565b9150509250929050565b600060ff82169050919050565b61332f81613319565b82525050565b600060208201905061334a6000830184613326565b92915050565b60008115159050919050565b61336581613350565b811461337057600080fd5b50565b6000813590506133828161335c565b92915050565b6000806040838503121561339f5761339e6130cd565b5b60006133ad858286016130f8565b92505060206133be85828601613373565b9150509250929050565b600061ffff82169050919050565b6133df816133c8565b82525050565b60006020820190506133fa60008301846133d6565b92915050565b61340981613350565b82525050565b60006020820190506134246000830184613400565b92915050565b7f4e487b7100000000000000000000000000000000000000000000000000000000600052602160045260246000fd5b6007811061346a5761346961342a565b5b50565b600081905061347b82613459565b919050565b600061348b8261346d565b9050919050565b61349b81613480565b82525050565b600060a0820190506134b6600083018861313a565b6134c3602083018761313a565b6134d06040830186613492565b6134dd606083018561313a565b6134ea6080830184613400565b9695505050505050565b600073ffffffffffffffffffffffffffffffffffffffff82169050919050565b600061351f826134f4565b9050919050565b61352f81613514565b811461353a57600080fd5b50565b60008151905061354c81613526565b92915050565b600060208284031215613568576135676130cd565b5b60006135768482850161353d565b91505092915050565b600082825260208201905092915050565b7f4d555354204f574e205350454c4c20544f4b454e000000000000000000000000600082015250565b60006135c660148361357f565b91506135d182613590565b602082019050919050565b600060208201905081810360008301526135f5816135b9565b9050919050565b6005811061360957600080fd5b50565b60008151905061361b816135fc565b92915050565b61362a81613319565b811461363557600080fd5b50565b60008151905061364781613621565b92915050565b6007811061365a57600080fd5b50565b60008151905061366c8161364d565b92915050565b60008060006060848603121561368b5761368a6130cd565b5b60006136998682870161360c565b93505060206136aa86828701613638565b92505060406136bb8682870161365d565b9150509250925092565b7f4d55535420494e505554204455504c4943415445205350454c4c000000000000600082015250565b60006136fb601a8361357f565b9150613706826136c5565b602082019050919050565b6000602082019050818103600083015261372a816136ee565b9050919050565b7f4d4f5245204341524453204455504c494341544544205448414e205350454c4c60008201527f20414c4c4f575300000000000000000000000000000000000000000000000000602082015250565b600061378d60278361357f565b915061379882613731565b604082019050919050565b600060208201905081810360008301526137bc81613780565b9050919050565b7f4e487b7100000000000000000000000000000000000000000000000000000000600052603260045260246000fd5b7f4d555354204f574e2052454c4943000000000000000000000000000000000000600082015250565b6000613828600e8361357f565b9150613833826137f2565b602082019050919050565b600060208201905081810360008301526138578161381b565b9050919050565b7f544f4b454e204e4f54205354414b454400000000000000000000000000000000600082015250565b600061389460108361357f565b915061389f8261385e565b602082019050919050565b600060208201905081810360008301526138c381613887565b9050919050565b7f52414e4b20444f45534e54204d41544348205350454c4c000000000000000000600082015250565b600061390060178361357f565b915061390b826138ca565b602082019050919050565b6000602082019050818103600083015261392f816138f3565b9050919050565b7f4e487b7100000000000000000000000000000000000000000000000000000000600052601160045260246000fd5b6000613970826130d7565b91507fffffffffffffffffffffffffffffffffffffffffffffffffffffffffffffffff8214156139a3576139a2613936565b5b600182019050919050565b7f4d55535420494e505554205452414e53464f524d205350454c4c000000000000600082015250565b60006139e4601a8361357f565b91506139ef826139ae565b602082019050919050565b60006020820190508181036000830152613a13816139d7565b9050919050565b7f43414e54205452414e53464f524d204d4f5245204341524453205448414e205360008201527f50454c4c20414c4c4f5753000000000000000000000000000000000000000000602082015250565b6000613a76602b8361357f565b9150613a8182613a1a565b604082019050919050565b60006020820190508181036000830152613aa581613a69565b9050919050565b6000613ab782613319565b9150613ac283613319565b92508260ff03821115613ad857613ad7613936565b5b828201905092915050565b7f4e4f5420454e4f55474820434152445320494e205452414e53464f524d20544f600082015250565b6000613b1960208361357f565b9150613b2482613ae3565b602082019050919050565b60006020820190508181036000830152613b4881613b0c565b9050919050565b7f4e487b7100000000000000000000000000000000000000000000000000000000600052601260045260246000fd5b6000613b89826130d7565b9150613b94836130d7565b925082613ba457613ba3613b4f565b5b828206905092915050565b6000604082019050613bc4600083018561313a565b613bd1602083018461313a565b9392505050565b7f4d55535420494e50555420535445414c205350454c4c00000000000000000000600082015250565b6000613c0e60168361357f565b9150613c1982613bd8565b602082019050919050565b60006020820190508181036000830152613c3d81613c01565b9050919050565b7f4e4f5420454e4f55474820434152445320494e205354414b4520504f4f4c205460008201527f4f20535445414c00000000000000000000000000000000000000000000000000602082015250565b6000613ca060278361357f565b9150613cab82613c44565b604082019050919050565b60006020820190508181036000830152613ccf81613c93565b9050919050565b613cdf81613514565b82525050565b6000606082019050613cfa6000830186613cd6565b613d076020830185613cd6565b613d14604083018461313a565b949350505050565b6000613d2782613319565b915060ff821415613d3b57613d3a613936565b5b600182019050919050565b7f4d555354204f574e20544f4b454e000000000000000000000000000000000000600082015250565b6000613d7c600e8361357f565b9150613d8782613d46565b602082019050919050565b60006020820190508181036000830152613dab81613d6f565b9050919050565b6000613dbd826130d7565b9150613dc8836130d7565b925082821015613ddb57613dda613936565b5b828203905092915050565b7f4d555354205354414b4520464f52204154204c45415354203320444159530000600082015250565b6000613e1c601e8361357f565b9150613e2782613de6565b602082019050919050565b60006020820190508181036000830152613e4b81613e0f565b9050919050565b6000613e5d826130d7565b9150613e68836130d7565b9250817fffffffffffffffffffffffffffffffffffffffffffffffffffffffffffffffff0483118215151615613ea157613ea0613936565b5b828202905092915050565b6000613eb7826130d7565b9150613ec2836130d7565b925082613ed257613ed1613b4f565b5b828204905092915050565b6000604082019050613ef26000830185613cd6565b613eff602083018461313a565b9392505050565b7f4d55535420494e50555420444546454e44205350454c4c000000000000000000600082015250565b6000613f3c60178361357f565b9150613f4782613f06565b602082019050919050565b60006020820190508181036000830152613f6b81613f2f565b9050919050565b7f4d4f524520434152445320444546454e444544205448414e205350454c4c204160008201527f4c4c4f5753000000000000000000000000000000000000000000000000000000602082015250565b6000613fce60258361357f565b9150613fd982613f72565b604082019050919050565b60006020820190508181036000830152613ffd81613fc1565b9050919050565b7f544f4b454e20414c5245414459205354414b4544000000000000000000000000600082015250565b600061403a60148361357f565b915061404582614004565b602082019050919050565b600060208201905081810360008301526140698161402d565b9050919050565b600063ffffffff82169050919050565b61408981614070565b811461409457600080fd5b50565b6000815190506140a681614080565b92915050565b6000815190506140bb816130e1565b92915050565b600080600080608085870312156140db576140da6130cd565b5b60006140e987828801614097565b94505060206140fa87828801614097565b935050604061410b878288016140ac565b925050606061411c878288016140ac565b91505092959194509250565b7f5354414b4544204954454d204d5553542042452052455645414c454400000000600082015250565b600061415e601c8361357f565b915061416982614128565b602082019050919050565b6000602082019050818103600083015261418d81614151565b9050919050565b61419d81614070565b82525050565b60006020820190506141b86000830184614194565b92915050565b6000602082840312156141d4576141d36130cd565b5b60006141e28482850161365d565b91505092915050565b7f43414e542053574150204d4f5245204341524453205448414e205350454c4c2060008201527f414c4c4f57530000000000000000000000000000000000000000000000000000602082015250565b600061424760268361357f565b9150614252826141eb565b604082019050919050565b600060208201905081810360008301526142768161423a565b9050919050565b7f4e4f5420454e4f55474820434152445320494e205354414b4520504f4f4c205460008201527f4f20535741502057495448000000000000000000000000000000000000000000602082015250565b60006142d9602b8361357f565b91506142e48261427d565b604082019050919050565b60006020820190508181036000830152614308816142cc565b9050919050565b600061431a826130d7565b9150614325836130d7565b9250827fffffffffffffffffffffffffffffffffffffffffffffffffffffffffffffffff0382111561435a57614359613936565b5b828201905092915050565b6000819050919050565b61438061437b826130d7565b614365565b82525050565b60008160601b9050919050565b600061439e82614386565b9050919050565b60006143b082614393565b9050919050565b6143c86143c382613514565b6143a5565b82525050565b60006143da828761436f565b6020820191506143ea828661436f565b6020820191506143fa828561436f565b60208201915061440a82846143b7565b60148201915081905095945050505050565b7f4e487b7100000000000000000000000000000000000000000000000000000000600052603160045260246000fdfea2646970667358221220030769d9edad3796806cfbd6314c0ff1fc773d9227f43a3d3dd8881e94de739964736f6c63430008090033",
  "immutableReferences": {},
  "source": "pragma solidity ^0.8.0;\nimport \"./NFR.sol\";\nimport \"./MERGE.sol\";\nimport \"./RareRelics.sol\";\nimport \"./NFRTypes.sol\";\n\ncontract BlackMarket {\n\n    NFR nfr;\n    MERGE merge;\n    RareRelics rareRelics;\n\n    uint16[5] public card_limits = [1551,1111,555,212,101];\n\n    uint256 public constant MINIMUM_STAKE_TIME = 3 days;\n    uint256[5] public DAILY_MERGE_RATE = [(1 ether)/10,(1 ether)/5,(1 ether)/4,(1 ether)/2,(1 ether)];\n\n    struct Stake {\n        uint stakeStart;\n        uint redeemLast;\n        NFRTypes.Ranks rank;\n        uint arrayIndex;\n        bool defended;\n    }\n\n    mapping(uint256 => bool) public isStaked;\n    mapping(uint256 => Stake) public stakedPool;\n    uint256[][5] private stakedPoolIndices;\n\n    uint256 private _nonce;\n\n    constructor(address _nfr, address _merge, address _rareRelics) {\n        nfr = NFR(_nfr);\n        merge = MERGE(_merge);\n        rareRelics = RareRelics(_rareRelics);\n    }\n\n    function useDefendSpell(uint256 spellTokenId, uint256[] memory relicTokenIds) external {\n        require (rareRelics.ownerOf(spellTokenId) == msg.sender, \"MUST OWN SPELL TOKEN\"); // must own spell card being used\n        (RareRelics.SpellTypes spellType,uint8 numCardsAffected,NFRTypes.Ranks rankAffected) = rareRelics.spells(spellTokenId);\n        require (spellType == RareRelics.SpellTypes.DEFEND, \"MUST INPUT DEFEND SPELL\");\n        require (relicTokenIds.length <= numCardsAffected, \"MORE CARDS DEFENDED THAN SPELL ALLOWS\");\n\n        for (uint256 i = 0; i < relicTokenIds.length; i++) {\n            require (nfr.ownerOf(relicTokenIds[i]) == msg.sender, \"MUST OWN RELIC\");\n            require (isStaked[relicTokenIds[i]] == true, \"TOKEN NOT STAKED\");\n            require (stakedPool[relicTokenIds[i]].rank == rankAffected, \"RANK DOESNT MATCH SPELL\");\n        }\n\n        rareRelics.useSpell(spellTokenId);\n\n        for (uint256 i = 0; i < relicTokenIds.length; i++) {\n            stakedPool[relicTokenIds[i]].defended = true;\n        }\n    }\n\n    function useStealSpell(uint256 spellTokenId) external returns(uint8){\n        require (rareRelics.ownerOf(spellTokenId) == msg.sender, \"MUST OWN SPELL TOKEN\"); // must own spell card being used\n        (RareRelics.SpellTypes spellType,uint8 numCardsAffected,NFRTypes.Ranks rankAffected) = rareRelics.spells(spellTokenId);\n        require (spellType == RareRelics.SpellTypes.STEAL, \"MUST INPUT STEAL SPELL\");\n        require (numCardsAffected <= stakedPoolIndices[uint8(rankAffected)].length, \"NOT ENOUGH CARDS IN STAKE POOL TO STEAL\");\n\n        rareRelics.useSpell(spellTokenId);\n\n        uint8 cardsSuccessfullyStolen = 0;\n        for (uint i = 0; i < numCardsAffected && stakedPoolIndices[uint8(rankAffected)].length > 0; i++) {\n            uint256 cardToStealIndex = random() % stakedPoolIndices[uint8(rankAffected)].length;\n            uint256 cardToSteal = stakedPoolIndices[uint8(rankAffected)][cardToStealIndex];\n            if (stakedPool[cardToSteal].defended){\n                // if card is defended then defense has been used\n                stakedPool[cardToSteal].defended = false;\n            }\n            else {\n                nfr.stealCard(nfr.ownerOf(cardToSteal),msg.sender,cardToSteal);\n//                nfr.transferFrom(nfr.ownerOf(cardToSteal),msg.sender,cardToSteal);\n                cardsSuccessfullyStolen++;\n            }\n        }\n\n        return cardsSuccessfullyStolen;\n    }\n\n    function useSwapSpell(uint256 spellTokenId, uint256[] memory relicTokenIds) external returns(uint8){\n        require (rareRelics.ownerOf(spellTokenId) == msg.sender, \"MUST OWN SPELL TOKEN\"); // must own spell card being used\n        (RareRelics.SpellTypes spellType,uint8 numCardsAffected,NFRTypes.Ranks rankAffected) = rareRelics.spells(spellTokenId);\n        require (spellType == RareRelics.SpellTypes.SWAP, \"MUST INPUT DEFEND SPELL\");\n        require (relicTokenIds.length <= numCardsAffected, \"CANT SWAP MORE CARDS THAN SPELL ALLOWS\");\n        require (relicTokenIds.length <= stakedPoolIndices[uint8(rankAffected)].length, \"NOT ENOUGH CARDS IN STAKE POOL TO SWAP WITH\");\n\n        for (uint256 i = 0; i < relicTokenIds.length; i++) {\n            require (nfr.ownerOf(relicTokenIds[i]) == msg.sender, \"MUST OWN RELIC\");\n            require (isStaked[relicTokenIds[i]] == true, \"TOKEN NOT STAKED\");\n            require (stakedPool[relicTokenIds[i]].rank == rankAffected, \"RANK DOESNT MATCH SPELL\");\n        }\n\n        rareRelics.useSpell(spellTokenId);\n\n        uint8 cardsSuccessfullySwapped = 0;\n        for (uint256 i = 0; i < relicTokenIds.length; i++) {\n            uint256 cardToStealIndex = random() % stakedPoolIndices[uint8(rankAffected)].length;\n            uint256 cardToSteal = stakedPoolIndices[uint8(rankAffected)][cardToStealIndex];\n            if (stakedPool[cardToSteal].defended) {\n                // if card is defended then defense has been used\n                stakedPool[cardToSteal].defended = false;\n            }\n            else {\n                // random person steals the relic you put up\n                nfr.stealCard(msg.sender, nfr.ownerOf(cardToSteal), relicTokenIds[i]);\n                // you steal the relic they put up\n                nfr.stealCard(nfr.ownerOf(cardToSteal),msg.sender,cardToSteal);\n\n                cardsSuccessfullySwapped++;\n            }\n        }\n        return cardsSuccessfullySwapped;\n    }\n\n    function useDuplicateSpell(uint256 spellTokenId, uint256[] memory relicTokenIds) external {\n        require (rareRelics.ownerOf(spellTokenId) == msg.sender, \"MUST OWN SPELL TOKEN\"); // must own spell card being used\n        (RareRelics.SpellTypes spellType,uint8 numCardsAffected,NFRTypes.Ranks rankAffected) = rareRelics.spells(spellTokenId);\n        require (spellType == RareRelics.SpellTypes.DUPLICATE, \"MUST INPUT DUPLICATE SPELL\");\n        require (relicTokenIds.length <= numCardsAffected, \"MORE CARDS DUPLICATED THAN SPELL ALLOWS\");\n\n        for (uint256 i = 0; i < relicTokenIds.length; i++) {\n            require (nfr.ownerOf(relicTokenIds[i]) == msg.sender, \"MUST OWN RELIC\");\n            require (isStaked[relicTokenIds[i]] == true, \"TOKEN NOT STAKED\");\n            require (stakedPool[relicTokenIds[i]].rank == rankAffected, \"RANK DOESNT MATCH SPELL\");\n        }\n\n        rareRelics.useSpell(spellTokenId);\n\n        for (uint256 i = 0; i < relicTokenIds.length; i++) {\n            nfr.duplicateCard(relicTokenIds[i]);\n        }\n    }\n\n    function useTransformSpell(uint256 spellTokenId, uint256[] memory relicTokenIds) external {\n        require (rareRelics.ownerOf(spellTokenId) == msg.sender, \"MUST OWN SPELL TOKEN\"); // must own spell card being used\n        (RareRelics.SpellTypes spellType,uint8 numCardsAffected,NFRTypes.Ranks rankAffected) = rareRelics.spells(spellTokenId);\n        require (spellType == RareRelics.SpellTypes.TRANSFORM, \"MUST INPUT TRANSFORM SPELL\");\n        require (relicTokenIds.length <= numCardsAffected, \"CANT TRANSFORM MORE CARDS THAN SPELL ALLOWS\");\n        require (relicTokenIds.length <= stakedPoolIndices[uint8(rankAffected) + 1].length, \"NOT ENOUGH CARDS IN TRANSFORM TO\");\n\n        for (uint256 i = 0; i < relicTokenIds.length; i++) {\n            require (nfr.ownerOf(relicTokenIds[i]) == msg.sender, \"MUST OWN RELIC\");\n            require (isStaked[relicTokenIds[i]] == true, \"TOKEN NOT STAKED\");\n            require (stakedPool[relicTokenIds[i]].rank == rankAffected, \"RANK DOESNT MATCH SPELL\");\n        }\n\n        rareRelics.useSpell(spellTokenId);\n\n        for (uint256 i = 0; i < relicTokenIds.length; i++) {\n            uint256 cardToTransformToIndex = random() % stakedPoolIndices[uint8(rankAffected)+1].length;\n            uint256 cardToTransformTo = stakedPoolIndices[uint8(rankAffected)][cardToTransformToIndex];\n            nfr.transformCard(relicTokenIds[i], cardToTransformTo);\n        }\n    }\n\n    function stake(uint256 tokenId) external {\n        require(nfr.ownerOf(tokenId) == msg.sender, \"MUST OWN TOKEN\");\n        require(isStaked[tokenId] == false, \"TOKEN ALREADY STAKED\");\n        (uint32 relicNum,uint32 relicCopyNum, , )  = nfr.publicArtifacts(tokenId);\n        require(relicNum != 0 && relicCopyNum != 0, \"STAKED ITEM MUST BE REVEALED\");\n        NFRTypes.Ranks relicRank = NFRTypes.getRank(relicNum);\n//        require(relicRank >= NFRTypes.Ranks.C, \"CARD MUST BE RANK C OR HIGHER TO STAKE\");\n        stakedPoolIndices[uint8(relicRank)].push(tokenId);\n\n        stakedPool[tokenId] = Stake({\n            stakeStart: block.timestamp,\n            redeemLast: block.timestamp,\n            rank: relicRank,\n            arrayIndex: stakedPoolIndices[uint8(relicRank)].length - 1,\n            defended: false\n        });\n        isStaked[tokenId] = true;\n    }\n\n    function redeemMerge(uint256 tokenId, bool unstakeToken) external returns(uint) {\n        require(nfr.ownerOf(tokenId) == msg.sender, \"MUST OWN TOKEN\");\n        require(isStaked[tokenId] == true, \"TOKEN NOT STAKED\");\n\n        require(block.timestamp - stakedPool[tokenId].stakeStart >= MINIMUM_STAKE_TIME, \"MUST STAKE FOR AT LEAST 3 DAYS\");\n\n        if (unstakeToken) {\n            unstake(tokenId);\n        }\n        // TODO: getMergeRate(rank,copyNum) function\n        uint amount = (block.timestamp - stakedPool[tokenId].redeemLast) * DAILY_MERGE_RATE[uint8(stakedPool[tokenId].rank)] / 1 days;\n        stakedPool[tokenId].redeemLast = block.timestamp;\n        merge.mint(msg.sender, amount);\n        return amount;\n    }\n\n\n    function unstake(uint256 tokenId) internal {\n        require(isStaked[tokenId] == true, \"TOKEN NOT STAKED\");\n\n        uint8 stakeRank = uint8(stakedPool[tokenId].rank);\n        uint stakeIndex = stakedPool[tokenId].arrayIndex;\n\n        // get last element to fill in gap\n        uint lastElement = stakedPoolIndices[stakeRank].length - 1;\n        uint256 lastElementTokenId = stakedPoolIndices[stakeRank][lastElement];\n        // set the hole to be the last element\n        stakedPoolIndices[stakeRank][stakeIndex] = lastElementTokenId;\n        // make sure the stake information reflects the new position (the gap we just filled in)\n        stakedPool[lastElementTokenId].arrayIndex = stakeIndex;\n        // remove the last element from array now (it has been moved elsewhere)\n        stakedPoolIndices[stakeRank].pop();\n\n        // delete the stake instance corresponding to token we're unstaking\n        delete stakedPool[tokenId];\n        isStaked[tokenId] = false;\n\n    }\n\n    function random() internal returns(uint){\n        _nonce += 1;\n        return uint(keccak256(abi.encodePacked(block.difficulty, block.timestamp, _nonce, msg.sender)));\n    }\n\n}\n",
  "sourcePath": "/home/prateek/NFR/onchain/contracts/BlackMarket.sol",
  "compiler": {
    "name": "solc",
    "version": "0.8.9+commit.e5eed63a.Emscripten.clang"
  },
  "schemaVersion": "3.4.3",
  "updatedAt": "2022-08-20T02:40:07.246Z",
  "networkType": "ethereum",
  "devdoc": {
    "kind": "dev",
    "methods": {},
    "version": 1
  },
  "userdoc": {
    "kind": "user",
    "methods": {},
    "version": 1
  }
}