{
  "contractName": "BlackMarket",
  "abi": [
    {
      "inputs": [
        {
          "internalType": "address",
          "name": "_nfr",
          "type": "address"
        },
        {
          "internalType": "address",
          "name": "_merge",
          "type": "address"
        },
        {
          "internalType": "address",
          "name": "_rareRelics",
          "type": "address"
        }
      ],
      "stateMutability": "nonpayable",
      "type": "constructor"
    },
    {
      "inputs": [
        {
          "internalType": "uint256",
          "name": "",
          "type": "uint256"
        }
      ],
      "name": "DAILY_MERGE_RATE",
      "outputs": [
        {
          "internalType": "uint256",
          "name": "",
          "type": "uint256"
        }
      ],
      "stateMutability": "view",
      "type": "function",
      "constant": true
    },
    {
      "inputs": [],
      "name": "MINIMUM_STAKE_TIME",
      "outputs": [
        {
          "internalType": "uint256",
          "name": "",
          "type": "uint256"
        }
      ],
      "stateMutability": "view",
      "type": "function",
      "constant": true
    },
    {
      "inputs": [
        {
          "internalType": "uint256",
          "name": "",
          "type": "uint256"
        }
      ],
      "name": "card_limits",
      "outputs": [
        {
          "internalType": "uint16",
          "name": "",
          "type": "uint16"
        }
      ],
      "stateMutability": "view",
      "type": "function",
      "constant": true
    },
    {
      "inputs": [
        {
          "internalType": "uint256",
          "name": "",
          "type": "uint256"
        }
      ],
      "name": "isStaked",
      "outputs": [
        {
          "internalType": "bool",
          "name": "",
          "type": "bool"
        }
      ],
      "stateMutability": "view",
      "type": "function",
      "constant": true
    },
    {
      "inputs": [
        {
          "internalType": "uint256",
          "name": "",
          "type": "uint256"
        }
      ],
      "name": "stakedPool",
      "outputs": [
        {
          "internalType": "uint256",
          "name": "stakeStart",
          "type": "uint256"
        },
        {
          "internalType": "uint256",
          "name": "redeemLast",
          "type": "uint256"
        },
        {
          "internalType": "enum NFRTypes.Ranks",
          "name": "rank",
          "type": "uint8"
        },
        {
          "internalType": "uint256",
          "name": "arrayIndex",
          "type": "uint256"
        },
        {
          "internalType": "bool",
          "name": "defended",
          "type": "bool"
        }
      ],
      "stateMutability": "view",
      "type": "function",
      "constant": true
    },
    {
      "inputs": [
        {
          "internalType": "uint256",
          "name": "spellTokenId",
          "type": "uint256"
        },
        {
          "internalType": "uint256[]",
          "name": "relicTokenIds",
          "type": "uint256[]"
        }
      ],
      "name": "useDefendSpell",
      "outputs": [],
      "stateMutability": "nonpayable",
      "type": "function"
    },
    {
      "inputs": [
        {
          "internalType": "uint256",
          "name": "spellTokenId",
          "type": "uint256"
        }
      ],
      "name": "useStealSpell",
      "outputs": [
        {
          "internalType": "uint8",
          "name": "",
          "type": "uint8"
        }
      ],
      "stateMutability": "nonpayable",
      "type": "function"
    },
    {
      "inputs": [
        {
          "internalType": "uint256",
          "name": "spellTokenId",
          "type": "uint256"
        },
        {
          "internalType": "uint256[]",
          "name": "relicTokenIds",
          "type": "uint256[]"
        }
      ],
      "name": "useSwapSpell",
      "outputs": [
        {
          "internalType": "uint8",
          "name": "",
          "type": "uint8"
        }
      ],
      "stateMutability": "nonpayable",
      "type": "function"
    },
    {
      "inputs": [
        {
          "internalType": "uint256",
          "name": "spellTokenId",
          "type": "uint256"
        },
        {
          "internalType": "uint256[]",
          "name": "relicTokenIds",
          "type": "uint256[]"
        }
      ],
      "name": "useDuplicateSpell",
      "outputs": [],
      "stateMutability": "nonpayable",
      "type": "function"
    },
    {
      "inputs": [
        {
          "internalType": "uint256",
          "name": "spellTokenId",
          "type": "uint256"
        },
        {
          "internalType": "uint256[]",
          "name": "relicTokenIds",
          "type": "uint256[]"
        }
      ],
      "name": "useTransformSpell",
      "outputs": [],
      "stateMutability": "nonpayable",
      "type": "function"
    },
    {
      "inputs": [
        {
          "internalType": "uint256",
          "name": "tokenId",
          "type": "uint256"
        }
      ],
      "name": "stake",
      "outputs": [],
      "stateMutability": "nonpayable",
      "type": "function"
    },
    {
      "inputs": [
        {
          "internalType": "uint256",
          "name": "tokenId",
          "type": "uint256"
        },
        {
          "internalType": "bool",
          "name": "unstakeToken",
          "type": "bool"
        }
      ],
      "name": "redeemMerge",
      "outputs": [
        {
          "internalType": "uint256",
          "name": "",
          "type": "uint256"
        }
      ],
      "stateMutability": "nonpayable",
      "type": "function"
    }
  ],
  "bytecode": "0x60806040526040518060a0016040528061060f61ffff16815260200161045761ffff16815260200161022b61ffff16815260200160d461ffff168152602001606561ffff16815250600390600562000059929190620001ec565b506040518060a0016040528067016345785d8a000067ffffffffffffffff1681526020016702c68af0bb14000067ffffffffffffffff1681526020016703782dace9d9000067ffffffffffffffff1681526020016706f05b59d3b2000067ffffffffffffffff168152602001670de0b6b3a764000067ffffffffffffffff168152506004906005620000ed92919062000290565b50348015620000fb57600080fd5b50604051620048423803806200484283398181016040528101906200012191906200036a565b826000806101000a81548173ffffffffffffffffffffffffffffffffffffffff021916908373ffffffffffffffffffffffffffffffffffffffff16021790555081600160006101000a81548173ffffffffffffffffffffffffffffffffffffffff021916908373ffffffffffffffffffffffffffffffffffffffff16021790555080600260006101000a81548173ffffffffffffffffffffffffffffffffffffffff021916908373ffffffffffffffffffffffffffffffffffffffff160217905550505050620003c6565b826005600f016010900481019282156200027d5791602002820160005b838211156200024b57835183826101000a81548161ffff021916908361ffff160217905550926020019260020160208160010104928301926001030262000209565b80156200027b5782816101000a81549061ffff02191690556002016020816001010492830192600103026200024b565b505b5090506200028c9190620002e1565b5090565b8260058101928215620002ce579160200282015b82811115620002cd578251829067ffffffffffffffff16905591602001919060010190620002a4565b5b509050620002dd9190620002e1565b5090565b5b80821115620002fc576000816000905550600101620002e2565b5090565b600080fd5b600073ffffffffffffffffffffffffffffffffffffffff82169050919050565b6000620003328262000305565b9050919050565b620003448162000325565b81146200035057600080fd5b50565b600081519050620003648162000339565b92915050565b60008060006060848603121562000386576200038562000300565b5b6000620003968682870162000353565b9350506020620003a98682870162000353565b9250506040620003bc8682870162000353565b9150509250925092565b61446c80620003d66000396000f3fe608060405234801561001057600080fd5b50600436106100b45760003560e01c8063748dbdb111610071578063748dbdb11461019d5780638b70e604146101cd578063a694fc3a146101eb578063ab17fd7114610207578063baa51f8614610237578063bd573ec714610267576100b4565b8063113a44b5146100b95780631583bcfd146100e957806319483b85146101055780631ea167d2146101215780633a02edc6146101515780633eadc0f014610181575b600080fd5b6100d360048036038101906100ce9190613108565b61029b565b6040516100e09190613144565b60405180910390f35b61010360048036038101906100fe91906132b8565b6102b6565b005b61011f600480360381019061011a91906132b8565b6108ff565b005b61013b60048036038101906101369190613108565b611063565b6040516101489190613330565b60405180910390f35b61016b60048036038101906101669190613383565b611636565b6040516101789190613144565b60405180910390f35b61019b600480360381019061019691906132b8565b61196c565b005b6101b760048036038101906101b29190613108565b611f59565b6040516101c491906133e0565b60405180910390f35b6101d5611f87565b6040516101e29190613144565b60405180910390f35b61020560048036038101906102009190613108565b611f8e565b005b610221600480360381019061021c91906132b8565b61241c565b60405161022e9190613330565b60405180910390f35b610251600480360381019061024c9190613108565b612dbf565b60405161025e919061340a565b60405180910390f35b610281600480360381019061027c9190613108565b612ddf565b60405161029295949392919061349c565b60405180910390f35b600481600581106102ab57600080fd5b016000915090505481565b3373ffffffffffffffffffffffffffffffffffffffff16600260009054906101000a900473ffffffffffffffffffffffffffffffffffffffff1673ffffffffffffffffffffffffffffffffffffffff16636352211e846040518263ffffffff1660e01b81526004016103289190613144565b60206040518083038186803b15801561034057600080fd5b505afa158015610354573d6000803e3d6000fd5b505050506040513d601f19601f82011682018060405250810190610378919061354d565b73ffffffffffffffffffffffffffffffffffffffff16146103ce576040517f08c379a00000000000000000000000000000000000000000000000000000000081526004016103c5906135d7565b60405180910390fd5b6000806000600260009054906101000a900473ffffffffffffffffffffffffffffffffffffffff1673ffffffffffffffffffffffffffffffffffffffff16635d5c6a45866040518263ffffffff1660e01b815260040161042e9190613144565b60606040518083038186803b15801561044657600080fd5b505afa15801561045a573d6000803e3d6000fd5b505050506040513d601f19601f8201168201806040525081019061047e919061366d565b9250925092506003600481111561049857610497613425565b5b8360048111156104ab576104aa613425565b5b146104eb576040517f08c379a00000000000000000000000000000000000000000000000000000000081526004016104e29061370c565b60405180910390fd5b8160ff1684511115610532576040517f08c379a00000000000000000000000000000000000000000000000000000000081526004016105299061379e565b60405180910390fd5b60005b84518110156107a5573373ffffffffffffffffffffffffffffffffffffffff1660008054906101000a900473ffffffffffffffffffffffffffffffffffffffff1673ffffffffffffffffffffffffffffffffffffffff16636352211e8784815181106105a4576105a36137be565b5b60200260200101516040518263ffffffff1660e01b81526004016105c89190613144565b60206040518083038186803b1580156105e057600080fd5b505afa1580156105f4573d6000803e3d6000fd5b505050506040513d601f19601f82011682018060405250810190610618919061354d565b73ffffffffffffffffffffffffffffffffffffffff161461066e576040517f08c379a000000000000000000000000000000000000000000000000000000000815260040161066590613839565b60405180910390fd5b6001151560096000878481518110610689576106886137be565b5b6020026020010151815260200190815260200160002060009054906101000a900460ff161515146106ef576040517f08c379a00000000000000000000000000000000000000000000000000000000081526004016106e6906138a5565b60405180910390fd5b81600681111561070257610701613425565b5b600a6000878481518110610719576107186137be565b5b6020026020010151815260200190815260200160002060020160009054906101000a900460ff16600681111561075257610751613425565b5b14610792576040517f08c379a000000000000000000000000000000000000000000000000000000000815260040161078990613911565b60405180910390fd5b808061079d90613960565b915050610535565b50600260009054906101000a900473ffffffffffffffffffffffffffffffffffffffff1673ffffffffffffffffffffffffffffffffffffffff16631f243d84866040518263ffffffff1660e01b81526004016108019190613144565b600060405180830381600087803b15801561081b57600080fd5b505af115801561082f573d6000803e3d6000fd5b5050505060005b84518110156108f75760008054906101000a900473ffffffffffffffffffffffffffffffffffffffff1673ffffffffffffffffffffffffffffffffffffffff1663dcb9a6eb86838151811061088e5761088d6137be565b5b60200260200101516040518263ffffffff1660e01b81526004016108b29190613144565b600060405180830381600087803b1580156108cc57600080fd5b505af11580156108e0573d6000803e3d6000fd5b5050505080806108ef90613960565b915050610836565b505050505050565b3373ffffffffffffffffffffffffffffffffffffffff16600260009054906101000a900473ffffffffffffffffffffffffffffffffffffffff1673ffffffffffffffffffffffffffffffffffffffff16636352211e846040518263ffffffff1660e01b81526004016109719190613144565b60206040518083038186803b15801561098957600080fd5b505afa15801561099d573d6000803e3d6000fd5b505050506040513d601f19601f820116820180604052508101906109c1919061354d565b73ffffffffffffffffffffffffffffffffffffffff1614610a17576040517f08c379a0000000000000000000000000000000000000000000000000000000008152600401610a0e906135d7565b60405180910390fd5b6000806000600260009054906101000a900473ffffffffffffffffffffffffffffffffffffffff1673ffffffffffffffffffffffffffffffffffffffff16635d5c6a45866040518263ffffffff1660e01b8152600401610a779190613144565b60606040518083038186803b158015610a8f57600080fd5b505afa158015610aa3573d6000803e3d6000fd5b505050506040513d601f19601f82011682018060405250810190610ac7919061366d565b925092509250600480811115610ae057610adf613425565b5b836004811115610af357610af2613425565b5b14610b33576040517f08c379a0000000000000000000000000000000000000000000000000000000008152600401610b2a906139f5565b60405180910390fd5b8160ff1684511115610b7a576040517f08c379a0000000000000000000000000000000000000000000000000000000008152600401610b7190613a87565b60405180910390fd5b600b6001826006811115610b9157610b90613425565b5b610b9b9190613aa7565b60ff1660058110610baf57610bae6137be565b5b018054905084511115610bf7576040517f08c379a0000000000000000000000000000000000000000000000000000000008152600401610bee90613b2a565b60405180910390fd5b60005b8451811015610e6a573373ffffffffffffffffffffffffffffffffffffffff1660008054906101000a900473ffffffffffffffffffffffffffffffffffffffff1673ffffffffffffffffffffffffffffffffffffffff16636352211e878481518110610c6957610c686137be565b5b60200260200101516040518263ffffffff1660e01b8152600401610c8d9190613144565b60206040518083038186803b158015610ca557600080fd5b505afa158015610cb9573d6000803e3d6000fd5b505050506040513d601f19601f82011682018060405250810190610cdd919061354d565b73ffffffffffffffffffffffffffffffffffffffff1614610d33576040517f08c379a0000000000000000000000000000000000000000000000000000000008152600401610d2a90613839565b60405180910390fd5b6001151560096000878481518110610d4e57610d4d6137be565b5b6020026020010151815260200190815260200160002060009054906101000a900460ff16151514610db4576040517f08c379a0000000000000000000000000000000000000000000000000000000008152600401610dab906138a5565b60405180910390fd5b816006811115610dc757610dc6613425565b5b600a6000878481518110610dde57610ddd6137be565b5b6020026020010151815260200190815260200160002060020160009054906101000a900460ff166006811115610e1757610e16613425565b5b14610e57576040517f08c379a0000000000000000000000000000000000000000000000000000000008152600401610e4e90613911565b60405180910390fd5b8080610e6290613960565b915050610bfa565b50600260009054906101000a900473ffffffffffffffffffffffffffffffffffffffff1673ffffffffffffffffffffffffffffffffffffffff16631f243d84866040518263ffffffff1660e01b8152600401610ec69190613144565b600060405180830381600087803b158015610ee057600080fd5b505af1158015610ef4573d6000803e3d6000fd5b5050505060005b845181101561105b576000600b6001846006811115610f1d57610f1c613425565b5b610f279190613aa7565b60ff1660058110610f3b57610f3a6137be565b5b0180549050610f48612e2f565b610f529190613b79565b90506000600b846006811115610f6b57610f6a613425565b5b60ff1660058110610f7f57610f7e6137be565b5b018281548110610f9257610f916137be565b5b9060005260206000200154905060008054906101000a900473ffffffffffffffffffffffffffffffffffffffff1673ffffffffffffffffffffffffffffffffffffffff1663e8ce4c23888581518110610fee57610fed6137be565b5b6020026020010151836040518363ffffffff1660e01b8152600401611014929190613baa565b600060405180830381600087803b15801561102e57600080fd5b505af1158015611042573d6000803e3d6000fd5b505050505050808061105390613960565b915050610efb565b505050505050565b60003373ffffffffffffffffffffffffffffffffffffffff16600260009054906101000a900473ffffffffffffffffffffffffffffffffffffffff1673ffffffffffffffffffffffffffffffffffffffff16636352211e846040518263ffffffff1660e01b81526004016110d79190613144565b60206040518083038186803b1580156110ef57600080fd5b505afa158015611103573d6000803e3d6000fd5b505050506040513d601f19601f82011682018060405250810190611127919061354d565b73ffffffffffffffffffffffffffffffffffffffff161461117d576040517f08c379a0000000000000000000000000000000000000000000000000000000008152600401611174906135d7565b60405180910390fd5b6000806000600260009054906101000a900473ffffffffffffffffffffffffffffffffffffffff1673ffffffffffffffffffffffffffffffffffffffff16635d5c6a45866040518263ffffffff1660e01b81526004016111dd9190613144565b60606040518083038186803b1580156111f557600080fd5b505afa158015611209573d6000803e3d6000fd5b505050506040513d601f19601f8201168201806040525081019061122d919061366d565b9250925092506001600481111561124757611246613425565b5b83600481111561125a57611259613425565b5b1461129a576040517f08c379a000000000000000000000000000000000000000000000000000000000815260040161129190613c1f565b60405180910390fd5b600b8160068111156112af576112ae613425565b5b60ff16600581106112c3576112c26137be565b5b01805490508260ff16111561130d576040517f08c379a000000000000000000000000000000000000000000000000000000000815260040161130490613cb1565b60405180910390fd5b600260009054906101000a900473ffffffffffffffffffffffffffffffffffffffff1673ffffffffffffffffffffffffffffffffffffffff16631f243d84866040518263ffffffff1660e01b81526004016113689190613144565b600060405180830381600087803b15801561138257600080fd5b505af1158015611396573d6000803e3d6000fd5b505050506000805b8360ff16811080156113dd57506000600b8460068111156113c2576113c1613425565b5b60ff16600581106113d6576113d56137be565b5b0180549050115b15611629576000600b8460068111156113f9576113f8613425565b5b60ff166005811061140d5761140c6137be565b5b018054905061141a612e2f565b6114249190613b79565b90506000600b85600681111561143d5761143c613425565b5b60ff1660058110611451576114506137be565b5b018281548110611464576114636137be565b5b90600052602060002001549050600a600082815260200190815260200160002060040160009054906101000a900460ff16156114ce576000600a600083815260200190815260200160002060040160006101000a81548160ff021916908315150217905550611614565b60008054906101000a900473ffffffffffffffffffffffffffffffffffffffff1673ffffffffffffffffffffffffffffffffffffffff1663234bfab660008054906101000a900473ffffffffffffffffffffffffffffffffffffffff1673ffffffffffffffffffffffffffffffffffffffff16636352211e846040518263ffffffff1660e01b81526004016115639190613144565b60206040518083038186803b15801561157b57600080fd5b505afa15801561158f573d6000803e3d6000fd5b505050506040513d601f19601f820116820180604052508101906115b3919061354d565b33846040518463ffffffff1660e01b81526004016115d393929190613ce0565b600060405180830381600087803b1580156115ed57600080fd5b505af1158015611601573d6000803e3d6000fd5b50505050838061161090613d17565b9450505b5050808061162190613960565b91505061139e565b5080945050505050919050565b60003373ffffffffffffffffffffffffffffffffffffffff1660008054906101000a900473ffffffffffffffffffffffffffffffffffffffff1673ffffffffffffffffffffffffffffffffffffffff16636352211e856040518263ffffffff1660e01b81526004016116a89190613144565b60206040518083038186803b1580156116c057600080fd5b505afa1580156116d4573d6000803e3d6000fd5b505050506040513d601f19601f820116820180604052508101906116f8919061354d565b73ffffffffffffffffffffffffffffffffffffffff161461174e576040517f08c379a000000000000000000000000000000000000000000000000000000000815260040161174590613d8d565b60405180910390fd5b600115156009600085815260200190815260200160002060009054906101000a900460ff161515146117b5576040517f08c379a00000000000000000000000000000000000000000000000000000000081526004016117ac906138a5565b60405180910390fd5b6203f480600a600085815260200190815260200160002060000154426117db9190613dad565b101561181c576040517f08c379a000000000000000000000000000000000000000000000000000000000815260040161181390613e2d565b60405180910390fd5b811561182c5761182b83612e82565b5b6000620151806004600a600087815260200190815260200160002060020160009054906101000a900460ff16600681111561186a57611869613425565b5b60ff166005811061187e5761187d6137be565b5b0154600a600087815260200190815260200160002060010154426118a29190613dad565b6118ac9190613e4d565b6118b69190613ea7565b905042600a600086815260200190815260200160002060010181905550600160009054906101000a900473ffffffffffffffffffffffffffffffffffffffff1673ffffffffffffffffffffffffffffffffffffffff166340c10f1933836040518363ffffffff1660e01b8152600401611930929190613ed8565b600060405180830381600087803b15801561194a57600080fd5b505af115801561195e573d6000803e3d6000fd5b505050508091505092915050565b3373ffffffffffffffffffffffffffffffffffffffff16600260009054906101000a900473ffffffffffffffffffffffffffffffffffffffff1673ffffffffffffffffffffffffffffffffffffffff16636352211e846040518263ffffffff1660e01b81526004016119de9190613144565b60206040518083038186803b1580156119f657600080fd5b505afa158015611a0a573d6000803e3d6000fd5b505050506040513d601f19601f82011682018060405250810190611a2e919061354d565b73ffffffffffffffffffffffffffffffffffffffff1614611a84576040517f08c379a0000000000000000000000000000000000000000000000000000000008152600401611a7b906135d7565b60405180910390fd5b6000806000600260009054906101000a900473ffffffffffffffffffffffffffffffffffffffff1673ffffffffffffffffffffffffffffffffffffffff16635d5c6a45866040518263ffffffff1660e01b8152600401611ae49190613144565b60606040518083038186803b158015611afc57600080fd5b505afa158015611b10573d6000803e3d6000fd5b505050506040513d601f19601f82011682018060405250810190611b34919061366d565b92509250925060006004811115611b4e57611b4d613425565b5b836004811115611b6157611b60613425565b5b14611ba1576040517f08c379a0000000000000000000000000000000000000000000000000000000008152600401611b9890613f4d565b60405180910390fd5b8160ff1684511115611be8576040517f08c379a0000000000000000000000000000000000000000000000000000000008152600401611bdf90613fdf565b60405180910390fd5b60005b8451811015611e5b573373ffffffffffffffffffffffffffffffffffffffff1660008054906101000a900473ffffffffffffffffffffffffffffffffffffffff1673ffffffffffffffffffffffffffffffffffffffff16636352211e878481518110611c5a57611c596137be565b5b60200260200101516040518263ffffffff1660e01b8152600401611c7e9190613144565b60206040518083038186803b158015611c9657600080fd5b505afa158015611caa573d6000803e3d6000fd5b505050506040513d601f19601f82011682018060405250810190611cce919061354d565b73ffffffffffffffffffffffffffffffffffffffff1614611d24576040517f08c379a0000000000000000000000000000000000000000000000000000000008152600401611d1b90613839565b60405180910390fd5b6001151560096000878481518110611d3f57611d3e6137be565b5b6020026020010151815260200190815260200160002060009054906101000a900460ff16151514611da5576040517f08c379a0000000000000000000000000000000000000000000000000000000008152600401611d9c906138a5565b60405180910390fd5b816006811115611db857611db7613425565b5b600a6000878481518110611dcf57611dce6137be565b5b6020026020010151815260200190815260200160002060020160009054906101000a900460ff166006811115611e0857611e07613425565b5b14611e48576040517f08c379a0000000000000000000000000000000000000000000000000000000008152600401611e3f90613911565b60405180910390fd5b8080611e5390613960565b915050611beb565b50600260009054906101000a900473ffffffffffffffffffffffffffffffffffffffff1673ffffffffffffffffffffffffffffffffffffffff16631f243d84866040518263ffffffff1660e01b8152600401611eb79190613144565b600060405180830381600087803b158015611ed157600080fd5b505af1158015611ee5573d6000803e3d6000fd5b5050505060005b8451811015611f51576001600a6000878481518110611f0e57611f0d6137be565b5b6020026020010151815260200190815260200160002060040160006101000a81548160ff0219169083151502179055508080611f4990613960565b915050611eec565b505050505050565b60038160058110611f6957600080fd5b60109182820401919006600202915054906101000a900461ffff1681565b6203f48081565b3373ffffffffffffffffffffffffffffffffffffffff1660008054906101000a900473ffffffffffffffffffffffffffffffffffffffff1673ffffffffffffffffffffffffffffffffffffffff16636352211e836040518263ffffffff1660e01b8152600401611ffe9190613144565b60206040518083038186803b15801561201657600080fd5b505afa15801561202a573d6000803e3d6000fd5b505050506040513d601f19601f8201168201806040525081019061204e919061354d565b73ffffffffffffffffffffffffffffffffffffffff16146120a4576040517f08c379a000000000000000000000000000000000000000000000000000000000815260040161209b90613d8d565b60405180910390fd5b600015156009600083815260200190815260200160002060009054906101000a900460ff1615151461210b576040517f08c379a00000000000000000000000000000000000000000000000000000000081526004016121029061404b565b60405180910390fd5b60008060008054906101000a900473ffffffffffffffffffffffffffffffffffffffff1673ffffffffffffffffffffffffffffffffffffffff1663efde66ec846040518263ffffffff1660e01b81526004016121679190613144565b60806040518083038186803b15801561217f57600080fd5b505afa158015612193573d6000803e3d6000fd5b505050506040513d601f19601f820116820180604052508101906121b791906140ac565b50509150915060008260ff16141580156121d6575060008161ffff1614155b612215576040517f08c379a000000000000000000000000000000000000000000000000000000000815260040161220c9061415f565b60405180910390fd5b600073__NFRTypes______________________________636be78364846040518263ffffffff1660e01b815260040161224e919061418e565b60206040518083038186803b15801561226657600080fd5b505af415801561227a573d6000803e3d6000fd5b505050506040513d601f19601f8201168201806040525081019061229e91906141a9565b9050600b8160068111156122b5576122b4613425565b5b60ff16600581106122c9576122c86137be565b5b018490806001815401808255809150506001900390600052602060002001600090919091909150556040518060a0016040528042815260200142815260200182600681111561231b5761231a613425565b5b81526020016001600b84600681111561233757612336613425565b5b60ff166005811061234b5761234a6137be565b5b018054905061235a9190613dad565b815260200160001515815250600a6000868152602001908152602001600020600082015181600001556020820151816001015560408201518160020160006101000a81548160ff021916908360068111156123b8576123b7613425565b5b02179055506060820151816003015560808201518160040160006101000a81548160ff02191690831515021790555090505060016009600086815260200190815260200160002060006101000a81548160ff02191690831515021790555050505050565b60003373ffffffffffffffffffffffffffffffffffffffff16600260009054906101000a900473ffffffffffffffffffffffffffffffffffffffff1673ffffffffffffffffffffffffffffffffffffffff16636352211e856040518263ffffffff1660e01b81526004016124909190613144565b60206040518083038186803b1580156124a857600080fd5b505afa1580156124bc573d6000803e3d6000fd5b505050506040513d601f19601f820116820180604052508101906124e0919061354d565b73ffffffffffffffffffffffffffffffffffffffff1614612536576040517f08c379a000000000000000000000000000000000000000000000000000000000815260040161252d906135d7565b60405180910390fd5b6000806000600260009054906101000a900473ffffffffffffffffffffffffffffffffffffffff1673ffffffffffffffffffffffffffffffffffffffff16635d5c6a45876040518263ffffffff1660e01b81526004016125969190613144565b60606040518083038186803b1580156125ae57600080fd5b505afa1580156125c2573d6000803e3d6000fd5b505050506040513d601f19601f820116820180604052508101906125e6919061366d565b92509250925060026004811115612600576125ff613425565b5b83600481111561261357612612613425565b5b14612653576040517f08c379a000000000000000000000000000000000000000000000000000000000815260040161264a90613f4d565b60405180910390fd5b8160ff168551111561269a576040517f08c379a000000000000000000000000000000000000000000000000000000000815260040161269190614248565b60405180910390fd5b600b8160068111156126af576126ae613425565b5b60ff16600581106126c3576126c26137be565b5b01805490508551111561270b576040517f08c379a0000000000000000000000000000000000000000000000000000000008152600401612702906142da565b60405180910390fd5b60005b855181101561297e573373ffffffffffffffffffffffffffffffffffffffff1660008054906101000a900473ffffffffffffffffffffffffffffffffffffffff1673ffffffffffffffffffffffffffffffffffffffff16636352211e88848151811061277d5761277c6137be565b5b60200260200101516040518263ffffffff1660e01b81526004016127a19190613144565b60206040518083038186803b1580156127b957600080fd5b505afa1580156127cd573d6000803e3d6000fd5b505050506040513d601f19601f820116820180604052508101906127f1919061354d565b73ffffffffffffffffffffffffffffffffffffffff1614612847576040517f08c379a000000000000000000000000000000000000000000000000000000000815260040161283e90613839565b60405180910390fd5b6001151560096000888481518110612862576128616137be565b5b6020026020010151815260200190815260200160002060009054906101000a900460ff161515146128c8576040517f08c379a00000000000000000000000000000000000000000000000000000000081526004016128bf906138a5565b60405180910390fd5b8160068111156128db576128da613425565b5b600a60008884815181106128f2576128f16137be565b5b6020026020010151815260200190815260200160002060020160009054906101000a900460ff16600681111561292b5761292a613425565b5b1461296b576040517f08c379a000000000000000000000000000000000000000000000000000000000815260040161296290613911565b60405180910390fd5b808061297690613960565b91505061270e565b50600260009054906101000a900473ffffffffffffffffffffffffffffffffffffffff1673ffffffffffffffffffffffffffffffffffffffff16631f243d84876040518263ffffffff1660e01b81526004016129da9190613144565b600060405180830381600087803b1580156129f457600080fd5b505af1158015612a08573d6000803e3d6000fd5b505050506000805b8651811015612db1576000600b846006811115612a3057612a2f613425565b5b60ff1660058110612a4457612a436137be565b5b0180549050612a51612e2f565b612a5b9190613b79565b90506000600b856006811115612a7457612a73613425565b5b60ff1660058110612a8857612a876137be565b5b018281548110612a9b57612a9a6137be565b5b90600052602060002001549050600a600082815260200190815260200160002060040160009054906101000a900460ff1615612b05576000600a600083815260200190815260200160002060040160006101000a81548160ff021916908315150217905550612d9c565b60008054906101000a900473ffffffffffffffffffffffffffffffffffffffff1673ffffffffffffffffffffffffffffffffffffffff1663234bfab63360008054906101000a900473ffffffffffffffffffffffffffffffffffffffff1673ffffffffffffffffffffffffffffffffffffffff16636352211e856040518263ffffffff1660e01b8152600401612b9b9190613144565b60206040518083038186803b158015612bb357600080fd5b505afa158015612bc7573d6000803e3d6000fd5b505050506040513d601f19601f82011682018060405250810190612beb919061354d565b8c8781518110612bfe57612bfd6137be565b5b60200260200101516040518463ffffffff1660e01b8152600401612c2493929190613ce0565b600060405180830381600087803b158015612c3e57600080fd5b505af1158015612c52573d6000803e3d6000fd5b5050505060008054906101000a900473ffffffffffffffffffffffffffffffffffffffff1673ffffffffffffffffffffffffffffffffffffffff1663234bfab660008054906101000a900473ffffffffffffffffffffffffffffffffffffffff1673ffffffffffffffffffffffffffffffffffffffff16636352211e846040518263ffffffff1660e01b8152600401612ceb9190613144565b60206040518083038186803b158015612d0357600080fd5b505afa158015612d17573d6000803e3d6000fd5b505050506040513d601f19601f82011682018060405250810190612d3b919061354d565b33846040518463ffffffff1660e01b8152600401612d5b93929190613ce0565b600060405180830381600087803b158015612d7557600080fd5b505af1158015612d89573d6000803e3d6000fd5b505050508380612d9890613d17565b9450505b50508080612da990613960565b915050612a10565b508094505050505092915050565b60096020528060005260406000206000915054906101000a900460ff1681565b600a6020528060005260406000206000915090508060000154908060010154908060020160009054906101000a900460ff16908060030154908060040160009054906101000a900460ff16905085565b6000600160106000828254612e4491906142fa565b92505081905550444260105433604051602001612e6494939291906143b9565b6040516020818303038152906040528051906020012060001c905090565b600115156009600083815260200190815260200160002060009054906101000a900460ff16151514612ee9576040517f08c379a0000000000000000000000000000000000000000000000000000000008152600401612ee0906138a5565b60405180910390fd5b6000600a600083815260200190815260200160002060020160009054906101000a900460ff166006811115612f2157612f20613425565b5b90506000600a600084815260200190815260200160002060030154905060006001600b8460ff1660058110612f5957612f586137be565b5b0180549050612f689190613dad565b90506000600b8460ff1660058110612f8357612f826137be565b5b018281548110612f9657612f956137be565b5b9060005260206000200154905080600b8560ff1660058110612fbb57612fba6137be565b5b018481548110612fce57612fcd6137be565b5b906000526020600020018190555082600a600083815260200190815260200160002060030181905550600b8460ff166005811061300e5761300d6137be565b5b0180548061301f5761301e614407565b5b60019003818190600052602060002001600090559055600a600086815260200190815260200160002060008082016000905560018201600090556002820160006101000a81549060ff021916905560038201600090556004820160006101000a81549060ff0219169055505060006009600087815260200190815260200160002060006101000a81548160ff0219169083151502179055505050505050565b6000604051905090565b600080fd5b600080fd5b6000819050919050565b6130e5816130d2565b81146130f057600080fd5b50565b600081359050613102816130dc565b92915050565b60006020828403121561311e5761311d6130c8565b5b600061312c848285016130f3565b91505092915050565b61313e816130d2565b82525050565b60006020820190506131596000830184613135565b92915050565b600080fd5b6000601f19601f8301169050919050565b7f4e487b7100000000000000000000000000000000000000000000000000000000600052604160045260246000fd5b6131ad82613164565b810181811067ffffffffffffffff821117156131cc576131cb613175565b5b80604052505050565b60006131df6130be565b90506131eb82826131a4565b919050565b600067ffffffffffffffff82111561320b5761320a613175565b5b602082029050602081019050919050565b600080fd5b600061323461322f846131f0565b6131d5565b905080838252602082019050602084028301858111156132575761325661321c565b5b835b81811015613280578061326c88826130f3565b845260208401935050602081019050613259565b5050509392505050565b600082601f83011261329f5761329e61315f565b5b81356132af848260208601613221565b91505092915050565b600080604083850312156132cf576132ce6130c8565b5b60006132dd858286016130f3565b925050602083013567ffffffffffffffff8111156132fe576132fd6130cd565b5b61330a8582860161328a565b9150509250929050565b600060ff82169050919050565b61332a81613314565b82525050565b60006020820190506133456000830184613321565b92915050565b60008115159050919050565b6133608161334b565b811461336b57600080fd5b50565b60008135905061337d81613357565b92915050565b6000806040838503121561339a576133996130c8565b5b60006133a8858286016130f3565b92505060206133b98582860161336e565b9150509250929050565b600061ffff82169050919050565b6133da816133c3565b82525050565b60006020820190506133f560008301846133d1565b92915050565b6134048161334b565b82525050565b600060208201905061341f60008301846133fb565b92915050565b7f4e487b7100000000000000000000000000000000000000000000000000000000600052602160045260246000fd5b6007811061346557613464613425565b5b50565b600081905061347682613454565b919050565b600061348682613468565b9050919050565b6134968161347b565b82525050565b600060a0820190506134b16000830188613135565b6134be6020830187613135565b6134cb604083018661348d565b6134d86060830185613135565b6134e560808301846133fb565b9695505050505050565b600073ffffffffffffffffffffffffffffffffffffffff82169050919050565b600061351a826134ef565b9050919050565b61352a8161350f565b811461353557600080fd5b50565b60008151905061354781613521565b92915050565b600060208284031215613563576135626130c8565b5b600061357184828501613538565b91505092915050565b600082825260208201905092915050565b7f4d555354204f574e205350454c4c20544f4b454e000000000000000000000000600082015250565b60006135c160148361357a565b91506135cc8261358b565b602082019050919050565b600060208201905081810360008301526135f0816135b4565b9050919050565b6005811061360457600080fd5b50565b600081519050613616816135f7565b92915050565b61362581613314565b811461363057600080fd5b50565b6000815190506136428161361c565b92915050565b6007811061365557600080fd5b50565b60008151905061366781613648565b92915050565b600080600060608486031215613686576136856130c8565b5b600061369486828701613607565b93505060206136a586828701613633565b92505060406136b686828701613658565b9150509250925092565b7f4d55535420494e505554204455504c4943415445205350454c4c000000000000600082015250565b60006136f6601a8361357a565b9150613701826136c0565b602082019050919050565b60006020820190508181036000830152613725816136e9565b9050919050565b7f4d4f5245204341524453204455504c494341544544205448414e205350454c4c60008201527f20414c4c4f575300000000000000000000000000000000000000000000000000602082015250565b600061378860278361357a565b91506137938261372c565b604082019050919050565b600060208201905081810360008301526137b78161377b565b9050919050565b7f4e487b7100000000000000000000000000000000000000000000000000000000600052603260045260246000fd5b7f4d555354204f574e2052454c4943000000000000000000000000000000000000600082015250565b6000613823600e8361357a565b915061382e826137ed565b602082019050919050565b6000602082019050818103600083015261385281613816565b9050919050565b7f544f4b454e204e4f54205354414b454400000000000000000000000000000000600082015250565b600061388f60108361357a565b915061389a82613859565b602082019050919050565b600060208201905081810360008301526138be81613882565b9050919050565b7f52414e4b20444f45534e54204d41544348205350454c4c000000000000000000600082015250565b60006138fb60178361357a565b9150613906826138c5565b602082019050919050565b6000602082019050818103600083015261392a816138ee565b9050919050565b7f4e487b7100000000000000000000000000000000000000000000000000000000600052601160045260246000fd5b600061396b826130d2565b91507fffffffffffffffffffffffffffffffffffffffffffffffffffffffffffffffff82141561399e5761399d613931565b5b600182019050919050565b7f4d55535420494e505554205452414e53464f524d205350454c4c000000000000600082015250565b60006139df601a8361357a565b91506139ea826139a9565b602082019050919050565b60006020820190508181036000830152613a0e816139d2565b9050919050565b7f43414e54205452414e53464f524d204d4f5245204341524453205448414e205360008201527f50454c4c20414c4c4f5753000000000000000000000000000000000000000000602082015250565b6000613a71602b8361357a565b9150613a7c82613a15565b604082019050919050565b60006020820190508181036000830152613aa081613a64565b9050919050565b6000613ab282613314565b9150613abd83613314565b92508260ff03821115613ad357613ad2613931565b5b828201905092915050565b7f4e4f5420454e4f55474820434152445320494e205452414e53464f524d20544f600082015250565b6000613b1460208361357a565b9150613b1f82613ade565b602082019050919050565b60006020820190508181036000830152613b4381613b07565b9050919050565b7f4e487b7100000000000000000000000000000000000000000000000000000000600052601260045260246000fd5b6000613b84826130d2565b9150613b8f836130d2565b925082613b9f57613b9e613b4a565b5b828206905092915050565b6000604082019050613bbf6000830185613135565b613bcc6020830184613135565b9392505050565b7f4d55535420494e50555420535445414c205350454c4c00000000000000000000600082015250565b6000613c0960168361357a565b9150613c1482613bd3565b602082019050919050565b60006020820190508181036000830152613c3881613bfc565b9050919050565b7f4e4f5420454e4f55474820434152445320494e205354414b4520504f4f4c205460008201527f4f20535445414c00000000000000000000000000000000000000000000000000602082015250565b6000613c9b60278361357a565b9150613ca682613c3f565b604082019050919050565b60006020820190508181036000830152613cca81613c8e565b9050919050565b613cda8161350f565b82525050565b6000606082019050613cf56000830186613cd1565b613d026020830185613cd1565b613d0f6040830184613135565b949350505050565b6000613d2282613314565b915060ff821415613d3657613d35613931565b5b600182019050919050565b7f4d555354204f574e20544f4b454e000000000000000000000000000000000000600082015250565b6000613d77600e8361357a565b9150613d8282613d41565b602082019050919050565b60006020820190508181036000830152613da681613d6a565b9050919050565b6000613db8826130d2565b9150613dc3836130d2565b925082821015613dd657613dd5613931565b5b828203905092915050565b7f4d555354205354414b4520464f52204154204c45415354203320444159530000600082015250565b6000613e17601e8361357a565b9150613e2282613de1565b602082019050919050565b60006020820190508181036000830152613e4681613e0a565b9050919050565b6000613e58826130d2565b9150613e63836130d2565b9250817fffffffffffffffffffffffffffffffffffffffffffffffffffffffffffffffff0483118215151615613e9c57613e9b613931565b5b828202905092915050565b6000613eb2826130d2565b9150613ebd836130d2565b925082613ecd57613ecc613b4a565b5b828204905092915050565b6000604082019050613eed6000830185613cd1565b613efa6020830184613135565b9392505050565b7f4d55535420494e50555420444546454e44205350454c4c000000000000000000600082015250565b6000613f3760178361357a565b9150613f4282613f01565b602082019050919050565b60006020820190508181036000830152613f6681613f2a565b9050919050565b7f4d4f524520434152445320444546454e444544205448414e205350454c4c204160008201527f4c4c4f5753000000000000000000000000000000000000000000000000000000602082015250565b6000613fc960258361357a565b9150613fd482613f6d565b604082019050919050565b60006020820190508181036000830152613ff881613fbc565b9050919050565b7f544f4b454e20414c5245414459205354414b4544000000000000000000000000600082015250565b600061403560148361357a565b915061404082613fff565b602082019050919050565b6000602082019050818103600083015261406481614028565b9050919050565b614074816133c3565b811461407f57600080fd5b50565b6000815190506140918161406b565b92915050565b6000815190506140a6816130dc565b92915050565b600080600080608085870312156140c6576140c56130c8565b5b60006140d487828801613633565b94505060206140e587828801614082565b93505060406140f687828801614097565b925050606061410787828801614097565b91505092959194509250565b7f5354414b4544204954454d204d5553542042452052455645414c454400000000600082015250565b6000614149601c8361357a565b915061415482614113565b602082019050919050565b600060208201905081810360008301526141788161413c565b9050919050565b61418881613314565b82525050565b60006020820190506141a3600083018461417f565b92915050565b6000602082840312156141bf576141be6130c8565b5b60006141cd84828501613658565b91505092915050565b7f43414e542053574150204d4f5245204341524453205448414e205350454c4c2060008201527f414c4c4f57530000000000000000000000000000000000000000000000000000602082015250565b600061423260268361357a565b915061423d826141d6565b604082019050919050565b6000602082019050818103600083015261426181614225565b9050919050565b7f4e4f5420454e4f55474820434152445320494e205354414b4520504f4f4c205460008201527f4f20535741502057495448000000000000000000000000000000000000000000602082015250565b60006142c4602b8361357a565b91506142cf82614268565b604082019050919050565b600060208201905081810360008301526142f3816142b7565b9050919050565b6000614305826130d2565b9150614310836130d2565b9250827fffffffffffffffffffffffffffffffffffffffffffffffffffffffffffffffff0382111561434557614344613931565b5b828201905092915050565b6000819050919050565b61436b614366826130d2565b614350565b82525050565b60008160601b9050919050565b600061438982614371565b9050919050565b600061439b8261437e565b9050919050565b6143b36143ae8261350f565b614390565b82525050565b60006143c5828761435a565b6020820191506143d5828661435a565b6020820191506143e5828561435a565b6020820191506143f582846143a2565b60148201915081905095945050505050565b7f4e487b7100000000000000000000000000000000000000000000000000000000600052603160045260246000fdfea26469706673582212202f880ab3bd4df6eaa2ec85393d0ea637716f577dcba5be707179a7f3ee482f6d64736f6c63430008090033",
  "immutableReferences": {},
  "source": "pragma solidity ^0.8.0;\nimport \"./NFR.sol\";\nimport \"./MERGE.sol\";\nimport \"./RareRelics.sol\";\nimport \"./NFRTypes.sol\";\n\ncontract BlackMarket {\n\n    NFR nfr;\n    MERGE merge;\n    RareRelics rareRelics;\n\n    uint16[5] public card_limits = [1551,1111,555,212,101];\n\n    uint256 public constant MINIMUM_STAKE_TIME = 3 days;\n    uint256[5] public DAILY_MERGE_RATE = [(1 ether)/10,(1 ether)/5,(1 ether)/4,(1 ether)/2,(1 ether)];\n\n    struct Stake {\n        uint stakeStart;\n        uint redeemLast;\n        NFRTypes.Ranks rank;\n        uint arrayIndex;\n        bool defended;\n    }\n\n    mapping(uint256 => bool) public isStaked;\n    mapping(uint256 => Stake) public stakedPool;\n    uint256[][5] private stakedPoolIndices;\n\n    uint256 private _nonce;\n\n    constructor(address _nfr, address _merge, address _rareRelics) {\n        nfr = NFR(_nfr);\n        merge = MERGE(_merge);\n        rareRelics = RareRelics(_rareRelics);\n    }\n\n    function useDefendSpell(uint256 spellTokenId, uint256[] memory relicTokenIds) external {\n        require (rareRelics.ownerOf(spellTokenId) == msg.sender, \"MUST OWN SPELL TOKEN\"); // must own spell card being used\n        (RareRelics.SpellTypes spellType,uint8 numCardsAffected,NFRTypes.Ranks rankAffected) = rareRelics.spells(spellTokenId);\n        require (spellType == RareRelics.SpellTypes.DEFEND, \"MUST INPUT DEFEND SPELL\");\n        require (relicTokenIds.length <= numCardsAffected, \"MORE CARDS DEFENDED THAN SPELL ALLOWS\");\n\n        for (uint256 i = 0; i < relicTokenIds.length; i++) {\n            require (nfr.ownerOf(relicTokenIds[i]) == msg.sender, \"MUST OWN RELIC\");\n            require (isStaked[relicTokenIds[i]] == true, \"TOKEN NOT STAKED\");\n            require (stakedPool[relicTokenIds[i]].rank == rankAffected, \"RANK DOESNT MATCH SPELL\");\n        }\n\n        rareRelics.useSpell(spellTokenId);\n\n        for (uint256 i = 0; i < relicTokenIds.length; i++) {\n            stakedPool[relicTokenIds[i]].defended = true;\n        }\n    }\n\n    function useStealSpell(uint256 spellTokenId) external returns(uint8){\n        require (rareRelics.ownerOf(spellTokenId) == msg.sender, \"MUST OWN SPELL TOKEN\"); // must own spell card being used\n        (RareRelics.SpellTypes spellType,uint8 numCardsAffected,NFRTypes.Ranks rankAffected) = rareRelics.spells(spellTokenId);\n        require (spellType == RareRelics.SpellTypes.STEAL, \"MUST INPUT STEAL SPELL\");\n        require (numCardsAffected <= stakedPoolIndices[uint8(rankAffected)].length, \"NOT ENOUGH CARDS IN STAKE POOL TO STEAL\");\n\n        rareRelics.useSpell(spellTokenId);\n\n        uint8 cardsSuccessfullyStolen = 0;\n        for (uint i = 0; i < numCardsAffected && stakedPoolIndices[uint8(rankAffected)].length > 0; i++) {\n            uint256 cardToStealIndex = random() % stakedPoolIndices[uint8(rankAffected)].length;\n            uint256 cardToSteal = stakedPoolIndices[uint8(rankAffected)][cardToStealIndex];\n            if (stakedPool[cardToSteal].defended){\n                // if card is defended then defense has been used\n                stakedPool[cardToSteal].defended = false;\n            }\n            else {\n                nfr.stealCard(nfr.ownerOf(cardToSteal),msg.sender,cardToSteal);\n//                nfr.transferFrom(nfr.ownerOf(cardToSteal),msg.sender,cardToSteal);\n                cardsSuccessfullyStolen++;\n            }\n        }\n\n        return cardsSuccessfullyStolen;\n    }\n\n    function useSwapSpell(uint256 spellTokenId, uint256[] memory relicTokenIds) external returns(uint8){\n        require (rareRelics.ownerOf(spellTokenId) == msg.sender, \"MUST OWN SPELL TOKEN\"); // must own spell card being used\n        (RareRelics.SpellTypes spellType,uint8 numCardsAffected,NFRTypes.Ranks rankAffected) = rareRelics.spells(spellTokenId);\n        require (spellType == RareRelics.SpellTypes.SWAP, \"MUST INPUT DEFEND SPELL\");\n        require (relicTokenIds.length <= numCardsAffected, \"CANT SWAP MORE CARDS THAN SPELL ALLOWS\");\n        require (relicTokenIds.length <= stakedPoolIndices[uint8(rankAffected)].length, \"NOT ENOUGH CARDS IN STAKE POOL TO SWAP WITH\");\n\n        for (uint256 i = 0; i < relicTokenIds.length; i++) {\n            require (nfr.ownerOf(relicTokenIds[i]) == msg.sender, \"MUST OWN RELIC\");\n            require (isStaked[relicTokenIds[i]] == true, \"TOKEN NOT STAKED\");\n            require (stakedPool[relicTokenIds[i]].rank == rankAffected, \"RANK DOESNT MATCH SPELL\");\n        }\n\n        rareRelics.useSpell(spellTokenId);\n\n        uint8 cardsSuccessfullySwapped = 0;\n        for (uint256 i = 0; i < relicTokenIds.length; i++) {\n            uint256 cardToStealIndex = random() % stakedPoolIndices[uint8(rankAffected)].length;\n            uint256 cardToSteal = stakedPoolIndices[uint8(rankAffected)][cardToStealIndex];\n            if (stakedPool[cardToSteal].defended) {\n                // if card is defended then defense has been used\n                stakedPool[cardToSteal].defended = false;\n            }\n            else {\n                // random person steals the relic you put up\n                nfr.stealCard(msg.sender, nfr.ownerOf(cardToSteal), relicTokenIds[i]);\n                // you steal the relic they put up\n                nfr.stealCard(nfr.ownerOf(cardToSteal),msg.sender,cardToSteal);\n\n                cardsSuccessfullySwapped++;\n            }\n        }\n        return cardsSuccessfullySwapped;\n    }\n\n    function useDuplicateSpell(uint256 spellTokenId, uint256[] memory relicTokenIds) external {\n        require (rareRelics.ownerOf(spellTokenId) == msg.sender, \"MUST OWN SPELL TOKEN\"); // must own spell card being used\n        (RareRelics.SpellTypes spellType,uint8 numCardsAffected,NFRTypes.Ranks rankAffected) = rareRelics.spells(spellTokenId);\n        require (spellType == RareRelics.SpellTypes.DUPLICATE, \"MUST INPUT DUPLICATE SPELL\");\n        require (relicTokenIds.length <= numCardsAffected, \"MORE CARDS DUPLICATED THAN SPELL ALLOWS\");\n\n        for (uint256 i = 0; i < relicTokenIds.length; i++) {\n            require (nfr.ownerOf(relicTokenIds[i]) == msg.sender, \"MUST OWN RELIC\");\n            require (isStaked[relicTokenIds[i]] == true, \"TOKEN NOT STAKED\");\n            require (stakedPool[relicTokenIds[i]].rank == rankAffected, \"RANK DOESNT MATCH SPELL\");\n        }\n\n        rareRelics.useSpell(spellTokenId);\n\n        for (uint256 i = 0; i < relicTokenIds.length; i++) {\n            nfr.duplicateCard(relicTokenIds[i]);\n        }\n    }\n\n    function useTransformSpell(uint256 spellTokenId, uint256[] memory relicTokenIds) external {\n        require (rareRelics.ownerOf(spellTokenId) == msg.sender, \"MUST OWN SPELL TOKEN\"); // must own spell card being used\n        (RareRelics.SpellTypes spellType,uint8 numCardsAffected,NFRTypes.Ranks rankAffected) = rareRelics.spells(spellTokenId);\n        require (spellType == RareRelics.SpellTypes.TRANSFORM, \"MUST INPUT TRANSFORM SPELL\");\n        require (relicTokenIds.length <= numCardsAffected, \"CANT TRANSFORM MORE CARDS THAN SPELL ALLOWS\");\n        require (relicTokenIds.length <= stakedPoolIndices[uint8(rankAffected) + 1].length, \"NOT ENOUGH CARDS IN TRANSFORM TO\");\n\n        for (uint256 i = 0; i < relicTokenIds.length; i++) {\n            require (nfr.ownerOf(relicTokenIds[i]) == msg.sender, \"MUST OWN RELIC\");\n            require (isStaked[relicTokenIds[i]] == true, \"TOKEN NOT STAKED\");\n            require (stakedPool[relicTokenIds[i]].rank == rankAffected, \"RANK DOESNT MATCH SPELL\");\n        }\n\n        rareRelics.useSpell(spellTokenId);\n\n        for (uint256 i = 0; i < relicTokenIds.length; i++) {\n            uint256 cardToTransformToIndex = random() % stakedPoolIndices[uint8(rankAffected)+1].length;\n            uint256 cardToTransformTo = stakedPoolIndices[uint8(rankAffected)][cardToTransformToIndex];\n            nfr.transformCard(relicTokenIds[i], cardToTransformTo);\n        }\n    }\n\n    function stake(uint256 tokenId) external {\n        require(nfr.ownerOf(tokenId) == msg.sender, \"MUST OWN TOKEN\");\n        require(isStaked[tokenId] == false, \"TOKEN ALREADY STAKED\");\n        (uint8 relicNum,uint16 relicCopyNum, , )  = nfr.publicArtifacts(tokenId);\n        require(relicNum != 0 && relicCopyNum != 0, \"STAKED ITEM MUST BE REVEALED\");\n        NFRTypes.Ranks relicRank = NFRTypes.getRank(relicNum);\n//        require(relicRank >= NFRTypes.Ranks.C, \"CARD MUST BE RANK C OR HIGHER TO STAKE\");\n        stakedPoolIndices[uint8(relicRank)].push(tokenId);\n\n        stakedPool[tokenId] = Stake({\n            stakeStart: block.timestamp,\n            redeemLast: block.timestamp,\n            rank: relicRank,\n            arrayIndex: stakedPoolIndices[uint8(relicRank)].length - 1,\n            defended: false\n        });\n        isStaked[tokenId] = true;\n    }\n\n    function redeemMerge(uint256 tokenId, bool unstakeToken) external returns(uint) {\n        require(nfr.ownerOf(tokenId) == msg.sender, \"MUST OWN TOKEN\");\n        require(isStaked[tokenId] == true, \"TOKEN NOT STAKED\");\n\n        require(block.timestamp - stakedPool[tokenId].stakeStart >= MINIMUM_STAKE_TIME, \"MUST STAKE FOR AT LEAST 3 DAYS\");\n\n        if (unstakeToken) {\n            unstake(tokenId);\n        }\n        // TODO: getMergeRate(rank,copyNum) function\n        uint amount = (block.timestamp - stakedPool[tokenId].redeemLast) * DAILY_MERGE_RATE[uint8(stakedPool[tokenId].rank)] / 1 days;\n        stakedPool[tokenId].redeemLast = block.timestamp;\n        merge.mint(msg.sender, amount);\n        return amount;\n    }\n\n\n    function unstake(uint256 tokenId) internal {\n        require(isStaked[tokenId] == true, \"TOKEN NOT STAKED\");\n\n        uint8 stakeRank = uint8(stakedPool[tokenId].rank);\n        uint stakeIndex = stakedPool[tokenId].arrayIndex;\n\n        // get last element to fill in gap\n        uint lastElement = stakedPoolIndices[stakeRank].length - 1;\n        uint256 lastElementTokenId = stakedPoolIndices[stakeRank][lastElement];\n        // set the hole to be the last element\n        stakedPoolIndices[stakeRank][stakeIndex] = lastElementTokenId;\n        // make sure the stake information reflects the new position (the gap we just filled in)\n        stakedPool[lastElementTokenId].arrayIndex = stakeIndex;\n        // remove the last element from array now (it has been moved elsewhere)\n        stakedPoolIndices[stakeRank].pop();\n\n        // delete the stake instance corresponding to token we're unstaking\n        delete stakedPool[tokenId];\n        isStaked[tokenId] = false;\n\n    }\n\n    function random() internal returns(uint){\n        _nonce += 1;\n        return uint(keccak256(abi.encodePacked(block.difficulty, block.timestamp, _nonce, msg.sender)));\n    }\n\n}\n",
  "sourcePath": "/home/prateek/NFR/onchain/contracts/BlackMarket.sol",
  "compiler": {
    "name": "solc",
    "version": "0.8.9+commit.e5eed63a.Emscripten.clang"
  },
  "schemaVersion": "3.4.3",
  "updatedAt": "2022-05-26T19:05:58.595Z",
  "networkType": "ethereum",
  "devdoc": {
    "kind": "dev",
    "methods": {},
    "version": 1
  },
  "userdoc": {
    "kind": "user",
    "methods": {},
    "version": 1
  }
}