{
  "contractName": "MergeZKP",
  "abi": [
    {
      "inputs": [
        {
          "components": [
            {
              "components": [
                {
                  "internalType": "uint256",
                  "name": "X",
                  "type": "uint256"
                },
                {
                  "internalType": "uint256",
                  "name": "Y",
                  "type": "uint256"
                }
              ],
              "internalType": "struct Pairing.G1Point",
              "name": "a",
              "type": "tuple"
            },
            {
              "components": [
                {
                  "internalType": "uint256[2]",
                  "name": "X",
                  "type": "uint256[2]"
                },
                {
                  "internalType": "uint256[2]",
                  "name": "Y",
                  "type": "uint256[2]"
                }
              ],
              "internalType": "struct Pairing.G2Point",
              "name": "b",
              "type": "tuple"
            },
            {
              "components": [
                {
                  "internalType": "uint256",
                  "name": "X",
                  "type": "uint256"
                },
                {
                  "internalType": "uint256",
                  "name": "Y",
                  "type": "uint256"
                }
              ],
              "internalType": "struct Pairing.G1Point",
              "name": "c",
              "type": "tuple"
            }
          ],
          "internalType": "struct MergeZKP.Proof",
          "name": "proof",
          "type": "tuple"
        },
        {
          "internalType": "uint256[39]",
          "name": "input",
          "type": "uint256[39]"
        }
      ],
      "name": "verifyTx",
      "outputs": [
        {
          "internalType": "bool",
          "name": "r",
          "type": "bool"
        }
      ],
      "stateMutability": "view",
      "type": "function"
    }
  ],
  "bytecode": "0x608060405234801561001057600080fd5b506126c7806100206000396000f3fe608060405234801561001057600080fd5b506004361061002b5760003560e01c80637c322e3414610030575b600080fd5b61004a6004803603810190610045919061242e565b610060565b604051610057919061248b565b60405180910390f35b600080602767ffffffffffffffff81111561007e5761007d61210c565b5b6040519080825280602002602001820160405280156100ac5781602001602082028036833780820191505090505b50905060005b6027811015610105578381602781106100ce576100cd6124a6565b5b60200201518282815181106100e6576100e56124a6565b5b60200260200101818152505080806100fd90612504565b9150506100b2565b506000610112828661012e565b1415610122576001915050610128565b60009150505b92915050565b6000807f30644e72e131a029b85045b68181585d2833e84879b9709143e1f593f00000019050600061015e6102c5565b905080608001515160018651610174919061254d565b1461017e57600080fd5b60006040518060400160405280600081526020016000815250905060005b865181101561023757838782815181106101b9576101b86124a6565b5b6020026020010151106101cb57600080fd5b6102228261021d85608001516001856101e4919061254d565b815181106101f5576101f46124a6565b5b60200260200101518a85815181106102105761020f6124a6565b5b6020026020010151611897565b61193e565b9150808061022f90612504565b91505061019c565b50610261818360800151600081518110610254576102536124a6565b5b602002602001015161193e565b90506102a78560000151866020015161027984611a0b565b856040015161028b8a60400151611a0b565b876060015161029d8960000151611a0b565b8960200151611ab0565b6102b757600193505050506102bf565b600093505050505b92915050565b6102cd611fd8565b60405180604001604052807f11be1abeaf85ad1c9b5913b42f2b7cce1a8e6565c490cc326adb9e6d9d55148681526020017f20577d2b2daebbae650678210d1a9a9a83566d4b66c052ab621d7dd07062f1e78152508160000181905250604051806040016040528060405180604001604052807f058ece0f9eb25abe763d07927b5bf45f78016c0647978f0ae9bd5282d647f43881526020017f16cd5b374ce662482bf35ea2bcfa66337bdc2790d6369de7fed702f9087f90ed815250815260200160405180604001604052807f07c0d089bb654804441b151c931185f8421f3511f78fd5ddf94b1503baa7c63581526020017f1741cb298a6afc30958de5887eea674279a025f6fdb853b3ee8c6f37055299178152508152508160200181905250604051806040016040528060405180604001604052807f032d51ea5210bcf0ad8cb52ab2bbb0723deec07f73405086783c9ae4015c290581526020017f1afcd1cb09659637a498a26c9df20950e76fb11af5d814293d8963fc5841260c815250815260200160405180604001604052807f16c97cfc0d1135e8ed10664a692b5fe8084244b4e179d287dd1119031115226581526020017f273346e8297e24ab190b88117015b17cff94b8125f51854ae50bb75d262c408a8152508152508160400181905250604051806040016040528060405180604001604052807f214aa65b645029d32dbe3df39ba070418d7d5eefdd310624f8d2868c9099dd3c81526020017f2ca650bdd03b2dc459398047295ef85d789e7dcb12b0ed6d1e5182f18c772fd4815250815260200160405180604001604052807f101939b72361cf95e6d027fb24d129dfdaecdac64db77f0afdb0b9574255299a81526020017f1b3f45401c9e5ef74eeb298f028f7bd857950a75bfef7a395893abf860edae608152508152508160600181905250602867ffffffffffffffff8111156105945761059361210c565b5b6040519080825280602002602001820160405280156105cd57816020015b6105ba61201f565b8152602001906001900390816105b25790505b50816080018190525060405180604001604052807f126378c680e065e647fe45f6ea0604c0481f7c3f576a45581a4ed00fea8255ca81526020017f2d74c167a93e584583efb8c7b3a421009d11c0b7eee07e5387705b3d55b12c3b8152508160800151600081518110610643576106426124a6565b5b602002602001018190525060405180604001604052807f01d765219925e4e2ab38943a1ca656075f7567707b5f9aecf9fe292e99baacf081526020017f245864fdefdaa35b30fb0feb5d7ccb1217b04a69b85d9758985c27b3b19cdcff81525081608001516001815181106106bb576106ba6124a6565b5b602002602001018190525060405180604001604052807f05f50f7d6c174998bdbc37eb2ca4dce16c7fbe19f781af2473b4997ddf78d65381526020017f2d6e4cfd639efde79290c867bd4388f37b61576707a2e7be90e6562787245c0d8152508160800151600281518110610733576107326124a6565b5b602002602001018190525060405180604001604052807f209d1c5b5dda970c7f1560b61f6ebf0e16bc7030eddef0819535ebc5e4172c2781526020017f1f7bad5020be136e534dafc7d9402ed6295ba82691f52d3e722e8b51e06773f281525081608001516003815181106107ab576107aa6124a6565b5b602002602001018190525060405180604001604052807f245bc54a83938e4bebcee1d4c13531900e08f372fe4c5210a2ff25c552d20f1481526020017f2005140aba50af343790b7d12bd1ff1e849c6500c03e8b41e489f16a91cd67ad8152508160800151600481518110610823576108226124a6565b5b602002602001018190525060405180604001604052807f13f7b6d48c927182339892172620bc6982f4d9eda751a9536256b6066778cf1781526020017f080a7a6b4c7b2376f6cb9eda40d2df73ada5ca958673e891be1e560c0ec7c808815250816080015160058151811061089b5761089a6124a6565b5b602002602001018190525060405180604001604052807f2ac79868ab292bdbfca3c04ffebf359539cadacd09cf89f7ec870b6e219214be81526020017f10d77a6fbf46090b699a1fb8e2cdb6b7960750fcf75264a34de59cbec606bb318152508160800151600681518110610913576109126124a6565b5b602002602001018190525060405180604001604052807f084aedec54d7fb5e5573f770bd3061e1d740763123807478c0ec89e2213af30381526020017f2f06a37874c6473917822f71f960cb5cc572b55a2f5c258c3f7de80609296bc6815250816080015160078151811061098b5761098a6124a6565b5b602002602001018190525060405180604001604052807f2c53937223934b1cb94214759bc7cf00245f1ec23e6491a55a4111b0f3cbacce81526020017f13a88648c6d464fccdbfc4a883977d2c4038e88a34a5ed9b96381febf9ec7a8f8152508160800151600881518110610a0357610a026124a6565b5b602002602001018190525060405180604001604052807f1a021ad6b2ef2434291c04e1cbb376a694aadd21069baf669007463bc23c430b81526020017f0a6b2464369262a8ca7760346bdef636ca0d90edeab8c5d1ca591ec03f1cafb18152508160800151600981518110610a7b57610a7a6124a6565b5b602002602001018190525060405180604001604052807f10feb4701d7a0591a485832f7b9208050a5c75bf9b8d09702c98824c2f2f2b1181526020017e4338457a25eb3803b23a7245ebc06effefa1734f0ac304b91c67d613852c2e8152508160800151600a81518110610af257610af16124a6565b5b602002602001018190525060405180604001604052807f1eb4c3c1b420b94d8e9ae6873952ced911eb021e1bc8eccef32be5294684229281526020017f03778350226190ed989a6a1246a554a233ae9b9063c581791c98fb56b33220958152508160800151600b81518110610b6a57610b696124a6565b5b602002602001018190525060405180604001604052807f0c5f42e2549ebf25ae5fcdee23859594877ce6e5667616d62cde604541d45ff581526020017f1b79024a65d766f875914bf79b4779a6fe0cedae76601eb7c8f765ebf3cf54d38152508160800151600c81518110610be257610be16124a6565b5b602002602001018190525060405180604001604052807f1990a1473ee82bfb94eb05e136a407273bae0c2d7287095b72be7041a7d2cd1e81526020017f189f28aa865e4cf04ab2d5db434fa032f9e3d0d1b016b1cf48585a53f0cfff4e8152508160800151600d81518110610c5a57610c596124a6565b5b602002602001018190525060405180604001604052807f155b6e09ce33cc7c7143d6daa584e22d7e7326403215d798e2f80f179af433a981526020017f2e3c94a503a2997f3e27ed12768fdaaaf6626e36f5bc2bd52f02fe8ca6bd609a8152508160800151600e81518110610cd257610cd16124a6565b5b602002602001018190525060405180604001604052807f15965471ffff3229fa33b3490370f6565500ed19c414db09aac4959c2120c9ce81526020017f1f0a1646a531ee329b23f01a17696bc540fdbe308569251636f9cc4a7fcd4ed78152508160800151600f81518110610d4a57610d496124a6565b5b602002602001018190525060405180604001604052807f0632398fbca5b6cc32ab618e0539a78f990852ad28e9a89542ce9cfa74a2396981526020017f2d019326d03e428bba728324a050bb0c768ed87f8f37f716f05d4aa15a2e6e948152508160800151601081518110610dc257610dc16124a6565b5b602002602001018190525060405180604001604052807f14d84be3fc9c16fc9647ee24b9c9f674fa5e934e2de9b58415ce669629ce05ae81526020017f23eb17ef2cc4da7ca674d1c86b180be00e85e164db3de2d42df25770e037488d8152508160800151601181518110610e3a57610e396124a6565b5b602002602001018190525060405180604001604052807f151bd01646878644b65182741d37641531fd56b2832a361fbb4d35c40e93f65c81526020017f08fc0a0a5bff7b7649644013860c2ca52a52e918f389bc23c424d300b73545588152508160800151601281518110610eb257610eb16124a6565b5b602002602001018190525060405180604001604052807f1c7b0338e3f3395ed720f1e5ba4447ce080e5457fd58d8eda69a0a34d91f2dd681526020017f239c5c5b69415becba8966a245d512baa6b423f794e888c43fff13c3a4753a448152508160800151601381518110610f2a57610f296124a6565b5b602002602001018190525060405180604001604052807f13bd080a8ee834436a697558163128971c4a6414289e8851a2186d38e9d0def981526020017f20e430383a0e1a876b5c677dbda681e80e15e4303729baa1755a1e6d208080688152508160800151601481518110610fa257610fa16124a6565b5b602002602001018190525060405180604001604052807f18292da1733affe18f35dff6208ba8376746cb62805e1025784ca898629462ba81526020017f061bcb5d31e5c8f2013095b2e7a98eeb18e204275760c35fd34db576d6a29dff815250816080015160158151811061101a576110196124a6565b5b602002602001018190525060405180604001604052807f224b5effa5f3843a593cb30c9457c4de262ae33342379e54d3b7fd8baf4b55bf81526020017f173174499962000be9aa2e85aec0eaf2d3fcdb48ecd6d24bcdc0f9e8763338e28152508160800151601681518110611092576110916124a6565b5b602002602001018190525060405180604001604052807f0770e289904fa42cbbafeac6af7530dce3047956ba4421bf80b27d3b55cc16a281526020017f1ad69fe443752c9b5622dfab3c0099cfe531791e0f18a4bb13342bcff9ba9bca815250816080015160178151811061110a576111096124a6565b5b602002602001018190525060405180604001604052807f20037f2c9be27580cebf7d2ec6b5620cf667209e4cc77cf36b09b90bd86b9f1481526020017f20378b8e7bb5c53fdc6178ba0aa82998f4764c6b93768e92ae35e5fbb18c1fa68152508160800151601881518110611182576111816124a6565b5b602002602001018190525060405180604001604052807f21ef51e18672bdb4547cf70a9a7e591a6eb63aa4ca9fc255fdc3b6cec8be530881526020017f26489d8a267e2261f621887704c36c43e7f03cd0ae29d91626379d3cf3a0042f81525081608001516019815181106111fa576111f96124a6565b5b602002602001018190525060405180604001604052807f2643d0996ac07c81ed2656164eb71a99360d029e1cab833b546f2648cab44bda81526020017f15641ce1372e2f0fb393b39c64e17bb6dacd6864ceb32da1d2b178476da7541a8152508160800151601a81518110611272576112716124a6565b5b602002602001018190525060405180604001604052807f2b9a4e7f7cbb7d949a435262ef4dce40420d82abf1e5b96d35baec5a76ae3fba81526020017f03ab7fa51b4c0d58e836adc3260aa03ff08b77db0bfa36db07da5f767058fd4a8152508160800151601b815181106112ea576112e96124a6565b5b602002602001018190525060405180604001604052807f0d6e54586bd310b02017c9f53182e9416bcdae488500b046c7eabaf33cc1e82681526020017f2d01336868f5a6ceba694bf5f4b190e30b7b94d014f38bc9024c7884d2f0cd8e8152508160800151601c81518110611362576113616124a6565b5b602002602001018190525060405180604001604052807f1864e649faf91d316fa7f29bbd652cdd82a9bc9cabb76f717a2a630f6dd52a0581526020017f05e07e27107c51085f4bc4bea5897c93311b937334eb8f000e5e1ca2d5eb0f518152508160800151601d815181106113da576113d96124a6565b5b602002602001018190525060405180604001604052807f15a62b41a2a54b86efa040b7cc7bca8a2115c48d9355df5664e80f3338a1fdb281526020017f2f6b332cfd560a047a69124a7e9b001dcb4d92263c92cfc488b9ac5b8b50d95d8152508160800151601e81518110611452576114516124a6565b5b602002602001018190525060405180604001604052807f1bb0e63d139f2181a9fdb0f0dc4c614a8ba4ef2fc98062f8da0ac3b7c1c3296681526020017f293fcce45ac6efd1b7f470572ce371facdf5f99e561469c5bf9a3debf9086e428152508160800151601f815181106114ca576114c96124a6565b5b602002602001018190525060405180604001604052807f1f65ac73820170e59c81b3ae639bda8b4e812a5dce05fd2114f87560091be3a381526020017f1579fb9e1d1c9df6e9d5bec3fadad2bf51744e764e5ee12727b631792b9b13f08152508160800151602081518110611542576115416124a6565b5b602002602001018190525060405180604001604052807f0c3e11a480295a5ff7fcbed3c148431bc0a653cdd61ed624583e74a6000537a481526020017f13f7a57bbbe1fc221181b235cc3bf4346c977446617377359c7acb69583db4ca81525081608001516021815181106115ba576115b96124a6565b5b602002602001018190525060405180604001604052807f1ff26235c6422a237f41974321b117f342b688be82853bb7407413819206bf2c81526020017f077466154defa83c8394c95ceedf90a2689457bcae1b5b3fcc3542bc0b84696a8152508160800151602281518110611632576116316124a6565b5b602002602001018190525060405180604001604052807f19741f386fc91fa3a06a0201c31b8444d7755a99c2852f564e6a3e3c309eb6ca81526020017f20fb3f77b77c46c94789fe6493255efc1e0424a544809323a26b0d3b934c3e8a81525081608001516023815181106116aa576116a96124a6565b5b602002602001018190525060405180604001604052807f1b066468f464bd6225727c62c38d4d7ffd6f760e10478419837047aa5d2217df81526020017f061c730045c6284ca35ba94d23f886a64affe8e1d59b5faa969917d349ca760d8152508160800151602481518110611722576117216124a6565b5b602002602001018190525060405180604001604052807e8120e04492439904996a9f21c79f02f310b95f41ff1e5648ef6ac95e3321f481526020017f2d19b58cd3991fdda966238dbd58faba3a42035c93cf70b30de9376578eac46d8152508160800151602581518110611799576117986124a6565b5b602002602001018190525060405180604001604052807f0e8f06698e080f41036124a7f4a0469f0ee58a78d11ba7088a5190027eb9f17081526020017f0ec11eacf6ce7db5999d7346b2cc8187f68cf2e9aab2547a2bf7c733d2fc9ef48152508160800151602681518110611811576118106124a6565b5b602002602001018190525060405180604001604052807f24d54fbe4efafd3e0318fb4b718c7ee1740728022805b13744e6636688b0c28781526020017f17646176667371c3c4af140ba79099110ca516bf6a4fab8db7133eb2743d850b8152508160800151602781518110611889576118886124a6565b5b602002602001018190525090565b61189f61201f565b6118a7612039565b8360000151816000600381106118c0576118bf6124a6565b5b6020020181815250508360200151816001600381106118e2576118e16124a6565b5b6020020181815250508281600260038110611900576118ff6124a6565b5b602002018181525050600060608360808460076107d05a03fa905080600081146119295761192b565bfe5b508061193657600080fd5b505092915050565b61194661201f565b61194e61205b565b836000015181600060048110611967576119666124a6565b5b602002018181525050836020015181600160048110611989576119886124a6565b5b6020020181815250508260000151816002600481106119ab576119aa6124a6565b5b6020020181815250508260200151816003600481106119cd576119cc6124a6565b5b602002018181525050600060608360c08460066107d05a03fa905080600081146119f6576119f8565bfe5b5080611a0357600080fd5b505092915050565b611a1361201f565b60007f30644e72e131a029b85045b68181585d97816a916871ca8d3c208c16d87cfd47905060008360000151148015611a50575060008360200151145b15611a74576040518060400160405280600081526020016000815250915050611aab565b604051806040016040528084600001518152602001828560200151611a9991906125d2565b83611aa49190612603565b8152509150505b919050565b600080600467ffffffffffffffff811115611ace57611acd61210c565b5b604051908082528060200260200182016040528015611b0757816020015b611af461201f565b815260200190600190039081611aec5790505b5090506000600467ffffffffffffffff811115611b2757611b2661210c565b5b604051908082528060200260200182016040528015611b6057816020015b611b4d61207d565b815260200190600190039081611b455790505b5090508a82600081518110611b7857611b776124a6565b5b60200260200101819052508882600181518110611b9857611b976124a6565b5b60200260200101819052508682600281518110611bb857611bb76124a6565b5b60200260200101819052508482600381518110611bd857611bd76124a6565b5b60200260200101819052508981600081518110611bf857611bf76124a6565b5b60200260200101819052508781600181518110611c1857611c176124a6565b5b60200260200101819052508581600281518110611c3857611c376124a6565b5b60200260200101819052508381600381518110611c5857611c576124a6565b5b6020026020010181905250611c6d8282611c7d565b9250505098975050505050505050565b60008151835114611c8d57600080fd5b6000835190506000600682611ca29190612637565b905060008167ffffffffffffffff811115611cc057611cbf61210c565b5b604051908082528060200260200182016040528015611cee5781602001602082028036833780820191505090505b50905060005b83811015611f7357868181518110611d0f57611d0e6124a6565b5b602002602001015160000151826000600684611d2b9190612637565b611d35919061254d565b81518110611d4657611d456124a6565b5b602002602001018181525050868181518110611d6557611d646124a6565b5b602002602001015160200151826001600684611d819190612637565b611d8b919061254d565b81518110611d9c57611d9b6124a6565b5b602002602001018181525050858181518110611dbb57611dba6124a6565b5b602002602001015160000151600160028110611dda57611dd96124a6565b5b6020020151826002600684611def9190612637565b611df9919061254d565b81518110611e0a57611e096124a6565b5b602002602001018181525050858181518110611e2957611e286124a6565b5b602002602001015160000151600060028110611e4857611e476124a6565b5b6020020151826003600684611e5d9190612637565b611e67919061254d565b81518110611e7857611e776124a6565b5b602002602001018181525050858181518110611e9757611e966124a6565b5b602002602001015160200151600160028110611eb657611eb56124a6565b5b6020020151826004600684611ecb9190612637565b611ed5919061254d565b81518110611ee657611ee56124a6565b5b602002602001018181525050858181518110611f0557611f046124a6565b5b602002602001015160200151600060028110611f2457611f236124a6565b5b6020020151826005600684611f399190612637565b611f43919061254d565b81518110611f5457611f536124a6565b5b6020026020010181815250508080611f6b90612504565b915050611cf4565b50611f7c6120a3565b6000602082602086026020860160086107d05a03fa90508060008114611fa157611fa3565bfe5b5080611fae57600080fd5b600082600060018110611fc457611fc36124a6565b5b602002015114159550505050505092915050565b6040518060a00160405280611feb61201f565b8152602001611ff861207d565b815260200161200561207d565b815260200161201261207d565b8152602001606081525090565b604051806040016040528060008152602001600081525090565b6040518060600160405280600390602082028036833780820191505090505090565b6040518060800160405280600490602082028036833780820191505090505090565b60405180604001604052806120906120c5565b815260200161209d6120c5565b81525090565b6040518060200160405280600190602082028036833780820191505090505090565b6040518060400160405280600290602082028036833780820191505090505090565b6000604051905090565b600080fd5b600080fd5b6000601f19601f8301169050919050565b7f4e487b7100000000000000000000000000000000000000000000000000000000600052604160045260246000fd5b612144826120fb565b810181811067ffffffffffffffff821117156121635761216261210c565b5b80604052505050565b60006121766120e7565b9050612182828261213b565b919050565b6000819050919050565b61219a81612187565b81146121a557600080fd5b50565b6000813590506121b781612191565b92915050565b6000604082840312156121d3576121d26120f6565b5b6121dd604061216c565b905060006121ed848285016121a8565b6000830152506020612201848285016121a8565b60208301525092915050565b600080fd5b600067ffffffffffffffff82111561222d5761222c61210c565b5b602082029050919050565b600080fd5b600061225061224b84612212565b61216c565b9050806020840283018581111561226a57612269612238565b5b835b81811015612293578061227f88826121a8565b84526020840193505060208101905061226c565b5050509392505050565b600082601f8301126122b2576122b161220d565b5b60026122bf84828561223d565b91505092915050565b6000608082840312156122de576122dd6120f6565b5b6122e8604061216c565b905060006122f88482850161229d565b600083015250604061230c8482850161229d565b60208301525092915050565b6000610100828403121561232f5761232e6120f6565b5b612339606061216c565b90506000612349848285016121bd565b600083015250604061235d848285016122c8565b60208301525060c0612371848285016121bd565b60408301525092915050565b600067ffffffffffffffff8211156123985761239761210c565b5b602082029050919050565b60006123b66123b18461237d565b61216c565b905080602084028301858111156123d0576123cf612238565b5b835b818110156123f957806123e588826121a8565b8452602084019350506020810190506123d2565b5050509392505050565b600082601f8301126124185761241761220d565b5b60276124258482856123a3565b91505092915050565b6000806105e08385031215612446576124456120f1565b5b600061245485828601612318565b92505061010061246685828601612403565b9150509250929050565b60008115159050919050565b61248581612470565b82525050565b60006020820190506124a0600083018461247c565b92915050565b7f4e487b7100000000000000000000000000000000000000000000000000000000600052603260045260246000fd5b7f4e487b7100000000000000000000000000000000000000000000000000000000600052601160045260246000fd5b600061250f82612187565b91507fffffffffffffffffffffffffffffffffffffffffffffffffffffffffffffffff821415612542576125416124d5565b5b600182019050919050565b600061255882612187565b915061256383612187565b9250827fffffffffffffffffffffffffffffffffffffffffffffffffffffffffffffffff03821115612598576125976124d5565b5b828201905092915050565b7f4e487b7100000000000000000000000000000000000000000000000000000000600052601260045260246000fd5b60006125dd82612187565b91506125e883612187565b9250826125f8576125f76125a3565b5b828206905092915050565b600061260e82612187565b915061261983612187565b92508282101561262c5761262b6124d5565b5b828203905092915050565b600061264282612187565b915061264d83612187565b9250817fffffffffffffffffffffffffffffffffffffffffffffffffffffffffffffffff0483118215151615612686576126856124d5565b5b82820290509291505056fea264697066735822122026ec04f626b2bbf59b968a85065b528d6b5b56952adb69c3639479801867ff7f64736f6c63430008090033",
  "immutableReferences": {},
  "source": "// This file is MIT Licensed.\n//\n// Copyright 2017 Christian Reitwiessner\n// Permission is hereby granted, free of charge, to any person obtaining a copy of this software and associated documentation files (the \"Software\"), to deal in the Software without restriction, including without limitation the rights to use, copy, modify, merge, publish, distribute, sublicense, and/or sell copies of the Software, and to permit persons to whom the Software is furnished to do so, subject to the following conditions:\n// The above copyright notice and this permission notice shall be included in all copies or substantial portions of the Software.\n// THE SOFTWARE IS PROVIDED \"AS IS\", WITHOUT WARRANTY OF ANY KIND, EXPRESS OR IMPLIED, INCLUDING BUT NOT LIMITED TO THE WARRANTIES OF MERCHANTABILITY, FITNESS FOR A PARTICULAR PURPOSE AND NONINFRINGEMENT. IN NO EVENT SHALL THE AUTHORS OR COPYRIGHT HOLDERS BE LIABLE FOR ANY CLAIM, DAMAGES OR OTHER LIABILITY, WHETHER IN AN ACTION OF CONTRACT, TORT OR OTHERWISE, ARISING FROM, OUT OF OR IN CONNECTION WITH THE SOFTWARE OR THE USE OR OTHER DEALINGS IN THE SOFTWARE.\npragma solidity ^0.8.0;\nlibrary Pairing {\n    struct G1Point {\n        uint X;\n        uint Y;\n    }\n    // Encoding of field elements is: X[0] * z + X[1]\n    struct G2Point {\n        uint[2] X;\n        uint[2] Y;\n    }\n    /// @return the generator of G1\n    function P1() pure internal returns (G1Point memory) {\n        return G1Point(1, 2);\n    }\n    /// @return the generator of G2\n    function P2() pure internal returns (G2Point memory) {\n        return G2Point(\n            [10857046999023057135944570762232829481370756359578518086990519993285655852781,\n             11559732032986387107991004021392285783925812861821192530917403151452391805634],\n            [8495653923123431417604973247489272438418190587263600148770280649306958101930,\n             4082367875863433681332203403145435568316851327593401208105741076214120093531]\n        );\n    }\n    /// @return the negation of p, i.e. p.addition(p.negate()) should be zero.\n    function negate(G1Point memory p) pure internal returns (G1Point memory) {\n        // The prime q in the base field F_q for G1\n        uint q = 21888242871839275222246405745257275088696311157297823662689037894645226208583;\n        if (p.X == 0 && p.Y == 0)\n            return G1Point(0, 0);\n        return G1Point(p.X, q - (p.Y % q));\n    }\n    /// @return r the sum of two points of G1\n    function addition(G1Point memory p1, G1Point memory p2) internal view returns (G1Point memory r) {\n        uint[4] memory input;\n        input[0] = p1.X;\n        input[1] = p1.Y;\n        input[2] = p2.X;\n        input[3] = p2.Y;\n        bool success;\n        assembly {\n            success := staticcall(sub(gas(), 2000), 6, input, 0xc0, r, 0x60)\n            // Use \"invalid\" to make gas estimation work\n            switch success case 0 { invalid() }\n        }\n        require(success);\n    }\n\n\n    /// @return r the product of a point on G1 and a scalar, i.e.\n    /// p == p.scalar_mul(1) and p.addition(p) == p.scalar_mul(2) for all points p.\n    function scalar_mul(G1Point memory p, uint s) internal view returns (G1Point memory r) {\n        uint[3] memory input;\n        input[0] = p.X;\n        input[1] = p.Y;\n        input[2] = s;\n        bool success;\n        assembly {\n            success := staticcall(sub(gas(), 2000), 7, input, 0x80, r, 0x60)\n            // Use \"invalid\" to make gas estimation work\n            switch success case 0 { invalid() }\n        }\n        require (success);\n    }\n    /// @return the result of computing the pairing check\n    /// e(p1[0], p2[0]) *  .... * e(p1[n], p2[n]) == 1\n    /// For example pairing([P1(), P1().negate()], [P2(), P2()]) should\n    /// return true.\n    function pairing(G1Point[] memory p1, G2Point[] memory p2) internal view returns (bool) {\n        require(p1.length == p2.length);\n        uint elements = p1.length;\n        uint inputSize = elements * 6;\n        uint[] memory input = new uint[](inputSize);\n        for (uint i = 0; i < elements; i++)\n        {\n            input[i * 6 + 0] = p1[i].X;\n            input[i * 6 + 1] = p1[i].Y;\n            input[i * 6 + 2] = p2[i].X[1];\n            input[i * 6 + 3] = p2[i].X[0];\n            input[i * 6 + 4] = p2[i].Y[1];\n            input[i * 6 + 5] = p2[i].Y[0];\n        }\n        uint[1] memory out;\n        bool success;\n        assembly {\n            success := staticcall(sub(gas(), 2000), 8, add(input, 0x20), mul(inputSize, 0x20), out, 0x20)\n            // Use \"invalid\" to make gas estimation work\n            switch success case 0 { invalid() }\n        }\n        require(success);\n        return out[0] != 0;\n    }\n    /// Convenience method for a pairing check for two pairs.\n    function pairingProd2(G1Point memory a1, G2Point memory a2, G1Point memory b1, G2Point memory b2) internal view returns (bool) {\n        G1Point[] memory p1 = new G1Point[](2);\n        G2Point[] memory p2 = new G2Point[](2);\n        p1[0] = a1;\n        p1[1] = b1;\n        p2[0] = a2;\n        p2[1] = b2;\n        return pairing(p1, p2);\n    }\n    /// Convenience method for a pairing check for three pairs.\n    function pairingProd3(\n            G1Point memory a1, G2Point memory a2,\n            G1Point memory b1, G2Point memory b2,\n            G1Point memory c1, G2Point memory c2\n    ) internal view returns (bool) {\n        G1Point[] memory p1 = new G1Point[](3);\n        G2Point[] memory p2 = new G2Point[](3);\n        p1[0] = a1;\n        p1[1] = b1;\n        p1[2] = c1;\n        p2[0] = a2;\n        p2[1] = b2;\n        p2[2] = c2;\n        return pairing(p1, p2);\n    }\n    /// Convenience method for a pairing check for four pairs.\n    function pairingProd4(\n            G1Point memory a1, G2Point memory a2,\n            G1Point memory b1, G2Point memory b2,\n            G1Point memory c1, G2Point memory c2,\n            G1Point memory d1, G2Point memory d2\n    ) internal view returns (bool) {\n        G1Point[] memory p1 = new G1Point[](4);\n        G2Point[] memory p2 = new G2Point[](4);\n        p1[0] = a1;\n        p1[1] = b1;\n        p1[2] = c1;\n        p1[3] = d1;\n        p2[0] = a2;\n        p2[1] = b2;\n        p2[2] = c2;\n        p2[3] = d2;\n        return pairing(p1, p2);\n    }\n}\n\ncontract MergeZKP {\n    using Pairing for *;\n    struct VerifyingKey {\n        Pairing.G1Point alpha;\n        Pairing.G2Point beta;\n        Pairing.G2Point gamma;\n        Pairing.G2Point delta;\n        Pairing.G1Point[] gamma_abc;\n    }\n    struct Proof {\n        Pairing.G1Point a;\n        Pairing.G2Point b;\n        Pairing.G1Point c;\n    }\n    function verifyingKey() pure internal returns (VerifyingKey memory vk) {\n        vk.alpha = Pairing.G1Point(uint256(0x11be1abeaf85ad1c9b5913b42f2b7cce1a8e6565c490cc326adb9e6d9d551486), uint256(0x20577d2b2daebbae650678210d1a9a9a83566d4b66c052ab621d7dd07062f1e7));\n        vk.beta = Pairing.G2Point([uint256(0x058ece0f9eb25abe763d07927b5bf45f78016c0647978f0ae9bd5282d647f438), uint256(0x16cd5b374ce662482bf35ea2bcfa66337bdc2790d6369de7fed702f9087f90ed)], [uint256(0x07c0d089bb654804441b151c931185f8421f3511f78fd5ddf94b1503baa7c635), uint256(0x1741cb298a6afc30958de5887eea674279a025f6fdb853b3ee8c6f3705529917)]);\n        vk.gamma = Pairing.G2Point([uint256(0x032d51ea5210bcf0ad8cb52ab2bbb0723deec07f73405086783c9ae4015c2905), uint256(0x1afcd1cb09659637a498a26c9df20950e76fb11af5d814293d8963fc5841260c)], [uint256(0x16c97cfc0d1135e8ed10664a692b5fe8084244b4e179d287dd11190311152265), uint256(0x273346e8297e24ab190b88117015b17cff94b8125f51854ae50bb75d262c408a)]);\n        vk.delta = Pairing.G2Point([uint256(0x214aa65b645029d32dbe3df39ba070418d7d5eefdd310624f8d2868c9099dd3c), uint256(0x2ca650bdd03b2dc459398047295ef85d789e7dcb12b0ed6d1e5182f18c772fd4)], [uint256(0x101939b72361cf95e6d027fb24d129dfdaecdac64db77f0afdb0b9574255299a), uint256(0x1b3f45401c9e5ef74eeb298f028f7bd857950a75bfef7a395893abf860edae60)]);\n        vk.gamma_abc = new Pairing.G1Point[](40);\n        vk.gamma_abc[0] = Pairing.G1Point(uint256(0x126378c680e065e647fe45f6ea0604c0481f7c3f576a45581a4ed00fea8255ca), uint256(0x2d74c167a93e584583efb8c7b3a421009d11c0b7eee07e5387705b3d55b12c3b));\n        vk.gamma_abc[1] = Pairing.G1Point(uint256(0x01d765219925e4e2ab38943a1ca656075f7567707b5f9aecf9fe292e99baacf0), uint256(0x245864fdefdaa35b30fb0feb5d7ccb1217b04a69b85d9758985c27b3b19cdcff));\n        vk.gamma_abc[2] = Pairing.G1Point(uint256(0x05f50f7d6c174998bdbc37eb2ca4dce16c7fbe19f781af2473b4997ddf78d653), uint256(0x2d6e4cfd639efde79290c867bd4388f37b61576707a2e7be90e6562787245c0d));\n        vk.gamma_abc[3] = Pairing.G1Point(uint256(0x209d1c5b5dda970c7f1560b61f6ebf0e16bc7030eddef0819535ebc5e4172c27), uint256(0x1f7bad5020be136e534dafc7d9402ed6295ba82691f52d3e722e8b51e06773f2));\n        vk.gamma_abc[4] = Pairing.G1Point(uint256(0x245bc54a83938e4bebcee1d4c13531900e08f372fe4c5210a2ff25c552d20f14), uint256(0x2005140aba50af343790b7d12bd1ff1e849c6500c03e8b41e489f16a91cd67ad));\n        vk.gamma_abc[5] = Pairing.G1Point(uint256(0x13f7b6d48c927182339892172620bc6982f4d9eda751a9536256b6066778cf17), uint256(0x080a7a6b4c7b2376f6cb9eda40d2df73ada5ca958673e891be1e560c0ec7c808));\n        vk.gamma_abc[6] = Pairing.G1Point(uint256(0x2ac79868ab292bdbfca3c04ffebf359539cadacd09cf89f7ec870b6e219214be), uint256(0x10d77a6fbf46090b699a1fb8e2cdb6b7960750fcf75264a34de59cbec606bb31));\n        vk.gamma_abc[7] = Pairing.G1Point(uint256(0x084aedec54d7fb5e5573f770bd3061e1d740763123807478c0ec89e2213af303), uint256(0x2f06a37874c6473917822f71f960cb5cc572b55a2f5c258c3f7de80609296bc6));\n        vk.gamma_abc[8] = Pairing.G1Point(uint256(0x2c53937223934b1cb94214759bc7cf00245f1ec23e6491a55a4111b0f3cbacce), uint256(0x13a88648c6d464fccdbfc4a883977d2c4038e88a34a5ed9b96381febf9ec7a8f));\n        vk.gamma_abc[9] = Pairing.G1Point(uint256(0x1a021ad6b2ef2434291c04e1cbb376a694aadd21069baf669007463bc23c430b), uint256(0x0a6b2464369262a8ca7760346bdef636ca0d90edeab8c5d1ca591ec03f1cafb1));\n        vk.gamma_abc[10] = Pairing.G1Point(uint256(0x10feb4701d7a0591a485832f7b9208050a5c75bf9b8d09702c98824c2f2f2b11), uint256(0x004338457a25eb3803b23a7245ebc06effefa1734f0ac304b91c67d613852c2e));\n        vk.gamma_abc[11] = Pairing.G1Point(uint256(0x1eb4c3c1b420b94d8e9ae6873952ced911eb021e1bc8eccef32be52946842292), uint256(0x03778350226190ed989a6a1246a554a233ae9b9063c581791c98fb56b3322095));\n        vk.gamma_abc[12] = Pairing.G1Point(uint256(0x0c5f42e2549ebf25ae5fcdee23859594877ce6e5667616d62cde604541d45ff5), uint256(0x1b79024a65d766f875914bf79b4779a6fe0cedae76601eb7c8f765ebf3cf54d3));\n        vk.gamma_abc[13] = Pairing.G1Point(uint256(0x1990a1473ee82bfb94eb05e136a407273bae0c2d7287095b72be7041a7d2cd1e), uint256(0x189f28aa865e4cf04ab2d5db434fa032f9e3d0d1b016b1cf48585a53f0cfff4e));\n        vk.gamma_abc[14] = Pairing.G1Point(uint256(0x155b6e09ce33cc7c7143d6daa584e22d7e7326403215d798e2f80f179af433a9), uint256(0x2e3c94a503a2997f3e27ed12768fdaaaf6626e36f5bc2bd52f02fe8ca6bd609a));\n        vk.gamma_abc[15] = Pairing.G1Point(uint256(0x15965471ffff3229fa33b3490370f6565500ed19c414db09aac4959c2120c9ce), uint256(0x1f0a1646a531ee329b23f01a17696bc540fdbe308569251636f9cc4a7fcd4ed7));\n        vk.gamma_abc[16] = Pairing.G1Point(uint256(0x0632398fbca5b6cc32ab618e0539a78f990852ad28e9a89542ce9cfa74a23969), uint256(0x2d019326d03e428bba728324a050bb0c768ed87f8f37f716f05d4aa15a2e6e94));\n        vk.gamma_abc[17] = Pairing.G1Point(uint256(0x14d84be3fc9c16fc9647ee24b9c9f674fa5e934e2de9b58415ce669629ce05ae), uint256(0x23eb17ef2cc4da7ca674d1c86b180be00e85e164db3de2d42df25770e037488d));\n        vk.gamma_abc[18] = Pairing.G1Point(uint256(0x151bd01646878644b65182741d37641531fd56b2832a361fbb4d35c40e93f65c), uint256(0x08fc0a0a5bff7b7649644013860c2ca52a52e918f389bc23c424d300b7354558));\n        vk.gamma_abc[19] = Pairing.G1Point(uint256(0x1c7b0338e3f3395ed720f1e5ba4447ce080e5457fd58d8eda69a0a34d91f2dd6), uint256(0x239c5c5b69415becba8966a245d512baa6b423f794e888c43fff13c3a4753a44));\n        vk.gamma_abc[20] = Pairing.G1Point(uint256(0x13bd080a8ee834436a697558163128971c4a6414289e8851a2186d38e9d0def9), uint256(0x20e430383a0e1a876b5c677dbda681e80e15e4303729baa1755a1e6d20808068));\n        vk.gamma_abc[21] = Pairing.G1Point(uint256(0x18292da1733affe18f35dff6208ba8376746cb62805e1025784ca898629462ba), uint256(0x061bcb5d31e5c8f2013095b2e7a98eeb18e204275760c35fd34db576d6a29dff));\n        vk.gamma_abc[22] = Pairing.G1Point(uint256(0x224b5effa5f3843a593cb30c9457c4de262ae33342379e54d3b7fd8baf4b55bf), uint256(0x173174499962000be9aa2e85aec0eaf2d3fcdb48ecd6d24bcdc0f9e8763338e2));\n        vk.gamma_abc[23] = Pairing.G1Point(uint256(0x0770e289904fa42cbbafeac6af7530dce3047956ba4421bf80b27d3b55cc16a2), uint256(0x1ad69fe443752c9b5622dfab3c0099cfe531791e0f18a4bb13342bcff9ba9bca));\n        vk.gamma_abc[24] = Pairing.G1Point(uint256(0x20037f2c9be27580cebf7d2ec6b5620cf667209e4cc77cf36b09b90bd86b9f14), uint256(0x20378b8e7bb5c53fdc6178ba0aa82998f4764c6b93768e92ae35e5fbb18c1fa6));\n        vk.gamma_abc[25] = Pairing.G1Point(uint256(0x21ef51e18672bdb4547cf70a9a7e591a6eb63aa4ca9fc255fdc3b6cec8be5308), uint256(0x26489d8a267e2261f621887704c36c43e7f03cd0ae29d91626379d3cf3a0042f));\n        vk.gamma_abc[26] = Pairing.G1Point(uint256(0x2643d0996ac07c81ed2656164eb71a99360d029e1cab833b546f2648cab44bda), uint256(0x15641ce1372e2f0fb393b39c64e17bb6dacd6864ceb32da1d2b178476da7541a));\n        vk.gamma_abc[27] = Pairing.G1Point(uint256(0x2b9a4e7f7cbb7d949a435262ef4dce40420d82abf1e5b96d35baec5a76ae3fba), uint256(0x03ab7fa51b4c0d58e836adc3260aa03ff08b77db0bfa36db07da5f767058fd4a));\n        vk.gamma_abc[28] = Pairing.G1Point(uint256(0x0d6e54586bd310b02017c9f53182e9416bcdae488500b046c7eabaf33cc1e826), uint256(0x2d01336868f5a6ceba694bf5f4b190e30b7b94d014f38bc9024c7884d2f0cd8e));\n        vk.gamma_abc[29] = Pairing.G1Point(uint256(0x1864e649faf91d316fa7f29bbd652cdd82a9bc9cabb76f717a2a630f6dd52a05), uint256(0x05e07e27107c51085f4bc4bea5897c93311b937334eb8f000e5e1ca2d5eb0f51));\n        vk.gamma_abc[30] = Pairing.G1Point(uint256(0x15a62b41a2a54b86efa040b7cc7bca8a2115c48d9355df5664e80f3338a1fdb2), uint256(0x2f6b332cfd560a047a69124a7e9b001dcb4d92263c92cfc488b9ac5b8b50d95d));\n        vk.gamma_abc[31] = Pairing.G1Point(uint256(0x1bb0e63d139f2181a9fdb0f0dc4c614a8ba4ef2fc98062f8da0ac3b7c1c32966), uint256(0x293fcce45ac6efd1b7f470572ce371facdf5f99e561469c5bf9a3debf9086e42));\n        vk.gamma_abc[32] = Pairing.G1Point(uint256(0x1f65ac73820170e59c81b3ae639bda8b4e812a5dce05fd2114f87560091be3a3), uint256(0x1579fb9e1d1c9df6e9d5bec3fadad2bf51744e764e5ee12727b631792b9b13f0));\n        vk.gamma_abc[33] = Pairing.G1Point(uint256(0x0c3e11a480295a5ff7fcbed3c148431bc0a653cdd61ed624583e74a6000537a4), uint256(0x13f7a57bbbe1fc221181b235cc3bf4346c977446617377359c7acb69583db4ca));\n        vk.gamma_abc[34] = Pairing.G1Point(uint256(0x1ff26235c6422a237f41974321b117f342b688be82853bb7407413819206bf2c), uint256(0x077466154defa83c8394c95ceedf90a2689457bcae1b5b3fcc3542bc0b84696a));\n        vk.gamma_abc[35] = Pairing.G1Point(uint256(0x19741f386fc91fa3a06a0201c31b8444d7755a99c2852f564e6a3e3c309eb6ca), uint256(0x20fb3f77b77c46c94789fe6493255efc1e0424a544809323a26b0d3b934c3e8a));\n        vk.gamma_abc[36] = Pairing.G1Point(uint256(0x1b066468f464bd6225727c62c38d4d7ffd6f760e10478419837047aa5d2217df), uint256(0x061c730045c6284ca35ba94d23f886a64affe8e1d59b5faa969917d349ca760d));\n        vk.gamma_abc[37] = Pairing.G1Point(uint256(0x008120e04492439904996a9f21c79f02f310b95f41ff1e5648ef6ac95e3321f4), uint256(0x2d19b58cd3991fdda966238dbd58faba3a42035c93cf70b30de9376578eac46d));\n        vk.gamma_abc[38] = Pairing.G1Point(uint256(0x0e8f06698e080f41036124a7f4a0469f0ee58a78d11ba7088a5190027eb9f170), uint256(0x0ec11eacf6ce7db5999d7346b2cc8187f68cf2e9aab2547a2bf7c733d2fc9ef4));\n        vk.gamma_abc[39] = Pairing.G1Point(uint256(0x24d54fbe4efafd3e0318fb4b718c7ee1740728022805b13744e6636688b0c287), uint256(0x17646176667371c3c4af140ba79099110ca516bf6a4fab8db7133eb2743d850b));\n    }\n    function verify(uint[] memory input, Proof memory proof) internal view returns (uint) {\n        uint256 snark_scalar_field = 21888242871839275222246405745257275088548364400416034343698204186575808495617;\n        VerifyingKey memory vk = verifyingKey();\n        require(input.length + 1 == vk.gamma_abc.length);\n        // Compute the linear combination vk_x\n        Pairing.G1Point memory vk_x = Pairing.G1Point(0, 0);\n        for (uint i = 0; i < input.length; i++) {\n            require(input[i] < snark_scalar_field);\n            vk_x = Pairing.addition(vk_x, Pairing.scalar_mul(vk.gamma_abc[i + 1], input[i]));\n        }\n        vk_x = Pairing.addition(vk_x, vk.gamma_abc[0]);\n        if(!Pairing.pairingProd4(\n             proof.a, proof.b,\n             Pairing.negate(vk_x), vk.gamma,\n             Pairing.negate(proof.c), vk.delta,\n             Pairing.negate(vk.alpha), vk.beta)) return 1;\n        return 0;\n    }\n    function verifyTx(\n            Proof memory proof, uint[39] memory input\n        ) public view returns (bool r) {\n        uint[] memory inputValues = new uint[](39);\n\n        for(uint i = 0; i < input.length; i++){\n            inputValues[i] = input[i];\n        }\n        if (verify(inputValues, proof) == 0) {\n            return true;\n        } else {\n            return false;\n        }\n    }\n}\n",
  "sourcePath": "/home/prateek/NFR/onchain/contracts/MergeZKP.sol",
  "compiler": {
    "name": "solc",
    "version": "0.8.9+commit.e5eed63a.Emscripten.clang"
  },
  "schemaVersion": "3.4.3",
  "updatedAt": "2022-05-24T16:47:02.282Z",
  "devdoc": {
    "kind": "dev",
    "methods": {},
    "version": 1
  },
  "userdoc": {
    "kind": "user",
    "methods": {},
    "version": 1
  }
}