{
  "contractName": "Merger",
  "abi": [
    {
      "inputs": [
        {
          "internalType": "address",
          "name": "_nfr",
          "type": "address"
        },
        {
          "internalType": "address",
          "name": "_merge",
          "type": "address"
        },
        {
          "internalType": "address",
          "name": "_mergeZKP",
          "type": "address"
        }
      ],
      "stateMutability": "nonpayable",
      "type": "constructor"
    },
    {
      "anonymous": false,
      "inputs": [
        {
          "indexed": false,
          "internalType": "uint256",
          "name": "mergeId",
          "type": "uint256"
        },
        {
          "indexed": false,
          "internalType": "uint256",
          "name": "tokenId1",
          "type": "uint256"
        },
        {
          "indexed": false,
          "internalType": "uint256",
          "name": "tokenId2",
          "type": "uint256"
        }
      ],
      "name": "AddMerge",
      "type": "event"
    },
    {
      "inputs": [],
      "name": "cardCopiesHashed",
      "outputs": [
        {
          "internalType": "uint256",
          "name": "",
          "type": "uint256"
        }
      ],
      "stateMutability": "view",
      "type": "function",
      "constant": true
    },
    {
      "inputs": [],
      "name": "head",
      "outputs": [
        {
          "internalType": "uint256",
          "name": "",
          "type": "uint256"
        }
      ],
      "stateMutability": "view",
      "type": "function",
      "constant": true
    },
    {
      "inputs": [
        {
          "internalType": "uint256",
          "name": "",
          "type": "uint256"
        }
      ],
      "name": "mergeQueue",
      "outputs": [
        {
          "internalType": "uint256",
          "name": "nextMerge",
          "type": "uint256"
        },
        {
          "internalType": "uint256",
          "name": "tokenId1",
          "type": "uint256"
        },
        {
          "internalType": "uint256",
          "name": "tokenId2",
          "type": "uint256"
        }
      ],
      "stateMutability": "view",
      "type": "function",
      "constant": true
    },
    {
      "inputs": [],
      "name": "mergeQueueLength",
      "outputs": [
        {
          "internalType": "uint256",
          "name": "",
          "type": "uint256"
        }
      ],
      "stateMutability": "view",
      "type": "function",
      "constant": true
    },
    {
      "inputs": [],
      "name": "rear",
      "outputs": [
        {
          "internalType": "uint256",
          "name": "",
          "type": "uint256"
        }
      ],
      "stateMutability": "view",
      "type": "function",
      "constant": true
    },
    {
      "inputs": [
        {
          "internalType": "uint256",
          "name": "tokenId1",
          "type": "uint256"
        },
        {
          "internalType": "uint256",
          "name": "tokenId2",
          "type": "uint256"
        }
      ],
      "name": "requestMerge",
      "outputs": [],
      "stateMutability": "nonpayable",
      "type": "function"
    },
    {
      "inputs": [
        {
          "components": [
            {
              "components": [
                {
                  "internalType": "uint256",
                  "name": "X",
                  "type": "uint256"
                },
                {
                  "internalType": "uint256",
                  "name": "Y",
                  "type": "uint256"
                }
              ],
              "internalType": "struct Pairing.G1Point",
              "name": "a",
              "type": "tuple"
            },
            {
              "components": [
                {
                  "internalType": "uint256[2]",
                  "name": "X",
                  "type": "uint256[2]"
                },
                {
                  "internalType": "uint256[2]",
                  "name": "Y",
                  "type": "uint256[2]"
                }
              ],
              "internalType": "struct Pairing.G2Point",
              "name": "b",
              "type": "tuple"
            },
            {
              "components": [
                {
                  "internalType": "uint256",
                  "name": "X",
                  "type": "uint256"
                },
                {
                  "internalType": "uint256",
                  "name": "Y",
                  "type": "uint256"
                }
              ],
              "internalType": "struct Pairing.G1Point",
              "name": "c",
              "type": "tuple"
            }
          ],
          "internalType": "struct MergeZKP.Proof",
          "name": "proof",
          "type": "tuple"
        },
        {
          "internalType": "uint256[3]",
          "name": "resultCardRoots",
          "type": "uint256[3]"
        },
        {
          "internalType": "bool[3]",
          "name": "resultCardsMint",
          "type": "bool[3]"
        },
        {
          "internalType": "uint256",
          "name": "newCardCopiesHashed",
          "type": "uint256"
        }
      ],
      "name": "processMerge",
      "outputs": [],
      "stateMutability": "nonpayable",
      "type": "function"
    }
  ],
  "bytecode": "0x608060405260006001553480156200001657600080fd5b5060405162001ace38038062001ace83398181016040528101906200003c919062000199565b82600560006101000a81548173ffffffffffffffffffffffffffffffffffffffff021916908373ffffffffffffffffffffffffffffffffffffffff16021790555080600760006101000a81548173ffffffffffffffffffffffffffffffffffffffff021916908373ffffffffffffffffffffffffffffffffffffffff16021790555081600660006101000a81548173ffffffffffffffffffffffffffffffffffffffff021916908373ffffffffffffffffffffffffffffffffffffffff1602179055507fa693657d6c91fb3d012c9c0e44c2a411a0c65b00a77a54980938f73c06e82487600481905550505050620001f5565b600080fd5b600073ffffffffffffffffffffffffffffffffffffffff82169050919050565b6000620001618262000134565b9050919050565b620001738162000154565b81146200017f57600080fd5b50565b600081519050620001938162000168565b92915050565b600080600060608486031215620001b557620001b46200012f565b5b6000620001c58682870162000182565b9350506020620001d88682870162000182565b9250506040620001eb8682870162000182565b9150509250925092565b6118c980620002056000396000f3fe608060405234801561001057600080fd5b506004361061007d5760003560e01c80636f060b891161005b5780636f060b89146100da5780638f5f4cbc1461010c5780638f7dcfa31461012a5780639913496f146101485761007d565b8063026113d8146100825780631e8e168f146100a057806369462c1f146100bc575b600080fd5b61008a610164565b6040516100979190610d50565b60405180910390f35b6100ba60048036038101906100b59190610e0a565b61016a565b005b6100c46108d1565b6040516100d19190610d50565b60405180910390f35b6100f460048036038101906100ef9190610e75565b6108d7565b60405161010393929190610ea2565b60405180910390f35b610114610901565b6040516101219190610d50565b60405180910390f35b610132610907565b60405161013f9190610d50565b60405180910390f35b610162600480360381019061015d9190610ed9565b61090d565b005b60045481565b6000600154116101af576040517f08c379a00000000000000000000000000000000000000000000000000000000081526004016101a690610f76565b60405180910390fd5b6000600254905060008060008381526020019081526020016000206001015490506000806000848152602001908152602001600020600201549050600560009054906101000a900473ffffffffffffffffffffffffffffffffffffffff1673ffffffffffffffffffffffffffffffffffffffff16636352211e826040518263ffffffff1660e01b81526004016102459190610d50565b60206040518083038186803b15801561025d57600080fd5b505afa158015610271573d6000803e3d6000fd5b505050506040513d601f19601f820116820180604052508101906102959190610ff4565b73ffffffffffffffffffffffffffffffffffffffff16600560009054906101000a900473ffffffffffffffffffffffffffffffffffffffff1673ffffffffffffffffffffffffffffffffffffffff16636352211e846040518263ffffffff1660e01b81526004016103069190610d50565b60206040518083038186803b15801561031e57600080fd5b505afa158015610332573d6000803e3d6000fd5b505050506040513d601f19601f820116820180604052508101906103569190610ff4565b73ffffffffffffffffffffffffffffffffffffffff16146103ac576040517f08c379a00000000000000000000000000000000000000000000000000000000081526004016103a39061106d565b60405180910390fd5b6103b4610cf2565b60005b60048110156104175767ffffffffffffffff60408260036103d891906110bc565b6103e291906110f0565b600454901c168282601f81106103fb576103fa61114a565b5b602002018181525050808061040f90611179565b9150506103b7565b5060005b60048110156104855767ffffffffffffffff604082600361043c91906110bc565b61044691906110f0565b85901c168282600461045891906111c2565b601f81106104695761046861114a565b5b602002018181525050808061047d90611179565b91505061041b565b5060005b60048110156104f35767ffffffffffffffff60408260036104aa91906110bc565b6104b491906110f0565b84901c16828260086104c691906111c2565b601f81106104d7576104d661114a565b5b60200201818152505080806104eb90611179565b915050610489565b5060005b60038110156105af5760005b600481101561059b5767ffffffffffffffff604082600361052491906110bc565b61052e91906110f0565b8a84600381106105415761054061114a565b5b6020020135901c16838260048561055891906110f0565b600c61056491906111c2565b61056e91906111c2565b601f811061057f5761057e61114a565b5b602002018181525050808061059390611179565b915050610503565b5080806105a790611179565b9150506104f7565b5060005b600381101561062e578681600381106105cf576105ce61114a565b5b6020020160208101906105e29190611250565b6105ed5760006105f0565b60015b60ff168282601861060191906111c2565b601f81106106125761061161114a565b5b602002018181525050808061062690611179565b9150506105b3565b5060005b600481101561069c5767ffffffffffffffff604082600361065391906110bc565b61065d91906110f0565b87901c168282601b61066f91906111c2565b601f81106106805761067f61114a565b5b602002018181525050808061069490611179565b915050610632565b50600760009054906101000a900473ffffffffffffffffffffffffffffffffffffffff1673ffffffffffffffffffffffffffffffffffffffff16635f4c79ce89836040518363ffffffff1660e01b81526004016106fa929190611458565b60206040518083038186803b15801561071257600080fd5b505afa158015610726573d6000803e3d6000fd5b505050506040513d601f19601f8201168201806040525081019061074a9190611498565b610789576040517f08c379a000000000000000000000000000000000000000000000000000000000815260040161078090611511565b60405180910390fd5b610791610d15565b83816000600281106107a6576107a561114a565b5b60200201818152505082816001600281106107c4576107c361114a565b5b602002018181525050600560009054906101000a900473ffffffffffffffffffffffffffffffffffffffff1673ffffffffffffffffffffffffffffffffffffffff1663830b0d7e828a8a6040518463ffffffff1660e01b815260040161082c9392919061168f565b600060405180830381600087803b15801561084657600080fd5b505af115801561085a573d6000803e3d6000fd5b505050508560048190555060008086815260200190815260200160002060000154600281905550600080868152602001908152602001600020600080820160009055600182016000905560028201600090555050600160008154809291906108c1906116c7565b9190505550505050505050505050565b60035481565b60006020528060005260406000206000915090508060000154908060010154908060020154905083565b60015481565b60025481565b3373ffffffffffffffffffffffffffffffffffffffff16600560009054906101000a900473ffffffffffffffffffffffffffffffffffffffff1673ffffffffffffffffffffffffffffffffffffffff16636352211e846040518263ffffffff1660e01b815260040161097f9190610d50565b60206040518083038186803b15801561099757600080fd5b505afa1580156109ab573d6000803e3d6000fd5b505050506040513d601f19601f820116820180604052508101906109cf9190610ff4565b73ffffffffffffffffffffffffffffffffffffffff16148015610ac757503373ffffffffffffffffffffffffffffffffffffffff16600560009054906101000a900473ffffffffffffffffffffffffffffffffffffffff1673ffffffffffffffffffffffffffffffffffffffff16636352211e836040518263ffffffff1660e01b8152600401610a5f9190610d50565b60206040518083038186803b158015610a7757600080fd5b505afa158015610a8b573d6000803e3d6000fd5b505050506040513d601f19601f82011682018060405250810190610aaf9190610ff4565b73ffffffffffffffffffffffffffffffffffffffff16145b610b06576040517f08c379a0000000000000000000000000000000000000000000000000000000008152600401610afd9061173d565b60405180910390fd5b80821415610b49576040517f08c379a0000000000000000000000000000000000000000000000000000000008152600401610b40906117a9565b60405180910390fd5b600660009054906101000a900473ffffffffffffffffffffffffffffffffffffffff1673ffffffffffffffffffffffffffffffffffffffff16639dc29fac33670de0b6b3a76400006040518363ffffffff1660e01b8152600401610bae92919061181d565b600060405180830381600087803b158015610bc857600080fd5b505af1158015610bdc573d6000803e3d6000fd5b5050505060008282604051602001610bf5929190611867565b6040516020818303038152906040528051906020012060001c90506040518060600160405280600081526020018481526020018381525060008083815260200190815260200160002060008201518160000155602082015181600101556040820151816002015590505060006001541115610c8b5780600080600354815260200190815260200160002060000181905550610c93565b806002819055505b8060038190555060016000815480929190610cad90611179565b91905055507faa3f3a85f5ca748a8fa8d2fa45bde0b6816b43c00f25492427d3d45d7977bfd6818484604051610ce593929190610ea2565b60405180910390a1505050565b604051806103e00160405280601f90602082028036833780820191505090505090565b6040518060400160405280600290602082028036833780820191505090505090565b6000819050919050565b610d4a81610d37565b82525050565b6000602082019050610d656000830184610d41565b92915050565b600080fd5b600080fd5b60006101008284031215610d8c57610d8b610d70565b5b81905092915050565b600080fd5b600081905082602060030282011115610db657610db5610d95565b5b92915050565b600081905082602060030282011115610dd857610dd7610d95565b5b92915050565b610de781610d37565b8114610df257600080fd5b50565b600081359050610e0481610dde565b92915050565b6000806000806101e08587031215610e2557610e24610d6b565b5b6000610e3387828801610d75565b945050610100610e4587828801610d9a565b935050610160610e5787828801610dbc565b9250506101c0610e6987828801610df5565b91505092959194509250565b600060208284031215610e8b57610e8a610d6b565b5b6000610e9984828501610df5565b91505092915050565b6000606082019050610eb76000830186610d41565b610ec46020830185610d41565b610ed16040830184610d41565b949350505050565b60008060408385031215610ef057610eef610d6b565b5b6000610efe85828601610df5565b9250506020610f0f85828601610df5565b9150509250929050565b600082825260208201905092915050565b7f4e6f206d657267657320696e2071756575650000000000000000000000000000600082015250565b6000610f60601283610f19565b9150610f6b82610f2a565b602082019050919050565b60006020820190508181036000830152610f8f81610f53565b9050919050565b600073ffffffffffffffffffffffffffffffffffffffff82169050919050565b6000610fc182610f96565b9050919050565b610fd181610fb6565b8114610fdc57600080fd5b50565b600081519050610fee81610fc8565b92915050565b60006020828403121561100a57611009610d6b565b5b600061101884828501610fdf565b91505092915050565b7f6d757374206f776e20626f746820746f6b656e73207374696c6c000000000000600082015250565b6000611057601a83610f19565b915061106282611021565b602082019050919050565b600060208201905081810360008301526110868161104a565b9050919050565b7f4e487b7100000000000000000000000000000000000000000000000000000000600052601160045260246000fd5b60006110c782610d37565b91506110d283610d37565b9250828210156110e5576110e461108d565b5b828203905092915050565b60006110fb82610d37565b915061110683610d37565b9250817fffffffffffffffffffffffffffffffffffffffffffffffffffffffffffffffff048311821515161561113f5761113e61108d565b5b828202905092915050565b7f4e487b7100000000000000000000000000000000000000000000000000000000600052603260045260246000fd5b600061118482610d37565b91507fffffffffffffffffffffffffffffffffffffffffffffffffffffffffffffffff8214156111b7576111b661108d565b5b600182019050919050565b60006111cd82610d37565b91506111d883610d37565b9250827fffffffffffffffffffffffffffffffffffffffffffffffffffffffffffffffff0382111561120d5761120c61108d565b5b828201905092915050565b60008115159050919050565b61122d81611218565b811461123857600080fd5b50565b60008135905061124a81611224565b92915050565b60006020828403121561126657611265610d6b565b5b60006112748482850161123b565b91505092915050565b600082905092915050565b60006112976020840184610df5565b905092915050565b6112a881610d37565b82525050565b604082016112bf6000830183611288565b6112cc600085018261129f565b506112da6020830183611288565b6112e7602085018261129f565b50505050565b600082905092915050565b600082905092915050565b82818337600083830152505050565b61131e60408383611303565b5050565b6080820161133360008301836112f8565b6113406000850182611312565b5061134e60408301836112f8565b61135b6040850182611312565b50505050565b6101008201611373600083018361127d565b61138060008501826112ae565b5061138e60408301836112ed565b61139b6040850182611322565b506113a960c083018361127d565b6113b660c08501826112ae565b50505050565b6000601f9050919050565b600081905092915050565b6000819050919050565b60006113e8838361129f565b60208301905092915050565b6000602082019050919050565b61140a816113bc565b61141481846113c7565b925061141f826113d2565b8060005b8381101561145057815161143787826113dc565b9650611442836113f4565b925050600181019050611423565b505050505050565b60006104e08201905061146e6000830185611361565b61147c610100830184611401565b9392505050565b60008151905061149281611224565b92915050565b6000602082840312156114ae576114ad610d6b565b5b60006114bc84828501611483565b91505092915050565b7f5a65726f204b6e6f776c656467652050726f6f66204661696c65640000000000600082015250565b60006114fb601b83610f19565b9150611506826114c5565b602082019050919050565b6000602082019050818103600083015261152a816114ee565b9050919050565b600060029050919050565b600081905092915050565b6000819050919050565b6000602082019050919050565b61156781611531565b611571818461153c565b925061157c82611547565b8060005b838110156115ad57815161159487826113dc565b965061159f83611551565b925050600181019050611580565b505050505050565b6115c160608383611303565b5050565b600060039050919050565b600081905092915050565b6000819050919050565b6115ee81611218565b82525050565b600061160083836115e5565b60208301905092915050565b600061161b602084018461123b565b905092915050565b6000602082019050919050565b611639816115c5565b61164381846115d0565b925061164e826115db565b8060005b8381101561168757611664828461160c565b61166e87826115f4565b965061167983611623565b925050600181019050611652565b505050505050565b6000610100820190506116a5600083018661155e565b6116b260408301856115b5565b6116bf60a0830184611630565b949350505050565b60006116d282610d37565b915060008214156116e6576116e561108d565b5b600182039050919050565b7f596f75206d757374206f776e2074686520746f6b656e73000000000000000000600082015250565b6000611727601783610f19565b9150611732826116f1565b602082019050919050565b600060208201905081810360008301526117568161171a565b9050919050565b7f456e7465722074776f20646966666572656e7420746f6b656e73000000000000600082015250565b6000611793601a83610f19565b915061179e8261175d565b602082019050919050565b600060208201905081810360008301526117c281611786565b9050919050565b6117d281610fb6565b82525050565b6000819050919050565b6000819050919050565b60006118076118026117fd846117d8565b6117e2565b610d37565b9050919050565b611817816117ec565b82525050565b600060408201905061183260008301856117c9565b61183f602083018461180e565b9392505050565b6000819050919050565b61186161185c82610d37565b611846565b82525050565b60006118738285611850565b6020820191506118838284611850565b602082019150819050939250505056fea26469706673582212204f7d0b51251247f22bff8be39a9b22b98bc58190a1744bdb3819015d5385d52964736f6c63430008090033",
  "immutableReferences": {},
  "source": "// contracts/MyNFT.sol\n// SPDX-License-Identifier: MIT\npragma solidity ^0.8.0;\n\nimport \"./NFR.sol\";\nimport \"./MERGE.sol\";\nimport \"./MergeZKP.sol\";\n\ncontract Merger {\n\n    struct MergeInfo {\n        uint256 nextMerge;\n        uint256 tokenId1;\n        uint256 tokenId2;\n    }\n\n    mapping (uint256 => MergeInfo) public mergeQueue;\n    uint public mergeQueueLength = 0;\n    uint256 public head;\n    uint256 public rear;\n\n   uint256 public cardCopiesHashed; // TODO: make private\n\n    NFR nfr;\n    MERGE merge;\n    MergeZKP mergeZKP;\n\n    constructor(address _nfr, address _merge, address _mergeZKP) {\n        nfr = NFR(_nfr);\n        mergeZKP = MergeZKP(_mergeZKP);\n        merge = MERGE(_merge);\n\n        // 1024 bit preimage representing the hidden card amounts for cards other than baseCardCopyCounts\n        // this is the pedersen hash for pedersen(pedersen(uint256(0),uint256(0)),pedersen(uint256(0),uint256(0)))\n        // all non base cards counts are 0 when the game starts\n        cardCopiesHashed = 0xa693657d6c91fb3d012c9c0e44c2a411a0c65b00a77a54980938f73c06e82487;\n        }\n\n    event AddMerge(uint256 mergeId, uint256 tokenId1, uint256 tokenId2);\n    function requestMerge(uint256 tokenId1, uint256 tokenId2) external {\n        // require(nfr.gameOngoing());\n        require(nfr.ownerOf(tokenId1) == msg.sender && nfr.ownerOf(tokenId2) == msg.sender, \"You must own the tokens\");\n        require(tokenId1 != tokenId2, \"Enter two different tokens\");\n        // require(msg.value >= 0.002);\n        // require(msg.sender merge >= 1 ether)\n        merge.burn(msg.sender, 1 ether);\n\n        uint256 mergeId = uint256(keccak256(abi.encodePacked(tokenId1, tokenId2)));\n        mergeQueue[mergeId] = MergeInfo(0,tokenId1,tokenId2);\n        if (mergeQueueLength > 0)\n            mergeQueue[rear].nextMerge = mergeId;\n        else\n            head = mergeId;\n\n        rear = mergeId;\n\n        mergeQueueLength++;\n\n        emit AddMerge(mergeId, tokenId1, tokenId2);\n    }\n\n    function processMerge(MergeZKP.Proof calldata proof, uint[3] calldata resultCardRoots, bool[3] calldata resultCardsMint, uint newCardCopiesHashed) external {\n        // owner only? function\n        require (mergeQueueLength > 0, \"No merges in queue\");\n        uint256 nextMerge = head;\n\n        uint256 tokenId1 = mergeQueue[nextMerge].tokenId1;\n        uint256 tokenId2 = mergeQueue[nextMerge].tokenId2;\n        require(nfr.ownerOf(tokenId1) == nfr.ownerOf(tokenId2), \"must own both tokens still\");\n\n        // check the merge zero knowledge proof\n        uint[31] memory zkpInput;\n\n        // convert copy counts hashed into 4 u64 ints\n        for (uint i = 0; i < 4; i++) {\n            zkpInput[i] = (cardCopiesHashed >> ((3-i)*64)) & 0xFFFFFFFFFFFFFFFF;\n        }\n        // convert tokenId1 into 4  64 bit uints\n        for (uint i = 0; i < 4; i++) {\n            zkpInput[4+i] = (tokenId1 >> (3-i)*64) & 0xFFFFFFFFFFFFFFFF;\n        }\n        // convert tokenId2 into 4  64 bit uints\n        for (uint i = 0; i < 4; i++) {\n            zkpInput[8+i] = (tokenId2 >> ((3-i)*64)) & 0xFFFFFFFFFFFFFFFF;\n        }\n        // fill the rest in with input\n        for (uint c = 0; c < 3; c++) {\n            for (uint i = 0; i < 4; i++) {\n                zkpInput[12+c*4+i] = (resultCardRoots[c] >> ((3-i)*64)) & 0xFFFFFFFFFFFFFFFF;\n            }\n        }\n        // convert bool of whether or not to mint to uint\n        for (uint i = 0; i < 3; i++) {\n            zkpInput[24+i] = resultCardsMint[i] ? 1: 0;\n        }\n        // add in the new card copy counts to zkp input\n        for (uint i = 0; i < 4; i++) {\n            zkpInput[27+i] = (newCardCopiesHashed >> (3-i)*64) & 0xFFFFFFFFFFFFFFFF;\n        }\n\n        // verifying zero knowledge proof showing this is a fair merge\n        require(mergeZKP.verifyTx(proof,zkpInput), \"Zero Knowledge Proof Failed\");\n\n        uint256[2] memory inputTokens;\n\n        inputTokens[0] = tokenId1;\n        inputTokens[1] = tokenId2;\n\n        // do the token exchange for the merge\n        nfr.doMerge(inputTokens, resultCardRoots, resultCardsMint);\n\n        cardCopiesHashed = newCardCopiesHashed;\n\n        // pop merge from queue\n        head = mergeQueue[nextMerge].nextMerge;\n        delete mergeQueue[nextMerge];\n        mergeQueueLength--;\n    }\n\n//    function convert256bitTo64bit(uint input) internal pure returns(uint[4] memory){\n//        uint[4] memory inputArray;\n//        for (uint8 i = 0; i < 4; i++)\n//            inputArray[i] = (input >> (i*64)) & 0x11111111;\n//        return inputArray;\n//    }\n//\n//    function convert64bitTo256bit(uint[4] memory inputArray) internal pure returns(uint256){\n//        uint256 result = 0;\n//        for (uint8 i = 0; i < 4; i++)\n//            result += inputArray[3 - i] << (64 * i);\n//        return result;\n//    }\n//\n//    function convert32bitTo256bit(uint[8] memory inputArray) internal pure returns(uint256){\n//        uint256 result = 0;\n//        for (uint8 i = 0; i < 8; i++)\n//            result += inputArray[7 - i] << (32 * i);\n//        return result;\n//    }\n}",
  "sourcePath": "/home/prateek/NFR/onchain/contracts/Merger.sol",
  "compiler": {
    "name": "solc",
    "version": "0.8.9+commit.e5eed63a.Emscripten.clang"
  },
  "schemaVersion": "3.4.3",
  "updatedAt": "2022-07-26T23:10:17.253Z",
  "networkType": "ethereum",
  "devdoc": {
    "kind": "dev",
    "methods": {},
    "version": 1
  },
  "userdoc": {
    "kind": "user",
    "methods": {},
    "version": 1
  }
}