{
  "contractName": "Merger",
  "abi": [
    {
      "inputs": [
        {
          "internalType": "address",
          "name": "_nfr",
          "type": "address"
        },
        {
          "internalType": "address",
          "name": "_merge",
          "type": "address"
        },
        {
          "internalType": "address",
          "name": "_mergeZKP",
          "type": "address"
        }
      ],
      "stateMutability": "nonpayable",
      "type": "constructor"
    },
    {
      "anonymous": false,
      "inputs": [
        {
          "indexed": false,
          "internalType": "uint256",
          "name": "mergeId",
          "type": "uint256"
        },
        {
          "indexed": false,
          "internalType": "uint256",
          "name": "tokenId1",
          "type": "uint256"
        },
        {
          "indexed": false,
          "internalType": "uint256",
          "name": "tokenId2",
          "type": "uint256"
        }
      ],
      "name": "AddMerge",
      "type": "event"
    },
    {
      "inputs": [],
      "name": "cardCopiesHashed",
      "outputs": [
        {
          "internalType": "uint256",
          "name": "",
          "type": "uint256"
        }
      ],
      "stateMutability": "view",
      "type": "function",
      "constant": true
    },
    {
      "inputs": [],
      "name": "head",
      "outputs": [
        {
          "internalType": "uint256",
          "name": "",
          "type": "uint256"
        }
      ],
      "stateMutability": "view",
      "type": "function",
      "constant": true
    },
    {
      "inputs": [
        {
          "internalType": "uint256",
          "name": "",
          "type": "uint256"
        }
      ],
      "name": "mergeQueue",
      "outputs": [
        {
          "internalType": "uint256",
          "name": "nextMerge",
          "type": "uint256"
        },
        {
          "internalType": "uint256",
          "name": "tokenId1",
          "type": "uint256"
        },
        {
          "internalType": "uint256",
          "name": "tokenId2",
          "type": "uint256"
        }
      ],
      "stateMutability": "view",
      "type": "function",
      "constant": true
    },
    {
      "inputs": [],
      "name": "mergeQueueLength",
      "outputs": [
        {
          "internalType": "uint256",
          "name": "",
          "type": "uint256"
        }
      ],
      "stateMutability": "view",
      "type": "function",
      "constant": true
    },
    {
      "inputs": [],
      "name": "rear",
      "outputs": [
        {
          "internalType": "uint256",
          "name": "",
          "type": "uint256"
        }
      ],
      "stateMutability": "view",
      "type": "function",
      "constant": true
    },
    {
      "inputs": [
        {
          "internalType": "uint256",
          "name": "tokenId1",
          "type": "uint256"
        },
        {
          "internalType": "uint256",
          "name": "tokenId2",
          "type": "uint256"
        }
      ],
      "name": "requestMerge",
      "outputs": [],
      "stateMutability": "nonpayable",
      "type": "function"
    },
    {
      "inputs": [
        {
          "components": [
            {
              "components": [
                {
                  "internalType": "uint256",
                  "name": "X",
                  "type": "uint256"
                },
                {
                  "internalType": "uint256",
                  "name": "Y",
                  "type": "uint256"
                }
              ],
              "internalType": "struct Pairing.G1Point",
              "name": "a",
              "type": "tuple"
            },
            {
              "components": [
                {
                  "internalType": "uint256[2]",
                  "name": "X",
                  "type": "uint256[2]"
                },
                {
                  "internalType": "uint256[2]",
                  "name": "Y",
                  "type": "uint256[2]"
                }
              ],
              "internalType": "struct Pairing.G2Point",
              "name": "b",
              "type": "tuple"
            },
            {
              "components": [
                {
                  "internalType": "uint256",
                  "name": "X",
                  "type": "uint256"
                },
                {
                  "internalType": "uint256",
                  "name": "Y",
                  "type": "uint256"
                }
              ],
              "internalType": "struct Pairing.G1Point",
              "name": "c",
              "type": "tuple"
            }
          ],
          "internalType": "struct MergeZKP.Proof",
          "name": "proof",
          "type": "tuple"
        },
        {
          "internalType": "uint256[12]",
          "name": "resultCardRoots",
          "type": "uint256[12]"
        },
        {
          "internalType": "bool[3]",
          "name": "resultCardsMint",
          "type": "bool[3]"
        },
        {
          "internalType": "uint256[8]",
          "name": "newCardCopiesHashed",
          "type": "uint256[8]"
        }
      ],
      "name": "processMerge",
      "outputs": [],
      "stateMutability": "nonpayable",
      "type": "function"
    }
  ],
  "bytecode": "0x608060405260006001553480156200001657600080fd5b50604051620021353803806200213583398181016040528101906200003c919062000199565b82600560006101000a81548173ffffffffffffffffffffffffffffffffffffffff021916908373ffffffffffffffffffffffffffffffffffffffff16021790555080600760006101000a81548173ffffffffffffffffffffffffffffffffffffffff021916908373ffffffffffffffffffffffffffffffffffffffff16021790555081600660006101000a81548173ffffffffffffffffffffffffffffffffffffffff021916908373ffffffffffffffffffffffffffffffffffffffff1602179055507fa65f3fa0002aba81ad5f5805158ca53b4c6786ad9dc9845a0acbd5e718ffe95d600481905550505050620001f5565b600080fd5b600073ffffffffffffffffffffffffffffffffffffffff82169050919050565b6000620001618262000134565b9050919050565b620001738162000154565b81146200017f57600080fd5b50565b600081519050620001938162000168565b92915050565b600080600060608486031215620001b557620001b46200012f565b5b6000620001c58682870162000182565b9350506020620001d88682870162000182565b9250506040620001eb8682870162000182565b9150509250925092565b611f3080620002056000396000f3fe608060405234801561001057600080fd5b506004361061007d5760003560e01c80636f060b891161005b5780636f060b89146100da5780638f5f4cbc1461010c5780638f7dcfa31461012a5780639913496f146101485761007d565b8063026113d8146100825780632e2f3ac9146100a057806369462c1f146100bc575b600080fd5b61008a610164565b6040516100979190610f16565b60405180910390f35b6100ba60048036038101906100b59190611408565b61016a565b005b6100c461098f565b6040516100d19190610f16565b60405180910390f35b6100f460048036038101906100ef9190611473565b610995565b604051610103939291906114a0565b60405180910390f35b6101146109bf565b6040516101219190610f16565b60405180910390f35b6101326109c5565b60405161013f9190610f16565b60405180910390f35b610162600480360381019061015d91906114d7565b6109cb565b005b60045481565b6000600154116101af576040517f08c379a00000000000000000000000000000000000000000000000000000000081526004016101a690611574565b60405180910390fd5b6000600254905060008060008381526020019081526020016000206001015490506000806000848152602001908152602001600020600201549050600560009054906101000a900473ffffffffffffffffffffffffffffffffffffffff1673ffffffffffffffffffffffffffffffffffffffff16636352211e826040518263ffffffff1660e01b81526004016102459190610f16565b60206040518083038186803b15801561025d57600080fd5b505afa158015610271573d6000803e3d6000fd5b505050506040513d601f19601f8201168201806040525081019061029591906115f2565b73ffffffffffffffffffffffffffffffffffffffff16600560009054906101000a900473ffffffffffffffffffffffffffffffffffffffff1673ffffffffffffffffffffffffffffffffffffffff16636352211e846040518263ffffffff1660e01b81526004016103069190610f16565b60206040518083038186803b15801561031e57600080fd5b505afa158015610332573d6000803e3d6000fd5b505050506040513d601f19601f8201168201806040525081019061035691906115f2565b73ffffffffffffffffffffffffffffffffffffffff16146103ac576040517f08c379a00000000000000000000000000000000000000000000000000000000081526004016103a39061166b565b60405180910390fd5b6103b4610e96565b60005b60048110156104115760408160036103cf91906116ba565b6103d991906116ee565b6311111111901b84168282602781106103f5576103f4611748565b5b602002018181525050808061040990611777565b9150506103b7565b5060005b600481101561047b57604081600361042d91906116ba565b61043791906116ee565b6311111111901b83168282600461044e91906117c0565b6027811061045f5761045e611748565b5b602002018181525050808061047390611777565b915050610415565b5060005b600c8110156104db578781600c811061049b5761049a611748565b5b6020020151828260086104ae91906117c0565b602781106104bf576104be611748565b5b60200201818152505080806104d390611777565b91505061047f565b5060005b60088110156105455760208160076104f791906116ba565b61050191906116ee565b611111901b600454168282601461051891906117c0565b6027811061052957610528611748565b5b602002018181525050808061053d90611777565b9150506104df565b5060005b60038110156105b65786816003811061056557610564611748565b5b6020020151610575576000610578565b60015b60ff168282601c61058991906117c0565b6027811061059a57610599611748565b5b60200201818152505080806105ae90611777565b915050610549565b5060005b6008811015610616578581600881106105d6576105d5611748565b5b60200201518282601f6105e991906117c0565b602781106105fa576105f9611748565b5b602002018181525050808061060e90611777565b9150506105ba565b50600760009054906101000a900473ffffffffffffffffffffffffffffffffffffffff1673ffffffffffffffffffffffffffffffffffffffff16637c322e3489836040518363ffffffff1660e01b81526004016106749291906119e6565b60206040518083038186803b15801561068c57600080fd5b505afa1580156106a0573d6000803e3d6000fd5b505050506040513d601f19601f820116820180604052508101906106c49190611a26565b610703576040517f08c379a00000000000000000000000000000000000000000000000000000000081526004016106fa90611a9f565b60405180910390fd5b61070b610eb9565b610713610edb565b848260006002811061072857610727611748565b5b602002018181525050838260016002811061074657610745611748565b5b60200201818152505060005b60038110156108815788816003811061076e5761076d611748565b5b60200201511561086e5761085160405180608001604052808c60048561079491906116ee565b600c81106107a5576107a4611748565b5b602002015181526020018c60016004866107bf91906116ee565b6107c991906117c0565b600c81106107da576107d9611748565b5b602002015181526020018c60026004866107f491906116ee565b6107fe91906117c0565b600c811061080f5761080e611748565b5b602002015181526020018c600360048661082991906116ee565b61083391906117c0565b600c811061084457610843611748565b5b6020020151815250610da4565b82826003811061086457610863611748565b5b6020020181815250505b808061087990611777565b915050610752565b50600560009054906101000a900473ffffffffffffffffffffffffffffffffffffffff1673ffffffffffffffffffffffffffffffffffffffff1663830b0d7e83838b6040518463ffffffff1660e01b81526004016108e193929190611c50565b600060405180830381600087803b1580156108fb57600080fd5b505af115801561090f573d6000803e3d6000fd5b5050505061091c87610e1d565b600481905550600080878152602001908152602001600020600001546002819055506000808781526020019081526020016000206000808201600090556001820160009055600282016000905550506001600081548092919061097e90611c88565b919050555050505050505050505050565b60035481565b60006020528060005260406000206000915090508060000154908060010154908060020154905083565b60015481565b60025481565b3373ffffffffffffffffffffffffffffffffffffffff16600560009054906101000a900473ffffffffffffffffffffffffffffffffffffffff1673ffffffffffffffffffffffffffffffffffffffff16636352211e846040518263ffffffff1660e01b8152600401610a3d9190610f16565b60206040518083038186803b158015610a5557600080fd5b505afa158015610a69573d6000803e3d6000fd5b505050506040513d601f19601f82011682018060405250810190610a8d91906115f2565b73ffffffffffffffffffffffffffffffffffffffff16148015610b8557503373ffffffffffffffffffffffffffffffffffffffff16600560009054906101000a900473ffffffffffffffffffffffffffffffffffffffff1673ffffffffffffffffffffffffffffffffffffffff16636352211e836040518263ffffffff1660e01b8152600401610b1d9190610f16565b60206040518083038186803b158015610b3557600080fd5b505afa158015610b49573d6000803e3d6000fd5b505050506040513d601f19601f82011682018060405250810190610b6d91906115f2565b73ffffffffffffffffffffffffffffffffffffffff16145b610bc4576040517f08c379a0000000000000000000000000000000000000000000000000000000008152600401610bbb90611cfe565b60405180910390fd5b80821415610c07576040517f08c379a0000000000000000000000000000000000000000000000000000000008152600401610bfe90611d6a565b60405180910390fd5b600660009054906101000a900473ffffffffffffffffffffffffffffffffffffffff1673ffffffffffffffffffffffffffffffffffffffff16639dc29fac33670de0b6b3a76400006040518363ffffffff1660e01b8152600401610c6c929190611dde565b600060405180830381600087803b158015610c8657600080fd5b505af1158015610c9a573d6000803e3d6000fd5b5050505060008282604051602001610cb3929190611e28565b6040516020818303038152906040528051906020012060001c90506040518060600160405280600081526020018481526020018381525060008083815260200190815260200160002060008201518160000155602082015181600101556040820151816002015590505060006001541115610d4557806000806003548152602001908152602001600020600001819055505b8060038190555060016000815480929190610d5f90611777565b91905055507faa3f3a85f5ca748a8fa8d2fa45bde0b6816b43c00f25492427d3d45d7977bfd6818484604051610d97939291906114a0565b60405180910390a1505050565b6000806000905060005b60048160ff161015610e1357806040610dc79190611e61565b60ff1684826003610dd89190611e9c565b60ff1660048110610dec57610deb611748565b5b6020020151901b82610dfe91906117c0565b91508080610e0b90611ed0565b915050610dae565b5080915050919050565b6000806000905060005b60088160ff161015610e8c57806020610e409190611e61565b60ff1684826007610e519190611e9c565b60ff1660088110610e6557610e64611748565b5b6020020151901b82610e7791906117c0565b91508080610e8490611ed0565b915050610e27565b5080915050919050565b604051806104e00160405280602790602082028036833780820191505090505090565b6040518060400160405280600290602082028036833780820191505090505090565b6040518060600160405280600390602082028036833780820191505090505090565b6000819050919050565b610f1081610efd565b82525050565b6000602082019050610f2b6000830184610f07565b92915050565b6000604051905090565b600080fd5b600080fd5b6000601f19601f8301169050919050565b7f4e487b7100000000000000000000000000000000000000000000000000000000600052604160045260246000fd5b610f8e82610f45565b810181811067ffffffffffffffff82111715610fad57610fac610f56565b5b80604052505050565b6000610fc0610f31565b9050610fcc8282610f85565b919050565b610fda81610efd565b8114610fe557600080fd5b50565b600081359050610ff781610fd1565b92915050565b60006040828403121561101357611012610f40565b5b61101d6040610fb6565b9050600061102d84828501610fe8565b600083015250602061104184828501610fe8565b60208301525092915050565b600080fd5b600067ffffffffffffffff82111561106d5761106c610f56565b5b602082029050919050565b600080fd5b600061109061108b84611052565b610fb6565b905080602084028301858111156110aa576110a9611078565b5b835b818110156110d357806110bf8882610fe8565b8452602084019350506020810190506110ac565b5050509392505050565b600082601f8301126110f2576110f161104d565b5b60026110ff84828561107d565b91505092915050565b60006080828403121561111e5761111d610f40565b5b6111286040610fb6565b90506000611138848285016110dd565b600083015250604061114c848285016110dd565b60208301525092915050565b6000610100828403121561116f5761116e610f40565b5b6111796060610fb6565b9050600061118984828501610ffd565b600083015250604061119d84828501611108565b60208301525060c06111b184828501610ffd565b60408301525092915050565b600067ffffffffffffffff8211156111d8576111d7610f56565b5b602082029050919050565b60006111f66111f1846111bd565b610fb6565b905080602084028301858111156112105761120f611078565b5b835b8181101561123957806112258882610fe8565b845260208401935050602081019050611212565b5050509392505050565b600082601f8301126112585761125761104d565b5b600c6112658482856111e3565b91505092915050565b600067ffffffffffffffff82111561128957611288610f56565b5b602082029050919050565b60008115159050919050565b6112a981611294565b81146112b457600080fd5b50565b6000813590506112c6816112a0565b92915050565b60006112df6112da8461126e565b610fb6565b905080602084028301858111156112f9576112f8611078565b5b835b81811015611322578061130e88826112b7565b8452602084019350506020810190506112fb565b5050509392505050565b600082601f8301126113415761134061104d565b5b600361134e8482856112cc565b91505092915050565b600067ffffffffffffffff82111561137257611371610f56565b5b602082029050919050565b600061139061138b84611357565b610fb6565b905080602084028301858111156113aa576113a9611078565b5b835b818110156113d357806113bf8882610fe8565b8452602084019350506020810190506113ac565b5050509392505050565b600082601f8301126113f2576113f161104d565b5b60086113ff84828561137d565b91505092915050565b6000806000806103e0858703121561142357611422610f3b565b5b600061143187828801611158565b94505061010061144387828801611243565b9350506102806114558782880161132c565b9250506102e0611467878288016113dd565b91505092959194509250565b60006020828403121561148957611488610f3b565b5b600061149784828501610fe8565b91505092915050565b60006060820190506114b56000830186610f07565b6114c26020830185610f07565b6114cf6040830184610f07565b949350505050565b600080604083850312156114ee576114ed610f3b565b5b60006114fc85828601610fe8565b925050602061150d85828601610fe8565b9150509250929050565b600082825260208201905092915050565b7f4e6f206d657267657320696e2071756575650000000000000000000000000000600082015250565b600061155e601283611517565b915061156982611528565b602082019050919050565b6000602082019050818103600083015261158d81611551565b9050919050565b600073ffffffffffffffffffffffffffffffffffffffff82169050919050565b60006115bf82611594565b9050919050565b6115cf816115b4565b81146115da57600080fd5b50565b6000815190506115ec816115c6565b92915050565b60006020828403121561160857611607610f3b565b5b6000611616848285016115dd565b91505092915050565b7f6d757374206f776e20626f746820746f6b656e73207374696c6c000000000000600082015250565b6000611655601a83611517565b91506116608261161f565b602082019050919050565b6000602082019050818103600083015261168481611648565b9050919050565b7f4e487b7100000000000000000000000000000000000000000000000000000000600052601160045260246000fd5b60006116c582610efd565b91506116d083610efd565b9250828210156116e3576116e261168b565b5b828203905092915050565b60006116f982610efd565b915061170483610efd565b9250817fffffffffffffffffffffffffffffffffffffffffffffffffffffffffffffffff048311821515161561173d5761173c61168b565b5b828202905092915050565b7f4e487b7100000000000000000000000000000000000000000000000000000000600052603260045260246000fd5b600061178282610efd565b91507fffffffffffffffffffffffffffffffffffffffffffffffffffffffffffffffff8214156117b5576117b461168b565b5b600182019050919050565b60006117cb82610efd565b91506117d683610efd565b9250827fffffffffffffffffffffffffffffffffffffffffffffffffffffffffffffffff0382111561180b5761180a61168b565b5b828201905092915050565b61181f81610efd565b82525050565b60408201600082015161183b6000850182611816565b50602082015161184e6020850182611816565b50505050565b600060029050919050565b600081905092915050565b6000819050919050565b60006118808383611816565b60208301905092915050565b6000602082019050919050565b6118a281611854565b6118ac818461185f565b92506118b78261186a565b8060005b838110156118e85781516118cf8782611874565b96506118da8361188c565b9250506001810190506118bb565b505050505050565b6080820160008201516119066000850182611899565b5060208201516119196040850182611899565b50505050565b610100820160008201516119366000850182611825565b50602082015161194960408501826118f0565b50604082015161195c60c0850182611825565b50505050565b600060279050919050565b600081905092915050565b6000819050919050565b6000602082019050919050565b61199881611962565b6119a2818461196d565b92506119ad82611978565b8060005b838110156119de5781516119c58782611874565b96506119d083611982565b9250506001810190506119b1565b505050505050565b60006105e0820190506119fc600083018561191f565b611a0a61010083018461198f565b9392505050565b600081519050611a20816112a0565b92915050565b600060208284031215611a3c57611a3b610f3b565b5b6000611a4a84828501611a11565b91505092915050565b7f5a65726f204b6e6f776c656467652050726f6f66204661696c65640000000000600082015250565b6000611a89601b83611517565b9150611a9482611a53565b602082019050919050565b60006020820190508181036000830152611ab881611a7c565b9050919050565b600081905092915050565b611ad381611854565b611add8184611abf565b9250611ae88261186a565b8060005b83811015611b19578151611b008782611874565b9650611b0b8361188c565b925050600181019050611aec565b505050505050565b600060039050919050565b600081905092915050565b6000819050919050565b6000602082019050919050565b611b5781611b21565b611b618184611b2c565b9250611b6c82611b37565b8060005b83811015611b9d578151611b848782611874565b9650611b8f83611b41565b925050600181019050611b70565b505050505050565b600060039050919050565b600081905092915050565b6000819050919050565b611bce81611294565b82525050565b6000611be08383611bc5565b60208301905092915050565b6000602082019050919050565b611c0281611ba5565b611c0c8184611bb0565b9250611c1782611bbb565b8060005b83811015611c48578151611c2f8782611bd4565b9650611c3a83611bec565b925050600181019050611c1b565b505050505050565b600061010082019050611c666000830186611aca565b611c736040830185611b4e565b611c8060a0830184611bf9565b949350505050565b6000611c9382610efd565b91506000821415611ca757611ca661168b565b5b600182039050919050565b7f596f75206d757374206f776e2074686520746f6b656e73000000000000000000600082015250565b6000611ce8601783611517565b9150611cf382611cb2565b602082019050919050565b60006020820190508181036000830152611d1781611cdb565b9050919050565b7f456e7465722074776f20646966666572656e7420746f6b656e73000000000000600082015250565b6000611d54601a83611517565b9150611d5f82611d1e565b602082019050919050565b60006020820190508181036000830152611d8381611d47565b9050919050565b611d93816115b4565b82525050565b6000819050919050565b6000819050919050565b6000611dc8611dc3611dbe84611d99565b611da3565b610efd565b9050919050565b611dd881611dad565b82525050565b6000604082019050611df36000830185611d8a565b611e006020830184611dcf565b9392505050565b6000819050919050565b611e22611e1d82610efd565b611e07565b82525050565b6000611e348285611e11565b602082019150611e448284611e11565b6020820191508190509392505050565b600060ff82169050919050565b6000611e6c82611e54565b9150611e7783611e54565b92508160ff0483118215151615611e9157611e9061168b565b5b828202905092915050565b6000611ea782611e54565b9150611eb283611e54565b925082821015611ec557611ec461168b565b5b828203905092915050565b6000611edb82611e54565b915060ff821415611eef57611eee61168b565b5b60018201905091905056fea26469706673582212200008aa9f89bed164cb89d11832dac449d544a8d833ac41124b71fb0023b1d5b964736f6c63430008090033",
  "immutableReferences": {},
  "source": "// contracts/MyNFT.sol\n// SPDX-License-Identifier: MIT\npragma solidity ^0.8.0;\n\nimport \"./NFR.sol\";\nimport \"./MERGE.sol\";\nimport \"./MergeZKP.sol\";\n\ncontract Merger {\n\n    struct MergeInfo {\n        uint256 nextMerge;\n        uint256 tokenId1;\n        uint256 tokenId2;\n    }\n\n    mapping (uint256 => MergeInfo) public mergeQueue;\n    uint public mergeQueueLength = 0;\n    uint256 public head;\n    uint256 public rear;\n\n   uint256 public cardCopiesHashed; // TODO: make private\n\n    NFR nfr;\n    MERGE merge;\n    MergeZKP mergeZKP;\n\n    constructor(address _nfr, address _merge, address _mergeZKP) {\n        nfr = NFR(_nfr);\n        mergeZKP = MergeZKP(_mergeZKP);\n        merge = MERGE(_merge);\n\n        // 1024 bit preimage representing the hidden card amounts for cards other than baseCardCopyCounts\n        // this is the pedersen hash for pedersen(pedersen(uint256(0),uint256(0)),pedersen(uint256(0),uint256(0)))\n        // all non base cards counts are 0 when the game starts\n        cardCopiesHashed = 0xa65f3fa0002aba81ad5f5805158ca53b4c6786ad9dc9845a0acbd5e718ffe95d;\n    }\n\n    event AddMerge(uint256 mergeId, uint256 tokenId1, uint256 tokenId2);\n    function requestMerge(uint256 tokenId1, uint256 tokenId2) external {\n        require(nfr.ownerOf(tokenId1) == msg.sender && nfr.ownerOf(tokenId2) == msg.sender, \"You must own the tokens\");\n        require(tokenId1 != tokenId2, \"Enter two different tokens\");\n        // require(msg.value >= 0.002);\n        merge.burn(msg.sender, 1 ether);\n\n        uint256 mergeId = uint256(keccak256(abi.encodePacked(tokenId1, tokenId2)));\n        mergeQueue[mergeId] = MergeInfo(0,tokenId1,tokenId2);\n        if (mergeQueueLength > 0)\n            mergeQueue[rear].nextMerge = mergeId;\n        rear = mergeId;\n\n        mergeQueueLength++;\n\n        emit AddMerge(mergeId, tokenId1, tokenId2);\n    }\n\n    function processMerge(MergeZKP.Proof memory proof, uint[12] memory resultCardRoots, bool[3] memory resultCardsMint, uint[8] memory newCardCopiesHashed) external {\n        require (mergeQueueLength > 0, \"No merges in queue\");\n        uint256 nextMerge = head;\n\n        uint256 tokenId1 = mergeQueue[nextMerge].tokenId1;\n        uint256 tokenId2 = mergeQueue[nextMerge].tokenId2;\n        require(nfr.ownerOf(tokenId1) == nfr.ownerOf(tokenId2), \"must own both tokens still\");\n\n        // check the merge zero knowledge proof\n        uint[39] memory zkpInput;\n\n        // convert tokenId1 into 4  64 bit uints\n        for (uint i = 0; i < 4; i++) {\n            zkpInput[i] = tokenId1 & (0x11111111 << (3-i)*64);\n        }\n        // convert tokenId2 into 4  64 bit uints\n        for (uint i = 0; i < 4; i++) {\n            zkpInput[4+i] = tokenId2 & (0x11111111 << (3-i)*64);\n        }\n        // fill the rest in with input\n        for (uint i = 0; i < 12; i++) {\n            zkpInput[8+i] = resultCardRoots[i];\n        }\n        // convert copy counts hashed into 8 u32 ints\n        for (uint i = 0; i < 8; i++) {\n            zkpInput[20+i] = cardCopiesHashed & (0x1111 << (7-i)*32);\n        }\n        // convert bool of whether or not to mint to uint\n        for (uint i = 0; i < 3; i++) {\n            zkpInput[28+i] = resultCardsMint[i] ? 1: 0;\n        }\n        // add in the new card copy counts to zkp input\n        for (uint i = 0; i < 8; i++) {\n            zkpInput[31+i] = newCardCopiesHashed[i];\n        }\n\n        // verifying zero knowledge proof showing this is a fair merge\n        require(mergeZKP.verifyTx(proof,zkpInput), \"Zero Knowledge Proof Failed\");\n\n        uint256[2] memory inputTokens;\n        uint256[3] memory resultTokens;\n\n        inputTokens[0] = tokenId1;\n        inputTokens[1] = tokenId2;\n\n        for (uint i = 0; i < 3; i++) {\n            // if we are supposed to mint the relic\n            if (resultCardsMint[i]) {\n                // mint the corresponding token\n                resultTokens[i] = convert64bitTo256bit([resultCardRoots[i*4], resultCardRoots[i*4+1], resultCardRoots[i*4+2], resultCardRoots[i*4+3]]);\n            }\n        }\n\n        // do the token exchange for the merge\n        nfr.doMerge(inputTokens, resultTokens, resultCardsMint);\n\n        cardCopiesHashed = convert32bitTo256bit(newCardCopiesHashed);\n\n        // pop merge from queue\n        head = mergeQueue[nextMerge].nextMerge;\n        delete mergeQueue[nextMerge];\n        mergeQueueLength--;\n    }\n\n    function convert64bitTo256bit(uint[4] memory inputArray) internal pure returns(uint256){\n        uint256 result = 0;\n        for (uint8 i = 0; i < 4; i++)\n            result += inputArray[3 - i] << (64 * i);\n        return result;\n    }\n\n    function convert32bitTo256bit(uint[8] memory inputArray) internal pure returns(uint256){\n        uint256 result = 0;\n        for (uint8 i = 0; i < 8; i++)\n            result += inputArray[7 - i] << (32 * i);\n        return result;\n    }\n}",
  "sourcePath": "/home/prateek/NFR/onchain/contracts/Merger.sol",
  "compiler": {
    "name": "solc",
    "version": "0.8.9+commit.e5eed63a.Emscripten.clang"
  },
  "schemaVersion": "3.4.3",
  "updatedAt": "2022-05-26T19:05:58.653Z",
  "networkType": "ethereum",
  "devdoc": {
    "kind": "dev",
    "methods": {},
    "version": 1
  },
  "userdoc": {
    "kind": "user",
    "methods": {},
    "version": 1
  }
}