{
  "contractName": "NFR",
  "abi": [
    {
      "inputs": [],
      "stateMutability": "nonpayable",
      "type": "constructor"
    },
    {
      "anonymous": false,
      "inputs": [
        {
          "indexed": true,
          "internalType": "address",
          "name": "owner",
          "type": "address"
        },
        {
          "indexed": true,
          "internalType": "address",
          "name": "approved",
          "type": "address"
        },
        {
          "indexed": true,
          "internalType": "uint256",
          "name": "tokenId",
          "type": "uint256"
        }
      ],
      "name": "Approval",
      "type": "event"
    },
    {
      "anonymous": false,
      "inputs": [
        {
          "indexed": true,
          "internalType": "address",
          "name": "owner",
          "type": "address"
        },
        {
          "indexed": true,
          "internalType": "address",
          "name": "operator",
          "type": "address"
        },
        {
          "indexed": false,
          "internalType": "bool",
          "name": "approved",
          "type": "bool"
        }
      ],
      "name": "ApprovalForAll",
      "type": "event"
    },
    {
      "anonymous": false,
      "inputs": [
        {
          "indexed": true,
          "internalType": "address",
          "name": "from",
          "type": "address"
        },
        {
          "indexed": true,
          "internalType": "address",
          "name": "to",
          "type": "address"
        },
        {
          "indexed": true,
          "internalType": "uint256",
          "name": "tokenId",
          "type": "uint256"
        }
      ],
      "name": "Transfer",
      "type": "event"
    },
    {
      "inputs": [],
      "name": "MAX_MINTABLE",
      "outputs": [
        {
          "internalType": "uint8",
          "name": "",
          "type": "uint8"
        }
      ],
      "stateMutability": "view",
      "type": "function"
    },
    {
      "inputs": [
        {
          "internalType": "address",
          "name": "to",
          "type": "address"
        },
        {
          "internalType": "uint256",
          "name": "tokenId",
          "type": "uint256"
        }
      ],
      "name": "approve",
      "outputs": [],
      "stateMutability": "nonpayable",
      "type": "function"
    },
    {
      "inputs": [
        {
          "internalType": "address",
          "name": "owner",
          "type": "address"
        }
      ],
      "name": "balanceOf",
      "outputs": [
        {
          "internalType": "uint256",
          "name": "",
          "type": "uint256"
        }
      ],
      "stateMutability": "view",
      "type": "function"
    },
    {
      "inputs": [
        {
          "internalType": "uint256",
          "name": "",
          "type": "uint256"
        }
      ],
      "name": "baseCardTokenIDs",
      "outputs": [
        {
          "internalType": "uint256",
          "name": "",
          "type": "uint256"
        }
      ],
      "stateMutability": "view",
      "type": "function"
    },
    {
      "inputs": [],
      "name": "cardsRedeemed",
      "outputs": [
        {
          "internalType": "uint16",
          "name": "",
          "type": "uint16"
        }
      ],
      "stateMutability": "view",
      "type": "function"
    },
    {
      "inputs": [
        {
          "internalType": "uint256",
          "name": "tokenId",
          "type": "uint256"
        }
      ],
      "name": "getApproved",
      "outputs": [
        {
          "internalType": "address",
          "name": "",
          "type": "address"
        }
      ],
      "stateMutability": "view",
      "type": "function"
    },
    {
      "inputs": [
        {
          "internalType": "address",
          "name": "owner",
          "type": "address"
        },
        {
          "internalType": "address",
          "name": "operator",
          "type": "address"
        }
      ],
      "name": "isApprovedForAll",
      "outputs": [
        {
          "internalType": "bool",
          "name": "",
          "type": "bool"
        }
      ],
      "stateMutability": "view",
      "type": "function"
    },
    {
      "inputs": [],
      "name": "name",
      "outputs": [
        {
          "internalType": "string",
          "name": "",
          "type": "string"
        }
      ],
      "stateMutability": "view",
      "type": "function"
    },
    {
      "inputs": [
        {
          "internalType": "uint256",
          "name": "tokenId",
          "type": "uint256"
        }
      ],
      "name": "ownerOf",
      "outputs": [
        {
          "internalType": "address",
          "name": "",
          "type": "address"
        }
      ],
      "stateMutability": "view",
      "type": "function"
    },
    {
      "inputs": [
        {
          "internalType": "address",
          "name": "from",
          "type": "address"
        },
        {
          "internalType": "address",
          "name": "to",
          "type": "address"
        },
        {
          "internalType": "uint256",
          "name": "tokenId",
          "type": "uint256"
        }
      ],
      "name": "safeTransferFrom",
      "outputs": [],
      "stateMutability": "nonpayable",
      "type": "function"
    },
    {
      "inputs": [
        {
          "internalType": "address",
          "name": "from",
          "type": "address"
        },
        {
          "internalType": "address",
          "name": "to",
          "type": "address"
        },
        {
          "internalType": "uint256",
          "name": "tokenId",
          "type": "uint256"
        },
        {
          "internalType": "bytes",
          "name": "_data",
          "type": "bytes"
        }
      ],
      "name": "safeTransferFrom",
      "outputs": [],
      "stateMutability": "nonpayable",
      "type": "function"
    },
    {
      "inputs": [
        {
          "internalType": "address",
          "name": "operator",
          "type": "address"
        },
        {
          "internalType": "bool",
          "name": "approved",
          "type": "bool"
        }
      ],
      "name": "setApprovalForAll",
      "outputs": [],
      "stateMutability": "nonpayable",
      "type": "function"
    },
    {
      "inputs": [
        {
          "internalType": "bytes4",
          "name": "interfaceId",
          "type": "bytes4"
        }
      ],
      "name": "supportsInterface",
      "outputs": [
        {
          "internalType": "bool",
          "name": "",
          "type": "bool"
        }
      ],
      "stateMutability": "view",
      "type": "function"
    },
    {
      "inputs": [],
      "name": "symbol",
      "outputs": [
        {
          "internalType": "string",
          "name": "",
          "type": "string"
        }
      ],
      "stateMutability": "view",
      "type": "function"
    },
    {
      "inputs": [
        {
          "internalType": "uint256",
          "name": "tokenId",
          "type": "uint256"
        }
      ],
      "name": "tokenURI",
      "outputs": [
        {
          "internalType": "string",
          "name": "",
          "type": "string"
        }
      ],
      "stateMutability": "view",
      "type": "function"
    },
    {
      "inputs": [
        {
          "internalType": "address",
          "name": "from",
          "type": "address"
        },
        {
          "internalType": "address",
          "name": "to",
          "type": "address"
        },
        {
          "internalType": "uint256",
          "name": "tokenId",
          "type": "uint256"
        }
      ],
      "name": "transferFrom",
      "outputs": [],
      "stateMutability": "nonpayable",
      "type": "function"
    },
    {
      "inputs": [],
      "name": "mint",
      "outputs": [],
      "stateMutability": "payable",
      "type": "function"
    },
    {
      "inputs": [
        {
          "internalType": "uint256",
          "name": "card1",
          "type": "uint256"
        },
        {
          "internalType": "uint256",
          "name": "card2",
          "type": "uint256"
        }
      ],
      "name": "merge",
      "outputs": [],
      "stateMutability": "nonpayable",
      "type": "function"
    }
  ],
  "bytecode": "0x60806040523480156200001157600080fd5b506040518060400160405280600a81526020017f4e46522069736c616e64000000000000000000000000000000000000000000008152506040518060400160405280600381526020017f4e4652000000000000000000000000000000000000000000000000000000000081525081600090805190602001906200009692919062000190565b508060019080519060200190620000af92919062000190565b5050506000600660006101000a81548161ffff021916908361ffff1602179055507f3622270ee2d86a424ec39b290b301909faa80691a96f1db92509a8a1ba6bac21600760006003811062000109576200010862000240565b5b01819055507f325337c6f247e8915fb53a3edbf19a210d283edc26e02f14b5d0d54e8ee9ce11600760016003811062000147576200014662000240565b5b01819055507f8f5dcb386d0518b8615b08d9589ee65883faf02d5da0e3d62950d328b4d94040600760026003811062000185576200018462000240565b5b0181905550620002d4565b8280546200019e906200029e565b90600052602060002090601f016020900481019282620001c257600085556200020e565b82601f10620001dd57805160ff19168380011785556200020e565b828001600101855582156200020e579182015b828111156200020d578251825591602001919060010190620001f0565b5b5090506200021d919062000221565b5090565b5b808211156200023c57600081600090555060010162000222565b5090565b7f4e487b7100000000000000000000000000000000000000000000000000000000600052603260045260246000fd5b7f4e487b7100000000000000000000000000000000000000000000000000000000600052602260045260246000fd5b60006002820490506001821680620002b757607f821691505b60208210811415620002ce57620002cd6200026f565b5b50919050565b612c1880620002e46000396000f3fe6080604052600436106101095760003560e01c80636352211e11610095578063ad1424df11610064578063ad1424df1461035c578063b88d4fde14610399578063c87b56dd146103c2578063d1c2babb146103ff578063e985e9c51461042857610109565b80636352211e1461028e57806370a08231146102cb57806395d89b4114610308578063a22cb4651461033357610109565b80631249c58b116100dc5780631249c58b146101dc57806323b872dd146101e65780633f879faf1461020f57806342842e0e1461023a578063465e449a1461026357610109565b806301ffc9a71461010e57806306fdde031461014b578063081812fc14610176578063095ea7b3146101b3575b600080fd5b34801561011a57600080fd5b50610135600480360381019061013091906119dc565b610465565b6040516101429190611a24565b60405180910390f35b34801561015757600080fd5b50610160610547565b60405161016d9190611ad8565b60405180910390f35b34801561018257600080fd5b5061019d60048036038101906101989190611b30565b6105d9565b6040516101aa9190611b9e565b60405180910390f35b3480156101bf57600080fd5b506101da60048036038101906101d59190611be5565b61065e565b005b6101e4610776565b005b3480156101f257600080fd5b5061020d60048036038101906102089190611c25565b610809565b005b34801561021b57600080fd5b50610224610869565b6040516102319190611c94565b60405180910390f35b34801561024657600080fd5b50610261600480360381019061025c9190611c25565b61086e565b005b34801561026f57600080fd5b5061027861088e565b6040516102859190611ccc565b60405180910390f35b34801561029a57600080fd5b506102b560048036038101906102b09190611b30565b6108a2565b6040516102c29190611b9e565b60405180910390f35b3480156102d757600080fd5b506102f260048036038101906102ed9190611ce7565b610954565b6040516102ff9190611d23565b60405180910390f35b34801561031457600080fd5b5061031d610a0c565b60405161032a9190611ad8565b60405180910390f35b34801561033f57600080fd5b5061035a60048036038101906103559190611d6a565b610a9e565b005b34801561036857600080fd5b50610383600480360381019061037e9190611b30565b610c1f565b6040516103909190611d23565b60405180910390f35b3480156103a557600080fd5b506103c060048036038101906103bb9190611edf565b610c3a565b005b3480156103ce57600080fd5b506103e960048036038101906103e49190611b30565b610c9c565b6040516103f69190611ad8565b60405180910390f35b34801561040b57600080fd5b5061042660048036038101906104219190611f62565b610d43565b005b34801561043457600080fd5b5061044f600480360381019061044a9190611fa2565b610e41565b60405161045c9190611a24565b60405180910390f35b60007f80ac58cd000000000000000000000000000000000000000000000000000000007bffffffffffffffffffffffffffffffffffffffffffffffffffffffff1916827bffffffffffffffffffffffffffffffffffffffffffffffffffffffff1916148061053057507f5b5e139f000000000000000000000000000000000000000000000000000000007bffffffffffffffffffffffffffffffffffffffffffffffffffffffff1916827bffffffffffffffffffffffffffffffffffffffffffffffffffffffff1916145b80610540575061053f82610ed5565b5b9050919050565b60606000805461055690612011565b80601f016020809104026020016040519081016040528092919081815260200182805461058290612011565b80156105cf5780601f106105a4576101008083540402835291602001916105cf565b820191906000526020600020905b8154815290600101906020018083116105b257829003601f168201915b5050505050905090565b60006105e482610f3f565b610623576040517f08c379a000000000000000000000000000000000000000000000000000000000815260040161061a906120b5565b60405180910390fd5b6004600083815260200190815260200160002060009054906101000a900473ffffffffffffffffffffffffffffffffffffffff169050919050565b6000610669826108a2565b90508073ffffffffffffffffffffffffffffffffffffffff168373ffffffffffffffffffffffffffffffffffffffff1614156106da576040517f08c379a00000000000000000000000000000000000000000000000000000000081526004016106d190612147565b60405180910390fd5b8073ffffffffffffffffffffffffffffffffffffffff166106f9610fab565b73ffffffffffffffffffffffffffffffffffffffff161480610728575061072781610722610fab565b610e41565b5b610767576040517f08c379a000000000000000000000000000000000000000000000000000000000815260040161075e906121d9565b60405180910390fd5b6107718383610fb3565b505050565b600360ff16600660009054906101000a900461ffff1661ffff161061079a57600080fd5b6107cd336007600660009054906101000a900461ffff1661ffff16600381106107c6576107c56121f9565b5b015461106c565b6001600660008282829054906101000a900461ffff166107ed9190612257565b92506101000a81548161ffff021916908361ffff160217905550565b61081a610814610fab565b8261108a565b610859576040517f08c379a000000000000000000000000000000000000000000000000000000000815260040161085090612301565b60405180910390fd5b610864838383611168565b505050565b600381565b61088983838360405180602001604052806000815250610c3a565b505050565b600660009054906101000a900461ffff1681565b6000806002600084815260200190815260200160002060009054906101000a900473ffffffffffffffffffffffffffffffffffffffff169050600073ffffffffffffffffffffffffffffffffffffffff168173ffffffffffffffffffffffffffffffffffffffff16141561094b576040517f08c379a000000000000000000000000000000000000000000000000000000000815260040161094290612393565b60405180910390fd5b80915050919050565b60008073ffffffffffffffffffffffffffffffffffffffff168273ffffffffffffffffffffffffffffffffffffffff1614156109c5576040517f08c379a00000000000000000000000000000000000000000000000000000000081526004016109bc90612425565b60405180910390fd5b600360008373ffffffffffffffffffffffffffffffffffffffff1673ffffffffffffffffffffffffffffffffffffffff168152602001908152602001600020549050919050565b606060018054610a1b90612011565b80601f0160208091040260200160405190810160405280929190818152602001828054610a4790612011565b8015610a945780601f10610a6957610100808354040283529160200191610a94565b820191906000526020600020905b815481529060010190602001808311610a7757829003601f168201915b5050505050905090565b610aa6610fab565b73ffffffffffffffffffffffffffffffffffffffff168273ffffffffffffffffffffffffffffffffffffffff161415610b14576040517f08c379a0000000000000000000000000000000000000000000000000000000008152600401610b0b90612491565b60405180910390fd5b8060056000610b21610fab565b73ffffffffffffffffffffffffffffffffffffffff1673ffffffffffffffffffffffffffffffffffffffff16815260200190815260200160002060008473ffffffffffffffffffffffffffffffffffffffff1673ffffffffffffffffffffffffffffffffffffffff16815260200190815260200160002060006101000a81548160ff0219169083151502179055508173ffffffffffffffffffffffffffffffffffffffff16610bce610fab565b73ffffffffffffffffffffffffffffffffffffffff167f17307eab39ab6107e8899845ad3d59bd9653f200f220920489ca2b5937696c3183604051610c139190611a24565b60405180910390a35050565b60078160038110610c2f57600080fd5b016000915090505481565b610c4b610c45610fab565b8361108a565b610c8a576040517f08c379a0000000000000000000000000000000000000000000000000000000008152600401610c8190612301565b60405180910390fd5b610c96848484846113c4565b50505050565b6060610ca782610f3f565b610ce6576040517f08c379a0000000000000000000000000000000000000000000000000000000008152600401610cdd90612523565b60405180910390fd5b6000610cf0611420565b90506000815111610d105760405180602001604052806000815250610d3b565b80610d1a84611437565b604051602001610d2b92919061257f565b6040516020818303038152906040525b915050919050565b610d4b610fab565b73ffffffffffffffffffffffffffffffffffffffff16610d6a836108a2565b73ffffffffffffffffffffffffffffffffffffffff1614610dc0576040517f08c379a0000000000000000000000000000000000000000000000000000000008152600401610db7906125ef565b60405180910390fd5b610dc8610fab565b73ffffffffffffffffffffffffffffffffffffffff16610de7826108a2565b73ffffffffffffffffffffffffffffffffffffffff1614610e3d576040517f08c379a0000000000000000000000000000000000000000000000000000000008152600401610e349061265b565b60405180910390fd5b5050565b6000600560008473ffffffffffffffffffffffffffffffffffffffff1673ffffffffffffffffffffffffffffffffffffffff16815260200190815260200160002060008373ffffffffffffffffffffffffffffffffffffffff1673ffffffffffffffffffffffffffffffffffffffff16815260200190815260200160002060009054906101000a900460ff16905092915050565b60007f01ffc9a7000000000000000000000000000000000000000000000000000000007bffffffffffffffffffffffffffffffffffffffffffffffffffffffff1916827bffffffffffffffffffffffffffffffffffffffffffffffffffffffff1916149050919050565b60008073ffffffffffffffffffffffffffffffffffffffff166002600084815260200190815260200160002060009054906101000a900473ffffffffffffffffffffffffffffffffffffffff1673ffffffffffffffffffffffffffffffffffffffff1614159050919050565b600033905090565b816004600083815260200190815260200160002060006101000a81548173ffffffffffffffffffffffffffffffffffffffff021916908373ffffffffffffffffffffffffffffffffffffffff160217905550808273ffffffffffffffffffffffffffffffffffffffff16611026836108a2565b73ffffffffffffffffffffffffffffffffffffffff167f8c5be1e5ebec7d5bd14f71427d1e84f3dd0314c0f7b2291e5b200ac8c7c3b92560405160405180910390a45050565b611086828260405180602001604052806000815250611598565b5050565b600061109582610f3f565b6110d4576040517f08c379a00000000000000000000000000000000000000000000000000000000081526004016110cb906126ed565b60405180910390fd5b60006110df836108a2565b90508073ffffffffffffffffffffffffffffffffffffffff168473ffffffffffffffffffffffffffffffffffffffff16148061114e57508373ffffffffffffffffffffffffffffffffffffffff16611136846105d9565b73ffffffffffffffffffffffffffffffffffffffff16145b8061115f575061115e8185610e41565b5b91505092915050565b8273ffffffffffffffffffffffffffffffffffffffff16611188826108a2565b73ffffffffffffffffffffffffffffffffffffffff16146111de576040517f08c379a00000000000000000000000000000000000000000000000000000000081526004016111d59061277f565b60405180910390fd5b600073ffffffffffffffffffffffffffffffffffffffff168273ffffffffffffffffffffffffffffffffffffffff16141561124e576040517f08c379a000000000000000000000000000000000000000000000000000000000815260040161124590612811565b60405180910390fd5b6112598383836115f3565b611264600082610fb3565b6001600360008573ffffffffffffffffffffffffffffffffffffffff1673ffffffffffffffffffffffffffffffffffffffff16815260200190815260200160002060008282546112b49190612831565b925050819055506001600360008473ffffffffffffffffffffffffffffffffffffffff1673ffffffffffffffffffffffffffffffffffffffff168152602001908152602001600020600082825461130b9190612865565b92505081905550816002600083815260200190815260200160002060006101000a81548173ffffffffffffffffffffffffffffffffffffffff021916908373ffffffffffffffffffffffffffffffffffffffff160217905550808273ffffffffffffffffffffffffffffffffffffffff168473ffffffffffffffffffffffffffffffffffffffff167fddf252ad1be2c89b69c2b068fc378daa952ba7f163c4a11628f55a4df523b3ef60405160405180910390a4505050565b6113cf848484611168565b6113db848484846115f8565b61141a576040517f08c379a00000000000000000000000000000000000000000000000000000000081526004016114119061292d565b60405180910390fd5b50505050565b606060405180602001604052806000815250905090565b6060600082141561147f576040518060400160405280600181526020017f30000000000000000000000000000000000000000000000000000000000000008152509050611593565b600082905060005b600082146114b157808061149a9061294d565b915050600a826114aa91906129c5565b9150611487565b60008167ffffffffffffffff8111156114cd576114cc611db4565b5b6040519080825280601f01601f1916602001820160405280156114ff5781602001600182028036833780820191505090505b5090505b6000851461158c576001826115189190612831565b9150600a8561152791906129f6565b60306115339190612865565b60f81b818381518110611549576115486121f9565b5b60200101907effffffffffffffffffffffffffffffffffffffffffffffffffffffffffffff1916908160001a905350600a8561158591906129c5565b9450611503565b8093505050505b919050565b6115a2838361178f565b6115af60008484846115f8565b6115ee576040517f08c379a00000000000000000000000000000000000000000000000000000000081526004016115e59061292d565b60405180910390fd5b505050565b505050565b60006116198473ffffffffffffffffffffffffffffffffffffffff1661195d565b15611782578373ffffffffffffffffffffffffffffffffffffffff1663150b7a02611642610fab565b8786866040518563ffffffff1660e01b81526004016116649493929190612a7c565b602060405180830381600087803b15801561167e57600080fd5b505af19250505080156116af57506040513d601f19601f820116820180604052508101906116ac9190612add565b60015b611732573d80600081146116df576040519150601f19603f3d011682016040523d82523d6000602084013e6116e4565b606091505b5060008151141561172a576040517f08c379a00000000000000000000000000000000000000000000000000000000081526004016117219061292d565b60405180910390fd5b805181602001fd5b63150b7a0260e01b7bffffffffffffffffffffffffffffffffffffffffffffffffffffffff1916817bffffffffffffffffffffffffffffffffffffffffffffffffffffffff191614915050611787565b600190505b949350505050565b600073ffffffffffffffffffffffffffffffffffffffff168273ffffffffffffffffffffffffffffffffffffffff1614156117ff576040517f08c379a00000000000000000000000000000000000000000000000000000000081526004016117f690612b56565b60405180910390fd5b61180881610f3f565b15611848576040517f08c379a000000000000000000000000000000000000000000000000000000000815260040161183f90612bc2565b60405180910390fd5b611854600083836115f3565b6001600360008473ffffffffffffffffffffffffffffffffffffffff1673ffffffffffffffffffffffffffffffffffffffff16815260200190815260200160002060008282546118a49190612865565b92505081905550816002600083815260200190815260200160002060006101000a81548173ffffffffffffffffffffffffffffffffffffffff021916908373ffffffffffffffffffffffffffffffffffffffff160217905550808273ffffffffffffffffffffffffffffffffffffffff16600073ffffffffffffffffffffffffffffffffffffffff167fddf252ad1be2c89b69c2b068fc378daa952ba7f163c4a11628f55a4df523b3ef60405160405180910390a45050565b600080823b905060008111915050919050565b6000604051905090565b600080fd5b600080fd5b60007fffffffff0000000000000000000000000000000000000000000000000000000082169050919050565b6119b981611984565b81146119c457600080fd5b50565b6000813590506119d6816119b0565b92915050565b6000602082840312156119f2576119f161197a565b5b6000611a00848285016119c7565b91505092915050565b60008115159050919050565b611a1e81611a09565b82525050565b6000602082019050611a396000830184611a15565b92915050565b600081519050919050565b600082825260208201905092915050565b60005b83811015611a79578082015181840152602081019050611a5e565b83811115611a88576000848401525b50505050565b6000601f19601f8301169050919050565b6000611aaa82611a3f565b611ab48185611a4a565b9350611ac4818560208601611a5b565b611acd81611a8e565b840191505092915050565b60006020820190508181036000830152611af28184611a9f565b905092915050565b6000819050919050565b611b0d81611afa565b8114611b1857600080fd5b50565b600081359050611b2a81611b04565b92915050565b600060208284031215611b4657611b4561197a565b5b6000611b5484828501611b1b565b91505092915050565b600073ffffffffffffffffffffffffffffffffffffffff82169050919050565b6000611b8882611b5d565b9050919050565b611b9881611b7d565b82525050565b6000602082019050611bb36000830184611b8f565b92915050565b611bc281611b7d565b8114611bcd57600080fd5b50565b600081359050611bdf81611bb9565b92915050565b60008060408385031215611bfc57611bfb61197a565b5b6000611c0a85828601611bd0565b9250506020611c1b85828601611b1b565b9150509250929050565b600080600060608486031215611c3e57611c3d61197a565b5b6000611c4c86828701611bd0565b9350506020611c5d86828701611bd0565b9250506040611c6e86828701611b1b565b9150509250925092565b600060ff82169050919050565b611c8e81611c78565b82525050565b6000602082019050611ca96000830184611c85565b92915050565b600061ffff82169050919050565b611cc681611caf565b82525050565b6000602082019050611ce16000830184611cbd565b92915050565b600060208284031215611cfd57611cfc61197a565b5b6000611d0b84828501611bd0565b91505092915050565b611d1d81611afa565b82525050565b6000602082019050611d386000830184611d14565b92915050565b611d4781611a09565b8114611d5257600080fd5b50565b600081359050611d6481611d3e565b92915050565b60008060408385031215611d8157611d8061197a565b5b6000611d8f85828601611bd0565b9250506020611da085828601611d55565b9150509250929050565b600080fd5b600080fd5b7f4e487b7100000000000000000000000000000000000000000000000000000000600052604160045260246000fd5b611dec82611a8e565b810181811067ffffffffffffffff82111715611e0b57611e0a611db4565b5b80604052505050565b6000611e1e611970565b9050611e2a8282611de3565b919050565b600067ffffffffffffffff821115611e4a57611e49611db4565b5b611e5382611a8e565b9050602081019050919050565b82818337600083830152505050565b6000611e82611e7d84611e2f565b611e14565b905082815260208101848484011115611e9e57611e9d611daf565b5b611ea9848285611e60565b509392505050565b600082601f830112611ec657611ec5611daa565b5b8135611ed6848260208601611e6f565b91505092915050565b60008060008060808587031215611ef957611ef861197a565b5b6000611f0787828801611bd0565b9450506020611f1887828801611bd0565b9350506040611f2987828801611b1b565b925050606085013567ffffffffffffffff811115611f4a57611f4961197f565b5b611f5687828801611eb1565b91505092959194509250565b60008060408385031215611f7957611f7861197a565b5b6000611f8785828601611b1b565b9250506020611f9885828601611b1b565b9150509250929050565b60008060408385031215611fb957611fb861197a565b5b6000611fc785828601611bd0565b9250506020611fd885828601611bd0565b9150509250929050565b7f4e487b7100000000000000000000000000000000000000000000000000000000600052602260045260246000fd5b6000600282049050600182168061202957607f821691505b6020821081141561203d5761203c611fe2565b5b50919050565b7f4552433732313a20617070726f76656420717565727920666f72206e6f6e657860008201527f697374656e7420746f6b656e0000000000000000000000000000000000000000602082015250565b600061209f602c83611a4a565b91506120aa82612043565b604082019050919050565b600060208201905081810360008301526120ce81612092565b9050919050565b7f4552433732313a20617070726f76616c20746f2063757272656e74206f776e6560008201527f7200000000000000000000000000000000000000000000000000000000000000602082015250565b6000612131602183611a4a565b915061213c826120d5565b604082019050919050565b6000602082019050818103600083015261216081612124565b9050919050565b7f4552433732313a20617070726f76652063616c6c6572206973206e6f74206f7760008201527f6e6572206e6f7220617070726f76656420666f7220616c6c0000000000000000602082015250565b60006121c3603883611a4a565b91506121ce82612167565b604082019050919050565b600060208201905081810360008301526121f2816121b6565b9050919050565b7f4e487b7100000000000000000000000000000000000000000000000000000000600052603260045260246000fd5b7f4e487b7100000000000000000000000000000000000000000000000000000000600052601160045260246000fd5b600061226282611caf565b915061226d83611caf565b92508261ffff0382111561228457612283612228565b5b828201905092915050565b7f4552433732313a207472616e736665722063616c6c6572206973206e6f74206f60008201527f776e6572206e6f7220617070726f766564000000000000000000000000000000602082015250565b60006122eb603183611a4a565b91506122f68261228f565b604082019050919050565b6000602082019050818103600083015261231a816122de565b9050919050565b7f4552433732313a206f776e657220717565727920666f72206e6f6e657869737460008201527f656e7420746f6b656e0000000000000000000000000000000000000000000000602082015250565b600061237d602983611a4a565b915061238882612321565b604082019050919050565b600060208201905081810360008301526123ac81612370565b9050919050565b7f4552433732313a2062616c616e636520717565727920666f7220746865207a6560008201527f726f206164647265737300000000000000000000000000000000000000000000602082015250565b600061240f602a83611a4a565b915061241a826123b3565b604082019050919050565b6000602082019050818103600083015261243e81612402565b9050919050565b7f4552433732313a20617070726f766520746f2063616c6c657200000000000000600082015250565b600061247b601983611a4a565b915061248682612445565b602082019050919050565b600060208201905081810360008301526124aa8161246e565b9050919050565b7f4552433732314d657461646174613a2055524920717565727920666f72206e6f60008201527f6e6578697374656e7420746f6b656e0000000000000000000000000000000000602082015250565b600061250d602f83611a4a565b9150612518826124b1565b604082019050919050565b6000602082019050818103600083015261253c81612500565b9050919050565b600081905092915050565b600061255982611a3f565b6125638185612543565b9350612573818560208601611a5b565b80840191505092915050565b600061258b828561254e565b9150612597828461254e565b91508190509392505050565b7f4d757374206f776e206361726431000000000000000000000000000000000000600082015250565b60006125d9600e83611a4a565b91506125e4826125a3565b602082019050919050565b60006020820190508181036000830152612608816125cc565b9050919050565b7f4d757374206f776e206361726432000000000000000000000000000000000000600082015250565b6000612645600e83611a4a565b91506126508261260f565b602082019050919050565b6000602082019050818103600083015261267481612638565b9050919050565b7f4552433732313a206f70657261746f7220717565727920666f72206e6f6e657860008201527f697374656e7420746f6b656e0000000000000000000000000000000000000000602082015250565b60006126d7602c83611a4a565b91506126e28261267b565b604082019050919050565b60006020820190508181036000830152612706816126ca565b9050919050565b7f4552433732313a207472616e73666572206f6620746f6b656e2074686174206960008201527f73206e6f74206f776e0000000000000000000000000000000000000000000000602082015250565b6000612769602983611a4a565b91506127748261270d565b604082019050919050565b600060208201905081810360008301526127988161275c565b9050919050565b7f4552433732313a207472616e7366657220746f20746865207a65726f2061646460008201527f7265737300000000000000000000000000000000000000000000000000000000602082015250565b60006127fb602483611a4a565b91506128068261279f565b604082019050919050565b6000602082019050818103600083015261282a816127ee565b9050919050565b600061283c82611afa565b915061284783611afa565b92508282101561285a57612859612228565b5b828203905092915050565b600061287082611afa565b915061287b83611afa565b9250827fffffffffffffffffffffffffffffffffffffffffffffffffffffffffffffffff038211156128b0576128af612228565b5b828201905092915050565b7f4552433732313a207472616e7366657220746f206e6f6e20455243373231526560008201527f63656976657220696d706c656d656e7465720000000000000000000000000000602082015250565b6000612917603283611a4a565b9150612922826128bb565b604082019050919050565b600060208201905081810360008301526129468161290a565b9050919050565b600061295882611afa565b91507fffffffffffffffffffffffffffffffffffffffffffffffffffffffffffffffff82141561298b5761298a612228565b5b600182019050919050565b7f4e487b7100000000000000000000000000000000000000000000000000000000600052601260045260246000fd5b60006129d082611afa565b91506129db83611afa565b9250826129eb576129ea612996565b5b828204905092915050565b6000612a0182611afa565b9150612a0c83611afa565b925082612a1c57612a1b612996565b5b828206905092915050565b600081519050919050565b600082825260208201905092915050565b6000612a4e82612a27565b612a588185612a32565b9350612a68818560208601611a5b565b612a7181611a8e565b840191505092915050565b6000608082019050612a916000830187611b8f565b612a9e6020830186611b8f565b612aab6040830185611d14565b8181036060830152612abd8184612a43565b905095945050505050565b600081519050612ad7816119b0565b92915050565b600060208284031215612af357612af261197a565b5b6000612b0184828501612ac8565b91505092915050565b7f4552433732313a206d696e7420746f20746865207a65726f2061646472657373600082015250565b6000612b40602083611a4a565b9150612b4b82612b0a565b602082019050919050565b60006020820190508181036000830152612b6f81612b33565b9050919050565b7f4552433732313a20746f6b656e20616c7265616479206d696e74656400000000600082015250565b6000612bac601c83611a4a565b9150612bb782612b76565b602082019050919050565b60006020820190508181036000830152612bdb81612b9f565b905091905056fea26469706673582212205693206de976cf0b86f315a7f66124af9d13036d16255527bada063fe588171964736f6c63430008090033",
  "immutableReferences": {},
  "source": "// contracts/MyNFT.sol\n// SPDX-License-Identifier: MIT\npragma solidity ^0.8.0;\n\nimport \"@openzeppelin/contracts/token/ERC721/ERC721.sol\";\n//import \"@openzeppelin/contracts/utils/cryptography/MerkleProof.sol\";\n\ncontract NFR is ERC721 {\n\n    // some are hiddenCards and some are regular cards. Some ERC721 or ERC20\n\n    uint8 public constant MAX_MINTABLE = 3;\n    uint16 public cardsRedeemed;\n\n    // if we need more info than merkleRoot per card, then create a struct that the ID maps to\n    // map from hiddenCardId -> merkleRoot\n    uint256[3] public baseCardTokenIDs; //tokenIDs of baseCards are also merkle roots\n\n    // mapping (uint256 => bytes32) cardIdToMerkleRoot;\n    // map from mintNum to hiddenCardId\n    // mapping (uint16 => uint256) mintOrder;\n    // mapping (uint16 => bytes32) hiddenCardIdToMerkleRoot;\n\n    constructor() ERC721(\"NFR island\", \"NFR\") {\n        cardsRedeemed = 0;\n        baseCardTokenIDs[0]=0x3622270ee2d86a424ec39b290b301909faa80691a96f1db92509a8a1ba6bac21;\n        baseCardTokenIDs[1]=0x325337c6f247e8915fb53a3edbf19a210d283edc26e02f14b5d0d54e8ee9ce11;\n        baseCardTokenIDs[2]=0x8f5dcb386d0518b8615b08d9589ee65883faf02d5da0e3d62950d328b4d94040;\n    }\n\n    function mint() external payable {\n        require(cardsRedeemed < MAX_MINTABLE);\n        _safeMint(msg.sender, baseCardTokenIDs[cardsRedeemed]);\n        cardsRedeemed+=1;\n    }\n\n    function merge(uint256 card1, uint256 card2) external {\n        require(ownerOf(card1) == _msgSender(),\"Must own card1\");\n        require(ownerOf(card2) == _msgSender(),\"Must own card2\");\n        // get merge result offchain using chainlink\n\n    }\n\n    // function: check if the proof is valid for ZKP indicating whether a leaf and proof is valid\n    // this to show the information you are presenting to the user is fair\n    // don't use this function - if people use this, then others can see if the card# is a part of cardID\n    // they can check every card# -> leaf and see which leaf they tried that was a successful verification\n    // we can't make the card#'s random ids because we need a list of them to prove the game is winable\n    // instead do the verification offchain, no reason to do it onchain anyways\n//    function verify(uint16 cardId, bytes32 leaf, bytes32[] memory proof)\n//    public view returns (bool)\n//    {\n//        require(msg.sender == ownerOf(cardId));\n//        return MerkleProof.verify(proof, merkleRoots[cardId], leaf);\n//    }\n}\n",
  "sourcePath": "/home/prateek/NFR/onchain/contracts/NFR.sol",
  "compiler": {
    "name": "solc",
    "version": "0.8.9+commit.e5eed63a.Emscripten.clang"
  },
  "schemaVersion": "3.4.3",
  "updatedAt": "2021-12-23T02:34:40.533Z",
  "devdoc": {
    "kind": "dev",
    "methods": {
      "approve(address,uint256)": {
        "details": "See {IERC721-approve}."
      },
      "balanceOf(address)": {
        "details": "See {IERC721-balanceOf}."
      },
      "getApproved(uint256)": {
        "details": "See {IERC721-getApproved}."
      },
      "isApprovedForAll(address,address)": {
        "details": "See {IERC721-isApprovedForAll}."
      },
      "name()": {
        "details": "See {IERC721Metadata-name}."
      },
      "ownerOf(uint256)": {
        "details": "See {IERC721-ownerOf}."
      },
      "safeTransferFrom(address,address,uint256)": {
        "details": "See {IERC721-safeTransferFrom}."
      },
      "safeTransferFrom(address,address,uint256,bytes)": {
        "details": "See {IERC721-safeTransferFrom}."
      },
      "setApprovalForAll(address,bool)": {
        "details": "See {IERC721-setApprovalForAll}."
      },
      "supportsInterface(bytes4)": {
        "details": "See {IERC165-supportsInterface}."
      },
      "symbol()": {
        "details": "See {IERC721Metadata-symbol}."
      },
      "tokenURI(uint256)": {
        "details": "See {IERC721Metadata-tokenURI}."
      },
      "transferFrom(address,address,uint256)": {
        "details": "See {IERC721-transferFrom}."
      }
    },
    "version": 1
  },
  "userdoc": {
    "kind": "user",
    "methods": {},
    "version": 1
  }
}