{
  "contractName": "NFR",
  "abi": [
    {
      "inputs": [
        {
          "internalType": "address",
          "name": "_merge",
          "type": "address"
        },
        {
          "internalType": "address",
          "name": "_rareRelics",
          "type": "address"
        }
      ],
      "stateMutability": "nonpayable",
      "type": "constructor"
    },
    {
      "anonymous": false,
      "inputs": [
        {
          "indexed": true,
          "internalType": "address",
          "name": "owner",
          "type": "address"
        },
        {
          "indexed": true,
          "internalType": "address",
          "name": "approved",
          "type": "address"
        },
        {
          "indexed": true,
          "internalType": "uint256",
          "name": "tokenId",
          "type": "uint256"
        }
      ],
      "name": "Approval",
      "type": "event"
    },
    {
      "anonymous": false,
      "inputs": [
        {
          "indexed": true,
          "internalType": "address",
          "name": "owner",
          "type": "address"
        },
        {
          "indexed": true,
          "internalType": "address",
          "name": "operator",
          "type": "address"
        },
        {
          "indexed": false,
          "internalType": "bool",
          "name": "approved",
          "type": "bool"
        }
      ],
      "name": "ApprovalForAll",
      "type": "event"
    },
    {
      "anonymous": false,
      "inputs": [
        {
          "indexed": true,
          "internalType": "address",
          "name": "previousOwner",
          "type": "address"
        },
        {
          "indexed": true,
          "internalType": "address",
          "name": "newOwner",
          "type": "address"
        }
      ],
      "name": "OwnershipTransferred",
      "type": "event"
    },
    {
      "anonymous": false,
      "inputs": [
        {
          "indexed": true,
          "internalType": "address",
          "name": "from",
          "type": "address"
        },
        {
          "indexed": true,
          "internalType": "address",
          "name": "to",
          "type": "address"
        },
        {
          "indexed": true,
          "internalType": "uint256",
          "name": "tokenId",
          "type": "uint256"
        }
      ],
      "name": "Transfer",
      "type": "event"
    },
    {
      "anonymous": false,
      "inputs": [
        {
          "indexed": false,
          "internalType": "address",
          "name": "owner",
          "type": "address"
        },
        {
          "indexed": false,
          "internalType": "uint256",
          "name": "tokenId",
          "type": "uint256"
        }
      ],
      "name": "cardBurnt",
      "type": "event"
    },
    {
      "anonymous": false,
      "inputs": [
        {
          "indexed": false,
          "internalType": "address",
          "name": "from",
          "type": "address"
        },
        {
          "indexed": false,
          "internalType": "address",
          "name": "to",
          "type": "address"
        },
        {
          "indexed": false,
          "internalType": "uint256",
          "name": "tokenId",
          "type": "uint256"
        }
      ],
      "name": "cardStolen",
      "type": "event"
    },
    {
      "inputs": [],
      "name": "MAX_MINTABLE",
      "outputs": [
        {
          "internalType": "uint16",
          "name": "",
          "type": "uint16"
        }
      ],
      "stateMutability": "view",
      "type": "function",
      "constant": true
    },
    {
      "inputs": [],
      "name": "MINT_PRICE",
      "outputs": [
        {
          "internalType": "uint256",
          "name": "",
          "type": "uint256"
        }
      ],
      "stateMutability": "view",
      "type": "function",
      "constant": true
    },
    {
      "inputs": [
        {
          "internalType": "address",
          "name": "to",
          "type": "address"
        },
        {
          "internalType": "uint256",
          "name": "tokenId",
          "type": "uint256"
        }
      ],
      "name": "approve",
      "outputs": [],
      "stateMutability": "nonpayable",
      "type": "function"
    },
    {
      "inputs": [
        {
          "internalType": "address",
          "name": "owner",
          "type": "address"
        }
      ],
      "name": "balanceOf",
      "outputs": [
        {
          "internalType": "uint256",
          "name": "",
          "type": "uint256"
        }
      ],
      "stateMutability": "view",
      "type": "function",
      "constant": true
    },
    {
      "inputs": [
        {
          "internalType": "uint256",
          "name": "",
          "type": "uint256"
        }
      ],
      "name": "baseCardCopyCounts",
      "outputs": [
        {
          "internalType": "uint16",
          "name": "",
          "type": "uint16"
        }
      ],
      "stateMutability": "view",
      "type": "function",
      "constant": true
    },
    {
      "inputs": [
        {
          "internalType": "uint256",
          "name": "",
          "type": "uint256"
        }
      ],
      "name": "baseCardHashedDescription",
      "outputs": [
        {
          "internalType": "uint256",
          "name": "",
          "type": "uint256"
        }
      ],
      "stateMutability": "view",
      "type": "function",
      "constant": true
    },
    {
      "inputs": [],
      "name": "cardCopiesHashed",
      "outputs": [
        {
          "internalType": "uint256",
          "name": "",
          "type": "uint256"
        }
      ],
      "stateMutability": "view",
      "type": "function",
      "constant": true
    },
    {
      "inputs": [],
      "name": "gameOngoing",
      "outputs": [
        {
          "internalType": "bool",
          "name": "",
          "type": "bool"
        }
      ],
      "stateMutability": "view",
      "type": "function",
      "constant": true
    },
    {
      "inputs": [
        {
          "internalType": "uint256",
          "name": "tokenId",
          "type": "uint256"
        }
      ],
      "name": "getApproved",
      "outputs": [
        {
          "internalType": "address",
          "name": "",
          "type": "address"
        }
      ],
      "stateMutability": "view",
      "type": "function",
      "constant": true
    },
    {
      "inputs": [],
      "name": "head",
      "outputs": [
        {
          "internalType": "uint256",
          "name": "",
          "type": "uint256"
        }
      ],
      "stateMutability": "view",
      "type": "function",
      "constant": true
    },
    {
      "inputs": [
        {
          "internalType": "address",
          "name": "owner",
          "type": "address"
        },
        {
          "internalType": "address",
          "name": "operator",
          "type": "address"
        }
      ],
      "name": "isApprovedForAll",
      "outputs": [
        {
          "internalType": "bool",
          "name": "",
          "type": "bool"
        }
      ],
      "stateMutability": "view",
      "type": "function",
      "constant": true
    },
    {
      "inputs": [
        {
          "internalType": "uint256",
          "name": "",
          "type": "uint256"
        }
      ],
      "name": "mergeQueue",
      "outputs": [
        {
          "internalType": "uint256",
          "name": "nextMerge",
          "type": "uint256"
        },
        {
          "internalType": "uint256",
          "name": "tokenId1",
          "type": "uint256"
        },
        {
          "internalType": "uint256",
          "name": "tokenId2",
          "type": "uint256"
        }
      ],
      "stateMutability": "view",
      "type": "function",
      "constant": true
    },
    {
      "inputs": [],
      "name": "mergeQueueLength",
      "outputs": [
        {
          "internalType": "uint256",
          "name": "",
          "type": "uint256"
        }
      ],
      "stateMutability": "view",
      "type": "function",
      "constant": true
    },
    {
      "inputs": [],
      "name": "name",
      "outputs": [
        {
          "internalType": "string",
          "name": "",
          "type": "string"
        }
      ],
      "stateMutability": "view",
      "type": "function",
      "constant": true
    },
    {
      "inputs": [],
      "name": "owner",
      "outputs": [
        {
          "internalType": "address",
          "name": "",
          "type": "address"
        }
      ],
      "stateMutability": "view",
      "type": "function",
      "constant": true
    },
    {
      "inputs": [
        {
          "internalType": "uint256",
          "name": "tokenId",
          "type": "uint256"
        }
      ],
      "name": "ownerOf",
      "outputs": [
        {
          "internalType": "address",
          "name": "",
          "type": "address"
        }
      ],
      "stateMutability": "view",
      "type": "function",
      "constant": true
    },
    {
      "inputs": [],
      "name": "packsMinted",
      "outputs": [
        {
          "internalType": "uint16",
          "name": "",
          "type": "uint16"
        }
      ],
      "stateMutability": "view",
      "type": "function",
      "constant": true
    },
    {
      "inputs": [
        {
          "internalType": "uint256",
          "name": "",
          "type": "uint256"
        }
      ],
      "name": "publicArtifacts",
      "outputs": [
        {
          "internalType": "uint8",
          "name": "num",
          "type": "uint8"
        },
        {
          "internalType": "uint16",
          "name": "copyNum",
          "type": "uint16"
        },
        {
          "internalType": "uint256",
          "name": "longDescriptionHashed",
          "type": "uint256"
        },
        {
          "internalType": "uint256",
          "name": "privateKey",
          "type": "uint256"
        }
      ],
      "stateMutability": "view",
      "type": "function",
      "constant": true
    },
    {
      "inputs": [],
      "name": "rear",
      "outputs": [
        {
          "internalType": "uint256",
          "name": "",
          "type": "uint256"
        }
      ],
      "stateMutability": "view",
      "type": "function",
      "constant": true
    },
    {
      "inputs": [],
      "name": "renounceOwnership",
      "outputs": [],
      "stateMutability": "nonpayable",
      "type": "function"
    },
    {
      "inputs": [
        {
          "internalType": "address",
          "name": "from",
          "type": "address"
        },
        {
          "internalType": "address",
          "name": "to",
          "type": "address"
        },
        {
          "internalType": "uint256",
          "name": "tokenId",
          "type": "uint256"
        }
      ],
      "name": "safeTransferFrom",
      "outputs": [],
      "stateMutability": "nonpayable",
      "type": "function"
    },
    {
      "inputs": [
        {
          "internalType": "address",
          "name": "from",
          "type": "address"
        },
        {
          "internalType": "address",
          "name": "to",
          "type": "address"
        },
        {
          "internalType": "uint256",
          "name": "tokenId",
          "type": "uint256"
        },
        {
          "internalType": "bytes",
          "name": "_data",
          "type": "bytes"
        }
      ],
      "name": "safeTransferFrom",
      "outputs": [],
      "stateMutability": "nonpayable",
      "type": "function"
    },
    {
      "inputs": [
        {
          "internalType": "address",
          "name": "operator",
          "type": "address"
        },
        {
          "internalType": "bool",
          "name": "approved",
          "type": "bool"
        }
      ],
      "name": "setApprovalForAll",
      "outputs": [],
      "stateMutability": "nonpayable",
      "type": "function"
    },
    {
      "inputs": [
        {
          "internalType": "bytes4",
          "name": "interfaceId",
          "type": "bytes4"
        }
      ],
      "name": "supportsInterface",
      "outputs": [
        {
          "internalType": "bool",
          "name": "",
          "type": "bool"
        }
      ],
      "stateMutability": "view",
      "type": "function",
      "constant": true
    },
    {
      "inputs": [],
      "name": "symbol",
      "outputs": [
        {
          "internalType": "string",
          "name": "",
          "type": "string"
        }
      ],
      "stateMutability": "view",
      "type": "function",
      "constant": true
    },
    {
      "inputs": [
        {
          "internalType": "uint256",
          "name": "index",
          "type": "uint256"
        }
      ],
      "name": "tokenByIndex",
      "outputs": [
        {
          "internalType": "uint256",
          "name": "",
          "type": "uint256"
        }
      ],
      "stateMutability": "view",
      "type": "function",
      "constant": true
    },
    {
      "inputs": [
        {
          "internalType": "address",
          "name": "owner",
          "type": "address"
        },
        {
          "internalType": "uint256",
          "name": "index",
          "type": "uint256"
        }
      ],
      "name": "tokenOfOwnerByIndex",
      "outputs": [
        {
          "internalType": "uint256",
          "name": "",
          "type": "uint256"
        }
      ],
      "stateMutability": "view",
      "type": "function",
      "constant": true
    },
    {
      "inputs": [
        {
          "internalType": "uint256",
          "name": "tokenId",
          "type": "uint256"
        }
      ],
      "name": "tokenURI",
      "outputs": [
        {
          "internalType": "string",
          "name": "",
          "type": "string"
        }
      ],
      "stateMutability": "view",
      "type": "function",
      "constant": true
    },
    {
      "inputs": [],
      "name": "totalSupply",
      "outputs": [
        {
          "internalType": "uint256",
          "name": "",
          "type": "uint256"
        }
      ],
      "stateMutability": "view",
      "type": "function",
      "constant": true
    },
    {
      "inputs": [
        {
          "internalType": "address",
          "name": "from",
          "type": "address"
        },
        {
          "internalType": "address",
          "name": "to",
          "type": "address"
        },
        {
          "internalType": "uint256",
          "name": "tokenId",
          "type": "uint256"
        }
      ],
      "name": "transferFrom",
      "outputs": [],
      "stateMutability": "nonpayable",
      "type": "function"
    },
    {
      "inputs": [
        {
          "internalType": "address",
          "name": "newOwner",
          "type": "address"
        }
      ],
      "name": "transferOwnership",
      "outputs": [],
      "stateMutability": "nonpayable",
      "type": "function"
    },
    {
      "inputs": [
        {
          "internalType": "uint8[4]",
          "name": "artifactNums",
          "type": "uint8[4]"
        }
      ],
      "name": "mintPack",
      "outputs": [
        {
          "internalType": "uint256[4]",
          "name": "",
          "type": "uint256[4]"
        }
      ],
      "stateMutability": "payable",
      "type": "function",
      "payable": true
    },
    {
      "inputs": [
        {
          "internalType": "uint256",
          "name": "tokenId",
          "type": "uint256"
        },
        {
          "internalType": "uint8",
          "name": "num",
          "type": "uint8"
        },
        {
          "internalType": "uint16",
          "name": "copyNum",
          "type": "uint16"
        },
        {
          "internalType": "uint256",
          "name": "longDescriptionHashed",
          "type": "uint256"
        },
        {
          "internalType": "uint256",
          "name": "privateKey",
          "type": "uint256"
        }
      ],
      "name": "revealArtifact",
      "outputs": [],
      "stateMutability": "nonpayable",
      "type": "function"
    },
    {
      "inputs": [
        {
          "internalType": "uint256[5]",
          "name": "tokenIds",
          "type": "uint256[5]"
        },
        {
          "components": [
            {
              "internalType": "uint8",
              "name": "num",
              "type": "uint8"
            },
            {
              "internalType": "uint16",
              "name": "copyNum",
              "type": "uint16"
            },
            {
              "internalType": "uint256",
              "name": "longDescriptionHashed",
              "type": "uint256"
            },
            {
              "internalType": "uint256",
              "name": "privateKey",
              "type": "uint256"
            }
          ],
          "internalType": "struct NFR.Artifact[5]",
          "name": "genesisArtifacts",
          "type": "tuple[5]"
        }
      ],
      "name": "endGame",
      "outputs": [],
      "stateMutability": "nonpayable",
      "type": "function"
    },
    {
      "inputs": [
        {
          "internalType": "address",
          "name": "from",
          "type": "address"
        },
        {
          "internalType": "address",
          "name": "to",
          "type": "address"
        },
        {
          "internalType": "uint256",
          "name": "tokenId",
          "type": "uint256"
        }
      ],
      "name": "stealCard",
      "outputs": [],
      "stateMutability": "nonpayable",
      "type": "function"
    },
    {
      "inputs": [
        {
          "internalType": "uint256",
          "name": "tokenId",
          "type": "uint256"
        }
      ],
      "name": "duplicateCard",
      "outputs": [],
      "stateMutability": "nonpayable",
      "type": "function"
    },
    {
      "inputs": [
        {
          "internalType": "uint256",
          "name": "inputTokenId",
          "type": "uint256"
        },
        {
          "internalType": "uint256",
          "name": "targetTokenId",
          "type": "uint256"
        }
      ],
      "name": "transformCard",
      "outputs": [],
      "stateMutability": "nonpayable",
      "type": "function"
    },
    {
      "inputs": [
        {
          "internalType": "address",
          "name": "_BlackMarketAddress",
          "type": "address"
        }
      ],
      "name": "setBlackMarketAddress",
      "outputs": [],
      "stateMutability": "nonpayable",
      "type": "function"
    },
    {
      "inputs": [
        {
          "internalType": "address",
          "name": "_MergerAddress",
          "type": "address"
        }
      ],
      "name": "setMergerAddress",
      "outputs": [],
      "stateMutability": "nonpayable",
      "type": "function"
    },
    {
      "inputs": [
        {
          "internalType": "uint256[2]",
          "name": "inputTokens",
          "type": "uint256[2]"
        },
        {
          "internalType": "uint256[3]",
          "name": "resultTokens",
          "type": "uint256[3]"
        },
        {
          "internalType": "bool[3]",
          "name": "resultTokensMint",
          "type": "bool[3]"
        }
      ],
      "name": "doMerge",
      "outputs": [],
      "stateMutability": "nonpayable",
      "type": "function"
    }
  ],
  "bytecode": "0x6080604052604051806101200160405280600060ff168152602001600060ff168152602001600060ff168152602001600060ff168152602001600060ff168152602001600060ff168152602001600060ff168152602001600060ff168152602001600060ff16815250600b9060096200007a929190620003b5565b506040518061012001604052807f01649792131254809c4b0f4287aaeb9a5229812249af54b3a86c8dcfecda625a8152602001600081526020016000815260200160008152602001600081526020016000815260200160008152602001600081526020016000815250600c906009620000f592919062000458565b5060006016553480156200010857600080fd5b50604051620063e7380380620063e783398181016040528101906200012e9190620005b7565b6040518060400160405280600a81526020017f4e46522069736c616e64000000000000000000000000000000000000000000008152506040518060400160405280600381526020017f4e465200000000000000000000000000000000000000000000000000000000008152508160009080519060200190620001b29291906200049d565b508060019080519060200190620001cb9291906200049d565b505050620001ee620001e2620002e760201b60201c565b620002ef60201b60201c565b6000600a60146101000a81548161ffff021916908361ffff1602179055506000600a60166101000a81548160ff02191690831515021790555081601b60006101000a81548173ffffffffffffffffffffffffffffffffffffffff021916908373ffffffffffffffffffffffffffffffffffffffff16021790555080601c60006101000a81548173ffffffffffffffffffffffffffffffffffffffff021916908373ffffffffffffffffffffffffffffffffffffffff1602179055506000601d60146101000a81548160ff0219169083151502179055506000601e60146101000a81548160ff021916908315150217905550505062000663565b600033905090565b6000600a60009054906101000a900473ffffffffffffffffffffffffffffffffffffffff16905081600a60006101000a81548173ffffffffffffffffffffffffffffffffffffffff021916908373ffffffffffffffffffffffffffffffffffffffff1602179055508173ffffffffffffffffffffffffffffffffffffffff168173ffffffffffffffffffffffffffffffffffffffff167f8be0079c531659141344cd1fd0a4f28419497f9722a3daafe3b4186f6b6457e060405160405180910390a35050565b826009600f01601090048101928215620004455791602002820160005b838211156200041357835183826101000a81548161ffff021916908360ff1602179055509260200192600201602081600101049283019260010302620003d2565b8015620004435782816101000a81549061ffff021916905560020160208160010104928301926001030262000413565b505b5090506200045491906200052e565b5090565b82600981019282156200048a579160200282015b82811115620004895782518255916020019190600101906200046c565b5b5090506200049991906200052e565b5090565b828054620004ab906200062d565b90600052602060002090601f016020900481019282620004cf57600085556200051b565b82601f10620004ea57805160ff19168380011785556200051b565b828001600101855582156200051b579182015b828111156200051a578251825591602001919060010190620004fd565b5b5090506200052a91906200052e565b5090565b5b80821115620005495760008160009055506001016200052f565b5090565b600080fd5b600073ffffffffffffffffffffffffffffffffffffffff82169050919050565b60006200057f8262000552565b9050919050565b620005918162000572565b81146200059d57600080fd5b50565b600081519050620005b18162000586565b92915050565b60008060408385031215620005d157620005d06200054d565b5b6000620005e185828601620005a0565b9250506020620005f485828601620005a0565b9150509250929050565b7f4e487b7100000000000000000000000000000000000000000000000000000000600052602260045260246000fd5b600060028204905060018216806200064657607f821691505b602082108114156200065d576200065c620005fe565b5b50919050565b615d7480620006736000396000f3fe60806040526004361061023b5760003560e01c8063715018a61161012e578063b88d4fde116100ab578063e8ce4c231161006f578063e8ce4c231461089e578063e985e9c5146108c7578063efde66ec14610904578063f2fde38b14610944578063f70b71bf1461096d5761023b565b8063b88d4fde146107bb578063c002d23d146107e4578063c87b56dd1461080f578063d5ae05ea1461084c578063dcb9a6eb146108755761023b565b80638da5cb5b116100f25780638da5cb5b146106e65780638f5f4cbc146107115780638f7dcfa31461073c57806395d89b4114610767578063a22cb465146107925761023b565b8063715018a61461062957806371851cfa146106405780637372d34b1461066b5780637ed6d2eb14610694578063830b0d7e146106bd5761023b565b80632f745c59116101bc5780636352211e116101805780636352211e1461051a57806365f819461461055757806369462c1f146105825780636f060b89146105ad57806370a08231146105ec5761023b565b80632f745c591461041c5780633f879faf1461045957806342842e0e146104845780634f6ccce7146104ad57806352d09b4a146104ea5761023b565b806318160ddd1161020357806318160ddd146103395780631c9b78e314610364578063218e0a41146103a1578063234bfab6146103ca57806323b872dd146103f35761023b565b806301ffc9a714610240578063026113d81461027d57806306fdde03146102a8578063081812fc146102d3578063095ea7b314610310575b600080fd5b34801561024c57600080fd5b5061026760048036038101906102629190613aa9565b6109aa565b6040516102749190613af1565b60405180910390f35b34801561028957600080fd5b50610292610a24565b60405161029f9190613b25565b60405180910390f35b3480156102b457600080fd5b506102bd610a2a565b6040516102ca9190613bd9565b60405180910390f35b3480156102df57600080fd5b506102fa60048036038101906102f59190613c27565b610abc565b6040516103079190613c95565b60405180910390f35b34801561031c57600080fd5b5061033760048036038101906103329190613cdc565b610b41565b005b34801561034557600080fd5b5061034e610c59565b60405161035b9190613b25565b60405180910390f35b34801561037057600080fd5b5061038b60048036038101906103869190613c27565b610c66565b6040516103989190613d39565b60405180910390f35b3480156103ad57600080fd5b506103c860048036038101906103c3919061401d565b610c94565b005b3480156103d657600080fd5b506103f160048036038101906103ec919061405e565b610fa8565b005b3480156103ff57600080fd5b5061041a6004803603810190610415919061405e565b6110d9565b005b34801561042857600080fd5b50610443600480360381019061043e9190613cdc565b611139565b6040516104509190613b25565b60405180910390f35b34801561046557600080fd5b5061046e6111de565b60405161047b9190613d39565b60405180910390f35b34801561049057600080fd5b506104ab60048036038101906104a6919061405e565b6111e4565b005b3480156104b957600080fd5b506104d460048036038101906104cf9190613c27565b611204565b6040516104e19190613b25565b60405180910390f35b61050460048036038101906104ff9190614162565b611275565b604051610511919061423a565b60405180910390f35b34801561052657600080fd5b50610541600480360381019061053c9190613c27565b6117a0565b60405161054e9190613c95565b60405180910390f35b34801561056357600080fd5b5061056c611852565b6040516105799190613af1565b60405180910390f35b34801561058e57600080fd5b50610597611865565b6040516105a49190613b25565b60405180910390f35b3480156105b957600080fd5b506105d460048036038101906105cf9190613c27565b61186b565b6040516105e393929190614255565b60405180910390f35b3480156105f857600080fd5b50610613600480360381019061060e919061428c565b611895565b6040516106209190613b25565b60405180910390f35b34801561063557600080fd5b5061063e61194d565b005b34801561064c57600080fd5b506106556119d5565b6040516106629190613d39565b60405180910390f35b34801561067757600080fd5b50610692600480360381019061068d91906142b9565b6119e9565b005b3480156106a057600080fd5b506106bb60048036038101906106b6919061428c565b611ae6565b005b3480156106c957600080fd5b506106e460048036038101906106df9190614573565b611c17565b005b3480156106f257600080fd5b506106fb611ea5565b6040516107089190613c95565b60405180910390f35b34801561071d57600080fd5b50610726611ecf565b6040516107339190613b25565b60405180910390f35b34801561074857600080fd5b50610751611ed5565b60405161075e9190613b25565b60405180910390f35b34801561077357600080fd5b5061077c611edb565b6040516107899190613bd9565b60405180910390f35b34801561079e57600080fd5b506107b960048036038101906107b491906145c7565b611f6d565b005b3480156107c757600080fd5b506107e260048036038101906107dd91906146bc565b611f83565b005b3480156107f057600080fd5b506107f9611fe5565b6040516108069190613b25565b60405180910390f35b34801561081b57600080fd5b5061083660048036038101906108319190613c27565b611ff0565b6040516108439190613bd9565b60405180910390f35b34801561085857600080fd5b50610873600480360381019061086e919061428c565b612097565b005b34801561088157600080fd5b5061089c60048036038101906108979190613c27565b6121c8565b005b3480156108aa57600080fd5b506108c560048036038101906108c0919061473f565b6122b1565b005b3480156108d357600080fd5b506108ee60048036038101906108e9919061477f565b6123dc565b6040516108fb9190613af1565b60405180910390f35b34801561091057600080fd5b5061092b60048036038101906109269190613c27565b612470565b60405161093b94939291906147ce565b60405180910390f35b34801561095057600080fd5b5061096b6004803603810190610966919061428c565b6124bb565b005b34801561097957600080fd5b50610994600480360381019061098f9190613c27565b6125b3565b6040516109a19190613b25565b60405180910390f35b60007f780e9d63000000000000000000000000000000000000000000000000000000007bffffffffffffffffffffffffffffffffffffffffffffffffffffffff1916827bffffffffffffffffffffffffffffffffffffffffffffffffffffffff19161480610a1d5750610a1c826125ce565b5b9050919050565b601a5481565b606060008054610a3990614842565b80601f0160208091040260200160405190810160405280929190818152602001828054610a6590614842565b8015610ab25780601f10610a8757610100808354040283529160200191610ab2565b820191906000526020600020905b815481529060010190602001808311610a9557829003601f168201915b5050505050905090565b6000610ac7826126b0565b610b06576040517f08c379a0000000000000000000000000000000000000000000000000000000008152600401610afd906148e6565b60405180910390fd5b6004600083815260200190815260200160002060009054906101000a900473ffffffffffffffffffffffffffffffffffffffff169050919050565b6000610b4c826117a0565b90508073ffffffffffffffffffffffffffffffffffffffff168373ffffffffffffffffffffffffffffffffffffffff161415610bbd576040517f08c379a0000000000000000000000000000000000000000000000000000000008152600401610bb490614978565b60405180910390fd5b8073ffffffffffffffffffffffffffffffffffffffff16610bdc61271c565b73ffffffffffffffffffffffffffffffffffffffff161480610c0b5750610c0a81610c0561271c565b6123dc565b5b610c4a576040517f08c379a0000000000000000000000000000000000000000000000000000000008152600401610c4190614a0a565b60405180910390fd5b610c548383612724565b505050565b6000600880549050905090565b600b8160098110610c7657600080fd5b60109182820401919006600202915054906101000a900461ffff1681565b600a60169054906101000a900460ff16610ce3576040517f08c379a0000000000000000000000000000000000000000000000000000000008152600401610cda90614a76565b60405180910390fd5b60006040518060a001604052806000151515158152602001600015151515815260200160001515151581526020016000151515158152602001600015151515815250905060005b60058160ff161015610e98573373ffffffffffffffffffffffffffffffffffffffff16610d70858360ff1660058110610d6657610d65614a96565b5b60200201516117a0565b73ffffffffffffffffffffffffffffffffffffffff1614610d9057600080fd5b610db3838260ff1660058110610da957610da8614a96565b5b60200201516127dd565b848260ff1660058110610dc957610dc8614a96565b5b602002015114610dd857600080fd5b6005838260ff1660058110610df057610def614a96565b5b60200201516000015160ff1611158015610e2b57506000838260ff1660058110610e1d57610e1c614a96565b5b60200201516000015160ff16115b610e3457600080fd5b6001826001858460ff1660058110610e4f57610e4e614a96565b5b602002015160000151610e629190614af4565b60ff1660058110610e7657610e75614a96565b5b6020020190151590811515815250508080610e9090614b28565b915050610d2a565b5060005b60058160ff161015610edf57818160ff1660058110610ebe57610ebd614a96565b5b6020020151610ecc57600080fd5b8080610ed790614b28565b915050610e9c565b5060011515600a60169054906101000a900460ff16151514610f0057600080fd5b66b1a2bc2ec5000061138861ffff16610f199190614b52565b471015610f2957610f28614bac565b5b6000600a60166101000a81548160ff0219169083151502179055503373ffffffffffffffffffffffffffffffffffffffff166108fc66b1a2bc2ec5000061138861ffff16610f779190614b52565b9081150290604051600060405180830381858888f19350505050158015610fa2573d6000803e3d6000fd5b50505050565b60011515601d60149054906101000a900460ff16151514610ffe576040517f08c379a0000000000000000000000000000000000000000000000000000000008152600401610ff590614c27565b60405180910390fd5b601d60009054906101000a900473ffffffffffffffffffffffffffffffffffffffff1673ffffffffffffffffffffffffffffffffffffffff163373ffffffffffffffffffffffffffffffffffffffff161461108e576040517f08c379a000000000000000000000000000000000000000000000000000000000815260040161108590614cb9565b60405180910390fd5b7f89665ba37e1d52f304a954987e0fdc0cdc63e3f97a6371821c6d8e42e9f112de8383836040516110c193929190614cd9565b60405180910390a16110d48383836110d9565b505050565b6110ea6110e461271c565b82612903565b611129576040517f08c379a000000000000000000000000000000000000000000000000000000000815260040161112090614d82565b60405180910390fd5b6111348383836129e1565b505050565b600061114483611895565b8210611185576040517f08c379a000000000000000000000000000000000000000000000000000000000815260040161117c90614e14565b60405180910390fd5b600660008473ffffffffffffffffffffffffffffffffffffffff1673ffffffffffffffffffffffffffffffffffffffff168152602001908152602001600020600083815260200190815260200160002054905092915050565b61138881565b6111ff83838360405180602001604052806000815250611f83565b505050565b600061120e610c59565b821061124f576040517f08c379a000000000000000000000000000000000000000000000000000000000815260040161124690614ea6565b60405180910390fd5b6008828154811061126357611262614a96565b5b90600052602060002001549050919050565b61127d6139ec565b61138861ffff16600a60149054906101000a900461ffff1661ffff16106112d9576040517f08c379a00000000000000000000000000000000000000000000000000000000081526004016112d090614f12565b60405180910390fd5b60005b60048160ff161015611386576032838260ff1660048110611300576112ff614a96565b5b602002015160ff16111580156113345750602a838260ff166004811061132957611328614a96565b5b602002015160ff1610155b611373576040517f08c379a000000000000000000000000000000000000000000000000000000000815260040161136a90614f7e565b60405180910390fd5b808061137e90614b28565b9150506112dc565b5061138f6139ec565b60005b60048110156115b8576113a3613a0e565b8482600481106113b6576113b5614a96565b5b6020020151816000019060ff16908160ff16815250506001600b602a8785600481106113e5576113e4614a96565b5b60200201516113f49190614af4565b60ff166009811061140857611407614a96565b5b601091828204019190066002028282829054906101000a900461ffff1661142f9190614f9e565b92506101000a81548161ffff021916908361ffff160217905550600b602a8684600481106114605761145f614a96565b5b602002015161146f9190614af4565b60ff166009811061148357611482614a96565b5b601091828204019190066002029054906101000a900461ffff16816020019061ffff16908161ffff1681525050600c602a8684600481106114c7576114c6614a96565b5b60200201516114d69190614af4565b60ff16600981106114ea576114e9614a96565b5b01548160400181815250506000816060018181525050600061150b826127dd565b9050816019600083815260200190815260200160002060008201518160000160006101000a81548160ff021916908360ff16021790555060208201518160000160016101000a81548161ffff021916908361ffff16021790555060408201518160010155606082015181600201559050506115863382612c3d565b8084846004811061159a57611599614a96565b5b602002018181525050505080806115b090614fd6565b915050611392565b506115e6601d60009054906101000a900473ffffffffffffffffffffffffffffffffffffffff166001611f6d565b611613601e60009054906101000a900473ffffffffffffffffffffffffffffffffffffffff166001611f6d565b601c60009054906101000a900473ffffffffffffffffffffffffffffffffffffffff1673ffffffffffffffffffffffffffffffffffffffff1663f0460ef9336040518263ffffffff1660e01b815260040161166e9190613c95565b600060405180830381600087803b15801561168857600080fd5b505af115801561169c573d6000803e3d6000fd5b50505050601b60009054906101000a900473ffffffffffffffffffffffffffffffffffffffff1673ffffffffffffffffffffffffffffffffffffffff166340c10f1933624c4b406040518363ffffffff1660e01b8152600401611700929190615064565b600060405180830381600087803b15801561171a57600080fd5b505af115801561172e573d6000803e3d6000fd5b505050506001600a60148282829054906101000a900461ffff166117529190614f9e565b92506101000a81548161ffff021916908361ffff16021790555061138861ffff16600a60149054906101000a900461ffff1661ffff16141561179757611796612c5b565b5b80915050919050565b6000806002600084815260200190815260200160002060009054906101000a900473ffffffffffffffffffffffffffffffffffffffff169050600073ffffffffffffffffffffffffffffffffffffffff168173ffffffffffffffffffffffffffffffffffffffff161415611849576040517f08c379a0000000000000000000000000000000000000000000000000000000008152600401611840906150ff565b60405180910390fd5b80915050919050565b600a60169054906101000a900460ff1681565b60185481565b60156020528060005260406000206000915090508060000154908060010154908060020154905083565b60008073ffffffffffffffffffffffffffffffffffffffff168273ffffffffffffffffffffffffffffffffffffffff161415611906576040517f08c379a00000000000000000000000000000000000000000000000000000000081526004016118fd90615191565b60405180910390fd5b600360008373ffffffffffffffffffffffffffffffffffffffff1673ffffffffffffffffffffffffffffffffffffffff168152602001908152602001600020549050919050565b61195561271c565b73ffffffffffffffffffffffffffffffffffffffff16611973611ea5565b73ffffffffffffffffffffffffffffffffffffffff16146119c9576040517f08c379a00000000000000000000000000000000000000000000000000000000081526004016119c0906151fd565b60405180910390fd5b6119d36000612c78565b565b600a60149054906101000a900461ffff1681565b3373ffffffffffffffffffffffffffffffffffffffff16611a09866117a0565b73ffffffffffffffffffffffffffffffffffffffff1614611a2957600080fd5b600060405180608001604052808660ff1681526020018561ffff1681526020018481526020018381525090506000611a60826127dd565b9050808714611a6e57600080fd5b816019600083815260200190815260200160002060008201518160000160006101000a81548160ff021916908360ff16021790555060208201518160000160016101000a81548161ffff021916908361ffff160217905550604082015181600101556060820151816002015590505050505050505050565b611aee61271c565b73ffffffffffffffffffffffffffffffffffffffff16611b0c611ea5565b73ffffffffffffffffffffffffffffffffffffffff1614611b62576040517f08c379a0000000000000000000000000000000000000000000000000000000008152600401611b59906151fd565b60405180910390fd5b60001515601e60149054906101000a900460ff16151514611bb8576040517f08c379a0000000000000000000000000000000000000000000000000000000008152600401611baf9061528f565b60405180910390fd5b80601e60006101000a81548173ffffffffffffffffffffffffffffffffffffffff021916908373ffffffffffffffffffffffffffffffffffffffff1602179055506001601e60146101000a81548160ff02191690831515021790555050565b60011515601e60149054906101000a900460ff16151514611c6d576040517f08c379a0000000000000000000000000000000000000000000000000000000008152600401611c64906152fb565b60405180910390fd5b601e60009054906101000a900473ffffffffffffffffffffffffffffffffffffffff1673ffffffffffffffffffffffffffffffffffffffff163373ffffffffffffffffffffffffffffffffffffffff1614611cfd576040517f08c379a0000000000000000000000000000000000000000000000000000000008152600401611cf49061538d565b60405180910390fd5b7f05910ad4fa157f54cf547755367786ba2f613a82c439009ed9313a3c66f6747a611d3f84600060028110611d3557611d34614a96565b5b60200201516117a0565b84600060028110611d5357611d52614a96565b5b6020020151604051611d669291906153ad565b60405180910390a17f05910ad4fa157f54cf547755367786ba2f613a82c439009ed9313a3c66f6747a611db084600160028110611da657611da5614a96565b5b60200201516117a0565b84600160028110611dc457611dc3614a96565b5b6020020151604051611dd79291906153ad565b60405180910390a1611e0083600060028110611df657611df5614a96565b5b6020020151612d3e565b611e2183600160028110611e1757611e16614a96565b5b6020020151612d3e565b60005b6003811015611e9f57818160038110611e4057611e3f614a96565b5b602002015115611e8c57611e8b611e6e85600060028110611e6457611e63614a96565b5b60200201516117a0565b848360038110611e8157611e80614a96565b5b6020020151612c3d565b5b8080611e9790614fd6565b915050611e24565b50505050565b6000600a60009054906101000a900473ffffffffffffffffffffffffffffffffffffffff16905090565b60165481565b60175481565b606060018054611eea90614842565b80601f0160208091040260200160405190810160405280929190818152602001828054611f1690614842565b8015611f635780601f10611f3857610100808354040283529160200191611f63565b820191906000526020600020905b815481529060010190602001808311611f4657829003601f168201915b5050505050905090565b611f7f611f7861271c565b8383612e4f565b5050565b611f94611f8e61271c565b83612903565b611fd3576040517f08c379a0000000000000000000000000000000000000000000000000000000008152600401611fca90614d82565b60405180910390fd5b611fdf84848484612fbc565b50505050565b66b1a2bc2ec5000081565b6060611ffb826126b0565b61203a576040517f08c379a000000000000000000000000000000000000000000000000000000000815260040161203190615448565b60405180910390fd5b6000612044613018565b90506000815111612064576040518060200160405280600081525061208f565b8061206e8461302f565b60405160200161207f9291906154a4565b6040516020818303038152906040525b915050919050565b61209f61271c565b73ffffffffffffffffffffffffffffffffffffffff166120bd611ea5565b73ffffffffffffffffffffffffffffffffffffffff1614612113576040517f08c379a000000000000000000000000000000000000000000000000000000000815260040161210a906151fd565b60405180910390fd5b60001515601d60149054906101000a900460ff16151514612169576040517f08c379a00000000000000000000000000000000000000000000000000000000081526004016121609061553a565b60405180910390fd5b80601d60006101000a81548173ffffffffffffffffffffffffffffffffffffffff021916908373ffffffffffffffffffffffffffffffffffffffff1602179055506001601d60146101000a81548160ff02191690831515021790555050565b60011515601d60149054906101000a900460ff1615151461221e576040517f08c379a000000000000000000000000000000000000000000000000000000000815260040161221590614c27565b60405180910390fd5b601d60009054906101000a900473ffffffffffffffffffffffffffffffffffffffff1673ffffffffffffffffffffffffffffffffffffffff163373ffffffffffffffffffffffffffffffffffffffff16146122ae576040517f08c379a00000000000000000000000000000000000000000000000000000000081526004016122a590614cb9565b60405180910390fd5b50565b60011515601d60149054906101000a900460ff16151514612307576040517f08c379a00000000000000000000000000000000000000000000000000000000081526004016122fe90614c27565b60405180910390fd5b601d60009054906101000a900473ffffffffffffffffffffffffffffffffffffffff1673ffffffffffffffffffffffffffffffffffffffff163373ffffffffffffffffffffffffffffffffffffffff1614612397576040517f08c379a000000000000000000000000000000000000000000000000000000000815260040161238e90614cb9565b60405180910390fd5b7f05910ad4fa157f54cf547755367786ba2f613a82c439009ed9313a3c66f6747a6123c1836117a0565b836040516123d09291906153ad565b60405180910390a15050565b6000600560008473ffffffffffffffffffffffffffffffffffffffff1673ffffffffffffffffffffffffffffffffffffffff16815260200190815260200160002060008373ffffffffffffffffffffffffffffffffffffffff1673ffffffffffffffffffffffffffffffffffffffff16815260200190815260200160002060009054906101000a900460ff16905092915050565b60196020528060005260406000206000915090508060000160009054906101000a900460ff16908060000160019054906101000a900461ffff16908060010154908060020154905084565b6124c361271c565b73ffffffffffffffffffffffffffffffffffffffff166124e1611ea5565b73ffffffffffffffffffffffffffffffffffffffff1614612537576040517f08c379a000000000000000000000000000000000000000000000000000000000815260040161252e906151fd565b60405180910390fd5b600073ffffffffffffffffffffffffffffffffffffffff168173ffffffffffffffffffffffffffffffffffffffff1614156125a7576040517f08c379a000000000000000000000000000000000000000000000000000000000815260040161259e906155cc565b60405180910390fd5b6125b081612c78565b50565b600c81600981106125c357600080fd5b016000915090505481565b60007f80ac58cd000000000000000000000000000000000000000000000000000000007bffffffffffffffffffffffffffffffffffffffffffffffffffffffff1916827bffffffffffffffffffffffffffffffffffffffffffffffffffffffff1916148061269957507f5b5e139f000000000000000000000000000000000000000000000000000000007bffffffffffffffffffffffffffffffffffffffffffffffffffffffff1916827bffffffffffffffffffffffffffffffffffffffffffffffffffffffff1916145b806126a957506126a882613190565b5b9050919050565b60008073ffffffffffffffffffffffffffffffffffffffff166002600084815260200190815260200160002060009054906101000a900473ffffffffffffffffffffffffffffffffffffffff1673ffffffffffffffffffffffffffffffffffffffff1614159050919050565b600033905090565b816004600083815260200190815260200160002060006101000a81548173ffffffffffffffffffffffffffffffffffffffff021916908373ffffffffffffffffffffffffffffffffffffffff160217905550808273ffffffffffffffffffffffffffffffffffffffff16612797836117a0565b73ffffffffffffffffffffffffffffffffffffffff167f8c5be1e5ebec7d5bd14f71427d1e84f3dd0314c0f7b2291e5b200ac8c7c3b92560405160405180910390a45050565b600081600001516040516020016127f49190615622565b60405160208183030381529060405280519060200120826020015160405160200161281f9190615673565b604051602081830303815290604052805190602001206040516020016128469291906156b9565b6040516020818303038152906040528051906020012082604001516040516020016128719190615706565b60405160208183030381529060405283606001516040516020016128959190615706565b604051602081830303815290604052805190602001206040516020016128bc929190615768565b604051602081830303815290604052805190602001206040516020016128e39291906156b9565b6040516020818303038152906040528051906020012060001c9050919050565b600061290e826126b0565b61294d576040517f08c379a000000000000000000000000000000000000000000000000000000000815260040161294490615802565b60405180910390fd5b6000612958836117a0565b90508073ffffffffffffffffffffffffffffffffffffffff168473ffffffffffffffffffffffffffffffffffffffff1614806129c757508373ffffffffffffffffffffffffffffffffffffffff166129af84610abc565b73ffffffffffffffffffffffffffffffffffffffff16145b806129d857506129d781856123dc565b5b91505092915050565b8273ffffffffffffffffffffffffffffffffffffffff16612a01826117a0565b73ffffffffffffffffffffffffffffffffffffffff1614612a57576040517f08c379a0000000000000000000000000000000000000000000000000000000008152600401612a4e90615894565b60405180910390fd5b600073ffffffffffffffffffffffffffffffffffffffff168273ffffffffffffffffffffffffffffffffffffffff161415612ac7576040517f08c379a0000000000000000000000000000000000000000000000000000000008152600401612abe90615926565b60405180910390fd5b612ad28383836131fa565b612add600082612724565b6001600360008573ffffffffffffffffffffffffffffffffffffffff1673ffffffffffffffffffffffffffffffffffffffff1681526020019081526020016000206000828254612b2d9190615946565b925050819055506001600360008473ffffffffffffffffffffffffffffffffffffffff1673ffffffffffffffffffffffffffffffffffffffff1681526020019081526020016000206000828254612b84919061597a565b92505081905550816002600083815260200190815260200160002060006101000a81548173ffffffffffffffffffffffffffffffffffffffff021916908373ffffffffffffffffffffffffffffffffffffffff160217905550808273ffffffffffffffffffffffffffffffffffffffff168473ffffffffffffffffffffffffffffffffffffffff167fddf252ad1be2c89b69c2b068fc378daa952ba7f163c4a11628f55a4df523b3ef60405160405180910390a4505050565b612c5782826040518060200160405280600081525061330e565b5050565b6001600a60166101000a81548160ff021916908315150217905550565b6000600a60009054906101000a900473ffffffffffffffffffffffffffffffffffffffff16905081600a60006101000a81548173ffffffffffffffffffffffffffffffffffffffff021916908373ffffffffffffffffffffffffffffffffffffffff1602179055508173ffffffffffffffffffffffffffffffffffffffff168173ffffffffffffffffffffffffffffffffffffffff167f8be0079c531659141344cd1fd0a4f28419497f9722a3daafe3b4186f6b6457e060405160405180910390a35050565b6000612d49826117a0565b9050612d57816000846131fa565b612d62600083612724565b6001600360008373ffffffffffffffffffffffffffffffffffffffff1673ffffffffffffffffffffffffffffffffffffffff1681526020019081526020016000206000828254612db29190615946565b925050819055506002600083815260200190815260200160002060006101000a81549073ffffffffffffffffffffffffffffffffffffffff021916905581600073ffffffffffffffffffffffffffffffffffffffff168273ffffffffffffffffffffffffffffffffffffffff167fddf252ad1be2c89b69c2b068fc378daa952ba7f163c4a11628f55a4df523b3ef60405160405180910390a45050565b8173ffffffffffffffffffffffffffffffffffffffff168373ffffffffffffffffffffffffffffffffffffffff161415612ebe576040517f08c379a0000000000000000000000000000000000000000000000000000000008152600401612eb590615a1c565b60405180910390fd5b80600560008573ffffffffffffffffffffffffffffffffffffffff1673ffffffffffffffffffffffffffffffffffffffff16815260200190815260200160002060008473ffffffffffffffffffffffffffffffffffffffff1673ffffffffffffffffffffffffffffffffffffffff16815260200190815260200160002060006101000a81548160ff0219169083151502179055508173ffffffffffffffffffffffffffffffffffffffff168373ffffffffffffffffffffffffffffffffffffffff167f17307eab39ab6107e8899845ad3d59bd9653f200f220920489ca2b5937696c3183604051612faf9190613af1565b60405180910390a3505050565b612fc78484846129e1565b612fd384848484613369565b613012576040517f08c379a000000000000000000000000000000000000000000000000000000000815260040161300990615aae565b60405180910390fd5b50505050565b606060405180602001604052806000815250905090565b60606000821415613077576040518060400160405280600181526020017f3000000000000000000000000000000000000000000000000000000000000000815250905061318b565b600082905060005b600082146130a957808061309290614fd6565b915050600a826130a29190615afd565b915061307f565b60008167ffffffffffffffff8111156130c5576130c4613d59565b5b6040519080825280601f01601f1916602001820160405280156130f75781602001600182028036833780820191505090505b5090505b60008514613184576001826131109190615946565b9150600a8561311f9190615b2e565b603061312b919061597a565b60f81b81838151811061314157613140614a96565b5b60200101907effffffffffffffffffffffffffffffffffffffffffffffffffffffffffffff1916908160001a905350600a8561317d9190615afd565b94506130fb565b8093505050505b919050565b60007f01ffc9a7000000000000000000000000000000000000000000000000000000007bffffffffffffffffffffffffffffffffffffffffffffffffffffffff1916827bffffffffffffffffffffffffffffffffffffffffffffffffffffffff1916149050919050565b613205838383613500565b600073ffffffffffffffffffffffffffffffffffffffff168373ffffffffffffffffffffffffffffffffffffffff1614156132485761324381613505565b613287565b8173ffffffffffffffffffffffffffffffffffffffff168373ffffffffffffffffffffffffffffffffffffffff161461328657613285838261354e565b5b5b600073ffffffffffffffffffffffffffffffffffffffff168273ffffffffffffffffffffffffffffffffffffffff1614156132ca576132c5816136bb565b613309565b8273ffffffffffffffffffffffffffffffffffffffff168273ffffffffffffffffffffffffffffffffffffffff161461330857613307828261378c565b5b5b505050565b613318838361380b565b6133256000848484613369565b613364576040517f08c379a000000000000000000000000000000000000000000000000000000000815260040161335b90615aae565b60405180910390fd5b505050565b600061338a8473ffffffffffffffffffffffffffffffffffffffff166139d9565b156134f3578373ffffffffffffffffffffffffffffffffffffffff1663150b7a026133b361271c565b8786866040518563ffffffff1660e01b81526004016133d59493929190615ba9565b602060405180830381600087803b1580156133ef57600080fd5b505af192505050801561342057506040513d601f19601f8201168201806040525081019061341d9190615c0a565b60015b6134a3573d8060008114613450576040519150601f19603f3d011682016040523d82523d6000602084013e613455565b606091505b5060008151141561349b576040517f08c379a000000000000000000000000000000000000000000000000000000000815260040161349290615aae565b60405180910390fd5b805181602001fd5b63150b7a0260e01b7bffffffffffffffffffffffffffffffffffffffffffffffffffffffff1916817bffffffffffffffffffffffffffffffffffffffffffffffffffffffff1916149150506134f8565b600190505b949350505050565b505050565b6008805490506009600083815260200190815260200160002081905550600881908060018154018082558091505060019003906000526020600020016000909190919091505550565b6000600161355b84611895565b6135659190615946565b905060006007600084815260200190815260200160002054905081811461364a576000600660008673ffffffffffffffffffffffffffffffffffffffff1673ffffffffffffffffffffffffffffffffffffffff168152602001908152602001600020600084815260200190815260200160002054905080600660008773ffffffffffffffffffffffffffffffffffffffff1673ffffffffffffffffffffffffffffffffffffffff168152602001908152602001600020600084815260200190815260200160002081905550816007600083815260200190815260200160002081905550505b6007600084815260200190815260200160002060009055600660008573ffffffffffffffffffffffffffffffffffffffff1673ffffffffffffffffffffffffffffffffffffffff16815260200190815260200160002060008381526020019081526020016000206000905550505050565b600060016008805490506136cf9190615946565b90506000600960008481526020019081526020016000205490506000600883815481106136ff576136fe614a96565b5b90600052602060002001549050806008838154811061372157613720614a96565b5b9060005260206000200181905550816009600083815260200190815260200160002081905550600960008581526020019081526020016000206000905560088054806137705761376f615c37565b5b6001900381819060005260206000200160009055905550505050565b600061379783611895565b905081600660008573ffffffffffffffffffffffffffffffffffffffff1673ffffffffffffffffffffffffffffffffffffffff168152602001908152602001600020600083815260200190815260200160002081905550806007600084815260200190815260200160002081905550505050565b600073ffffffffffffffffffffffffffffffffffffffff168273ffffffffffffffffffffffffffffffffffffffff16141561387b576040517f08c379a000000000000000000000000000000000000000000000000000000000815260040161387290615cb2565b60405180910390fd5b613884816126b0565b156138c4576040517f08c379a00000000000000000000000000000000000000000000000000000000081526004016138bb90615d1e565b60405180910390fd5b6138d0600083836131fa565b6001600360008473ffffffffffffffffffffffffffffffffffffffff1673ffffffffffffffffffffffffffffffffffffffff1681526020019081526020016000206000828254613920919061597a565b92505081905550816002600083815260200190815260200160002060006101000a81548173ffffffffffffffffffffffffffffffffffffffff021916908373ffffffffffffffffffffffffffffffffffffffff160217905550808273ffffffffffffffffffffffffffffffffffffffff16600073ffffffffffffffffffffffffffffffffffffffff167fddf252ad1be2c89b69c2b068fc378daa952ba7f163c4a11628f55a4df523b3ef60405160405180910390a45050565b600080823b905060008111915050919050565b6040518060800160405280600490602082028036833780820191505090505090565b6040518060800160405280600060ff168152602001600061ffff16815260200160008152602001600081525090565b6000604051905090565b600080fd5b600080fd5b60007fffffffff0000000000000000000000000000000000000000000000000000000082169050919050565b613a8681613a51565b8114613a9157600080fd5b50565b600081359050613aa381613a7d565b92915050565b600060208284031215613abf57613abe613a47565b5b6000613acd84828501613a94565b91505092915050565b60008115159050919050565b613aeb81613ad6565b82525050565b6000602082019050613b066000830184613ae2565b92915050565b6000819050919050565b613b1f81613b0c565b82525050565b6000602082019050613b3a6000830184613b16565b92915050565b600081519050919050565b600082825260208201905092915050565b60005b83811015613b7a578082015181840152602081019050613b5f565b83811115613b89576000848401525b50505050565b6000601f19601f8301169050919050565b6000613bab82613b40565b613bb58185613b4b565b9350613bc5818560208601613b5c565b613bce81613b8f565b840191505092915050565b60006020820190508181036000830152613bf38184613ba0565b905092915050565b613c0481613b0c565b8114613c0f57600080fd5b50565b600081359050613c2181613bfb565b92915050565b600060208284031215613c3d57613c3c613a47565b5b6000613c4b84828501613c12565b91505092915050565b600073ffffffffffffffffffffffffffffffffffffffff82169050919050565b6000613c7f82613c54565b9050919050565b613c8f81613c74565b82525050565b6000602082019050613caa6000830184613c86565b92915050565b613cb981613c74565b8114613cc457600080fd5b50565b600081359050613cd681613cb0565b92915050565b60008060408385031215613cf357613cf2613a47565b5b6000613d0185828601613cc7565b9250506020613d1285828601613c12565b9150509250929050565b600061ffff82169050919050565b613d3381613d1c565b82525050565b6000602082019050613d4e6000830184613d2a565b92915050565b600080fd5b7f4e487b7100000000000000000000000000000000000000000000000000000000600052604160045260246000fd5b613d9182613b8f565b810181811067ffffffffffffffff82111715613db057613daf613d59565b5b80604052505050565b6000613dc3613a3d565b9050613dcf8282613d88565b919050565b600067ffffffffffffffff821115613def57613dee613d59565b5b602082029050919050565b600080fd5b6000613e12613e0d84613dd4565b613db9565b90508060208402830185811115613e2c57613e2b613dfa565b5b835b81811015613e555780613e418882613c12565b845260208401935050602081019050613e2e565b5050509392505050565b600082601f830112613e7457613e73613d54565b5b6005613e81848285613dff565b91505092915050565b600067ffffffffffffffff821115613ea557613ea4613d59565b5b602082029050919050565b600080fd5b600060ff82169050919050565b613ecb81613eb5565b8114613ed657600080fd5b50565b600081359050613ee881613ec2565b92915050565b613ef781613d1c565b8114613f0257600080fd5b50565b600081359050613f1481613eee565b92915050565b600060808284031215613f3057613f2f613eb0565b5b613f3a6080613db9565b90506000613f4a84828501613ed9565b6000830152506020613f5e84828501613f05565b6020830152506040613f7284828501613c12565b6040830152506060613f8684828501613c12565b60608301525092915050565b6000613fa5613fa084613e8a565b613db9565b90508060808402830185811115613fbf57613fbe613dfa565b5b835b81811015613fe85780613fd48882613f1a565b845260208401935050608081019050613fc1565b5050509392505050565b600082601f83011261400757614006613d54565b5b6005614014848285613f92565b91505092915050565b600080610320838503121561403557614034613a47565b5b600061404385828601613e5f565b92505060a061405485828601613ff2565b9150509250929050565b60008060006060848603121561407757614076613a47565b5b600061408586828701613cc7565b935050602061409686828701613cc7565b92505060406140a786828701613c12565b9150509250925092565b600067ffffffffffffffff8211156140cc576140cb613d59565b5b602082029050919050565b60006140ea6140e5846140b1565b613db9565b9050806020840283018581111561410457614103613dfa565b5b835b8181101561412d57806141198882613ed9565b845260208401935050602081019050614106565b5050509392505050565b600082601f83011261414c5761414b613d54565b5b60046141598482856140d7565b91505092915050565b60006080828403121561417857614177613a47565b5b600061418684828501614137565b91505092915050565b600060049050919050565b600081905092915050565b6000819050919050565b6141b881613b0c565b82525050565b60006141ca83836141af565b60208301905092915050565b6000602082019050919050565b6141ec8161418f565b6141f6818461419a565b9250614201826141a5565b8060005b8381101561423257815161421987826141be565b9650614224836141d6565b925050600181019050614205565b505050505050565b600060808201905061424f60008301846141e3565b92915050565b600060608201905061426a6000830186613b16565b6142776020830185613b16565b6142846040830184613b16565b949350505050565b6000602082840312156142a2576142a1613a47565b5b60006142b084828501613cc7565b91505092915050565b600080600080600060a086880312156142d5576142d4613a47565b5b60006142e388828901613c12565b95505060206142f488828901613ed9565b945050604061430588828901613f05565b935050606061431688828901613c12565b925050608061432788828901613c12565b9150509295509295909350565b600067ffffffffffffffff82111561434f5761434e613d59565b5b602082029050919050565b600061436d61436884614334565b613db9565b9050806020840283018581111561438757614386613dfa565b5b835b818110156143b0578061439c8882613c12565b845260208401935050602081019050614389565b5050509392505050565b600082601f8301126143cf576143ce613d54565b5b60026143dc84828561435a565b91505092915050565b600067ffffffffffffffff821115614400576143ff613d59565b5b602082029050919050565b600061441e614419846143e5565b613db9565b9050806020840283018581111561443857614437613dfa565b5b835b81811015614461578061444d8882613c12565b84526020840193505060208101905061443a565b5050509392505050565b600082601f8301126144805761447f613d54565b5b600361448d84828561440b565b91505092915050565b600067ffffffffffffffff8211156144b1576144b0613d59565b5b602082029050919050565b6144c581613ad6565b81146144d057600080fd5b50565b6000813590506144e2816144bc565b92915050565b60006144fb6144f684614496565b613db9565b9050806020840283018581111561451557614514613dfa565b5b835b8181101561453e578061452a88826144d3565b845260208401935050602081019050614517565b5050509392505050565b600082601f83011261455d5761455c613d54565b5b600361456a8482856144e8565b91505092915050565b6000806000610100848603121561458d5761458c613a47565b5b600061459b868287016143ba565b93505060406145ac8682870161446b565b92505060a06145bd86828701614548565b9150509250925092565b600080604083850312156145de576145dd613a47565b5b60006145ec85828601613cc7565b92505060206145fd858286016144d3565b9150509250929050565b600080fd5b600067ffffffffffffffff82111561462757614626613d59565b5b61463082613b8f565b9050602081019050919050565b82818337600083830152505050565b600061465f61465a8461460c565b613db9565b90508281526020810184848401111561467b5761467a614607565b5b61468684828561463d565b509392505050565b600082601f8301126146a3576146a2613d54565b5b81356146b384826020860161464c565b91505092915050565b600080600080608085870312156146d6576146d5613a47565b5b60006146e487828801613cc7565b94505060206146f587828801613cc7565b935050604061470687828801613c12565b925050606085013567ffffffffffffffff81111561472757614726613a4c565b5b6147338782880161468e565b91505092959194509250565b6000806040838503121561475657614755613a47565b5b600061476485828601613c12565b925050602061477585828601613c12565b9150509250929050565b6000806040838503121561479657614795613a47565b5b60006147a485828601613cc7565b92505060206147b585828601613cc7565b9150509250929050565b6147c881613eb5565b82525050565b60006080820190506147e360008301876147bf565b6147f06020830186613d2a565b6147fd6040830185613b16565b61480a6060830184613b16565b95945050505050565b7f4e487b7100000000000000000000000000000000000000000000000000000000600052602260045260246000fd5b6000600282049050600182168061485a57607f821691505b6020821081141561486e5761486d614813565b5b50919050565b7f4552433732313a20617070726f76656420717565727920666f72206e6f6e657860008201527f697374656e7420746f6b656e0000000000000000000000000000000000000000602082015250565b60006148d0602c83613b4b565b91506148db82614874565b604082019050919050565b600060208201905081810360008301526148ff816148c3565b9050919050565b7f4552433732313a20617070726f76616c20746f2063757272656e74206f776e6560008201527f7200000000000000000000000000000000000000000000000000000000000000602082015250565b6000614962602183613b4b565b915061496d82614906565b604082019050919050565b6000602082019050818103600083015261499181614955565b9050919050565b7f4552433732313a20617070726f76652063616c6c6572206973206e6f74206f7760008201527f6e6572206e6f7220617070726f76656420666f7220616c6c0000000000000000602082015250565b60006149f4603883613b4b565b91506149ff82614998565b604082019050919050565b60006020820190508181036000830152614a23816149e7565b9050919050565b7f47414d45204e4f54204f4e474f494e4700000000000000000000000000000000600082015250565b6000614a60601083613b4b565b9150614a6b82614a2a565b602082019050919050565b60006020820190508181036000830152614a8f81614a53565b9050919050565b7f4e487b7100000000000000000000000000000000000000000000000000000000600052603260045260246000fd5b7f4e487b7100000000000000000000000000000000000000000000000000000000600052601160045260246000fd5b6000614aff82613eb5565b9150614b0a83613eb5565b925082821015614b1d57614b1c614ac5565b5b828203905092915050565b6000614b3382613eb5565b915060ff821415614b4757614b46614ac5565b5b600182019050919050565b6000614b5d82613b0c565b9150614b6883613b0c565b9250817fffffffffffffffffffffffffffffffffffffffffffffffffffffffffffffffff0483118215151615614ba157614ba0614ac5565b5b828202905092915050565b7f4e487b7100000000000000000000000000000000000000000000000000000000600052600160045260246000fd5b7f426c61434b204d41524b455420434f4e5452414354204e4f5420534554000000600082015250565b6000614c11601d83613b4b565b9150614c1c82614bdb565b602082019050919050565b60006020820190508181036000830152614c4081614c04565b9050919050565b7f4f4e6c5920426c61434b204d41524b455420434f4e54524143542043414e204360008201527f414c4c20544849532046554e4354494f4e000000000000000000000000000000602082015250565b6000614ca3603183613b4b565b9150614cae82614c47565b604082019050919050565b60006020820190508181036000830152614cd281614c96565b9050919050565b6000606082019050614cee6000830186613c86565b614cfb6020830185613c86565b614d086040830184613b16565b949350505050565b7f4552433732313a207472616e736665722063616c6c6572206973206e6f74206f60008201527f776e6572206e6f7220617070726f766564000000000000000000000000000000602082015250565b6000614d6c603183613b4b565b9150614d7782614d10565b604082019050919050565b60006020820190508181036000830152614d9b81614d5f565b9050919050565b7f455243373231456e756d657261626c653a206f776e657220696e646578206f7560008201527f74206f6620626f756e6473000000000000000000000000000000000000000000602082015250565b6000614dfe602b83613b4b565b9150614e0982614da2565b604082019050919050565b60006020820190508181036000830152614e2d81614df1565b9050919050565b7f455243373231456e756d657261626c653a20676c6f62616c20696e646578206f60008201527f7574206f6620626f756e64730000000000000000000000000000000000000000602082015250565b6000614e90602c83613b4b565b9150614e9b82614e34565b604082019050919050565b60006020820190508181036000830152614ebf81614e83565b9050919050565b7f4d4158205041434b53204d494e54454400000000000000000000000000000000600082015250565b6000614efc601083613b4b565b9150614f0782614ec6565b602082019050919050565b60006020820190508181036000830152614f2b81614eef565b9050919050565b7f43414e204f4e4c59205245515545535420424153452043415244000000000000600082015250565b6000614f68601a83613b4b565b9150614f7382614f32565b602082019050919050565b60006020820190508181036000830152614f9781614f5b565b9050919050565b6000614fa982613d1c565b9150614fb483613d1c565b92508261ffff03821115614fcb57614fca614ac5565b5b828201905092915050565b6000614fe182613b0c565b91507fffffffffffffffffffffffffffffffffffffffffffffffffffffffffffffffff82141561501457615013614ac5565b5b600182019050919050565b6000819050919050565b6000819050919050565b600061504e6150496150448461501f565b615029565b613b0c565b9050919050565b61505e81615033565b82525050565b60006040820190506150796000830185613c86565b6150866020830184615055565b9392505050565b7f4552433732313a206f776e657220717565727920666f72206e6f6e657869737460008201527f656e7420746f6b656e0000000000000000000000000000000000000000000000602082015250565b60006150e9602983613b4b565b91506150f48261508d565b604082019050919050565b60006020820190508181036000830152615118816150dc565b9050919050565b7f4552433732313a2062616c616e636520717565727920666f7220746865207a6560008201527f726f206164647265737300000000000000000000000000000000000000000000602082015250565b600061517b602a83613b4b565b91506151868261511f565b604082019050919050565b600060208201905081810360008301526151aa8161516e565b9050919050565b7f4f776e61626c653a2063616c6c6572206973206e6f7420746865206f776e6572600082015250565b60006151e7602083613b4b565b91506151f2826151b1565b602082019050919050565b60006020820190508181036000830152615216816151da565b9050919050565b7f616c726561647920736574204d657267657220636f6e7472616374206164647260008201527f6573730000000000000000000000000000000000000000000000000000000000602082015250565b6000615279602383613b4b565b91506152848261521d565b604082019050919050565b600060208201905081810360008301526152a88161526c565b9050919050565b7f4d455247455220434f4e5452414354204e4f5420534554000000000000000000600082015250565b60006152e5601783613b4b565b91506152f0826152af565b602082019050919050565b60006020820190508181036000830152615314816152d8565b9050919050565b7f4f4e6c59204d455247455220434f4e54524143542043414e2043414c4c20544860008201527f49532046554e4354494f4e000000000000000000000000000000000000000000602082015250565b6000615377602b83613b4b565b91506153828261531b565b604082019050919050565b600060208201905081810360008301526153a68161536a565b9050919050565b60006040820190506153c26000830185613c86565b6153cf6020830184613b16565b9392505050565b7f4552433732314d657461646174613a2055524920717565727920666f72206e6f60008201527f6e6578697374656e7420746f6b656e0000000000000000000000000000000000602082015250565b6000615432602f83613b4b565b915061543d826153d6565b604082019050919050565b6000602082019050818103600083015261546181615425565b9050919050565b600081905092915050565b600061547e82613b40565b6154888185615468565b9350615498818560208601613b5c565b80840191505092915050565b60006154b08285615473565b91506154bc8284615473565b91508190509392505050565b7f616c72656164792073657420426c61636b4d61726b657420636f6e747261637460008201527f2061646472657373000000000000000000000000000000000000000000000000602082015250565b6000615524602883613b4b565b915061552f826154c8565b604082019050919050565b6000602082019050818103600083015261555381615517565b9050919050565b7f4f776e61626c653a206e6577206f776e657220697320746865207a65726f206160008201527f6464726573730000000000000000000000000000000000000000000000000000602082015250565b60006155b6602683613b4b565b91506155c18261555a565b604082019050919050565b600060208201905081810360008301526155e5816155a9565b9050919050565b60008160f81b9050919050565b6000615604826155ec565b9050919050565b61561c61561782613eb5565b6155f9565b82525050565b600061562e828461560b565b60018201915081905092915050565b60008160f01b9050919050565b60006156558261563d565b9050919050565b61566d61566882613d1c565b61564a565b82525050565b600061567f828461565c565b60028201915081905092915050565b6000819050919050565b6000819050919050565b6156b36156ae8261568e565b615698565b82525050565b60006156c582856156a2565b6020820191506156d582846156a2565b6020820191508190509392505050565b6000819050919050565b6157006156fb82613b0c565b6156e5565b82525050565b600061571282846156ef565b60208201915081905092915050565b600081519050919050565b600081905092915050565b600061574282615721565b61574c818561572c565b935061575c818560208601613b5c565b80840191505092915050565b60006157748285615737565b915061578082846156a2565b6020820191508190509392505050565b7f4552433732313a206f70657261746f7220717565727920666f72206e6f6e657860008201527f697374656e7420746f6b656e0000000000000000000000000000000000000000602082015250565b60006157ec602c83613b4b565b91506157f782615790565b604082019050919050565b6000602082019050818103600083015261581b816157df565b9050919050565b7f4552433732313a207472616e73666572206f6620746f6b656e2074686174206960008201527f73206e6f74206f776e0000000000000000000000000000000000000000000000602082015250565b600061587e602983613b4b565b915061588982615822565b604082019050919050565b600060208201905081810360008301526158ad81615871565b9050919050565b7f4552433732313a207472616e7366657220746f20746865207a65726f2061646460008201527f7265737300000000000000000000000000000000000000000000000000000000602082015250565b6000615910602483613b4b565b915061591b826158b4565b604082019050919050565b6000602082019050818103600083015261593f81615903565b9050919050565b600061595182613b0c565b915061595c83613b0c565b92508282101561596f5761596e614ac5565b5b828203905092915050565b600061598582613b0c565b915061599083613b0c565b9250827fffffffffffffffffffffffffffffffffffffffffffffffffffffffffffffffff038211156159c5576159c4614ac5565b5b828201905092915050565b7f4552433732313a20617070726f766520746f2063616c6c657200000000000000600082015250565b6000615a06601983613b4b565b9150615a11826159d0565b602082019050919050565b60006020820190508181036000830152615a35816159f9565b9050919050565b7f4552433732313a207472616e7366657220746f206e6f6e20455243373231526560008201527f63656976657220696d706c656d656e7465720000000000000000000000000000602082015250565b6000615a98603283613b4b565b9150615aa382615a3c565b604082019050919050565b60006020820190508181036000830152615ac781615a8b565b9050919050565b7f4e487b7100000000000000000000000000000000000000000000000000000000600052601260045260246000fd5b6000615b0882613b0c565b9150615b1383613b0c565b925082615b2357615b22615ace565b5b828204905092915050565b6000615b3982613b0c565b9150615b4483613b0c565b925082615b5457615b53615ace565b5b828206905092915050565b600082825260208201905092915050565b6000615b7b82615721565b615b858185615b5f565b9350615b95818560208601613b5c565b615b9e81613b8f565b840191505092915050565b6000608082019050615bbe6000830187613c86565b615bcb6020830186613c86565b615bd86040830185613b16565b8181036060830152615bea8184615b70565b905095945050505050565b600081519050615c0481613a7d565b92915050565b600060208284031215615c2057615c1f613a47565b5b6000615c2e84828501615bf5565b91505092915050565b7f4e487b7100000000000000000000000000000000000000000000000000000000600052603160045260246000fd5b7f4552433732313a206d696e7420746f20746865207a65726f2061646472657373600082015250565b6000615c9c602083613b4b565b9150615ca782615c66565b602082019050919050565b60006020820190508181036000830152615ccb81615c8f565b9050919050565b7f4552433732313a20746f6b656e20616c7265616479206d696e74656400000000600082015250565b6000615d08601c83613b4b565b9150615d1382615cd2565b602082019050919050565b60006020820190508181036000830152615d3781615cfb565b905091905056fea2646970667358221220101583b57fd3f9e33d12729f02ee6651fa80a2bca65918af9a35ddb69c491cd164736f6c63430008090033",
  "immutableReferences": {},
  "source": "// contracts/MyNFT.sol\n// SPDX-License-Identifier: MIT\npragma solidity ^0.8.0;\n\nimport \"@openzeppelin/contracts/token/ERC721/extensions/ERC721Enumerable.sol\";\nimport \"@openzeppelin/contracts/access/Ownable.sol\";\n//import \"@openzeppelin/contracts/utils/cryptography/MerkleProof.sol\";\nimport \"./MERGE.sol\";\nimport \"./RareRelics.sol\";\n\ncontract NFR is ERC721Enumerable, Ownable  {\n\n    // some are hiddenCards and some are regular cards. Some ERC721 or ERC20\n\n    uint256 public constant MINT_PRICE = .05 ether;\n    uint16 public constant MAX_MINTABLE = 5000;\n    uint16 public packsMinted;\n    bool public gameOngoing;\n\n    // if we need more info than merkleRoot per card, then create a struct that the ID maps to\n    // map from hiddenCardId -> merkleRoot\n    uint16[9] public baseCardCopyCounts = [0, 0, 0, 0, 0, 0, 0, 0, 0];\n    uint256[9] public baseCardHashedDescription = [0x01649792131254809c4b0f4287aaeb9a5229812249af54b3a86c8dcfecda625a, 0, 0, 0, 0, 0, 0, 0, 0];\n\n    struct Artifact {\n        uint8 num;\n        uint16 copyNum;\n        // HIDDEN VALUES:\n        uint256 longDescriptionHashed;\n        uint256 privateKey;\n    }\n\n    struct MergeInfo {\n       uint256 nextMerge;\n       uint256 tokenId1;\n       uint256 tokenId2;\n    }\n    mapping (uint256 => MergeInfo) public mergeQueue;\n    uint public mergeQueueLength = 0;\n    uint256 public head;\n    uint256 public rear;\n\n    mapping(uint256 => Artifact) public publicArtifacts; // private or public?\n\n    uint256 public cardCopiesHashed; // TODO: make private\n\n    MERGE merge;\n    RareRelics rareRelics;\n\n    address BlackMarketAddress;\n    bool BlackMarketAddressSet;\n\n    address MergerAddress;\n    bool MergerAddressSet;\n\n    uint256 private _nonce;\n\n    constructor(address _merge, address _rareRelics) ERC721(\"NFR island\", \"NFR\") {\n        packsMinted = 0;\n        gameOngoing = false;\n        merge = MERGE(_merge);\n        rareRelics = RareRelics(_rareRelics);\n        BlackMarketAddressSet = false;\n        MergerAddressSet = false;\n    }\n\n    function mintPack(uint8[4] memory artifactNums) external payable returns (uint256[4] memory){\n        // TODO: comment back in after testing\n        //        require(msg.value >= MINT_PRICE);\n        require(packsMinted < MAX_MINTABLE, \"MAX PACKS MINTED\");\n        // cards decided must be base cards\n        for (uint8 a = 0; a < 4; a++)\n            require(artifactNums[a] <= 50 && artifactNums[a] >= 42, \"CAN ONLY REQUEST BASE CARD\");\n\n        uint256[4] memory results;\n        for (uint i = 0; i < 4; i++) {\n            Artifact memory artifactToMint;\n            artifactToMint.num = artifactNums[i];\n            baseCardCopyCounts[artifactNums[i] - 42] += 1;\n            artifactToMint.copyNum = baseCardCopyCounts[artifactNums[i] - 42];\n            artifactToMint.longDescriptionHashed = baseCardHashedDescription[artifactNums[i] - 42];\n            artifactToMint.privateKey = 0;\n\n            // create a merkle tree out of each card\n            uint256 merkleRoot = getArtifactMerkleRoot(artifactToMint);\n            publicArtifacts[merkleRoot] = artifactToMint;\n            _safeMint(msg.sender, merkleRoot);\n            // _msgSender() instead?\n            // TODO: do I need to ensure the root is unique beforehand?\n            results[i] = merkleRoot;\n        }\n\n        // allow black market to control these tokens for when you stake\n        setApprovalForAll(BlackMarketAddress, true); // TODO: why call this every time?\n        setApprovalForAll(MergerAddress, true); // TODO: why call this every time?\n        rareRelics.mintFromPack(msg.sender);\n        merge.mint(msg.sender, 5000000);\n\n        packsMinted += 1;\n\n        // Once someone buys the last pack, begin the game!\n        if (packsMinted == MAX_MINTABLE)\n            startGame();\n\n        return results;\n    }\n\n    function startGame() internal {\n        gameOngoing = true;\n\n    }\n\n    function revealArtifact(uint256 tokenId, uint8 num, uint16 copyNum, uint256 longDescriptionHashed, uint256 privateKey) external {\n        require(ownerOf(tokenId) == msg.sender);\n        // must own artifact being revealed\n        // TODO: if using memory and reference it in mapping does it create duplicate\n        Artifact memory artifactToReveal = Artifact(num, copyNum, longDescriptionHashed, privateKey);\n        uint256 merkleRoot = getArtifactMerkleRoot(artifactToReveal);\n        require(tokenId == merkleRoot);\n\n        publicArtifacts[merkleRoot] = artifactToReveal;\n    }\n\n    function endGame(uint256[5] memory tokenIds, Artifact[5] memory genesisArtifacts) external whenGameOngoing {\n        bool[5] memory hasGenesisCard = [false, false, false, false, false];\n        for (uint8 i = 0; i < 5; i++) {\n            require(ownerOf(tokenIds[i]) == msg.sender);\n            // must own the genesis cards\n            require(tokenIds[i] == getArtifactMerkleRoot(genesisArtifacts[i]));\n            // ensure artifact is correct\n            require(genesisArtifacts[i].num <= 5 && genesisArtifacts[i].num > 0);\n            // is a genesis card\n            hasGenesisCard[genesisArtifacts[i].num - 1] = true;\n        }\n\n        for (uint8 i = 0; i < 5; i++)\n            require(hasGenesisCard[i]);\n\n        require(gameOngoing == true);\n        assert(address(this).balance >= MAX_MINTABLE * MINT_PRICE);\n\n        // end the game and transfer the money\n        gameOngoing = false;\n        payable(msg.sender).transfer(MAX_MINTABLE * MINT_PRICE);\n    }\n\n    function getArtifactMerkleRoot(Artifact memory artifact) internal pure returns (uint256){\n        return uint256(keccak256(abi.encodePacked(keccak256(abi.encodePacked(keccak256(abi.encodePacked(artifact.num)), keccak256(abi.encodePacked(artifact.copyNum)))), keccak256(abi.encodePacked(abi.encodePacked(artifact.longDescriptionHashed), keccak256(abi.encodePacked(artifact.privateKey)))))));\n    }\n\n    event cardStolen(address from, address to, uint256 tokenId);\n\n    function stealCard(address from, address to, uint256 tokenId) public isBlackMarketContract {\n        emit cardStolen(from, to, tokenId);\n        transferFrom(from, to, tokenId);\n    }\n\n    event cardBurnt(address owner, uint256 tokenId);\n\n    function duplicateCard(uint256 tokenId) public isBlackMarketContract {\n//        Artifact memory newCard = Artifact({\n//            num : publicArtifacts[tokenId].num,\n//            copyNum : publicArtifacts[tokenId].copyNum, // duplicate doesn't increase the version num (this is power of the card) even when limit is reached more copies can be made\n//            longDescriptionHashed : publicArtifacts[tokenId].longDescriptionHashed,\n//            privateKey : random()\n//            // TODO: copy: true\n//        });\n//        uint256 merkleRoot = getArtifactMerkleRoot(newCard);\n//        publicArtifacts[merkleRoot] = newCard;\n//        _safeMint(ownerOf(tokenId), merkleRoot);\n    }\n\n    function transformCard(uint256 inputTokenId, uint256 targetTokenId) public isBlackMarketContract {\n        emit cardBurnt(ownerOf(inputTokenId), inputTokenId);\n//        _burn(inputTokenId);\n//        Artifact memory newCard = Artifact({\n//            num : publicArtifacts[targetTokenId].num,\n//            copyNum : publicArtifacts[targetTokenId].copyNum,\n//            longDescriptionHashed : publicArtifacts[targetTokenId].longDescriptionHashed,\n//            privateKey : random()\n//            // TODO: copy: true\n//        });\n//        uint256 merkleRoot = getArtifactMerkleRoot(newCard);\n//        publicArtifacts[merkleRoot] = newCard;\n//        _safeMint(ownerOf(inputTokenId), merkleRoot);\n    }\n\n    function setBlackMarketAddress(address _BlackMarketAddress) external onlyOwner {\n        require (BlackMarketAddressSet == false, \"already set BlackMarket contract address\");\n        BlackMarketAddress = _BlackMarketAddress;\n        BlackMarketAddressSet = true;\n//        setApprovalForAll(BlackMarketAddress, true);\n    }\n\n    modifier isBlackMarketContract {\n        require(BlackMarketAddressSet == true, \"BlaCK MARKET CONTRACT NOT SET\");\n        require(msg.sender == BlackMarketAddress, \"ONlY BlaCK MARKET CONTRACT CAN CALL THIS FUNCTION\");\n        _;\n    }\n\n    function setMergerAddress(address _MergerAddress) external onlyOwner {\n        require (MergerAddressSet == false, \"already set Merger contract address\");\n        MergerAddress = _MergerAddress;\n        MergerAddressSet = true;\n        //        setApprovalForAll(BlackMarketAddress, true);\n    }\n\n    function doMerge(uint256[2] memory inputTokens,uint256[3] memory resultTokens, bool[3] memory resultTokensMint) public isMergerContract {\n        emit cardBurnt(ownerOf(inputTokens[0]), inputTokens[0]);\n        emit cardBurnt(ownerOf(inputTokens[1]), inputTokens[1]);\n        _burn(inputTokens[0]);\n        _burn(inputTokens[1]);\n\n        for (uint i = 0; i < 3; i++) {\n            // if we are supposed to mint the relic\n            if (resultTokensMint[i]) {\n                // mint the corresponding token\n                _safeMint(ownerOf(inputTokens[0]), resultTokens[i]);\n            }\n        }\n    }\n\n    modifier isMergerContract {\n        require(MergerAddressSet == true, \"MERGER CONTRACT NOT SET\");\n        require(msg.sender == MergerAddress, \"ONlY MERGER CONTRACT CAN CALL THIS FUNCTION\");\n        _;\n    }\n\n    modifier whenGameOngoing {\n        require(gameOngoing, \"GAME NOT ONGOING\");\n        _;\n    }\n\n    // TODO: add to library?\n    function random() internal returns (uint){\n        _nonce += 1;\n        return uint(keccak256(abi.encodePacked(block.difficulty, block.timestamp, _nonce, _msgSender())));\n    }\n\n    //    function tokenURI(uint256 tokenId) public view virtual override returns (string memory) {\n    //       require(_exists(tokenId), \"ERC721Metadata: URI query for nonexistent token\");\n    //\n    //       // https://cloudflare-ipfs.com/ipns/ {TOKEN ID} .dogsunchainednft.com\n    //       return string(abi.encodePacked(prefix, tokenId.toString(), suffix));\n    //    }\n\n}\n",
  "sourcePath": "/home/prateek/NFR/onchain/contracts/NFR.sol",
  "compiler": {
    "name": "solc",
    "version": "0.8.9+commit.e5eed63a.Emscripten.clang"
  },
  "schemaVersion": "3.4.3",
  "updatedAt": "2022-05-26T19:05:58.525Z",
  "networkType": "ethereum",
  "devdoc": {
    "kind": "dev",
    "methods": {
      "approve(address,uint256)": {
        "details": "See {IERC721-approve}."
      },
      "balanceOf(address)": {
        "details": "See {IERC721-balanceOf}."
      },
      "getApproved(uint256)": {
        "details": "See {IERC721-getApproved}."
      },
      "isApprovedForAll(address,address)": {
        "details": "See {IERC721-isApprovedForAll}."
      },
      "name()": {
        "details": "See {IERC721Metadata-name}."
      },
      "owner()": {
        "details": "Returns the address of the current owner."
      },
      "ownerOf(uint256)": {
        "details": "See {IERC721-ownerOf}."
      },
      "renounceOwnership()": {
        "details": "Leaves the contract without owner. It will not be possible to call `onlyOwner` functions anymore. Can only be called by the current owner. NOTE: Renouncing ownership will leave the contract without an owner, thereby removing any functionality that is only available to the owner."
      },
      "safeTransferFrom(address,address,uint256)": {
        "details": "See {IERC721-safeTransferFrom}."
      },
      "safeTransferFrom(address,address,uint256,bytes)": {
        "details": "See {IERC721-safeTransferFrom}."
      },
      "setApprovalForAll(address,bool)": {
        "details": "See {IERC721-setApprovalForAll}."
      },
      "supportsInterface(bytes4)": {
        "details": "See {IERC165-supportsInterface}."
      },
      "symbol()": {
        "details": "See {IERC721Metadata-symbol}."
      },
      "tokenByIndex(uint256)": {
        "details": "See {IERC721Enumerable-tokenByIndex}."
      },
      "tokenOfOwnerByIndex(address,uint256)": {
        "details": "See {IERC721Enumerable-tokenOfOwnerByIndex}."
      },
      "tokenURI(uint256)": {
        "details": "See {IERC721Metadata-tokenURI}."
      },
      "totalSupply()": {
        "details": "See {IERC721Enumerable-totalSupply}."
      },
      "transferFrom(address,address,uint256)": {
        "details": "See {IERC721-transferFrom}."
      },
      "transferOwnership(address)": {
        "details": "Transfers ownership of the contract to a new account (`newOwner`). Can only be called by the current owner."
      }
    },
    "version": 1
  },
  "userdoc": {
    "kind": "user",
    "methods": {},
    "version": 1
  }
}