{
  "contractName": "NFR",
  "abi": [
    {
      "inputs": [
        {
          "internalType": "address",
          "name": "_merge",
          "type": "address"
        },
        {
          "internalType": "address",
          "name": "_rareRelics",
          "type": "address"
        },
        {
          "internalType": "address",
          "name": "_mergeZKP",
          "type": "address"
        }
      ],
      "stateMutability": "nonpayable",
      "type": "constructor"
    },
    {
      "anonymous": false,
      "inputs": [
        {
          "indexed": false,
          "internalType": "uint256",
          "name": "mergeId",
          "type": "uint256"
        },
        {
          "indexed": false,
          "internalType": "uint256",
          "name": "tokenId1",
          "type": "uint256"
        },
        {
          "indexed": false,
          "internalType": "uint256",
          "name": "tokenId2",
          "type": "uint256"
        }
      ],
      "name": "AddMerge",
      "type": "event"
    },
    {
      "anonymous": false,
      "inputs": [
        {
          "indexed": true,
          "internalType": "address",
          "name": "owner",
          "type": "address"
        },
        {
          "indexed": true,
          "internalType": "address",
          "name": "approved",
          "type": "address"
        },
        {
          "indexed": true,
          "internalType": "uint256",
          "name": "tokenId",
          "type": "uint256"
        }
      ],
      "name": "Approval",
      "type": "event"
    },
    {
      "anonymous": false,
      "inputs": [
        {
          "indexed": true,
          "internalType": "address",
          "name": "owner",
          "type": "address"
        },
        {
          "indexed": true,
          "internalType": "address",
          "name": "operator",
          "type": "address"
        },
        {
          "indexed": false,
          "internalType": "bool",
          "name": "approved",
          "type": "bool"
        }
      ],
      "name": "ApprovalForAll",
      "type": "event"
    },
    {
      "anonymous": false,
      "inputs": [
        {
          "indexed": true,
          "internalType": "address",
          "name": "previousOwner",
          "type": "address"
        },
        {
          "indexed": true,
          "internalType": "address",
          "name": "newOwner",
          "type": "address"
        }
      ],
      "name": "OwnershipTransferred",
      "type": "event"
    },
    {
      "anonymous": false,
      "inputs": [
        {
          "indexed": true,
          "internalType": "address",
          "name": "from",
          "type": "address"
        },
        {
          "indexed": true,
          "internalType": "address",
          "name": "to",
          "type": "address"
        },
        {
          "indexed": true,
          "internalType": "uint256",
          "name": "tokenId",
          "type": "uint256"
        }
      ],
      "name": "Transfer",
      "type": "event"
    },
    {
      "anonymous": false,
      "inputs": [
        {
          "indexed": false,
          "internalType": "address",
          "name": "owner",
          "type": "address"
        },
        {
          "indexed": false,
          "internalType": "uint256",
          "name": "tokenId",
          "type": "uint256"
        }
      ],
      "name": "cardBurnt",
      "type": "event"
    },
    {
      "anonymous": false,
      "inputs": [
        {
          "indexed": false,
          "internalType": "address",
          "name": "from",
          "type": "address"
        },
        {
          "indexed": false,
          "internalType": "address",
          "name": "to",
          "type": "address"
        },
        {
          "indexed": false,
          "internalType": "uint256",
          "name": "tokenId",
          "type": "uint256"
        }
      ],
      "name": "cardStolen",
      "type": "event"
    },
    {
      "inputs": [],
      "name": "MAX_MINTABLE",
      "outputs": [
        {
          "internalType": "uint16",
          "name": "",
          "type": "uint16"
        }
      ],
      "stateMutability": "view",
      "type": "function"
    },
    {
      "inputs": [],
      "name": "MINT_PRICE",
      "outputs": [
        {
          "internalType": "uint256",
          "name": "",
          "type": "uint256"
        }
      ],
      "stateMutability": "view",
      "type": "function"
    },
    {
      "inputs": [
        {
          "internalType": "address",
          "name": "to",
          "type": "address"
        },
        {
          "internalType": "uint256",
          "name": "tokenId",
          "type": "uint256"
        }
      ],
      "name": "approve",
      "outputs": [],
      "stateMutability": "nonpayable",
      "type": "function"
    },
    {
      "inputs": [
        {
          "internalType": "address",
          "name": "owner",
          "type": "address"
        }
      ],
      "name": "balanceOf",
      "outputs": [
        {
          "internalType": "uint256",
          "name": "",
          "type": "uint256"
        }
      ],
      "stateMutability": "view",
      "type": "function"
    },
    {
      "inputs": [
        {
          "internalType": "uint256",
          "name": "",
          "type": "uint256"
        }
      ],
      "name": "baseCardCopyCounts",
      "outputs": [
        {
          "internalType": "uint16",
          "name": "",
          "type": "uint16"
        }
      ],
      "stateMutability": "view",
      "type": "function"
    },
    {
      "inputs": [
        {
          "internalType": "uint256",
          "name": "",
          "type": "uint256"
        }
      ],
      "name": "baseCardHashedDescription",
      "outputs": [
        {
          "internalType": "uint256",
          "name": "",
          "type": "uint256"
        }
      ],
      "stateMutability": "view",
      "type": "function"
    },
    {
      "inputs": [],
      "name": "cardCopiesHashed",
      "outputs": [
        {
          "internalType": "uint256",
          "name": "",
          "type": "uint256"
        }
      ],
      "stateMutability": "view",
      "type": "function"
    },
    {
      "inputs": [],
      "name": "gameOngoing",
      "outputs": [
        {
          "internalType": "bool",
          "name": "",
          "type": "bool"
        }
      ],
      "stateMutability": "view",
      "type": "function"
    },
    {
      "inputs": [
        {
          "internalType": "uint256",
          "name": "tokenId",
          "type": "uint256"
        }
      ],
      "name": "getApproved",
      "outputs": [
        {
          "internalType": "address",
          "name": "",
          "type": "address"
        }
      ],
      "stateMutability": "view",
      "type": "function"
    },
    {
      "inputs": [],
      "name": "head",
      "outputs": [
        {
          "internalType": "uint256",
          "name": "",
          "type": "uint256"
        }
      ],
      "stateMutability": "view",
      "type": "function"
    },
    {
      "inputs": [
        {
          "internalType": "address",
          "name": "owner",
          "type": "address"
        },
        {
          "internalType": "address",
          "name": "operator",
          "type": "address"
        }
      ],
      "name": "isApprovedForAll",
      "outputs": [
        {
          "internalType": "bool",
          "name": "",
          "type": "bool"
        }
      ],
      "stateMutability": "view",
      "type": "function"
    },
    {
      "inputs": [
        {
          "internalType": "uint256",
          "name": "",
          "type": "uint256"
        }
      ],
      "name": "mergeQueue",
      "outputs": [
        {
          "internalType": "uint256",
          "name": "nextMerge",
          "type": "uint256"
        },
        {
          "internalType": "uint256",
          "name": "tokenId1",
          "type": "uint256"
        },
        {
          "internalType": "uint256",
          "name": "tokenId2",
          "type": "uint256"
        }
      ],
      "stateMutability": "view",
      "type": "function"
    },
    {
      "inputs": [],
      "name": "mergeQueueLength",
      "outputs": [
        {
          "internalType": "uint256",
          "name": "",
          "type": "uint256"
        }
      ],
      "stateMutability": "view",
      "type": "function"
    },
    {
      "inputs": [],
      "name": "name",
      "outputs": [
        {
          "internalType": "string",
          "name": "",
          "type": "string"
        }
      ],
      "stateMutability": "view",
      "type": "function"
    },
    {
      "inputs": [],
      "name": "owner",
      "outputs": [
        {
          "internalType": "address",
          "name": "",
          "type": "address"
        }
      ],
      "stateMutability": "view",
      "type": "function"
    },
    {
      "inputs": [
        {
          "internalType": "uint256",
          "name": "tokenId",
          "type": "uint256"
        }
      ],
      "name": "ownerOf",
      "outputs": [
        {
          "internalType": "address",
          "name": "",
          "type": "address"
        }
      ],
      "stateMutability": "view",
      "type": "function"
    },
    {
      "inputs": [],
      "name": "packsMinted",
      "outputs": [
        {
          "internalType": "uint16",
          "name": "",
          "type": "uint16"
        }
      ],
      "stateMutability": "view",
      "type": "function"
    },
    {
      "inputs": [
        {
          "internalType": "uint256",
          "name": "",
          "type": "uint256"
        }
      ],
      "name": "publicArtifacts",
      "outputs": [
        {
          "internalType": "uint8",
          "name": "num",
          "type": "uint8"
        },
        {
          "internalType": "uint16",
          "name": "copyNum",
          "type": "uint16"
        },
        {
          "internalType": "uint256",
          "name": "longDescriptionHashed",
          "type": "uint256"
        },
        {
          "internalType": "uint256",
          "name": "privateKey",
          "type": "uint256"
        }
      ],
      "stateMutability": "view",
      "type": "function"
    },
    {
      "inputs": [],
      "name": "rear",
      "outputs": [
        {
          "internalType": "uint256",
          "name": "",
          "type": "uint256"
        }
      ],
      "stateMutability": "view",
      "type": "function"
    },
    {
      "inputs": [],
      "name": "renounceOwnership",
      "outputs": [],
      "stateMutability": "nonpayable",
      "type": "function"
    },
    {
      "inputs": [
        {
          "internalType": "address",
          "name": "from",
          "type": "address"
        },
        {
          "internalType": "address",
          "name": "to",
          "type": "address"
        },
        {
          "internalType": "uint256",
          "name": "tokenId",
          "type": "uint256"
        }
      ],
      "name": "safeTransferFrom",
      "outputs": [],
      "stateMutability": "nonpayable",
      "type": "function"
    },
    {
      "inputs": [
        {
          "internalType": "address",
          "name": "from",
          "type": "address"
        },
        {
          "internalType": "address",
          "name": "to",
          "type": "address"
        },
        {
          "internalType": "uint256",
          "name": "tokenId",
          "type": "uint256"
        },
        {
          "internalType": "bytes",
          "name": "_data",
          "type": "bytes"
        }
      ],
      "name": "safeTransferFrom",
      "outputs": [],
      "stateMutability": "nonpayable",
      "type": "function"
    },
    {
      "inputs": [
        {
          "internalType": "address",
          "name": "operator",
          "type": "address"
        },
        {
          "internalType": "bool",
          "name": "approved",
          "type": "bool"
        }
      ],
      "name": "setApprovalForAll",
      "outputs": [],
      "stateMutability": "nonpayable",
      "type": "function"
    },
    {
      "inputs": [
        {
          "internalType": "bytes4",
          "name": "interfaceId",
          "type": "bytes4"
        }
      ],
      "name": "supportsInterface",
      "outputs": [
        {
          "internalType": "bool",
          "name": "",
          "type": "bool"
        }
      ],
      "stateMutability": "view",
      "type": "function"
    },
    {
      "inputs": [],
      "name": "symbol",
      "outputs": [
        {
          "internalType": "string",
          "name": "",
          "type": "string"
        }
      ],
      "stateMutability": "view",
      "type": "function"
    },
    {
      "inputs": [
        {
          "internalType": "uint256",
          "name": "index",
          "type": "uint256"
        }
      ],
      "name": "tokenByIndex",
      "outputs": [
        {
          "internalType": "uint256",
          "name": "",
          "type": "uint256"
        }
      ],
      "stateMutability": "view",
      "type": "function"
    },
    {
      "inputs": [
        {
          "internalType": "address",
          "name": "owner",
          "type": "address"
        },
        {
          "internalType": "uint256",
          "name": "index",
          "type": "uint256"
        }
      ],
      "name": "tokenOfOwnerByIndex",
      "outputs": [
        {
          "internalType": "uint256",
          "name": "",
          "type": "uint256"
        }
      ],
      "stateMutability": "view",
      "type": "function"
    },
    {
      "inputs": [
        {
          "internalType": "uint256",
          "name": "tokenId",
          "type": "uint256"
        }
      ],
      "name": "tokenURI",
      "outputs": [
        {
          "internalType": "string",
          "name": "",
          "type": "string"
        }
      ],
      "stateMutability": "view",
      "type": "function"
    },
    {
      "inputs": [],
      "name": "totalSupply",
      "outputs": [
        {
          "internalType": "uint256",
          "name": "",
          "type": "uint256"
        }
      ],
      "stateMutability": "view",
      "type": "function"
    },
    {
      "inputs": [
        {
          "internalType": "address",
          "name": "from",
          "type": "address"
        },
        {
          "internalType": "address",
          "name": "to",
          "type": "address"
        },
        {
          "internalType": "uint256",
          "name": "tokenId",
          "type": "uint256"
        }
      ],
      "name": "transferFrom",
      "outputs": [],
      "stateMutability": "nonpayable",
      "type": "function"
    },
    {
      "inputs": [
        {
          "internalType": "address",
          "name": "newOwner",
          "type": "address"
        }
      ],
      "name": "transferOwnership",
      "outputs": [],
      "stateMutability": "nonpayable",
      "type": "function"
    },
    {
      "inputs": [
        {
          "internalType": "uint8",
          "name": "artifact1",
          "type": "uint8"
        },
        {
          "internalType": "uint8",
          "name": "artifact2",
          "type": "uint8"
        },
        {
          "internalType": "uint8",
          "name": "artifact3",
          "type": "uint8"
        },
        {
          "internalType": "uint8",
          "name": "artifact4",
          "type": "uint8"
        }
      ],
      "name": "mintPack",
      "outputs": [
        {
          "internalType": "uint256[4]",
          "name": "",
          "type": "uint256[4]"
        }
      ],
      "stateMutability": "payable",
      "type": "function"
    },
    {
      "inputs": [
        {
          "internalType": "uint256",
          "name": "tokenId1",
          "type": "uint256"
        },
        {
          "internalType": "uint256",
          "name": "tokenId2",
          "type": "uint256"
        }
      ],
      "name": "requestMerge",
      "outputs": [],
      "stateMutability": "nonpayable",
      "type": "function"
    },
    {
      "inputs": [
        {
          "components": [
            {
              "components": [
                {
                  "internalType": "uint256",
                  "name": "X",
                  "type": "uint256"
                },
                {
                  "internalType": "uint256",
                  "name": "Y",
                  "type": "uint256"
                }
              ],
              "internalType": "struct Pairing.G1Point",
              "name": "a",
              "type": "tuple"
            },
            {
              "components": [
                {
                  "internalType": "uint256[2]",
                  "name": "X",
                  "type": "uint256[2]"
                },
                {
                  "internalType": "uint256[2]",
                  "name": "Y",
                  "type": "uint256[2]"
                }
              ],
              "internalType": "struct Pairing.G2Point",
              "name": "b",
              "type": "tuple"
            },
            {
              "components": [
                {
                  "internalType": "uint256",
                  "name": "X",
                  "type": "uint256"
                },
                {
                  "internalType": "uint256",
                  "name": "Y",
                  "type": "uint256"
                }
              ],
              "internalType": "struct Pairing.G1Point",
              "name": "c",
              "type": "tuple"
            }
          ],
          "internalType": "struct MergeZKP.Proof",
          "name": "proof",
          "type": "tuple"
        },
        {
          "internalType": "uint256[12]",
          "name": "resultCardRoots",
          "type": "uint256[12]"
        },
        {
          "internalType": "bool[3]",
          "name": "resultCardsMint",
          "type": "bool[3]"
        },
        {
          "internalType": "uint256[8]",
          "name": "newCardCopiesHashed",
          "type": "uint256[8]"
        }
      ],
      "name": "processMerge",
      "outputs": [],
      "stateMutability": "nonpayable",
      "type": "function"
    },
    {
      "inputs": [
        {
          "internalType": "uint256",
          "name": "tokenId",
          "type": "uint256"
        },
        {
          "internalType": "uint8",
          "name": "num",
          "type": "uint8"
        },
        {
          "internalType": "uint16",
          "name": "copyNum",
          "type": "uint16"
        },
        {
          "internalType": "uint256",
          "name": "longDescriptionHashed",
          "type": "uint256"
        },
        {
          "internalType": "uint256",
          "name": "privateKey",
          "type": "uint256"
        }
      ],
      "name": "revealArtifact",
      "outputs": [],
      "stateMutability": "nonpayable",
      "type": "function"
    },
    {
      "inputs": [
        {
          "internalType": "uint256[5]",
          "name": "tokenIds",
          "type": "uint256[5]"
        },
        {
          "components": [
            {
              "internalType": "uint8",
              "name": "num",
              "type": "uint8"
            },
            {
              "internalType": "uint16",
              "name": "copyNum",
              "type": "uint16"
            },
            {
              "internalType": "uint256",
              "name": "longDescriptionHashed",
              "type": "uint256"
            },
            {
              "internalType": "uint256",
              "name": "privateKey",
              "type": "uint256"
            }
          ],
          "internalType": "struct NFR.Artifact[5]",
          "name": "genesisArtifacts",
          "type": "tuple[5]"
        }
      ],
      "name": "endGame",
      "outputs": [],
      "stateMutability": "nonpayable",
      "type": "function"
    },
    {
      "inputs": [
        {
          "internalType": "address",
          "name": "from",
          "type": "address"
        },
        {
          "internalType": "address",
          "name": "to",
          "type": "address"
        },
        {
          "internalType": "uint256",
          "name": "tokenId",
          "type": "uint256"
        }
      ],
      "name": "stealCard",
      "outputs": [],
      "stateMutability": "nonpayable",
      "type": "function"
    },
    {
      "inputs": [
        {
          "internalType": "uint256",
          "name": "tokenId",
          "type": "uint256"
        }
      ],
      "name": "duplicateCard",
      "outputs": [],
      "stateMutability": "nonpayable",
      "type": "function"
    },
    {
      "inputs": [
        {
          "internalType": "uint256",
          "name": "inputTokenId",
          "type": "uint256"
        },
        {
          "internalType": "uint256",
          "name": "targetTokenId",
          "type": "uint256"
        }
      ],
      "name": "transformCard",
      "outputs": [],
      "stateMutability": "nonpayable",
      "type": "function"
    },
    {
      "inputs": [
        {
          "internalType": "address",
          "name": "_BlackMarketAddress",
          "type": "address"
        }
      ],
      "name": "setBlackMarketAddress",
      "outputs": [],
      "stateMutability": "nonpayable",
      "type": "function"
    }
  ],
  "bytecode": "0x6080604052604051806101200160405280600060ff168152602001600060ff168152602001600060ff168152602001600060ff168152602001600060ff168152602001600060ff168152602001600060ff168152602001600060ff168152602001600060ff16815250600b9060096200007a929190620003dc565b506040518061012001604052807f01649792131254809c4b0f4287aaeb9a5229812249af54b3a86c8dcfecda625a8152602001600081526020016000815260200160008152602001600081526020016000815260200160008152602001600081526020016000815250600c906009620000f59291906200047f565b5060006016553480156200010857600080fd5b50604051620073a8380380620073a883398181016040528101906200012e9190620005de565b6040518060400160405280600a81526020017f4e46522069736c616e64000000000000000000000000000000000000000000008152506040518060400160405280600381526020017f4e465200000000000000000000000000000000000000000000000000000000008152508160009080519060200190620001b2929190620004c4565b508060019080519060200190620001cb929190620004c4565b505050620001ee620001e26200030e60201b60201c565b6200031660201b60201c565b6000600a60146101000a81548161ffff021916908361ffff1602179055506000600a60166101000a81548160ff02191690831515021790555082601b60006101000a81548173ffffffffffffffffffffffffffffffffffffffff021916908373ffffffffffffffffffffffffffffffffffffffff16021790555081601c60006101000a81548173ffffffffffffffffffffffffffffffffffffffff021916908373ffffffffffffffffffffffffffffffffffffffff16021790555080601d60006101000a81548173ffffffffffffffffffffffffffffffffffffffff021916908373ffffffffffffffffffffffffffffffffffffffff1602179055506000601e60146101000a81548160ff0219169083151502179055505050506200069f565b600033905090565b6000600a60009054906101000a900473ffffffffffffffffffffffffffffffffffffffff16905081600a60006101000a81548173ffffffffffffffffffffffffffffffffffffffff021916908373ffffffffffffffffffffffffffffffffffffffff1602179055508173ffffffffffffffffffffffffffffffffffffffff168173ffffffffffffffffffffffffffffffffffffffff167f8be0079c531659141344cd1fd0a4f28419497f9722a3daafe3b4186f6b6457e060405160405180910390a35050565b826009600f016010900481019282156200046c5791602002820160005b838211156200043a57835183826101000a81548161ffff021916908360ff1602179055509260200192600201602081600101049283019260010302620003f9565b80156200046a5782816101000a81549061ffff02191690556002016020816001010492830192600103026200043a565b505b5090506200047b919062000555565b5090565b8260098101928215620004b1579160200282015b82811115620004b057825182559160200191906001019062000493565b5b509050620004c0919062000555565b5090565b828054620004d29062000669565b90600052602060002090601f016020900481019282620004f6576000855562000542565b82601f106200051157805160ff191683800117855562000542565b8280016001018555821562000542579182015b828111156200054157825182559160200191906001019062000524565b5b50905062000551919062000555565b5090565b5b808211156200057057600081600090555060010162000556565b5090565b600080fd5b600073ffffffffffffffffffffffffffffffffffffffff82169050919050565b6000620005a68262000579565b9050919050565b620005b88162000599565b8114620005c457600080fd5b50565b600081519050620005d881620005ad565b92915050565b600080600060608486031215620005fa57620005f962000574565b5b60006200060a86828701620005c7565b93505060206200061d86828701620005c7565b92505060406200063086828701620005c7565b9150509250925092565b7f4e487b7100000000000000000000000000000000000000000000000000000000600052602260045260246000fd5b600060028204905060018216806200068257607f821691505b602082108114156200069957620006986200063a565b5b50919050565b616cf980620006af6000396000f3fe60806040526004361061023b5760003560e01c8063715018a61161012e578063b88d4fde116100ab578063e8ce4c231161006f578063e8ce4c231461089e578063e985e9c5146108c7578063efde66ec14610904578063f2fde38b14610944578063f70b71bf1461096d5761023b565b8063b88d4fde146107bb578063c002d23d146107e4578063c87b56dd1461080f578063d5ae05ea1461084c578063dcb9a6eb146108755761023b565b80638f7dcfa3116100f25780638f7dcfa3146106e357806395d89b411461070e5780639913496f146107395780639d7abd6f14610762578063a22cb465146107925761023b565b8063715018a61461062257806371851cfa146106395780637372d34b146106645780638da5cb5b1461068d5780638f5f4cbc146106b85761023b565b80632e2f3ac9116101bc5780636352211e116101805780636352211e1461051357806365f819461461055057806369462c1f1461057b5780636f060b89146105a657806370a08231146105e55761023b565b80632e2f3ac91461041c5780632f745c59146104455780633f879faf1461048257806342842e0e146104ad5780634f6ccce7146104d65761023b565b806318160ddd1161020357806318160ddd146103395780631c9b78e314610364578063218e0a41146103a1578063234bfab6146103ca57806323b872dd146103f35761023b565b806301ffc9a714610240578063026113d81461027d57806306fdde03146102a8578063081812fc146102d3578063095ea7b314610310575b600080fd5b34801561024c57600080fd5b50610267600480360381019061026291906144ab565b6109aa565b60405161027491906144f3565b60405180910390f35b34801561028957600080fd5b50610292610a24565b60405161029f9190614527565b60405180910390f35b3480156102b457600080fd5b506102bd610a2a565b6040516102ca91906145db565b60405180910390f35b3480156102df57600080fd5b506102fa60048036038101906102f59190614629565b610abc565b6040516103079190614697565b60405180910390f35b34801561031c57600080fd5b50610337600480360381019061033291906146de565b610b41565b005b34801561034557600080fd5b5061034e610c59565b60405161035b9190614527565b60405180910390f35b34801561037057600080fd5b5061038b60048036038101906103869190614629565b610c66565b604051610398919061473b565b60405180910390f35b3480156103ad57600080fd5b506103c860048036038101906103c39190614a1f565b610c94565b005b3480156103d657600080fd5b506103f160048036038101906103ec9190614a60565b610fa8565b005b3480156103ff57600080fd5b5061041a60048036038101906104159190614a60565b6110d9565b005b34801561042857600080fd5b50610443600480360381019061043e9190614ea8565b611139565b005b34801561045157600080fd5b5061046c600480360381019061046791906146de565b6117c2565b6040516104799190614527565b60405180910390f35b34801561048e57600080fd5b50610497611867565b6040516104a4919061473b565b60405180910390f35b3480156104b957600080fd5b506104d460048036038101906104cf9190614a60565b61186d565b005b3480156104e257600080fd5b506104fd60048036038101906104f89190614629565b61188d565b60405161050a9190614527565b60405180910390f35b34801561051f57600080fd5b5061053a60048036038101906105359190614629565b6118fe565b6040516105479190614697565b60405180910390f35b34801561055c57600080fd5b506105656119b0565b60405161057291906144f3565b60405180910390f35b34801561058757600080fd5b506105906119c3565b60405161059d9190614527565b60405180910390f35b3480156105b257600080fd5b506105cd60048036038101906105c89190614629565b6119c9565b6040516105dc93929190614f13565b60405180910390f35b3480156105f157600080fd5b5061060c60048036038101906106079190614f4a565b6119f3565b6040516106199190614527565b60405180910390f35b34801561062e57600080fd5b50610637611aab565b005b34801561064557600080fd5b5061064e611b33565b60405161065b919061473b565b60405180910390f35b34801561067057600080fd5b5061068b60048036038101906106869190614f77565b611b47565b005b34801561069957600080fd5b506106a2611c44565b6040516106af9190614697565b60405180910390f35b3480156106c457600080fd5b506106cd611c6e565b6040516106da9190614527565b60405180910390f35b3480156106ef57600080fd5b506106f8611c74565b6040516107059190614527565b60405180910390f35b34801561071a57600080fd5b50610723611c7a565b60405161073091906145db565b60405180910390f35b34801561074557600080fd5b50610760600480360381019061075b9190614ff2565b611d0c565b005b61077c60048036038101906107779190615032565b611fa3565b6040516107899190615144565b60405180910390f35b34801561079e57600080fd5b506107b960048036038101906107b4919061515f565b612590565b005b3480156107c757600080fd5b506107e260048036038101906107dd9190615254565b6125a6565b005b3480156107f057600080fd5b506107f9612608565b6040516108069190614527565b60405180910390f35b34801561081b57600080fd5b5061083660048036038101906108319190614629565b612613565b60405161084391906145db565b60405180910390f35b34801561085857600080fd5b50610873600480360381019061086e9190614f4a565b6126ba565b005b34801561088157600080fd5b5061089c60048036038101906108979190614629565b6127eb565b005b3480156108aa57600080fd5b506108c560048036038101906108c09190614ff2565b6129f4565b005b3480156108d357600080fd5b506108ee60048036038101906108e991906152d7565b612c48565b6040516108fb91906144f3565b60405180910390f35b34801561091057600080fd5b5061092b60048036038101906109269190614629565b612cdc565b60405161093b9493929190615326565b60405180910390f35b34801561095057600080fd5b5061096b60048036038101906109669190614f4a565b612d27565b005b34801561097957600080fd5b50610994600480360381019061098f9190614629565b612e1f565b6040516109a19190614527565b60405180910390f35b60007f780e9d63000000000000000000000000000000000000000000000000000000007bffffffffffffffffffffffffffffffffffffffffffffffffffffffff1916827bffffffffffffffffffffffffffffffffffffffffffffffffffffffff19161480610a1d5750610a1c82612e3a565b5b9050919050565b601a5481565b606060008054610a399061539a565b80601f0160208091040260200160405190810160405280929190818152602001828054610a659061539a565b8015610ab25780601f10610a8757610100808354040283529160200191610ab2565b820191906000526020600020905b815481529060010190602001808311610a9557829003601f168201915b5050505050905090565b6000610ac782612f1c565b610b06576040517f08c379a0000000000000000000000000000000000000000000000000000000008152600401610afd9061543e565b60405180910390fd5b6004600083815260200190815260200160002060009054906101000a900473ffffffffffffffffffffffffffffffffffffffff169050919050565b6000610b4c826118fe565b90508073ffffffffffffffffffffffffffffffffffffffff168373ffffffffffffffffffffffffffffffffffffffff161415610bbd576040517f08c379a0000000000000000000000000000000000000000000000000000000008152600401610bb4906154d0565b60405180910390fd5b8073ffffffffffffffffffffffffffffffffffffffff16610bdc612f88565b73ffffffffffffffffffffffffffffffffffffffff161480610c0b5750610c0a81610c05612f88565b612c48565b5b610c4a576040517f08c379a0000000000000000000000000000000000000000000000000000000008152600401610c4190615562565b60405180910390fd5b610c548383612f90565b505050565b6000600880549050905090565b600b8160098110610c7657600080fd5b60109182820401919006600202915054906101000a900461ffff1681565b600a60169054906101000a900460ff16610ce3576040517f08c379a0000000000000000000000000000000000000000000000000000000008152600401610cda906155ce565b60405180910390fd5b60006040518060a001604052806000151515158152602001600015151515815260200160001515151581526020016000151515158152602001600015151515815250905060005b60058160ff161015610e98573373ffffffffffffffffffffffffffffffffffffffff16610d70858360ff1660058110610d6657610d656155ee565b5b60200201516118fe565b73ffffffffffffffffffffffffffffffffffffffff1614610d9057600080fd5b610db3838260ff1660058110610da957610da86155ee565b5b6020020151613049565b848260ff1660058110610dc957610dc86155ee565b5b602002015114610dd857600080fd5b6005838260ff1660058110610df057610def6155ee565b5b60200201516000015160ff1611158015610e2b57506000838260ff1660058110610e1d57610e1c6155ee565b5b60200201516000015160ff16115b610e3457600080fd5b6001826001858460ff1660058110610e4f57610e4e6155ee565b5b602002015160000151610e62919061564c565b60ff1660058110610e7657610e756155ee565b5b6020020190151590811515815250508080610e9090615680565b915050610d2a565b5060005b60058160ff161015610edf57818160ff1660058110610ebe57610ebd6155ee565b5b6020020151610ecc57600080fd5b8080610ed790615680565b915050610e9c565b5060011515600a60169054906101000a900460ff16151514610f0057600080fd5b66b1a2bc2ec5000061138861ffff16610f1991906156aa565b471015610f2957610f28615704565b5b6000600a60166101000a81548160ff0219169083151502179055503373ffffffffffffffffffffffffffffffffffffffff166108fc66b1a2bc2ec5000061138861ffff16610f7791906156aa565b9081150290604051600060405180830381858888f19350505050158015610fa2573d6000803e3d6000fd5b50505050565b60011515601e60149054906101000a900460ff16151514610ffe576040517f08c379a0000000000000000000000000000000000000000000000000000000008152600401610ff59061577f565b60405180910390fd5b601e60009054906101000a900473ffffffffffffffffffffffffffffffffffffffff1673ffffffffffffffffffffffffffffffffffffffff163373ffffffffffffffffffffffffffffffffffffffff161461108e576040517f08c379a000000000000000000000000000000000000000000000000000000000815260040161108590615811565b60405180910390fd5b7f89665ba37e1d52f304a954987e0fdc0cdc63e3f97a6371821c6d8e42e9f112de8383836040516110c193929190615831565b60405180910390a16110d48383836110d9565b505050565b6110ea6110e4612f88565b8261316f565b611129576040517f08c379a0000000000000000000000000000000000000000000000000000000008152600401611120906158da565b60405180910390fd5b61113483838361324d565b505050565b611141612f88565b73ffffffffffffffffffffffffffffffffffffffff1661115f611c44565b73ffffffffffffffffffffffffffffffffffffffff16146111b5576040517f08c379a00000000000000000000000000000000000000000000000000000000081526004016111ac90615946565b60405180910390fd5b6000601654116111fa576040517f08c379a00000000000000000000000000000000000000000000000000000000081526004016111f1906159b2565b60405180910390fd5b60006017549050600060156000838152602001908152602001600020600101549050600060156000848152602001908152602001600020600201549050611240816118fe565b73ffffffffffffffffffffffffffffffffffffffff1661125f836118fe565b73ffffffffffffffffffffffffffffffffffffffff16146112b5576040517f08c379a00000000000000000000000000000000000000000000000000000000081526004016112ac90615a1e565b60405180910390fd5b6112bd6143cb565b60005b600481101561131a5760408160036112d89190615a3e565b6112e291906156aa565b6311111111901b84168282602781106112fe576112fd6155ee565b5b602002018181525050808061131290615a72565b9150506112c0565b5060005b60048110156113845760408160036113369190615a3e565b61134091906156aa565b6311111111901b8316828260046113579190615abb565b60278110611368576113676155ee565b5b602002018181525050808061137c90615a72565b91505061131e565b5060005b600c8110156113e4578781600c81106113a4576113a36155ee565b5b6020020151828260086113b79190615abb565b602781106113c8576113c76155ee565b5b60200201818152505080806113dc90615a72565b915050611388565b5060005b600881101561144e5760208160076114009190615a3e565b61140a91906156aa565b611111901b601a5416828260146114219190615abb565b60278110611432576114316155ee565b5b602002018181525050808061144690615a72565b9150506113e8565b5060005b60038110156114bf5786816003811061146e5761146d6155ee565b5b602002015161147e576000611481565b60015b60ff168282601c6114929190615abb565b602781106114a3576114a26155ee565b5b60200201818152505080806114b790615a72565b915050611452565b5060005b600881101561151f578581600881106114df576114de6155ee565b5b60200201518282601f6114f29190615abb565b60278110611503576115026155ee565b5b602002018181525050808061151790615a72565b9150506114c3565b50601d60009054906101000a900473ffffffffffffffffffffffffffffffffffffffff1673ffffffffffffffffffffffffffffffffffffffff16637c322e3489836040518363ffffffff1660e01b815260040161157d929190615cba565b60206040518083038186803b15801561159557600080fd5b505afa1580156115a9573d6000803e3d6000fd5b505050506040513d601f19601f820116820180604052508101906115cd9190615cfa565b61160c576040517f08c379a000000000000000000000000000000000000000000000000000000000815260040161160390615d73565b60405180910390fd5b611615836134a9565b61161e826134a9565b60005b60038110156117455786816003811061163d5761163c6155ee565b5b60200201511561173257611731611653856118fe565b61172c60405180608001604052808c60048761166f91906156aa565b600c81106116805761167f6155ee565b5b602002015181526020018c600160048861169a91906156aa565b6116a49190615abb565b600c81106116b5576116b46155ee565b5b602002015181526020018c60026004886116cf91906156aa565b6116d99190615abb565b600c81106116ea576116e96155ee565b5b602002015181526020018c600360048861170491906156aa565b61170e9190615abb565b600c811061171f5761171e6155ee565b5b60200201518152506135ba565b613633565b5b808061173d90615a72565b915050611621565b5061174f85613651565b601a81905550601560008581526020019081526020016000206000015460178190555060156000858152602001908152602001600020600080820160009055600182016000905560028201600090555050601660008154809291906117b390615d93565b91905055505050505050505050565b60006117cd836119f3565b821061180e576040517f08c379a000000000000000000000000000000000000000000000000000000000815260040161180590615e2f565b60405180910390fd5b600660008473ffffffffffffffffffffffffffffffffffffffff1673ffffffffffffffffffffffffffffffffffffffff168152602001908152602001600020600083815260200190815260200160002054905092915050565b61138881565b611888838383604051806020016040528060008152506125a6565b505050565b6000611897610c59565b82106118d8576040517f08c379a00000000000000000000000000000000000000000000000000000000081526004016118cf90615ec1565b60405180910390fd5b600882815481106118ec576118eb6155ee565b5b90600052602060002001549050919050565b6000806002600084815260200190815260200160002060009054906101000a900473ffffffffffffffffffffffffffffffffffffffff169050600073ffffffffffffffffffffffffffffffffffffffff168173ffffffffffffffffffffffffffffffffffffffff1614156119a7576040517f08c379a000000000000000000000000000000000000000000000000000000000815260040161199e90615f53565b60405180910390fd5b80915050919050565b600a60169054906101000a900460ff1681565b60185481565b60156020528060005260406000206000915090508060000154908060010154908060020154905083565b60008073ffffffffffffffffffffffffffffffffffffffff168273ffffffffffffffffffffffffffffffffffffffff161415611a64576040517f08c379a0000000000000000000000000000000000000000000000000000000008152600401611a5b90615fe5565b60405180910390fd5b600360008373ffffffffffffffffffffffffffffffffffffffff1673ffffffffffffffffffffffffffffffffffffffff168152602001908152602001600020549050919050565b611ab3612f88565b73ffffffffffffffffffffffffffffffffffffffff16611ad1611c44565b73ffffffffffffffffffffffffffffffffffffffff1614611b27576040517f08c379a0000000000000000000000000000000000000000000000000000000008152600401611b1e90615946565b60405180910390fd5b611b3160006136ca565b565b600a60149054906101000a900461ffff1681565b3373ffffffffffffffffffffffffffffffffffffffff16611b67866118fe565b73ffffffffffffffffffffffffffffffffffffffff1614611b8757600080fd5b600060405180608001604052808660ff1681526020018561ffff1681526020018481526020018381525090506000611bbe82613049565b9050808714611bcc57600080fd5b816019600083815260200190815260200160002060008201518160000160006101000a81548160ff021916908360ff16021790555060208201518160000160016101000a81548161ffff021916908361ffff160217905550604082015181600101556060820151816002015590505050505050505050565b6000600a60009054906101000a900473ffffffffffffffffffffffffffffffffffffffff16905090565b60165481565b60175481565b606060018054611c899061539a565b80601f0160208091040260200160405190810160405280929190818152602001828054611cb59061539a565b8015611d025780601f10611cd757610100808354040283529160200191611d02565b820191906000526020600020905b815481529060010190602001808311611ce557829003601f168201915b5050505050905090565b3373ffffffffffffffffffffffffffffffffffffffff16611d2c836118fe565b73ffffffffffffffffffffffffffffffffffffffff16148015611d8257503373ffffffffffffffffffffffffffffffffffffffff16611d6a826118fe565b73ffffffffffffffffffffffffffffffffffffffff16145b611dc1576040517f08c379a0000000000000000000000000000000000000000000000000000000008152600401611db890616051565b60405180910390fd5b80821415611e04576040517f08c379a0000000000000000000000000000000000000000000000000000000008152600401611dfb906160bd565b60405180910390fd5b601b60009054906101000a900473ffffffffffffffffffffffffffffffffffffffff1673ffffffffffffffffffffffffffffffffffffffff16639dc29fac33670de0b6b3a76400006040518363ffffffff1660e01b8152600401611e69929190616122565b600060405180830381600087803b158015611e8357600080fd5b505af1158015611e97573d6000803e3d6000fd5b5050505060008282604051602001611eb092919061616c565b6040516020818303038152906040528051906020012060001c9050604051806060016040528060008152602001848152602001838152506015600083815260200190815260200160002060008201518160000155602082015181600101556040820151816002015590505060006016541115611f445780601560006018548152602001908152602001600020600001819055505b8060188190555060166000815480929190611f5e90615a72565b91905055507faa3f3a85f5ca748a8fa8d2fa45bde0b6816b43c00f25492427d3d45d7977bfd6818484604051611f9693929190614f13565b60405180910390a1505050565b611fab6143ee565b61138861ffff16600a60149054906101000a900461ffff1661ffff1610612007576040517f08c379a0000000000000000000000000000000000000000000000000000000008152600401611ffe906161e4565b60405180910390fd5b60328560ff161115801561201f5750602a8560ff1610155b61205e576040517f08c379a000000000000000000000000000000000000000000000000000000000815260040161205590616250565b60405180910390fd5b60328460ff16111580156120765750602a8460ff1610155b6120b5576040517f08c379a00000000000000000000000000000000000000000000000000000000081526004016120ac90616250565b60405180910390fd5b60328360ff16111580156120cd5750602a8360ff1610155b61210c576040517f08c379a000000000000000000000000000000000000000000000000000000000815260040161210390616250565b60405180910390fd5b60328260ff16111580156121245750602a8260ff1610155b612163576040517f08c379a000000000000000000000000000000000000000000000000000000000815260040161215a90616250565b60405180910390fd5b600060405180608001604052808760ff1660ff1681526020018660ff1660ff1681526020018560ff1660ff1681526020018460ff1660ff1681525090506121a86143ee565b60005b60048110156123d1576121bc614410565b8382600481106121cf576121ce6155ee565b5b6020020151816000019060ff16908160ff16815250506001600b602a8685600481106121fe576121fd6155ee565b5b602002015161220d919061564c565b60ff1660098110612221576122206155ee565b5b601091828204019190066002028282829054906101000a900461ffff166122489190616270565b92506101000a81548161ffff021916908361ffff160217905550600b602a858460048110612279576122786155ee565b5b6020020151612288919061564c565b60ff166009811061229c5761229b6155ee565b5b601091828204019190066002029054906101000a900461ffff16816020019061ffff16908161ffff1681525050600c602a8584600481106122e0576122df6155ee565b5b60200201516122ef919061564c565b60ff1660098110612303576123026155ee565b5b01548160400181815250506000816060018181525050600061232482613049565b9050816019600083815260200190815260200160002060008201518160000160006101000a81548160ff021916908360ff16021790555060208201518160000160016101000a81548161ffff021916908361ffff160217905550604082015181600101556060820151816002015590505061239f3382613633565b808484600481106123b3576123b26155ee565b5b602002018181525050505080806123c990615a72565b9150506121ab565b506123ff601e60009054906101000a900473ffffffffffffffffffffffffffffffffffffffff166001612590565b601c60009054906101000a900473ffffffffffffffffffffffffffffffffffffffff1673ffffffffffffffffffffffffffffffffffffffff1663f0460ef9336040518263ffffffff1660e01b815260040161245a9190614697565b600060405180830381600087803b15801561247457600080fd5b505af1158015612488573d6000803e3d6000fd5b50505050601b60009054906101000a900473ffffffffffffffffffffffffffffffffffffffff1673ffffffffffffffffffffffffffffffffffffffff166340c10f1933624c4b406040518363ffffffff1660e01b81526004016124ec9291906162e3565b600060405180830381600087803b15801561250657600080fd5b505af115801561251a573d6000803e3d6000fd5b505050506001600a60148282829054906101000a900461ffff1661253e9190616270565b92506101000a81548161ffff021916908361ffff16021790555061138861ffff16600a60149054906101000a900461ffff1661ffff16141561258357612582613790565b5b8092505050949350505050565b6125a261259b612f88565b83836137d4565b5050565b6125b76125b1612f88565b8361316f565b6125f6576040517f08c379a00000000000000000000000000000000000000000000000000000000081526004016125ed906158da565b60405180910390fd5b61260284848484613941565b50505050565b66b1a2bc2ec5000081565b606061261e82612f1c565b61265d576040517f08c379a00000000000000000000000000000000000000000000000000000000081526004016126549061637e565b60405180910390fd5b600061266761399d565b9050600081511161268757604051806020016040528060008152506126b2565b80612691846139b4565b6040516020016126a29291906163da565b6040516020818303038152906040525b915050919050565b6126c2612f88565b73ffffffffffffffffffffffffffffffffffffffff166126e0611c44565b73ffffffffffffffffffffffffffffffffffffffff1614612736576040517f08c379a000000000000000000000000000000000000000000000000000000000815260040161272d90615946565b60405180910390fd5b60001515601e60149054906101000a900460ff1615151461278c576040517f08c379a000000000000000000000000000000000000000000000000000000000815260040161278390616470565b60405180910390fd5b80601e60006101000a81548173ffffffffffffffffffffffffffffffffffffffff021916908373ffffffffffffffffffffffffffffffffffffffff1602179055506001601e60146101000a81548160ff02191690831515021790555050565b60011515601e60149054906101000a900460ff16151514612841576040517f08c379a00000000000000000000000000000000000000000000000000000000081526004016128389061577f565b60405180910390fd5b601e60009054906101000a900473ffffffffffffffffffffffffffffffffffffffff1673ffffffffffffffffffffffffffffffffffffffff163373ffffffffffffffffffffffffffffffffffffffff16146128d1576040517f08c379a00000000000000000000000000000000000000000000000000000000081526004016128c890615811565b60405180910390fd5b600060405180608001604052806019600085815260200190815260200160002060000160009054906101000a900460ff1660ff1681526020016019600085815260200190815260200160002060000160019054906101000a900461ffff1661ffff1681526020016019600085815260200190815260200160002060010154815260200161295c613b15565b8152509050600061296c82613049565b9050816019600083815260200190815260200160002060008201518160000160006101000a81548160ff021916908360ff16021790555060208201518160000160016101000a81548161ffff021916908361ffff16021790555060408201518160010155606082015181600201559050506129ef6129e9846118fe565b82613633565b505050565b60011515601e60149054906101000a900460ff16151514612a4a576040517f08c379a0000000000000000000000000000000000000000000000000000000008152600401612a419061577f565b60405180910390fd5b601e60009054906101000a900473ffffffffffffffffffffffffffffffffffffffff1673ffffffffffffffffffffffffffffffffffffffff163373ffffffffffffffffffffffffffffffffffffffff1614612ada576040517f08c379a0000000000000000000000000000000000000000000000000000000008152600401612ad190615811565b60405180910390fd5b7f05910ad4fa157f54cf547755367786ba2f613a82c439009ed9313a3c66f6747a612b04836118fe565b83604051612b13929190616490565b60405180910390a1612b24826134a9565b600060405180608001604052806019600085815260200190815260200160002060000160009054906101000a900460ff1660ff1681526020016019600085815260200190815260200160002060000160019054906101000a900461ffff1661ffff16815260200160196000858152602001908152602001600020600101548152602001612baf613b15565b81525090506000612bbf82613049565b9050816019600083815260200190815260200160002060008201518160000160006101000a81548160ff021916908360ff16021790555060208201518160000160016101000a81548161ffff021916908361ffff1602179055506040820151816001015560608201518160020155905050612c42612c3c856118fe565b82613633565b50505050565b6000600560008473ffffffffffffffffffffffffffffffffffffffff1673ffffffffffffffffffffffffffffffffffffffff16815260200190815260200160002060008373ffffffffffffffffffffffffffffffffffffffff1673ffffffffffffffffffffffffffffffffffffffff16815260200190815260200160002060009054906101000a900460ff16905092915050565b60196020528060005260406000206000915090508060000160009054906101000a900460ff16908060000160019054906101000a900461ffff16908060010154908060020154905084565b612d2f612f88565b73ffffffffffffffffffffffffffffffffffffffff16612d4d611c44565b73ffffffffffffffffffffffffffffffffffffffff1614612da3576040517f08c379a0000000000000000000000000000000000000000000000000000000008152600401612d9a90615946565b60405180910390fd5b600073ffffffffffffffffffffffffffffffffffffffff168173ffffffffffffffffffffffffffffffffffffffff161415612e13576040517f08c379a0000000000000000000000000000000000000000000000000000000008152600401612e0a9061652b565b60405180910390fd5b612e1c816136ca565b50565b600c8160098110612e2f57600080fd5b016000915090505481565b60007f80ac58cd000000000000000000000000000000000000000000000000000000007bffffffffffffffffffffffffffffffffffffffffffffffffffffffff1916827bffffffffffffffffffffffffffffffffffffffffffffffffffffffff19161480612f0557507f5b5e139f000000000000000000000000000000000000000000000000000000007bffffffffffffffffffffffffffffffffffffffffffffffffffffffff1916827bffffffffffffffffffffffffffffffffffffffffffffffffffffffff1916145b80612f155750612f1482613b6f565b5b9050919050565b60008073ffffffffffffffffffffffffffffffffffffffff166002600084815260200190815260200160002060009054906101000a900473ffffffffffffffffffffffffffffffffffffffff1673ffffffffffffffffffffffffffffffffffffffff1614159050919050565b600033905090565b816004600083815260200190815260200160002060006101000a81548173ffffffffffffffffffffffffffffffffffffffff021916908373ffffffffffffffffffffffffffffffffffffffff160217905550808273ffffffffffffffffffffffffffffffffffffffff16613003836118fe565b73ffffffffffffffffffffffffffffffffffffffff167f8c5be1e5ebec7d5bd14f71427d1e84f3dd0314c0f7b2291e5b200ac8c7c3b92560405160405180910390a45050565b600081600001516040516020016130609190616581565b60405160208183030381529060405280519060200120826020015160405160200161308b91906165d2565b604051602081830303815290604052805190602001206040516020016130b2929190616618565b6040516020818303038152906040528051906020012082604001516040516020016130dd9190616644565b60405160208183030381529060405283606001516040516020016131019190616644565b604051602081830303815290604052805190602001206040516020016131289291906166a6565b6040516020818303038152906040528051906020012060405160200161314f929190616618565b6040516020818303038152906040528051906020012060001c9050919050565b600061317a82612f1c565b6131b9576040517f08c379a00000000000000000000000000000000000000000000000000000000081526004016131b090616740565b60405180910390fd5b60006131c4836118fe565b90508073ffffffffffffffffffffffffffffffffffffffff168473ffffffffffffffffffffffffffffffffffffffff16148061323357508373ffffffffffffffffffffffffffffffffffffffff1661321b84610abc565b73ffffffffffffffffffffffffffffffffffffffff16145b8061324457506132438185612c48565b5b91505092915050565b8273ffffffffffffffffffffffffffffffffffffffff1661326d826118fe565b73ffffffffffffffffffffffffffffffffffffffff16146132c3576040517f08c379a00000000000000000000000000000000000000000000000000000000081526004016132ba906167d2565b60405180910390fd5b600073ffffffffffffffffffffffffffffffffffffffff168273ffffffffffffffffffffffffffffffffffffffff161415613333576040517f08c379a000000000000000000000000000000000000000000000000000000000815260040161332a90616864565b60405180910390fd5b61333e838383613bd9565b613349600082612f90565b6001600360008573ffffffffffffffffffffffffffffffffffffffff1673ffffffffffffffffffffffffffffffffffffffff16815260200190815260200160002060008282546133999190615a3e565b925050819055506001600360008473ffffffffffffffffffffffffffffffffffffffff1673ffffffffffffffffffffffffffffffffffffffff16815260200190815260200160002060008282546133f09190615abb565b92505081905550816002600083815260200190815260200160002060006101000a81548173ffffffffffffffffffffffffffffffffffffffff021916908373ffffffffffffffffffffffffffffffffffffffff160217905550808273ffffffffffffffffffffffffffffffffffffffff168473ffffffffffffffffffffffffffffffffffffffff167fddf252ad1be2c89b69c2b068fc378daa952ba7f163c4a11628f55a4df523b3ef60405160405180910390a4505050565b60006134b4826118fe565b90506134c281600084613bd9565b6134cd600083612f90565b6001600360008373ffffffffffffffffffffffffffffffffffffffff1673ffffffffffffffffffffffffffffffffffffffff168152602001908152602001600020600082825461351d9190615a3e565b925050819055506002600083815260200190815260200160002060006101000a81549073ffffffffffffffffffffffffffffffffffffffff021916905581600073ffffffffffffffffffffffffffffffffffffffff168273ffffffffffffffffffffffffffffffffffffffff167fddf252ad1be2c89b69c2b068fc378daa952ba7f163c4a11628f55a4df523b3ef60405160405180910390a45050565b6000806000905060005b60048160ff161015613629578060406135dd9190616884565b60ff16848260036135ee919061564c565b60ff1660048110613602576136016155ee565b5b6020020151901b826136149190615abb565b9150808061362190615680565b9150506135c4565b5080915050919050565b61364d828260405180602001604052806000815250613ced565b5050565b6000806000905060005b60088160ff1610156136c0578060206136749190616884565b60ff1684826007613685919061564c565b60ff1660088110613699576136986155ee565b5b6020020151901b826136ab9190615abb565b915080806136b890615680565b91505061365b565b5080915050919050565b6000600a60009054906101000a900473ffffffffffffffffffffffffffffffffffffffff16905081600a60006101000a81548173ffffffffffffffffffffffffffffffffffffffff021916908373ffffffffffffffffffffffffffffffffffffffff1602179055508173ffffffffffffffffffffffffffffffffffffffff168173ffffffffffffffffffffffffffffffffffffffff167f8be0079c531659141344cd1fd0a4f28419497f9722a3daafe3b4186f6b6457e060405160405180910390a35050565b6001600a60166101000a81548160ff0219169083151502179055507fa65f3fa0002aba81ad5f5805158ca53b4c6786ad9dc9845a0acbd5e718ffe95d601a81905550565b8173ffffffffffffffffffffffffffffffffffffffff168373ffffffffffffffffffffffffffffffffffffffff161415613843576040517f08c379a000000000000000000000000000000000000000000000000000000000815260040161383a9061690b565b60405180910390fd5b80600560008573ffffffffffffffffffffffffffffffffffffffff1673ffffffffffffffffffffffffffffffffffffffff16815260200190815260200160002060008473ffffffffffffffffffffffffffffffffffffffff1673ffffffffffffffffffffffffffffffffffffffff16815260200190815260200160002060006101000a81548160ff0219169083151502179055508173ffffffffffffffffffffffffffffffffffffffff168373ffffffffffffffffffffffffffffffffffffffff167f17307eab39ab6107e8899845ad3d59bd9653f200f220920489ca2b5937696c318360405161393491906144f3565b60405180910390a3505050565b61394c84848461324d565b61395884848484613d48565b613997576040517f08c379a000000000000000000000000000000000000000000000000000000000815260040161398e9061699d565b60405180910390fd5b50505050565b606060405180602001604052806000815250905090565b606060008214156139fc576040518060400160405280600181526020017f30000000000000000000000000000000000000000000000000000000000000008152509050613b10565b600082905060005b60008214613a2e578080613a1790615a72565b915050600a82613a2791906169ec565b9150613a04565b60008167ffffffffffffffff811115613a4a57613a4961475b565b5b6040519080825280601f01601f191660200182016040528015613a7c5781602001600182028036833780820191505090505b5090505b60008514613b0957600182613a959190615a3e565b9150600a85613aa49190616a1d565b6030613ab09190615abb565b60f81b818381518110613ac657613ac56155ee565b5b60200101907effffffffffffffffffffffffffffffffffffffffffffffffffffffffffffff1916908160001a905350600a85613b0291906169ec565b9450613a80565b8093505050505b919050565b60006001601f6000828254613b2a9190615abb565b925050819055504442601f54613b3e612f88565b604051602001613b519493929190616a96565b6040516020818303038152906040528051906020012060001c905090565b60007f01ffc9a7000000000000000000000000000000000000000000000000000000007bffffffffffffffffffffffffffffffffffffffffffffffffffffffff1916827bffffffffffffffffffffffffffffffffffffffffffffffffffffffff1916149050919050565b613be4838383613edf565b600073ffffffffffffffffffffffffffffffffffffffff168373ffffffffffffffffffffffffffffffffffffffff161415613c2757613c2281613ee4565b613c66565b8173ffffffffffffffffffffffffffffffffffffffff168373ffffffffffffffffffffffffffffffffffffffff1614613c6557613c648382613f2d565b5b5b600073ffffffffffffffffffffffffffffffffffffffff168273ffffffffffffffffffffffffffffffffffffffff161415613ca957613ca48161409a565b613ce8565b8273ffffffffffffffffffffffffffffffffffffffff168273ffffffffffffffffffffffffffffffffffffffff1614613ce757613ce6828261416b565b5b5b505050565b613cf783836141ea565b613d046000848484613d48565b613d43576040517f08c379a0000000000000000000000000000000000000000000000000000000008152600401613d3a9061699d565b60405180910390fd5b505050565b6000613d698473ffffffffffffffffffffffffffffffffffffffff166143b8565b15613ed2578373ffffffffffffffffffffffffffffffffffffffff1663150b7a02613d92612f88565b8786866040518563ffffffff1660e01b8152600401613db49493929190616b2e565b602060405180830381600087803b158015613dce57600080fd5b505af1925050508015613dff57506040513d601f19601f82011682018060405250810190613dfc9190616b8f565b60015b613e82573d8060008114613e2f576040519150601f19603f3d011682016040523d82523d6000602084013e613e34565b606091505b50600081511415613e7a576040517f08c379a0000000000000000000000000000000000000000000000000000000008152600401613e719061699d565b60405180910390fd5b805181602001fd5b63150b7a0260e01b7bffffffffffffffffffffffffffffffffffffffffffffffffffffffff1916817bffffffffffffffffffffffffffffffffffffffffffffffffffffffff191614915050613ed7565b600190505b949350505050565b505050565b6008805490506009600083815260200190815260200160002081905550600881908060018154018082558091505060019003906000526020600020016000909190919091505550565b60006001613f3a846119f3565b613f449190615a3e565b9050600060076000848152602001908152602001600020549050818114614029576000600660008673ffffffffffffffffffffffffffffffffffffffff1673ffffffffffffffffffffffffffffffffffffffff168152602001908152602001600020600084815260200190815260200160002054905080600660008773ffffffffffffffffffffffffffffffffffffffff1673ffffffffffffffffffffffffffffffffffffffff168152602001908152602001600020600084815260200190815260200160002081905550816007600083815260200190815260200160002081905550505b6007600084815260200190815260200160002060009055600660008573ffffffffffffffffffffffffffffffffffffffff1673ffffffffffffffffffffffffffffffffffffffff16815260200190815260200160002060008381526020019081526020016000206000905550505050565b600060016008805490506140ae9190615a3e565b90506000600960008481526020019081526020016000205490506000600883815481106140de576140dd6155ee565b5b906000526020600020015490508060088381548110614100576140ff6155ee565b5b90600052602060002001819055508160096000838152602001908152602001600020819055506009600085815260200190815260200160002060009055600880548061414f5761414e616bbc565b5b6001900381819060005260206000200160009055905550505050565b6000614176836119f3565b905081600660008573ffffffffffffffffffffffffffffffffffffffff1673ffffffffffffffffffffffffffffffffffffffff168152602001908152602001600020600083815260200190815260200160002081905550806007600084815260200190815260200160002081905550505050565b600073ffffffffffffffffffffffffffffffffffffffff168273ffffffffffffffffffffffffffffffffffffffff16141561425a576040517f08c379a000000000000000000000000000000000000000000000000000000000815260040161425190616c37565b60405180910390fd5b61426381612f1c565b156142a3576040517f08c379a000000000000000000000000000000000000000000000000000000000815260040161429a90616ca3565b60405180910390fd5b6142af60008383613bd9565b6001600360008473ffffffffffffffffffffffffffffffffffffffff1673ffffffffffffffffffffffffffffffffffffffff16815260200190815260200160002060008282546142ff9190615abb565b92505081905550816002600083815260200190815260200160002060006101000a81548173ffffffffffffffffffffffffffffffffffffffff021916908373ffffffffffffffffffffffffffffffffffffffff160217905550808273ffffffffffffffffffffffffffffffffffffffff16600073ffffffffffffffffffffffffffffffffffffffff167fddf252ad1be2c89b69c2b068fc378daa952ba7f163c4a11628f55a4df523b3ef60405160405180910390a45050565b600080823b905060008111915050919050565b604051806104e00160405280602790602082028036833780820191505090505090565b6040518060800160405280600490602082028036833780820191505090505090565b6040518060800160405280600060ff168152602001600061ffff16815260200160008152602001600081525090565b6000604051905090565b600080fd5b600080fd5b60007fffffffff0000000000000000000000000000000000000000000000000000000082169050919050565b61448881614453565b811461449357600080fd5b50565b6000813590506144a58161447f565b92915050565b6000602082840312156144c1576144c0614449565b5b60006144cf84828501614496565b91505092915050565b60008115159050919050565b6144ed816144d8565b82525050565b600060208201905061450860008301846144e4565b92915050565b6000819050919050565b6145218161450e565b82525050565b600060208201905061453c6000830184614518565b92915050565b600081519050919050565b600082825260208201905092915050565b60005b8381101561457c578082015181840152602081019050614561565b8381111561458b576000848401525b50505050565b6000601f19601f8301169050919050565b60006145ad82614542565b6145b7818561454d565b93506145c781856020860161455e565b6145d081614591565b840191505092915050565b600060208201905081810360008301526145f581846145a2565b905092915050565b6146068161450e565b811461461157600080fd5b50565b600081359050614623816145fd565b92915050565b60006020828403121561463f5761463e614449565b5b600061464d84828501614614565b91505092915050565b600073ffffffffffffffffffffffffffffffffffffffff82169050919050565b600061468182614656565b9050919050565b61469181614676565b82525050565b60006020820190506146ac6000830184614688565b92915050565b6146bb81614676565b81146146c657600080fd5b50565b6000813590506146d8816146b2565b92915050565b600080604083850312156146f5576146f4614449565b5b6000614703858286016146c9565b925050602061471485828601614614565b9150509250929050565b600061ffff82169050919050565b6147358161471e565b82525050565b6000602082019050614750600083018461472c565b92915050565b600080fd5b7f4e487b7100000000000000000000000000000000000000000000000000000000600052604160045260246000fd5b61479382614591565b810181811067ffffffffffffffff821117156147b2576147b161475b565b5b80604052505050565b60006147c561443f565b90506147d1828261478a565b919050565b600067ffffffffffffffff8211156147f1576147f061475b565b5b602082029050919050565b600080fd5b600061481461480f846147d6565b6147bb565b9050806020840283018581111561482e5761482d6147fc565b5b835b8181101561485757806148438882614614565b845260208401935050602081019050614830565b5050509392505050565b600082601f83011261487657614875614756565b5b6005614883848285614801565b91505092915050565b600067ffffffffffffffff8211156148a7576148a661475b565b5b602082029050919050565b600080fd5b600060ff82169050919050565b6148cd816148b7565b81146148d857600080fd5b50565b6000813590506148ea816148c4565b92915050565b6148f98161471e565b811461490457600080fd5b50565b600081359050614916816148f0565b92915050565b600060808284031215614932576149316148b2565b5b61493c60806147bb565b9050600061494c848285016148db565b600083015250602061496084828501614907565b602083015250604061497484828501614614565b604083015250606061498884828501614614565b60608301525092915050565b60006149a76149a28461488c565b6147bb565b905080608084028301858111156149c1576149c06147fc565b5b835b818110156149ea57806149d6888261491c565b8452602084019350506080810190506149c3565b5050509392505050565b600082601f830112614a0957614a08614756565b5b6005614a16848285614994565b91505092915050565b6000806103208385031215614a3757614a36614449565b5b6000614a4585828601614861565b92505060a0614a56858286016149f4565b9150509250929050565b600080600060608486031215614a7957614a78614449565b5b6000614a87868287016146c9565b9350506020614a98868287016146c9565b9250506040614aa986828701614614565b9150509250925092565b600060408284031215614ac957614ac86148b2565b5b614ad360406147bb565b90506000614ae384828501614614565b6000830152506020614af784828501614614565b60208301525092915050565b600067ffffffffffffffff821115614b1e57614b1d61475b565b5b602082029050919050565b6000614b3c614b3784614b03565b6147bb565b90508060208402830185811115614b5657614b556147fc565b5b835b81811015614b7f5780614b6b8882614614565b845260208401935050602081019050614b58565b5050509392505050565b600082601f830112614b9e57614b9d614756565b5b6002614bab848285614b29565b91505092915050565b600060808284031215614bca57614bc96148b2565b5b614bd460406147bb565b90506000614be484828501614b89565b6000830152506040614bf884828501614b89565b60208301525092915050565b60006101008284031215614c1b57614c1a6148b2565b5b614c2560606147bb565b90506000614c3584828501614ab3565b6000830152506040614c4984828501614bb4565b60208301525060c0614c5d84828501614ab3565b60408301525092915050565b600067ffffffffffffffff821115614c8457614c8361475b565b5b602082029050919050565b6000614ca2614c9d84614c69565b6147bb565b90508060208402830185811115614cbc57614cbb6147fc565b5b835b81811015614ce55780614cd18882614614565b845260208401935050602081019050614cbe565b5050509392505050565b600082601f830112614d0457614d03614756565b5b600c614d11848285614c8f565b91505092915050565b600067ffffffffffffffff821115614d3557614d3461475b565b5b602082029050919050565b614d49816144d8565b8114614d5457600080fd5b50565b600081359050614d6681614d40565b92915050565b6000614d7f614d7a84614d1a565b6147bb565b90508060208402830185811115614d9957614d986147fc565b5b835b81811015614dc25780614dae8882614d57565b845260208401935050602081019050614d9b565b5050509392505050565b600082601f830112614de157614de0614756565b5b6003614dee848285614d6c565b91505092915050565b600067ffffffffffffffff821115614e1257614e1161475b565b5b602082029050919050565b6000614e30614e2b84614df7565b6147bb565b90508060208402830185811115614e4a57614e496147fc565b5b835b81811015614e735780614e5f8882614614565b845260208401935050602081019050614e4c565b5050509392505050565b600082601f830112614e9257614e91614756565b5b6008614e9f848285614e1d565b91505092915050565b6000806000806103e08587031215614ec357614ec2614449565b5b6000614ed187828801614c04565b945050610100614ee387828801614cef565b935050610280614ef587828801614dcc565b9250506102e0614f0787828801614e7d565b91505092959194509250565b6000606082019050614f286000830186614518565b614f356020830185614518565b614f426040830184614518565b949350505050565b600060208284031215614f6057614f5f614449565b5b6000614f6e848285016146c9565b91505092915050565b600080600080600060a08688031215614f9357614f92614449565b5b6000614fa188828901614614565b9550506020614fb2888289016148db565b9450506040614fc388828901614907565b9350506060614fd488828901614614565b9250506080614fe588828901614614565b9150509295509295909350565b6000806040838503121561500957615008614449565b5b600061501785828601614614565b925050602061502885828601614614565b9150509250929050565b6000806000806080858703121561504c5761504b614449565b5b600061505a878288016148db565b945050602061506b878288016148db565b935050604061507c878288016148db565b925050606061508d878288016148db565b91505092959194509250565b600060049050919050565b600081905092915050565b6000819050919050565b6150c28161450e565b82525050565b60006150d483836150b9565b60208301905092915050565b6000602082019050919050565b6150f681615099565b61510081846150a4565b925061510b826150af565b8060005b8381101561513c57815161512387826150c8565b965061512e836150e0565b92505060018101905061510f565b505050505050565b600060808201905061515960008301846150ed565b92915050565b6000806040838503121561517657615175614449565b5b6000615184858286016146c9565b925050602061519585828601614d57565b9150509250929050565b600080fd5b600067ffffffffffffffff8211156151bf576151be61475b565b5b6151c882614591565b9050602081019050919050565b82818337600083830152505050565b60006151f76151f2846151a4565b6147bb565b9050828152602081018484840111156152135761521261519f565b5b61521e8482856151d5565b509392505050565b600082601f83011261523b5761523a614756565b5b813561524b8482602086016151e4565b91505092915050565b6000806000806080858703121561526e5761526d614449565b5b600061527c878288016146c9565b945050602061528d878288016146c9565b935050604061529e87828801614614565b925050606085013567ffffffffffffffff8111156152bf576152be61444e565b5b6152cb87828801615226565b91505092959194509250565b600080604083850312156152ee576152ed614449565b5b60006152fc858286016146c9565b925050602061530d858286016146c9565b9150509250929050565b615320816148b7565b82525050565b600060808201905061533b6000830187615317565b615348602083018661472c565b6153556040830185614518565b6153626060830184614518565b95945050505050565b7f4e487b7100000000000000000000000000000000000000000000000000000000600052602260045260246000fd5b600060028204905060018216806153b257607f821691505b602082108114156153c6576153c561536b565b5b50919050565b7f4552433732313a20617070726f76656420717565727920666f72206e6f6e657860008201527f697374656e7420746f6b656e0000000000000000000000000000000000000000602082015250565b6000615428602c8361454d565b9150615433826153cc565b604082019050919050565b600060208201905081810360008301526154578161541b565b9050919050565b7f4552433732313a20617070726f76616c20746f2063757272656e74206f776e6560008201527f7200000000000000000000000000000000000000000000000000000000000000602082015250565b60006154ba60218361454d565b91506154c58261545e565b604082019050919050565b600060208201905081810360008301526154e9816154ad565b9050919050565b7f4552433732313a20617070726f76652063616c6c6572206973206e6f74206f7760008201527f6e6572206e6f7220617070726f76656420666f7220616c6c0000000000000000602082015250565b600061554c60388361454d565b9150615557826154f0565b604082019050919050565b6000602082019050818103600083015261557b8161553f565b9050919050565b7f47414d45204e4f54204f4e474f494e4700000000000000000000000000000000600082015250565b60006155b860108361454d565b91506155c382615582565b602082019050919050565b600060208201905081810360008301526155e7816155ab565b9050919050565b7f4e487b7100000000000000000000000000000000000000000000000000000000600052603260045260246000fd5b7f4e487b7100000000000000000000000000000000000000000000000000000000600052601160045260246000fd5b6000615657826148b7565b9150615662836148b7565b9250828210156156755761567461561d565b5b828203905092915050565b600061568b826148b7565b915060ff82141561569f5761569e61561d565b5b600182019050919050565b60006156b58261450e565b91506156c08361450e565b9250817fffffffffffffffffffffffffffffffffffffffffffffffffffffffffffffffff04831182151516156156f9576156f861561d565b5b828202905092915050565b7f4e487b7100000000000000000000000000000000000000000000000000000000600052600160045260246000fd5b7f426c61434b204d41524b455420434f4e5452414354204e4f5420534554000000600082015250565b6000615769601d8361454d565b915061577482615733565b602082019050919050565b600060208201905081810360008301526157988161575c565b9050919050565b7f4f4e6c5920426c61434b204d41524b455420434f4e54524143542043414e204360008201527f414c4c20544849532046554e4354494f4e000000000000000000000000000000602082015250565b60006157fb60318361454d565b91506158068261579f565b604082019050919050565b6000602082019050818103600083015261582a816157ee565b9050919050565b60006060820190506158466000830186614688565b6158536020830185614688565b6158606040830184614518565b949350505050565b7f4552433732313a207472616e736665722063616c6c6572206973206e6f74206f60008201527f776e6572206e6f7220617070726f766564000000000000000000000000000000602082015250565b60006158c460318361454d565b91506158cf82615868565b604082019050919050565b600060208201905081810360008301526158f3816158b7565b9050919050565b7f4f776e61626c653a2063616c6c6572206973206e6f7420746865206f776e6572600082015250565b600061593060208361454d565b915061593b826158fa565b602082019050919050565b6000602082019050818103600083015261595f81615923565b9050919050565b7f4e6f206d657267657320696e2071756575650000000000000000000000000000600082015250565b600061599c60128361454d565b91506159a782615966565b602082019050919050565b600060208201905081810360008301526159cb8161598f565b9050919050565b7f6d757374206f776e20626f746820746f6b656e73207374696c6c000000000000600082015250565b6000615a08601a8361454d565b9150615a13826159d2565b602082019050919050565b60006020820190508181036000830152615a37816159fb565b9050919050565b6000615a498261450e565b9150615a548361450e565b925082821015615a6757615a6661561d565b5b828203905092915050565b6000615a7d8261450e565b91507fffffffffffffffffffffffffffffffffffffffffffffffffffffffffffffffff821415615ab057615aaf61561d565b5b600182019050919050565b6000615ac68261450e565b9150615ad18361450e565b9250827fffffffffffffffffffffffffffffffffffffffffffffffffffffffffffffffff03821115615b0657615b0561561d565b5b828201905092915050565b604082016000820151615b2760008501826150b9565b506020820151615b3a60208501826150b9565b50505050565b600060029050919050565b600081905092915050565b6000819050919050565b6000602082019050919050565b615b7681615b40565b615b808184615b4b565b9250615b8b82615b56565b8060005b83811015615bbc578151615ba387826150c8565b9650615bae83615b60565b925050600181019050615b8f565b505050505050565b608082016000820151615bda6000850182615b6d565b506020820151615bed6040850182615b6d565b50505050565b61010082016000820151615c0a6000850182615b11565b506020820151615c1d6040850182615bc4565b506040820151615c3060c0850182615b11565b50505050565b600060279050919050565b600081905092915050565b6000819050919050565b6000602082019050919050565b615c6c81615c36565b615c768184615c41565b9250615c8182615c4c565b8060005b83811015615cb2578151615c9987826150c8565b9650615ca483615c56565b925050600181019050615c85565b505050505050565b60006105e082019050615cd06000830185615bf3565b615cde610100830184615c63565b9392505050565b600081519050615cf481614d40565b92915050565b600060208284031215615d1057615d0f614449565b5b6000615d1e84828501615ce5565b91505092915050565b7f5a65726f204b6e6f776c656467652050726f6f66204661696c65640000000000600082015250565b6000615d5d601b8361454d565b9150615d6882615d27565b602082019050919050565b60006020820190508181036000830152615d8c81615d50565b9050919050565b6000615d9e8261450e565b91506000821415615db257615db161561d565b5b600182039050919050565b7f455243373231456e756d657261626c653a206f776e657220696e646578206f7560008201527f74206f6620626f756e6473000000000000000000000000000000000000000000602082015250565b6000615e19602b8361454d565b9150615e2482615dbd565b604082019050919050565b60006020820190508181036000830152615e4881615e0c565b9050919050565b7f455243373231456e756d657261626c653a20676c6f62616c20696e646578206f60008201527f7574206f6620626f756e64730000000000000000000000000000000000000000602082015250565b6000615eab602c8361454d565b9150615eb682615e4f565b604082019050919050565b60006020820190508181036000830152615eda81615e9e565b9050919050565b7f4552433732313a206f776e657220717565727920666f72206e6f6e657869737460008201527f656e7420746f6b656e0000000000000000000000000000000000000000000000602082015250565b6000615f3d60298361454d565b9150615f4882615ee1565b604082019050919050565b60006020820190508181036000830152615f6c81615f30565b9050919050565b7f4552433732313a2062616c616e636520717565727920666f7220746865207a6560008201527f726f206164647265737300000000000000000000000000000000000000000000602082015250565b6000615fcf602a8361454d565b9150615fda82615f73565b604082019050919050565b60006020820190508181036000830152615ffe81615fc2565b9050919050565b7f596f75206d757374206f776e2074686520746f6b656e73000000000000000000600082015250565b600061603b60178361454d565b915061604682616005565b602082019050919050565b6000602082019050818103600083015261606a8161602e565b9050919050565b7f456e7465722074776f20646966666572656e7420746f6b656e73000000000000600082015250565b60006160a7601a8361454d565b91506160b282616071565b602082019050919050565b600060208201905081810360008301526160d68161609a565b9050919050565b6000819050919050565b6000819050919050565b600061610c616107616102846160dd565b6160e7565b61450e565b9050919050565b61611c816160f1565b82525050565b60006040820190506161376000830185614688565b6161446020830184616113565b9392505050565b6000819050919050565b6161666161618261450e565b61614b565b82525050565b60006161788285616155565b6020820191506161888284616155565b6020820191508190509392505050565b7f4d4158205041434b53204d494e54454400000000000000000000000000000000600082015250565b60006161ce60108361454d565b91506161d982616198565b602082019050919050565b600060208201905081810360008301526161fd816161c1565b9050919050565b7f43414e204f4e4c59205245515545535420424153452043415244000000000000600082015250565b600061623a601a8361454d565b915061624582616204565b602082019050919050565b600060208201905081810360008301526162698161622d565b9050919050565b600061627b8261471e565b91506162868361471e565b92508261ffff0382111561629d5761629c61561d565b5b828201905092915050565b6000819050919050565b60006162cd6162c86162c3846162a8565b6160e7565b61450e565b9050919050565b6162dd816162b2565b82525050565b60006040820190506162f86000830185614688565b61630560208301846162d4565b9392505050565b7f4552433732314d657461646174613a2055524920717565727920666f72206e6f60008201527f6e6578697374656e7420746f6b656e0000000000000000000000000000000000602082015250565b6000616368602f8361454d565b91506163738261630c565b604082019050919050565b600060208201905081810360008301526163978161635b565b9050919050565b600081905092915050565b60006163b482614542565b6163be818561639e565b93506163ce81856020860161455e565b80840191505092915050565b60006163e682856163a9565b91506163f282846163a9565b91508190509392505050565b7f616c72656164792073657420426c61636b4d61726b657420636f6e747261637460008201527f2061646472657373000000000000000000000000000000000000000000000000602082015250565b600061645a60288361454d565b9150616465826163fe565b604082019050919050565b600060208201905081810360008301526164898161644d565b9050919050565b60006040820190506164a56000830185614688565b6164b26020830184614518565b9392505050565b7f4f776e61626c653a206e6577206f776e657220697320746865207a65726f206160008201527f6464726573730000000000000000000000000000000000000000000000000000602082015250565b600061651560268361454d565b9150616520826164b9565b604082019050919050565b6000602082019050818103600083015261654481616508565b9050919050565b60008160f81b9050919050565b60006165638261654b565b9050919050565b61657b616576826148b7565b616558565b82525050565b600061658d828461656a565b60018201915081905092915050565b60008160f01b9050919050565b60006165b48261659c565b9050919050565b6165cc6165c78261471e565b6165a9565b82525050565b60006165de82846165bb565b60028201915081905092915050565b6000819050919050565b6000819050919050565b61661261660d826165ed565b6165f7565b82525050565b60006166248285616601565b6020820191506166348284616601565b6020820191508190509392505050565b60006166508284616155565b60208201915081905092915050565b600081519050919050565b600081905092915050565b60006166808261665f565b61668a818561666a565b935061669a81856020860161455e565b80840191505092915050565b60006166b28285616675565b91506166be8284616601565b6020820191508190509392505050565b7f4552433732313a206f70657261746f7220717565727920666f72206e6f6e657860008201527f697374656e7420746f6b656e0000000000000000000000000000000000000000602082015250565b600061672a602c8361454d565b9150616735826166ce565b604082019050919050565b600060208201905081810360008301526167598161671d565b9050919050565b7f4552433732313a207472616e73666572206f6620746f6b656e2074686174206960008201527f73206e6f74206f776e0000000000000000000000000000000000000000000000602082015250565b60006167bc60298361454d565b91506167c782616760565b604082019050919050565b600060208201905081810360008301526167eb816167af565b9050919050565b7f4552433732313a207472616e7366657220746f20746865207a65726f2061646460008201527f7265737300000000000000000000000000000000000000000000000000000000602082015250565b600061684e60248361454d565b9150616859826167f2565b604082019050919050565b6000602082019050818103600083015261687d81616841565b9050919050565b600061688f826148b7565b915061689a836148b7565b92508160ff04831182151516156168b4576168b361561d565b5b828202905092915050565b7f4552433732313a20617070726f766520746f2063616c6c657200000000000000600082015250565b60006168f560198361454d565b9150616900826168bf565b602082019050919050565b60006020820190508181036000830152616924816168e8565b9050919050565b7f4552433732313a207472616e7366657220746f206e6f6e20455243373231526560008201527f63656976657220696d706c656d656e7465720000000000000000000000000000602082015250565b600061698760328361454d565b91506169928261692b565b604082019050919050565b600060208201905081810360008301526169b68161697a565b9050919050565b7f4e487b7100000000000000000000000000000000000000000000000000000000600052601260045260246000fd5b60006169f78261450e565b9150616a028361450e565b925082616a1257616a116169bd565b5b828204905092915050565b6000616a288261450e565b9150616a338361450e565b925082616a4357616a426169bd565b5b828206905092915050565b60008160601b9050919050565b6000616a6682616a4e565b9050919050565b6000616a7882616a5b565b9050919050565b616a90616a8b82614676565b616a6d565b82525050565b6000616aa28287616155565b602082019150616ab28286616155565b602082019150616ac28285616155565b602082019150616ad28284616a7f565b60148201915081905095945050505050565b600082825260208201905092915050565b6000616b008261665f565b616b0a8185616ae4565b9350616b1a81856020860161455e565b616b2381614591565b840191505092915050565b6000608082019050616b436000830187614688565b616b506020830186614688565b616b5d6040830185614518565b8181036060830152616b6f8184616af5565b905095945050505050565b600081519050616b898161447f565b92915050565b600060208284031215616ba557616ba4614449565b5b6000616bb384828501616b7a565b91505092915050565b7f4e487b7100000000000000000000000000000000000000000000000000000000600052603160045260246000fd5b7f4552433732313a206d696e7420746f20746865207a65726f2061646472657373600082015250565b6000616c2160208361454d565b9150616c2c82616beb565b602082019050919050565b60006020820190508181036000830152616c5081616c14565b9050919050565b7f4552433732313a20746f6b656e20616c7265616479206d696e74656400000000600082015250565b6000616c8d601c8361454d565b9150616c9882616c57565b602082019050919050565b60006020820190508181036000830152616cbc81616c80565b905091905056fea2646970667358221220345412a44dc3a465dff3579300ae877935ad997df1dd856a856b09e993dc8ba464736f6c63430008090033",
  "immutableReferences": {},
  "source": "// contracts/MyNFT.sol\n// SPDX-License-Identifier: MIT\npragma solidity ^0.8.0;\n\nimport \"@openzeppelin/contracts/token/ERC721/extensions/ERC721Enumerable.sol\";\nimport \"@openzeppelin/contracts/access/Ownable.sol\";\n//import \"@openzeppelin/contracts/utils/cryptography/MerkleProof.sol\";\nimport \"./MERGE.sol\";\nimport \"./RareRelics.sol\";\nimport \"./MergeZKP.sol\";\n\ncontract NFR is ERC721Enumerable, Ownable  {\n\n    // some are hiddenCards and some are regular cards. Some ERC721 or ERC20\n\n    uint256 public constant MINT_PRICE = .05 ether;\n    uint16 public constant MAX_MINTABLE = 5000;\n    uint16 public packsMinted;\n    bool public gameOngoing;\n\n    // if we need more info than merkleRoot per card, then create a struct that the ID maps to\n    // map from hiddenCardId -> merkleRoot\n    uint16[9] public baseCardCopyCounts = [0, 0, 0, 0, 0, 0, 0, 0, 0];\n    uint256[9] public baseCardHashedDescription = [0x01649792131254809c4b0f4287aaeb9a5229812249af54b3a86c8dcfecda625a, 0, 0, 0, 0, 0, 0, 0, 0];\n\n    struct Artifact {\n        uint8 num;\n        uint16 copyNum;\n        // HIDDEN VALUES:\n        uint256 longDescriptionHashed;\n        uint256 privateKey;\n    }\n\n    struct MergeInfo {\n       uint256 nextMerge;\n       uint256 tokenId1;\n       uint256 tokenId2;\n    }\n    mapping (uint256 => MergeInfo) public mergeQueue;\n    uint public mergeQueueLength = 0;\n    uint256 public head;\n    uint256 public rear;\n\n    mapping(uint256 => Artifact) public publicArtifacts; // private or public?\n\n    uint256 public cardCopiesHashed; // TODO: make private\n\n    MERGE merge;\n    RareRelics rareRelics;\n    MergeZKP mergeZKP;\n\n    address BlackMarketAddress;\n    bool BlackMarketAddressSet;\n\n    uint256 private _nonce;\n\n    constructor(address _merge, address _rareRelics, address _mergeZKP) ERC721(\"NFR island\", \"NFR\") {\n        packsMinted = 0;\n        gameOngoing = false;\n        merge = MERGE(_merge);\n        rareRelics = RareRelics(_rareRelics);\n        mergeZKP = MergeZKP(_mergeZKP);\n        BlackMarketAddressSet = false;\n    }\n\n    function mintPack(uint8 artifact1, uint8 artifact2, uint8 artifact3, uint8 artifact4) external payable returns (uint256[4] memory){\n        // TODO: comment back in after testing\n        //        require(msg.value >= MINT_PRICE);\n        require(packsMinted < MAX_MINTABLE, \"MAX PACKS MINTED\");\n        // three cards decided must be base cards\n        require(artifact1 <= 50 && artifact1 >= 42, \"CAN ONLY REQUEST BASE CARD\");\n        require(artifact2 <= 50 && artifact2 >= 42, \"CAN ONLY REQUEST BASE CARD\");\n        require(artifact3 <= 50 && artifact3 >= 42, \"CAN ONLY REQUEST BASE CARD\");\n        require(artifact4 <= 50 && artifact4 >= 42, \"CAN ONLY REQUEST BASE CARD\");\n\n        // additional card based on when you mint the pack\n        uint8[4] memory artifactNums = [artifact1, artifact2, artifact3, artifact4];\n        uint256[4] memory results;\n        for (uint i = 0; i < 4; i++) {\n            Artifact memory artifactToMint;\n            artifactToMint.num = artifactNums[i];\n            baseCardCopyCounts[artifactNums[i] - 42] += 1;\n            artifactToMint.copyNum = baseCardCopyCounts[artifactNums[i] - 42];\n            artifactToMint.longDescriptionHashed = baseCardHashedDescription[artifactNums[i] - 42];\n            artifactToMint.privateKey = 0;\n\n            // create a merkle tree out of each card\n            uint256 merkleRoot = getArtifactMerkleRoot(artifactToMint);\n            publicArtifacts[merkleRoot] = artifactToMint;\n            _safeMint(msg.sender, merkleRoot);\n            // _msgSender() instead?\n            // TODO: do I need to ensure the root is unique beforehand?\n            results[i] = merkleRoot;\n        }\n\n        // allow black market to control these tokens for when you stake\n        setApprovalForAll(BlackMarketAddress, true);\n        rareRelics.mintFromPack(msg.sender);\n        merge.mint(msg.sender, 5000000);\n\n        packsMinted += 1;\n\n        // Once someone buys the last pack, begin the game!\n        if (packsMinted == MAX_MINTABLE)\n            startGame();\n\n        return results;\n    }\n\n    function startGame() internal {\n        gameOngoing = true;\n        // 1024 bit preimage representing the hidden card amounts for cards other than baseCardCopyCounts\n        // cardCopiesHashed = uint256(sha256(abi.encodePacked(uint256(0), uint256(0), uint256(0), uint256(0))));\n        // this is the pedersen hash for uint256(0)\n        // all non base cards counts are 0 when the game starts\n        cardCopiesHashed = 0xa65f3fa0002aba81ad5f5805158ca53b4c6786ad9dc9845a0acbd5e718ffe95d;\n    }\n\n    event AddMerge(uint256 mergeId, uint256 tokenId1, uint256 tokenId2);\n    function requestMerge(uint256 tokenId1, uint256 tokenId2) external {\n        require(ownerOf(tokenId1) == msg.sender && ownerOf(tokenId2) == msg.sender, \"You must own the tokens\");\n        require(tokenId1 != tokenId2, \"Enter two different tokens\");\n        // require(msg.value >= 0.002);\n        merge.burn(msg.sender, 1 ether);\n\n        uint256 mergeId = uint256(keccak256(abi.encodePacked(tokenId1, tokenId2)));\n        mergeQueue[mergeId] = MergeInfo(0,tokenId1,tokenId2);\n        if (mergeQueueLength > 0)\n            mergeQueue[rear].nextMerge = mergeId;\n        rear = mergeId;\n\n        mergeQueueLength++;\n\n        emit AddMerge(mergeId, tokenId1, tokenId2);\n    }\n\n    function processMerge(MergeZKP.Proof memory proof, uint[12] memory resultCardRoots, bool[3] memory resultCardsMint, uint[8] memory newCardCopiesHashed) external onlyOwner {\n        require (mergeQueueLength > 0, \"No merges in queue\");\n        uint256 nextMerge = head;\n\n        uint256 tokenId1 = mergeQueue[nextMerge].tokenId1;\n        uint256 tokenId2 = mergeQueue[nextMerge].tokenId2;\n        require(ownerOf(tokenId1) == ownerOf(tokenId2), \"must own both tokens still\");\n\n        // check the merge zero knowledge proof\n        uint[39] memory zkpInput;\n\n        // convert tokenId1 into 4  64 bit uints\n        for (uint i = 0; i < 4; i++) {\n            zkpInput[i] = tokenId1 & (0x11111111 << (3-i)*64);\n        }\n        // convert tokenId2 into 4  64 bit uints\n        for (uint i = 0; i < 4; i++) {\n            zkpInput[4+i] = tokenId2 & (0x11111111 << (3-i)*64);\n        }\n        // fill the rest in with input\n        for (uint i = 0; i < 12; i++) {\n            zkpInput[8+i] = resultCardRoots[i];\n        }\n        // convert copy counts hashed into 8 u32 ints\n        for (uint i = 0; i < 8; i++) {\n            zkpInput[20+i] = cardCopiesHashed & (0x1111 << (7-i)*32);\n        }\n        // convert bool of whether or not to mint to uint\n        for (uint i = 0; i < 3; i++) {\n            zkpInput[28+i] = resultCardsMint[i] ? 1: 0;\n        }\n        // add in the new card copy counts to zkp input\n        for (uint i = 0; i < 8; i++) {\n            zkpInput[31+i] = newCardCopiesHashed[i];\n        }\n\n        // verifying zero knowledge proof showing this is a fair merge\n        require(mergeZKP.verifyTx(proof,zkpInput), \"Zero Knowledge Proof Failed\");\n\n        _burn(tokenId1);\n        _burn(tokenId2);\n\n        for (uint i = 0; i < 3; i++) {\n          // if we are supposed to mint the relic\n          if (resultCardsMint[i]) {\n              // mint the corresponding token\n              _safeMint(ownerOf(tokenId1), convert64bitTo256bit([resultCardRoots[i*4], resultCardRoots[i*4+1], resultCardRoots[i*4+2], resultCardRoots[i*4+3]]));\n          }\n        }\n\n        cardCopiesHashed = convert32bitTo256bit(newCardCopiesHashed);\n\n        // pop merge from queue\n        head = mergeQueue[nextMerge].nextMerge;\n        delete mergeQueue[nextMerge];\n        mergeQueueLength--;\n    }\n\n    function revealArtifact(uint256 tokenId, uint8 num, uint16 copyNum, uint256 longDescriptionHashed, uint256 privateKey) external {\n        require(ownerOf(tokenId) == msg.sender);\n        // must own artifact being revealed\n        // TODO: if using memory and reference it in mapping does it create duplicate\n        Artifact memory artifactToReveal = Artifact(num, copyNum, longDescriptionHashed, privateKey);\n        uint256 merkleRoot = getArtifactMerkleRoot(artifactToReveal);\n        require(tokenId == merkleRoot);\n\n        publicArtifacts[merkleRoot] = artifactToReveal;\n    }\n\n    function endGame(uint256[5] memory tokenIds, Artifact[5] memory genesisArtifacts) external whenGameOngoing {\n        bool[5] memory hasGenesisCard = [false, false, false, false, false];\n        for (uint8 i = 0; i < 5; i++) {\n            require(ownerOf(tokenIds[i]) == msg.sender);\n            // must own the genesis cards\n            require(tokenIds[i] == getArtifactMerkleRoot(genesisArtifacts[i]));\n            // ensure artifact is correct\n            require(genesisArtifacts[i].num <= 5 && genesisArtifacts[i].num > 0);\n            // is a genesis card\n            hasGenesisCard[genesisArtifacts[i].num - 1] = true;\n        }\n\n        for (uint8 i = 0; i < 5; i++)\n            require(hasGenesisCard[i]);\n\n        require(gameOngoing == true);\n        assert(address(this).balance >= MAX_MINTABLE * MINT_PRICE);\n\n        // end the game and transfer the money\n        gameOngoing = false;\n        payable(msg.sender).transfer(MAX_MINTABLE * MINT_PRICE);\n    }\n\n    function getArtifactMerkleRoot(Artifact memory artifact) internal pure returns (uint256){\n        return uint256(keccak256(abi.encodePacked(keccak256(abi.encodePacked(keccak256(abi.encodePacked(artifact.num)), keccak256(abi.encodePacked(artifact.copyNum)))), keccak256(abi.encodePacked(abi.encodePacked(artifact.longDescriptionHashed), keccak256(abi.encodePacked(artifact.privateKey)))))));\n    }\n\n    event cardStolen(address from, address to, uint256 tokenId);\n\n    function stealCard(address from, address to, uint256 tokenId) public isBlackMarketContract {\n        emit cardStolen(from, to, tokenId);\n        transferFrom(from, to, tokenId);\n    }\n\n    event cardBurnt(address owner, uint256 tokenId);\n\n    function duplicateCard(uint256 tokenId) public isBlackMarketContract {\n        Artifact memory newCard = Artifact({\n            num : publicArtifacts[tokenId].num,\n            copyNum : publicArtifacts[tokenId].copyNum, // duplicate doesn't increase the version num (this is power of the card) even when limit is reached more copies can be made\n            longDescriptionHashed : publicArtifacts[tokenId].longDescriptionHashed,\n            privateKey : random()\n            // TODO: copy: true\n        });\n        uint256 merkleRoot = getArtifactMerkleRoot(newCard);\n        publicArtifacts[merkleRoot] = newCard;\n        _safeMint(ownerOf(tokenId), merkleRoot);\n    }\n\n    function transformCard(uint256 inputTokenId, uint256 targetTokenId) public isBlackMarketContract {\n        emit cardBurnt(ownerOf(inputTokenId), inputTokenId);\n        _burn(inputTokenId);\n        Artifact memory newCard = Artifact({\n            num : publicArtifacts[targetTokenId].num,\n            copyNum : publicArtifacts[targetTokenId].copyNum,\n            longDescriptionHashed : publicArtifacts[targetTokenId].longDescriptionHashed,\n            privateKey : random()\n            // TODO: copy: true\n        });\n        uint256 merkleRoot = getArtifactMerkleRoot(newCard);\n        publicArtifacts[merkleRoot] = newCard;\n        _safeMint(ownerOf(inputTokenId), merkleRoot);\n    }\n\n    function setBlackMarketAddress(address _BlackMarketAddress) external onlyOwner {\n        require (BlackMarketAddressSet == false, \"already set BlackMarket contract address\");\n        BlackMarketAddress = _BlackMarketAddress;\n        BlackMarketAddressSet = true;\n//        setApprovalForAll(BlackMarketAddress, true);\n    }\n\n    modifier isBlackMarketContract {\n        require(BlackMarketAddressSet == true, \"BlaCK MARKET CONTRACT NOT SET\");\n        require(msg.sender == BlackMarketAddress, \"ONlY BlaCK MARKET CONTRACT CAN CALL THIS FUNCTION\");\n        _;\n    }\n\n    modifier whenGameOngoing {\n        require(gameOngoing, \"GAME NOT ONGOING\");\n        _;\n    }\n\n    function random() internal returns (uint){\n        _nonce += 1;\n        return uint(keccak256(abi.encodePacked(block.difficulty, block.timestamp, _nonce, _msgSender())));\n    }\n\n    //    function tokenURI(uint256 tokenId) public view virtual override returns (string memory) {\n    //       require(_exists(tokenId), \"ERC721Metadata: URI query for nonexistent token\");\n    //\n    //       // https://cloudflare-ipfs.com/ipns/ {TOKEN ID} .dogsunchainednft.com\n    //       return string(abi.encodePacked(prefix, tokenId.toString(), suffix));\n    //    }\n\n\n    //    function merge(Proof memory proof, uint[40] memory input) external {\n    //        uint256 card1 = convert64bitTo256bit(input[:4]);\n    //        uint256 card2 = convert64bitTo256bit(input[4:8]);\n    //        require(ownerOf(card1) == _msgSender(),\"Must own card1\");\n    //        require(ownerOf(card2) == _msgSender(),\"Must own card2\");\n    //        // verify merge result\n    //        _burn(card1);\n    //        _burn(card1);\n    //        uint256 card3 = convert64bitTo256bit(input[x:x+4]);\n    //        uint256 card4 = convert64bitTo256bit(input[4:8]);\n    //        _safeMint(msg.sender,card3);\n    //    }\n\n    function convert64bitTo256bit(uint[4] memory inputArray) internal pure returns(uint256){\n        uint256 result = 0;\n        for (uint8 i = 0; i < 4; i++)\n            result += inputArray[3 - i] << (64 * i);\n        return result;\n    }\n\n    function convert32bitTo256bit(uint[8] memory inputArray) internal pure returns(uint256){\n        uint256 result = 0;\n        for (uint8 i = 0; i < 8; i++)\n            result += inputArray[7 - i] << (32 * i);\n        return result;\n    }\n}\n",
  "sourcePath": "/home/prateek/NFR/onchain/contracts/NFR.sol",
  "compiler": {
    "name": "solc",
    "version": "0.8.9+commit.e5eed63a.Emscripten.clang"
  },
  "schemaVersion": "3.4.3",
  "updatedAt": "2022-05-24T16:47:02.348Z",
  "devdoc": {
    "kind": "dev",
    "methods": {
      "approve(address,uint256)": {
        "details": "See {IERC721-approve}."
      },
      "balanceOf(address)": {
        "details": "See {IERC721-balanceOf}."
      },
      "getApproved(uint256)": {
        "details": "See {IERC721-getApproved}."
      },
      "isApprovedForAll(address,address)": {
        "details": "See {IERC721-isApprovedForAll}."
      },
      "name()": {
        "details": "See {IERC721Metadata-name}."
      },
      "owner()": {
        "details": "Returns the address of the current owner."
      },
      "ownerOf(uint256)": {
        "details": "See {IERC721-ownerOf}."
      },
      "renounceOwnership()": {
        "details": "Leaves the contract without owner. It will not be possible to call `onlyOwner` functions anymore. Can only be called by the current owner. NOTE: Renouncing ownership will leave the contract without an owner, thereby removing any functionality that is only available to the owner."
      },
      "safeTransferFrom(address,address,uint256)": {
        "details": "See {IERC721-safeTransferFrom}."
      },
      "safeTransferFrom(address,address,uint256,bytes)": {
        "details": "See {IERC721-safeTransferFrom}."
      },
      "setApprovalForAll(address,bool)": {
        "details": "See {IERC721-setApprovalForAll}."
      },
      "supportsInterface(bytes4)": {
        "details": "See {IERC165-supportsInterface}."
      },
      "symbol()": {
        "details": "See {IERC721Metadata-symbol}."
      },
      "tokenByIndex(uint256)": {
        "details": "See {IERC721Enumerable-tokenByIndex}."
      },
      "tokenOfOwnerByIndex(address,uint256)": {
        "details": "See {IERC721Enumerable-tokenOfOwnerByIndex}."
      },
      "tokenURI(uint256)": {
        "details": "See {IERC721Metadata-tokenURI}."
      },
      "totalSupply()": {
        "details": "See {IERC721Enumerable-totalSupply}."
      },
      "transferFrom(address,address,uint256)": {
        "details": "See {IERC721-transferFrom}."
      },
      "transferOwnership(address)": {
        "details": "Transfers ownership of the contract to a new account (`newOwner`). Can only be called by the current owner."
      }
    },
    "version": 1
  },
  "userdoc": {
    "kind": "user",
    "methods": {},
    "version": 1
  }
}