{
  "contractName": "NFRTypes",
  "abi": [
    {
      "inputs": [
        {
          "internalType": "uint32",
          "name": "cardNum",
          "type": "uint32"
        }
      ],
      "name": "getRank",
      "outputs": [
        {
          "internalType": "enum NFRTypes.Ranks",
          "name": "",
          "type": "NFRTypes.Ranks"
        }
      ],
      "stateMutability": "pure",
      "type": "function",
      "constant": true
    }
  ],
  "bytecode": "0x610410610053600b82828239805160001a607314610046577f4e487b7100000000000000000000000000000000000000000000000000000000600052600060045260246000fd5b30600052607381538281f3fe73000000000000000000000000000000000000000030146080604052600436106100355760003560e01c80631ae9f6401461003a575b600080fd5b610054600480360381019061004f91906101b2565b61006a565b6040516100619190610256565b60405180910390f35b6000806040518060e00160405280603360ff168152602001603260ff168152602001602960ff168152602001601a60ff168152602001601360ff168152602001600a60ff168152602001600560ff1681525090506000600160076100ce91906102aa565b90505b6000811115610130578181600781106100ed576100ec6102de565b5b602002015160ff168463ffffffff161161011d57806006811115610114576101136101df565b5b9250505061016c565b80806101289061030d565b9150506100d1565b506040517f08c379a0000000000000000000000000000000000000000000000000000000008152600401610163906103ba565b60405180910390fd5b919050565b600080fd5b600063ffffffff82169050919050565b61018f81610176565b811461019a57600080fd5b50565b6000813590506101ac81610186565b92915050565b6000602082840312156101c8576101c7610171565b5b60006101d68482850161019d565b91505092915050565b7f4e487b7100000000000000000000000000000000000000000000000000000000600052602160045260246000fd5b6007811061021f5761021e6101df565b5b50565b60008190506102308261020e565b919050565b600061024082610222565b9050919050565b61025081610235565b82525050565b600060208201905061026b6000830184610247565b92915050565b6000819050919050565b7f4e487b7100000000000000000000000000000000000000000000000000000000600052601160045260246000fd5b60006102b582610271565b91506102c083610271565b9250828210156102d3576102d261027b565b5b828203905092915050565b7f4e487b7100000000000000000000000000000000000000000000000000000000600052603260045260246000fd5b600061031882610271565b9150600082141561032c5761032b61027b565b5b600182039050919050565b600082825260208201905092915050565b7f43617264206e756d6265722073686f756c64206265206c657373207468616e2060008201527f3531000000000000000000000000000000000000000000000000000000000000602082015250565b60006103a4602283610337565b91506103af82610348565b604082019050919050565b600060208201905081810360008301526103d381610397565b905091905056fea26469706673582212200f3aa4ae4d8b6d03981a6a03983f50f1a53bc6900db5b1905f668e2e0e6d4b8c64736f6c63430008090033",
  "immutableReferences": {},
  "source": "pragma solidity ^0.8.0;\n\nlibrary NFRTypes {\n    enum Ranks{F, D, C, B, A, S, SS}\n\n    function getRank(uint32 cardNum) public pure returns (Ranks){\n        uint8[7] memory card_rank_indices = [51,50,41,26,19,10,5];\n        for (uint i = card_rank_indices.length-1; i > 0; i--){\n            if (cardNum <= card_rank_indices[i])\n                return Ranks(i);\n        }\n        revert('Card number should be less than 51');\n    }\n\n}\n",
  "sourcePath": "/home/prateek/NFR/onchain/contracts/NFRTypes.sol",
  "compiler": {
    "name": "solc",
    "version": "0.8.9+commit.e5eed63a.Emscripten.clang"
  },
  "schemaVersion": "3.4.3",
  "updatedAt": "2022-07-26T23:10:17.235Z",
  "networkType": "ethereum",
  "devdoc": {
    "kind": "dev",
    "methods": {},
    "version": 1
  },
  "userdoc": {
    "kind": "user",
    "methods": {},
    "version": 1
  }
}