{
  "contractName": "NFRTypes",
  "abi": [
    {
      "inputs": [
        {
          "internalType": "uint8",
          "name": "cardNum",
          "type": "uint8"
        }
      ],
      "name": "getRank",
      "outputs": [
        {
          "internalType": "enum NFRTypes.Ranks",
          "name": "",
          "type": "NFRTypes.Ranks"
        }
      ],
      "stateMutability": "pure",
      "type": "function",
      "constant": true
    }
  ],
  "bytecode": "0x61040a610053600b82828239805160001a607314610046577f4e487b7100000000000000000000000000000000000000000000000000000000600052600060045260246000fd5b30600052607381538281f3fe73000000000000000000000000000000000000000030146080604052600436106100355760003560e01c80636be783641461003a575b600080fd5b610054600480360381019061004f91906101ac565b61006a565b6040516100619190610250565b60405180910390f35b6000806040518060e00160405280603360ff168152602001603260ff168152602001602960ff168152602001601a60ff168152602001601360ff168152602001600a60ff168152602001600560ff1681525090506000600160076100ce91906102a4565b90505b600081111561012d578181600781106100ed576100ec6102d8565b5b602002015160ff168460ff161161011a57806006811115610111576101106101d9565b5b92505050610169565b808061012590610307565b9150506100d1565b506040517f08c379a0000000000000000000000000000000000000000000000000000000008152600401610160906103b4565b60405180910390fd5b919050565b600080fd5b600060ff82169050919050565b61018981610173565b811461019457600080fd5b50565b6000813590506101a681610180565b92915050565b6000602082840312156101c2576101c161016e565b5b60006101d084828501610197565b91505092915050565b7f4e487b7100000000000000000000000000000000000000000000000000000000600052602160045260246000fd5b60078110610219576102186101d9565b5b50565b600081905061022a82610208565b919050565b600061023a8261021c565b9050919050565b61024a8161022f565b82525050565b60006020820190506102656000830184610241565b92915050565b6000819050919050565b7f4e487b7100000000000000000000000000000000000000000000000000000000600052601160045260246000fd5b60006102af8261026b565b91506102ba8361026b565b9250828210156102cd576102cc610275565b5b828203905092915050565b7f4e487b7100000000000000000000000000000000000000000000000000000000600052603260045260246000fd5b60006103128261026b565b9150600082141561032657610325610275565b5b600182039050919050565b600082825260208201905092915050565b7f43617264206e756d6265722073686f756c64206265206c657373207468616e2060008201527f3531000000000000000000000000000000000000000000000000000000000000602082015250565b600061039e602283610331565b91506103a982610342565b604082019050919050565b600060208201905081810360008301526103cd81610391565b905091905056fea264697066735822122013ed8af08098d8dd6be3a9c13cc09c09d33f80e846ba60bde6c5fee9a2debaaa64736f6c63430008090033",
  "immutableReferences": {},
  "source": "pragma solidity ^0.8.0;\n\nlibrary NFRTypes {\n    enum Ranks{F, D, C, B, A, S, SS}\n\n    function getRank(uint8 cardNum) public pure returns (Ranks){\n        uint8[7] memory card_rank_indices = [51,50,41,26,19,10,5];\n        for (uint i = card_rank_indices.length-1; i > 0; i--){\n            if (cardNum <= card_rank_indices[i])\n                return Ranks(i);\n        }\n        revert('Card number should be less than 51');\n    }\n\n}\n",
  "sourcePath": "/home/prateek/NFR/onchain/contracts/NFRTypes.sol",
  "compiler": {
    "name": "solc",
    "version": "0.8.9+commit.e5eed63a.Emscripten.clang"
  },
  "schemaVersion": "3.4.3",
  "updatedAt": "2022-05-26T19:05:58.614Z",
  "networkType": "ethereum",
  "devdoc": {
    "kind": "dev",
    "methods": {},
    "version": 1
  },
  "userdoc": {
    "kind": "user",
    "methods": {},
    "version": 1
  }
}