{
  "contractName": "RareRelics",
  "abi": [
    {
      "inputs": [
        {
          "internalType": "address",
          "name": "_merge",
          "type": "address"
        }
      ],
      "stateMutability": "nonpayable",
      "type": "constructor"
    },
    {
      "anonymous": false,
      "inputs": [
        {
          "indexed": true,
          "internalType": "address",
          "name": "owner",
          "type": "address"
        },
        {
          "indexed": true,
          "internalType": "address",
          "name": "approved",
          "type": "address"
        },
        {
          "indexed": true,
          "internalType": "uint256",
          "name": "tokenId",
          "type": "uint256"
        }
      ],
      "name": "Approval",
      "type": "event"
    },
    {
      "anonymous": false,
      "inputs": [
        {
          "indexed": true,
          "internalType": "address",
          "name": "owner",
          "type": "address"
        },
        {
          "indexed": true,
          "internalType": "address",
          "name": "operator",
          "type": "address"
        },
        {
          "indexed": false,
          "internalType": "bool",
          "name": "approved",
          "type": "bool"
        }
      ],
      "name": "ApprovalForAll",
      "type": "event"
    },
    {
      "anonymous": false,
      "inputs": [
        {
          "indexed": true,
          "internalType": "address",
          "name": "previousOwner",
          "type": "address"
        },
        {
          "indexed": true,
          "internalType": "address",
          "name": "newOwner",
          "type": "address"
        }
      ],
      "name": "OwnershipTransferred",
      "type": "event"
    },
    {
      "anonymous": false,
      "inputs": [
        {
          "indexed": true,
          "internalType": "address",
          "name": "from",
          "type": "address"
        },
        {
          "indexed": true,
          "internalType": "address",
          "name": "to",
          "type": "address"
        },
        {
          "indexed": true,
          "internalType": "uint256",
          "name": "tokenId",
          "type": "uint256"
        }
      ],
      "name": "Transfer",
      "type": "event"
    },
    {
      "inputs": [
        {
          "internalType": "uint256",
          "name": "",
          "type": "uint256"
        },
        {
          "internalType": "uint256",
          "name": "",
          "type": "uint256"
        },
        {
          "internalType": "uint256",
          "name": "",
          "type": "uint256"
        }
      ],
      "name": "SPELL_MINT_PERCENT_CHANCE",
      "outputs": [
        {
          "internalType": "uint16",
          "name": "",
          "type": "uint16"
        }
      ],
      "stateMutability": "view",
      "type": "function",
      "constant": true
    },
    {
      "inputs": [
        {
          "internalType": "address",
          "name": "to",
          "type": "address"
        },
        {
          "internalType": "uint256",
          "name": "tokenId",
          "type": "uint256"
        }
      ],
      "name": "approve",
      "outputs": [],
      "stateMutability": "nonpayable",
      "type": "function"
    },
    {
      "inputs": [
        {
          "internalType": "address",
          "name": "owner",
          "type": "address"
        }
      ],
      "name": "balanceOf",
      "outputs": [
        {
          "internalType": "uint256",
          "name": "",
          "type": "uint256"
        }
      ],
      "stateMutability": "view",
      "type": "function",
      "constant": true
    },
    {
      "inputs": [
        {
          "internalType": "uint256",
          "name": "tokenId",
          "type": "uint256"
        }
      ],
      "name": "getApproved",
      "outputs": [
        {
          "internalType": "address",
          "name": "",
          "type": "address"
        }
      ],
      "stateMutability": "view",
      "type": "function",
      "constant": true
    },
    {
      "inputs": [
        {
          "internalType": "address",
          "name": "owner",
          "type": "address"
        },
        {
          "internalType": "address",
          "name": "operator",
          "type": "address"
        }
      ],
      "name": "isApprovedForAll",
      "outputs": [
        {
          "internalType": "bool",
          "name": "",
          "type": "bool"
        }
      ],
      "stateMutability": "view",
      "type": "function",
      "constant": true
    },
    {
      "inputs": [],
      "name": "name",
      "outputs": [
        {
          "internalType": "string",
          "name": "",
          "type": "string"
        }
      ],
      "stateMutability": "view",
      "type": "function",
      "constant": true
    },
    {
      "inputs": [],
      "name": "owner",
      "outputs": [
        {
          "internalType": "address",
          "name": "",
          "type": "address"
        }
      ],
      "stateMutability": "view",
      "type": "function",
      "constant": true
    },
    {
      "inputs": [
        {
          "internalType": "uint256",
          "name": "tokenId",
          "type": "uint256"
        }
      ],
      "name": "ownerOf",
      "outputs": [
        {
          "internalType": "address",
          "name": "",
          "type": "address"
        }
      ],
      "stateMutability": "view",
      "type": "function",
      "constant": true
    },
    {
      "inputs": [],
      "name": "renounceOwnership",
      "outputs": [],
      "stateMutability": "nonpayable",
      "type": "function"
    },
    {
      "inputs": [
        {
          "internalType": "address",
          "name": "from",
          "type": "address"
        },
        {
          "internalType": "address",
          "name": "to",
          "type": "address"
        },
        {
          "internalType": "uint256",
          "name": "tokenId",
          "type": "uint256"
        }
      ],
      "name": "safeTransferFrom",
      "outputs": [],
      "stateMutability": "nonpayable",
      "type": "function"
    },
    {
      "inputs": [
        {
          "internalType": "address",
          "name": "from",
          "type": "address"
        },
        {
          "internalType": "address",
          "name": "to",
          "type": "address"
        },
        {
          "internalType": "uint256",
          "name": "tokenId",
          "type": "uint256"
        },
        {
          "internalType": "bytes",
          "name": "_data",
          "type": "bytes"
        }
      ],
      "name": "safeTransferFrom",
      "outputs": [],
      "stateMutability": "nonpayable",
      "type": "function"
    },
    {
      "inputs": [
        {
          "internalType": "address",
          "name": "operator",
          "type": "address"
        },
        {
          "internalType": "bool",
          "name": "approved",
          "type": "bool"
        }
      ],
      "name": "setApprovalForAll",
      "outputs": [],
      "stateMutability": "nonpayable",
      "type": "function"
    },
    {
      "inputs": [
        {
          "internalType": "uint256",
          "name": "",
          "type": "uint256"
        }
      ],
      "name": "spells",
      "outputs": [
        {
          "internalType": "enum RareRelics.SpellTypes",
          "name": "spellType",
          "type": "uint8"
        },
        {
          "internalType": "uint8",
          "name": "numCardsAffected",
          "type": "uint8"
        },
        {
          "internalType": "enum NFRTypes.Ranks",
          "name": "rankAffected",
          "type": "uint8"
        }
      ],
      "stateMutability": "view",
      "type": "function",
      "constant": true
    },
    {
      "inputs": [
        {
          "internalType": "bytes4",
          "name": "interfaceId",
          "type": "bytes4"
        }
      ],
      "name": "supportsInterface",
      "outputs": [
        {
          "internalType": "bool",
          "name": "",
          "type": "bool"
        }
      ],
      "stateMutability": "view",
      "type": "function",
      "constant": true
    },
    {
      "inputs": [],
      "name": "symbol",
      "outputs": [
        {
          "internalType": "string",
          "name": "",
          "type": "string"
        }
      ],
      "stateMutability": "view",
      "type": "function",
      "constant": true
    },
    {
      "inputs": [
        {
          "internalType": "uint256",
          "name": "index",
          "type": "uint256"
        }
      ],
      "name": "tokenByIndex",
      "outputs": [
        {
          "internalType": "uint256",
          "name": "",
          "type": "uint256"
        }
      ],
      "stateMutability": "view",
      "type": "function",
      "constant": true
    },
    {
      "inputs": [
        {
          "internalType": "address",
          "name": "owner",
          "type": "address"
        },
        {
          "internalType": "uint256",
          "name": "index",
          "type": "uint256"
        }
      ],
      "name": "tokenOfOwnerByIndex",
      "outputs": [
        {
          "internalType": "uint256",
          "name": "",
          "type": "uint256"
        }
      ],
      "stateMutability": "view",
      "type": "function",
      "constant": true
    },
    {
      "inputs": [
        {
          "internalType": "uint256",
          "name": "tokenId",
          "type": "uint256"
        }
      ],
      "name": "tokenURI",
      "outputs": [
        {
          "internalType": "string",
          "name": "",
          "type": "string"
        }
      ],
      "stateMutability": "view",
      "type": "function",
      "constant": true
    },
    {
      "inputs": [],
      "name": "totalSupply",
      "outputs": [
        {
          "internalType": "uint256",
          "name": "",
          "type": "uint256"
        }
      ],
      "stateMutability": "view",
      "type": "function",
      "constant": true
    },
    {
      "inputs": [
        {
          "internalType": "address",
          "name": "from",
          "type": "address"
        },
        {
          "internalType": "address",
          "name": "to",
          "type": "address"
        },
        {
          "internalType": "uint256",
          "name": "tokenId",
          "type": "uint256"
        }
      ],
      "name": "transferFrom",
      "outputs": [],
      "stateMutability": "nonpayable",
      "type": "function"
    },
    {
      "inputs": [
        {
          "internalType": "address",
          "name": "newOwner",
          "type": "address"
        }
      ],
      "name": "transferOwnership",
      "outputs": [],
      "stateMutability": "nonpayable",
      "type": "function"
    },
    {
      "inputs": [
        {
          "internalType": "address",
          "name": "_NFRAddress",
          "type": "address"
        }
      ],
      "name": "setNFRAddress",
      "outputs": [],
      "stateMutability": "nonpayable",
      "type": "function"
    },
    {
      "inputs": [
        {
          "internalType": "address",
          "name": "_BlackMarketAddress",
          "type": "address"
        }
      ],
      "name": "setBlackMarketAddress",
      "outputs": [],
      "stateMutability": "nonpayable",
      "type": "function"
    },
    {
      "inputs": [
        {
          "internalType": "uint256",
          "name": "tokenID",
          "type": "uint256"
        }
      ],
      "name": "useSpell",
      "outputs": [],
      "stateMutability": "nonpayable",
      "type": "function"
    },
    {
      "inputs": [
        {
          "internalType": "address",
          "name": "to",
          "type": "address"
        }
      ],
      "name": "mintFromPack",
      "outputs": [],
      "stateMutability": "nonpayable",
      "type": "function"
    },
    {
      "inputs": [
        {
          "internalType": "enum RareRelics.SpellTypes",
          "name": "spellType",
          "type": "uint8"
        }
      ],
      "name": "mintFromStore",
      "outputs": [],
      "stateMutability": "payable",
      "type": "function",
      "payable": true
    }
  ],
  "bytecode": "0x60806040526040518060a001604052806040518060e001604052806040518060600160405280600061ffff1661ffff168152602001600061ffff168152602001600061ffff1681525081526020016040518060600160405280600061ffff1661ffff168152602001600061ffff168152602001600061ffff168152508152602001604051806060016040528060fa61ffff1661ffff168152602001606461ffff168152602001604b61ffff1681525081526020016040518060600160405280609661ffff1661ffff168152602001604b61ffff168152602001603261ffff1681525081526020016040518060600160405280604b61ffff1661ffff168152602001603261ffff168152602001602361ffff1681525081526020016040518060600160405280603261ffff1661ffff168152602001601961ffff168152602001601461ffff1681525081526020016040518060600160405280601961ffff1661ffff168152602001600f61ffff168152602001600561ffff1681525081525081526020016040518060e001604052806040518060600160405280600061ffff1661ffff168152602001600061ffff168152602001600061ffff1681525081526020016040518060600160405280600061ffff1661ffff168152602001600061ffff168152602001600061ffff168152508152602001604051806060016040528060fa61ffff1661ffff168152602001606461ffff168152602001604b61ffff1681525081526020016040518060600160405280609661ffff1661ffff168152602001604b61ffff168152602001603261ffff1681525081526020016040518060600160405280604b61ffff1661ffff168152602001603261ffff168152602001602361ffff1681525081526020016040518060600160405280603261ffff1661ffff168152602001601961ffff168152602001601461ffff1681525081526020016040518060600160405280601961ffff1661ffff168152602001600f61ffff168152602001600561ffff1681525081525081526020016040518060e001604052806040518060600160405280600061ffff1661ffff168152602001600061ffff168152602001600061ffff1681525081526020016040518060600160405280600061ffff1661ffff168152602001600061ffff168152602001600061ffff168152508152602001604051806060016040528061015e61ffff1661ffff168152602001606461ffff168152602001603261ffff168152508152602001604051806060016040528060fa61ffff1661ffff168152602001603261ffff168152602001601e61ffff1681525081526020016040518060600160405280603261ffff1661ffff168152602001601e61ffff168152602001600a61ffff1681525081526020016040518060600160405280602761ffff1661ffff168152602001601461ffff168152602001600561ffff1681525081526020016040518060600160405280600a61ffff1661ffff168152602001600561ffff168152602001600161ffff1681525081525081526020016040518060e001604052806040518060600160405280600061ffff1661ffff168152602001600061ffff168152602001600061ffff1681525081526020016040518060600160405280600061ffff1661ffff168152602001600061ffff168152602001600061ffff168152508152602001604051806060016040528061015e61ffff1661ffff168152602001606461ffff168152602001603261ffff168152508152602001604051806060016040528060fa61ffff1661ffff168152602001603261ffff168152602001601e61ffff1681525081526020016040518060600160405280603761ffff1661ffff168152602001601e61ffff168152602001600a61ffff1681525081526020016040518060600160405280602861ffff1661ffff168152602001601461ffff168152602001600f61ffff1681525081526020016040518060600160405280600061ffff1661ffff168152602001600061ffff168152602001600061ffff1681525081525081526020016040518060e001604052806040518060600160405280600061ffff1661ffff168152602001600061ffff168152602001600061ffff1681525081526020016040518060600160405280600061ffff1661ffff168152602001600061ffff168152602001600061ffff16815250815260200160405180606001604052806101c261ffff1661ffff168152602001609661ffff168152602001606461ffff1681525081526020016040518060600160405280607d61ffff1661ffff168152602001604161ffff168152602001601961ffff1681525081526020016040518060600160405280603261ffff1661ffff168152602001601961ffff168152602001600a61ffff1681525081526020016040518060600160405280600061ffff1661ffff168152602001600061ffff168152602001600061ffff1681525081526020016040518060600160405280600061ffff1661ffff168152602001600061ffff168152602001600061ffff16815250815250815250601090600562000761929190620009a1565b503480156200076f57600080fd5b506040516200586938038062005869833981810160405281019062000795919062000c78565b6040518060400160405280600b81526020017f526172652052656c6963730000000000000000000000000000000000000000008152506040518060400160405280600a81526020017f5241524552454c49435300000000000000000000000000000000000000000000815250816000908051906020019062000819929190620009f9565b50806001908051906020019062000832929190620009f9565b5050506200085562000849620008d360201b60201c565b620008db60201b60201c565b80600d60006101000a81548173ffffffffffffffffffffffffffffffffffffffff021916908373ffffffffffffffffffffffffffffffffffffffff1602179055506000600e60146101000a81548160ff0219169083151502179055506000600f60146101000a81548160ff0219169083151502179055505062000d0f565b600033905090565b6000600a60009054906101000a900473ffffffffffffffffffffffffffffffffffffffff16905081600a60006101000a81548173ffffffffffffffffffffffffffffffffffffffff021916908373ffffffffffffffffffffffffffffffffffffffff1602179055508173ffffffffffffffffffffffffffffffffffffffff168173ffffffffffffffffffffffffffffffffffffffff167f8be0079c531659141344cd1fd0a4f28419497f9722a3daafe3b4186f6b6457e060405160405180910390a35050565b8260056007028101928215620009e6579160200282015b82811115620009e557825182906007620009d492919062000a8a565b5091602001919060070190620009b8565b5b509050620009f5919062000adf565b5090565b82805462000a079062000cd9565b90600052602060002090601f01602090048101928262000a2b576000855562000a77565b82601f1062000a4657805160ff191683800117855562000a77565b8280016001018555821562000a77579182015b8281111562000a7657825182559160200191906001019062000a59565b5b50905062000a86919062000b07565b5090565b826007810192821562000acc579160200282015b8281111562000acb5782518290600362000aba92919062000b26565b509160200191906001019062000a9e565b5b50905062000adb919062000bca565b5090565b5b8082111562000b03576000818162000af9919062000bf2565b5060070162000ae0565b5090565b5b8082111562000b2257600081600090555060010162000b08565b5090565b826003600f0160109004810192821562000bb75791602002820160005b8382111562000b8557835183826101000a81548161ffff021916908361ffff160217905550926020019260020160208160010104928301926001030262000b43565b801562000bb55782816101000a81549061ffff021916905560020160208160010104928301926001030262000b85565b505b50905062000bc6919062000b07565b5090565b5b8082111562000bee576000818162000be4919062000c07565b5060010162000bcb565b5090565b50806007019062000c04919062000bca565b50565b5060009055565b600080fd5b600073ffffffffffffffffffffffffffffffffffffffff82169050919050565b600062000c408262000c13565b9050919050565b62000c528162000c33565b811462000c5e57600080fd5b50565b60008151905062000c728162000c47565b92915050565b60006020828403121562000c915762000c9062000c0e565b5b600062000ca18482850162000c61565b91505092915050565b7f4e487b7100000000000000000000000000000000000000000000000000000000600052602260045260246000fd5b6000600282049050600182168062000cf257607f821691505b6020821081141562000d095762000d0862000caa565b5b50919050565b614b4a8062000d1f6000396000f3fe6080604052600436106101815760003560e01c806370a08231116100d1578063bb0d805c1161008a578063e1520a3811610064578063e1520a38146105b8578063e985e9c5146105d4578063f0460ef914610611578063f2fde38b1461063a57610181565b8063bb0d805c14610529578063c87b56dd14610552578063d5ae05ea1461058f57610181565b806370a082311461042d578063715018a61461046a5780638da5cb5b1461048157806395d89b41146104ac578063a22cb465146104d7578063b88d4fde1461050057610181565b806323b872dd1161013e57806342842e0e1161011857806342842e0e1461034b5780634f6ccce7146103745780635d5c6a45146103b15780636352211e146103f057610181565b806323b872dd146102a85780632c4ecfa9146102d15780632f745c591461030e57610181565b806301ffc9a71461018657806306fdde03146101c3578063081812fc146101ee578063095ea7b31461022b57806318160ddd146102545780631f243d841461027f575b600080fd5b34801561019257600080fd5b506101ad60048036038101906101a89190613158565b610663565b6040516101ba91906131a0565b60405180910390f35b3480156101cf57600080fd5b506101d86106dd565b6040516101e59190613254565b60405180910390f35b3480156101fa57600080fd5b50610215600480360381019061021091906132ac565b61076f565b604051610222919061331a565b60405180910390f35b34801561023757600080fd5b50610252600480360381019061024d9190613361565b6107f4565b005b34801561026057600080fd5b5061026961090c565b60405161027691906133b0565b60405180910390f35b34801561028b57600080fd5b506102a660048036038101906102a191906132ac565b610919565b005b3480156102b457600080fd5b506102cf60048036038101906102ca91906133cb565b610a0b565b005b3480156102dd57600080fd5b506102f860048036038101906102f3919061341e565b610a6b565b604051610305919061348e565b60405180910390f35b34801561031a57600080fd5b5061033560048036038101906103309190613361565b610abe565b60405161034291906133b0565b60405180910390f35b34801561035757600080fd5b50610372600480360381019061036d91906133cb565b610b63565b005b34801561038057600080fd5b5061039b600480360381019061039691906132ac565b610b83565b6040516103a891906133b0565b60405180910390f35b3480156103bd57600080fd5b506103d860048036038101906103d391906132ac565b610bf4565b6040516103e793929190613584565b60405180910390f35b3480156103fc57600080fd5b50610417600480360381019061041291906132ac565b610c45565b604051610424919061331a565b60405180910390f35b34801561043957600080fd5b50610454600480360381019061044f91906135bb565b610cf7565b60405161046191906133b0565b60405180910390f35b34801561047657600080fd5b5061047f610daf565b005b34801561048d57600080fd5b50610496610e37565b6040516104a3919061331a565b60405180910390f35b3480156104b857600080fd5b506104c1610e61565b6040516104ce9190613254565b60405180910390f35b3480156104e357600080fd5b506104fe60048036038101906104f99190613614565b610ef3565b005b34801561050c57600080fd5b5061052760048036038101906105229190613789565b610f09565b005b34801561053557600080fd5b50610550600480360381019061054b91906135bb565b610f6b565b005b34801561055e57600080fd5b50610579600480360381019061057491906132ac565b61109c565b6040516105869190613254565b60405180910390f35b34801561059b57600080fd5b506105b660048036038101906105b191906135bb565b611143565b005b6105d260048036038101906105cd9190613831565b611274565b005b3480156105e057600080fd5b506105fb60048036038101906105f6919061385e565b611745565b60405161060891906131a0565b60405180910390f35b34801561061d57600080fd5b50610638600480360381019061063391906135bb565b6117d9565b005b34801561064657600080fd5b50610661600480360381019061065c91906135bb565b611a1f565b005b60007f780e9d63000000000000000000000000000000000000000000000000000000007bffffffffffffffffffffffffffffffffffffffffffffffffffffffff1916827bffffffffffffffffffffffffffffffffffffffffffffffffffffffff191614806106d657506106d582611b17565b5b9050919050565b6060600080546106ec906138cd565b80601f0160208091040260200160405190810160405280929190818152602001828054610718906138cd565b80156107655780601f1061073a57610100808354040283529160200191610765565b820191906000526020600020905b81548152906001019060200180831161074857829003601f168201915b5050505050905090565b600061077a82611bf9565b6107b9576040517f08c379a00000000000000000000000000000000000000000000000000000000081526004016107b090613971565b60405180910390fd5b6004600083815260200190815260200160002060009054906101000a900473ffffffffffffffffffffffffffffffffffffffff169050919050565b60006107ff82610c45565b90508073ffffffffffffffffffffffffffffffffffffffff168373ffffffffffffffffffffffffffffffffffffffff161415610870576040517f08c379a000000000000000000000000000000000000000000000000000000000815260040161086790613a03565b60405180910390fd5b8073ffffffffffffffffffffffffffffffffffffffff1661088f611c65565b73ffffffffffffffffffffffffffffffffffffffff1614806108be57506108bd816108b8611c65565b611745565b5b6108fd576040517f08c379a00000000000000000000000000000000000000000000000000000000081526004016108f490613a95565b60405180910390fd5b6109078383611c6d565b505050565b6000600880549050905090565b60011515600f60149054906101000a900460ff1615151461096f576040517f08c379a000000000000000000000000000000000000000000000000000000000815260040161096690613b27565b60405180910390fd5b600f60009054906101000a900473ffffffffffffffffffffffffffffffffffffffff1673ffffffffffffffffffffffffffffffffffffffff163373ffffffffffffffffffffffffffffffffffffffff16146109ff576040517f08c379a00000000000000000000000000000000000000000000000000000000081526004016109f690613bb9565b60405180910390fd5b610a0881611d26565b50565b610a1c610a16611c65565b82611e37565b610a5b576040517f08c379a0000000000000000000000000000000000000000000000000000000008152600401610a5290613c4b565b60405180910390fd5b610a66838383611f15565b505050565b60108360058110610a7b57600080fd5b600702018260078110610a8d57600080fd5b018160038110610a9c57600080fd5b6010918282040191900660020292509250509054906101000a900461ffff1681565b6000610ac983610cf7565b8210610b0a576040517f08c379a0000000000000000000000000000000000000000000000000000000008152600401610b0190613cdd565b60405180910390fd5b600660008473ffffffffffffffffffffffffffffffffffffffff1673ffffffffffffffffffffffffffffffffffffffff168152602001908152602001600020600083815260200190815260200160002054905092915050565b610b7e83838360405180602001604052806000815250610f09565b505050565b6000610b8d61090c565b8210610bce576040517f08c379a0000000000000000000000000000000000000000000000000000000008152600401610bc590613d6f565b60405180910390fd5b60088281548110610be257610be1613d8f565b5b90600052602060002001549050919050565b600c6020528060005260406000206000915090508060000160009054906101000a900460ff16908060000160019054906101000a900460ff16908060000160029054906101000a900460ff16905083565b6000806002600084815260200190815260200160002060009054906101000a900473ffffffffffffffffffffffffffffffffffffffff169050600073ffffffffffffffffffffffffffffffffffffffff168173ffffffffffffffffffffffffffffffffffffffff161415610cee576040517f08c379a0000000000000000000000000000000000000000000000000000000008152600401610ce590613e30565b60405180910390fd5b80915050919050565b60008073ffffffffffffffffffffffffffffffffffffffff168273ffffffffffffffffffffffffffffffffffffffff161415610d68576040517f08c379a0000000000000000000000000000000000000000000000000000000008152600401610d5f90613ec2565b60405180910390fd5b600360008373ffffffffffffffffffffffffffffffffffffffff1673ffffffffffffffffffffffffffffffffffffffff168152602001908152602001600020549050919050565b610db7611c65565b73ffffffffffffffffffffffffffffffffffffffff16610dd5610e37565b73ffffffffffffffffffffffffffffffffffffffff1614610e2b576040517f08c379a0000000000000000000000000000000000000000000000000000000008152600401610e2290613f2e565b60405180910390fd5b610e356000612171565b565b6000600a60009054906101000a900473ffffffffffffffffffffffffffffffffffffffff16905090565b606060018054610e70906138cd565b80601f0160208091040260200160405190810160405280929190818152602001828054610e9c906138cd565b8015610ee95780601f10610ebe57610100808354040283529160200191610ee9565b820191906000526020600020905b815481529060010190602001808311610ecc57829003601f168201915b5050505050905090565b610f05610efe611c65565b8383612237565b5050565b610f1a610f14611c65565b83611e37565b610f59576040517f08c379a0000000000000000000000000000000000000000000000000000000008152600401610f5090613c4b565b60405180910390fd5b610f65848484846123a4565b50505050565b610f73611c65565b73ffffffffffffffffffffffffffffffffffffffff16610f91610e37565b73ffffffffffffffffffffffffffffffffffffffff1614610fe7576040517f08c379a0000000000000000000000000000000000000000000000000000000008152600401610fde90613f2e565b60405180910390fd5b60001515600e60149054906101000a900460ff1615151461103d576040517f08c379a000000000000000000000000000000000000000000000000000000000815260040161103490613f9a565b60405180910390fd5b80600e60006101000a81548173ffffffffffffffffffffffffffffffffffffffff021916908373ffffffffffffffffffffffffffffffffffffffff1602179055506001600e60146101000a81548160ff02191690831515021790555050565b60606110a782611bf9565b6110e6576040517f08c379a00000000000000000000000000000000000000000000000000000000081526004016110dd9061402c565b60405180910390fd5b60006110f0612400565b90506000815111611110576040518060200160405280600081525061113b565b8061111a84612417565b60405160200161112b929190614088565b6040516020818303038152906040525b915050919050565b61114b611c65565b73ffffffffffffffffffffffffffffffffffffffff16611169610e37565b73ffffffffffffffffffffffffffffffffffffffff16146111bf576040517f08c379a00000000000000000000000000000000000000000000000000000000081526004016111b690613f2e565b60405180910390fd5b60001515600f60149054906101000a900460ff16151514611215576040517f08c379a000000000000000000000000000000000000000000000000000000000815260040161120c9061411e565b60405180910390fd5b80600f60006101000a81548173ffffffffffffffffffffffffffffffffffffffff021916908373ffffffffffffffffffffffffffffffffffffffff1602179055506001600f60146101000a81548160ff02191690831515021790555050565b61127c6130a4565b600060048111156112905761128f6134a9565b5b8260048111156112a3576112a26134a9565b5b1415611352576112b36000612578565b9050600d60009054906101000a900473ffffffffffffffffffffffffffffffffffffffff1673ffffffffffffffffffffffffffffffffffffffff16639dc29fac6112fb611c65565b6127106040518363ffffffff1660e01b815260040161131b929190614183565b600060405180830381600087803b15801561133557600080fd5b505af1158015611349573d6000803e3d6000fd5b5050505061167c565b60016004811115611366576113656134a9565b5b826004811115611379576113786134a9565b5b1415611428576113896001612578565b9050600d60009054906101000a900473ffffffffffffffffffffffffffffffffffffffff1673ffffffffffffffffffffffffffffffffffffffff16639dc29fac6113d1611c65565b6127106040518363ffffffff1660e01b81526004016113f1929190614183565b600060405180830381600087803b15801561140b57600080fd5b505af115801561141f573d6000803e3d6000fd5b5050505061167b565b6002600481111561143c5761143b6134a9565b5b82600481111561144f5761144e6134a9565b5b14156114fe5761145f6002612578565b9050600d60009054906101000a900473ffffffffffffffffffffffffffffffffffffffff1673ffffffffffffffffffffffffffffffffffffffff16639dc29fac6114a7611c65565b6127106040518363ffffffff1660e01b81526004016114c7929190614183565b600060405180830381600087803b1580156114e157600080fd5b505af11580156114f5573d6000803e3d6000fd5b5050505061167a565b60036004811115611512576115116134a9565b5b826004811115611525576115246134a9565b5b14156115d4576115356003612578565b9050600d60009054906101000a900473ffffffffffffffffffffffffffffffffffffffff1673ffffffffffffffffffffffffffffffffffffffff16639dc29fac61157d611c65565b6127106040518363ffffffff1660e01b815260040161159d929190614183565b600060405180830381600087803b1580156115b757600080fd5b505af11580156115cb573d6000803e3d6000fd5b50505050611679565b6115de6004612578565b9050600d60009054906101000a900473ffffffffffffffffffffffffffffffffffffffff1673ffffffffffffffffffffffffffffffffffffffff16639dc29fac611626611c65565b6127106040518363ffffffff1660e01b8152600401611646929190614183565b600060405180830381600087803b15801561166057600080fd5b505af1158015611674573d6000803e3d6000fd5b505050505b5b5b5b611686600b6127ac565b80600c6000611695600b6127c2565b815260200190815260200160002060008201518160000160006101000a81548160ff021916908360048111156116ce576116cd6134a9565b5b021790555060208201518160000160016101000a81548160ff021916908360ff16021790555060408201518160000160026101000a81548160ff0219169083600681111561171f5761171e6134a9565b5b0217905550905050611741611732611c65565b61173c600b6127c2565b6127d0565b5050565b6000600560008473ffffffffffffffffffffffffffffffffffffffff1673ffffffffffffffffffffffffffffffffffffffff16815260200190815260200160002060008373ffffffffffffffffffffffffffffffffffffffff1673ffffffffffffffffffffffffffffffffffffffff16815260200190815260200160002060009054906101000a900460ff16905092915050565b60011515600e60149054906101000a900460ff1615151461182f576040517f08c379a0000000000000000000000000000000000000000000000000000000008152600401611826906141f8565b60405180910390fd5b600e60009054906101000a900473ffffffffffffffffffffffffffffffffffffffff1673ffffffffffffffffffffffffffffffffffffffff163373ffffffffffffffffffffffffffffffffffffffff16146118bf576040517f08c379a00000000000000000000000000000000000000000000000000000000081526004016118b69061428a565b60405180910390fd5b60006103e86118cc6127ee565b6118d691906142d9565b90506118e06130a4565b61015e8210156118fb576118f46000612578565b905061195c565b6102bc8210156119165761190f6001612578565b905061195b565b6103b68210156119315761192a6002612578565b905061195a565b6103e382101561194c576119456003612578565b9050611959565b6119566004612578565b90505b5b5b5b611966600b6127ac565b80600c6000611975600b6127c2565b815260200190815260200160002060008201518160000160006101000a81548160ff021916908360048111156119ae576119ad6134a9565b5b021790555060208201518160000160016101000a81548160ff021916908360ff16021790555060408201518160000160026101000a81548160ff021916908360068111156119ff576119fe6134a9565b5b0217905550905050611a1a83611a15600b6127c2565b6127d0565b505050565b611a27611c65565b73ffffffffffffffffffffffffffffffffffffffff16611a45610e37565b73ffffffffffffffffffffffffffffffffffffffff1614611a9b576040517f08c379a0000000000000000000000000000000000000000000000000000000008152600401611a9290613f2e565b60405180910390fd5b600073ffffffffffffffffffffffffffffffffffffffff168173ffffffffffffffffffffffffffffffffffffffff161415611b0b576040517f08c379a0000000000000000000000000000000000000000000000000000000008152600401611b029061437c565b60405180910390fd5b611b1481612171565b50565b60007f80ac58cd000000000000000000000000000000000000000000000000000000007bffffffffffffffffffffffffffffffffffffffffffffffffffffffff1916827bffffffffffffffffffffffffffffffffffffffffffffffffffffffff19161480611be257507f5b5e139f000000000000000000000000000000000000000000000000000000007bffffffffffffffffffffffffffffffffffffffffffffffffffffffff1916827bffffffffffffffffffffffffffffffffffffffffffffffffffffffff1916145b80611bf25750611bf182612848565b5b9050919050565b60008073ffffffffffffffffffffffffffffffffffffffff166002600084815260200190815260200160002060009054906101000a900473ffffffffffffffffffffffffffffffffffffffff1673ffffffffffffffffffffffffffffffffffffffff1614159050919050565b600033905090565b816004600083815260200190815260200160002060006101000a81548173ffffffffffffffffffffffffffffffffffffffff021916908373ffffffffffffffffffffffffffffffffffffffff160217905550808273ffffffffffffffffffffffffffffffffffffffff16611ce083610c45565b73ffffffffffffffffffffffffffffffffffffffff167f8c5be1e5ebec7d5bd14f71427d1e84f3dd0314c0f7b2291e5b200ac8c7c3b92560405160405180910390a45050565b6000611d3182610c45565b9050611d3f816000846128b2565b611d4a600083611c6d565b6001600360008373ffffffffffffffffffffffffffffffffffffffff1673ffffffffffffffffffffffffffffffffffffffff1681526020019081526020016000206000828254611d9a91906143cb565b925050819055506002600083815260200190815260200160002060006101000a81549073ffffffffffffffffffffffffffffffffffffffff021916905581600073ffffffffffffffffffffffffffffffffffffffff168273ffffffffffffffffffffffffffffffffffffffff167fddf252ad1be2c89b69c2b068fc378daa952ba7f163c4a11628f55a4df523b3ef60405160405180910390a45050565b6000611e4282611bf9565b611e81576040517f08c379a0000000000000000000000000000000000000000000000000000000008152600401611e7890614471565b60405180910390fd5b6000611e8c83610c45565b90508073ffffffffffffffffffffffffffffffffffffffff168473ffffffffffffffffffffffffffffffffffffffff161480611efb57508373ffffffffffffffffffffffffffffffffffffffff16611ee38461076f565b73ffffffffffffffffffffffffffffffffffffffff16145b80611f0c5750611f0b8185611745565b5b91505092915050565b8273ffffffffffffffffffffffffffffffffffffffff16611f3582610c45565b73ffffffffffffffffffffffffffffffffffffffff1614611f8b576040517f08c379a0000000000000000000000000000000000000000000000000000000008152600401611f8290614503565b60405180910390fd5b600073ffffffffffffffffffffffffffffffffffffffff168273ffffffffffffffffffffffffffffffffffffffff161415611ffb576040517f08c379a0000000000000000000000000000000000000000000000000000000008152600401611ff290614595565b60405180910390fd5b6120068383836128b2565b612011600082611c6d565b6001600360008573ffffffffffffffffffffffffffffffffffffffff1673ffffffffffffffffffffffffffffffffffffffff168152602001908152602001600020600082825461206191906143cb565b925050819055506001600360008473ffffffffffffffffffffffffffffffffffffffff1673ffffffffffffffffffffffffffffffffffffffff16815260200190815260200160002060008282546120b891906145b5565b92505081905550816002600083815260200190815260200160002060006101000a81548173ffffffffffffffffffffffffffffffffffffffff021916908373ffffffffffffffffffffffffffffffffffffffff160217905550808273ffffffffffffffffffffffffffffffffffffffff168473ffffffffffffffffffffffffffffffffffffffff167fddf252ad1be2c89b69c2b068fc378daa952ba7f163c4a11628f55a4df523b3ef60405160405180910390a4505050565b6000600a60009054906101000a900473ffffffffffffffffffffffffffffffffffffffff16905081600a60006101000a81548173ffffffffffffffffffffffffffffffffffffffff021916908373ffffffffffffffffffffffffffffffffffffffff1602179055508173ffffffffffffffffffffffffffffffffffffffff168173ffffffffffffffffffffffffffffffffffffffff167f8be0079c531659141344cd1fd0a4f28419497f9722a3daafe3b4186f6b6457e060405160405180910390a35050565b8173ffffffffffffffffffffffffffffffffffffffff168373ffffffffffffffffffffffffffffffffffffffff1614156122a6576040517f08c379a000000000000000000000000000000000000000000000000000000000815260040161229d90614657565b60405180910390fd5b80600560008573ffffffffffffffffffffffffffffffffffffffff1673ffffffffffffffffffffffffffffffffffffffff16815260200190815260200160002060008473ffffffffffffffffffffffffffffffffffffffff1673ffffffffffffffffffffffffffffffffffffffff16815260200190815260200160002060006101000a81548160ff0219169083151502179055508173ffffffffffffffffffffffffffffffffffffffff168373ffffffffffffffffffffffffffffffffffffffff167f17307eab39ab6107e8899845ad3d59bd9653f200f220920489ca2b5937696c318360405161239791906131a0565b60405180910390a3505050565b6123af848484611f15565b6123bb848484846129c6565b6123fa576040517f08c379a00000000000000000000000000000000000000000000000000000000081526004016123f1906146e9565b60405180910390fd5b50505050565b606060405180602001604052806000815250905090565b6060600082141561245f576040518060400160405280600181526020017f30000000000000000000000000000000000000000000000000000000000000008152509050612573565b600082905060005b6000821461249157808061247a90614709565b915050600a8261248a9190614752565b9150612467565b60008167ffffffffffffffff8111156124ad576124ac61365e565b5b6040519080825280601f01601f1916602001820160405280156124df5781602001600182028036833780820191505090505b5090505b6000851461256c576001826124f891906143cb565b9150600a8561250791906142d9565b603061251391906145b5565b60f81b81838151811061252957612528613d8f565b5b60200101907effffffffffffffffffffffffffffffffffffffffffffffffffffffffffffff1916908160001a905350600a856125659190614752565b94506124e3565b8093505050505b919050565b6125806130a4565b60006103e861258d6127ee565b61259791906142d9565b905060005b6006808111156125af576125ae6134a9565b5b60ff168160ff161161276b576000600190505b60038160ff16116127575760108560048111156125e2576125e16134a9565b5b60ff16600581106125f6576125f5613d8f565b5b600702018260ff166007811061260f5761260e613d8f565b5b0160018261261d9190614783565b60ff166003811061263157612630613d8f565b5b601091828204019190066002029054906101000a900461ffff1661ffff168310156126b5576040518060600160405280866004811115612674576126736134a9565b5b81526020018260ff16815260200160016006811115612696576126956134a9565b5b60068111156126a8576126a76134a9565b5b81525093505050506127a7565b60108560048111156126ca576126c96134a9565b5b60ff16600581106126de576126dd613d8f565b5b600702018260ff16600781106126f7576126f6613d8f565b5b016001826127059190614783565b60ff166003811061271957612718613d8f565b5b601091828204019190066002029054906101000a900461ffff1661ffff168361274291906143cb565b9250808061274f906147b7565b9150506125c2565b508080612763906147b7565b91505061259c565b506040517f08c379a000000000000000000000000000000000000000000000000000000000815260040161279e90614853565b60405180910390fd5b919050565b6001816000016000828254019250508190555050565b600081600001549050919050565b6127ea828260405180602001604052806000815250612b5d565b5050565b600060016033600082825461280391906145b5565b925050819055504442603354612817611c65565b60405160200161282a94939291906148dc565b6040516020818303038152906040528051906020012060001c905090565b60007f01ffc9a7000000000000000000000000000000000000000000000000000000007bffffffffffffffffffffffffffffffffffffffffffffffffffffffff1916827bffffffffffffffffffffffffffffffffffffffffffffffffffffffff1916149050919050565b6128bd838383612bb8565b600073ffffffffffffffffffffffffffffffffffffffff168373ffffffffffffffffffffffffffffffffffffffff161415612900576128fb81612bbd565b61293f565b8173ffffffffffffffffffffffffffffffffffffffff168373ffffffffffffffffffffffffffffffffffffffff161461293e5761293d8382612c06565b5b5b600073ffffffffffffffffffffffffffffffffffffffff168273ffffffffffffffffffffffffffffffffffffffff1614156129825761297d81612d73565b6129c1565b8273ffffffffffffffffffffffffffffffffffffffff168273ffffffffffffffffffffffffffffffffffffffff16146129c0576129bf8282612e44565b5b5b505050565b60006129e78473ffffffffffffffffffffffffffffffffffffffff16612ec3565b15612b50578373ffffffffffffffffffffffffffffffffffffffff1663150b7a02612a10611c65565b8786866040518563ffffffff1660e01b8152600401612a32949392919061497f565b602060405180830381600087803b158015612a4c57600080fd5b505af1925050508015612a7d57506040513d601f19601f82011682018060405250810190612a7a91906149e0565b60015b612b00573d8060008114612aad576040519150601f19603f3d011682016040523d82523d6000602084013e612ab2565b606091505b50600081511415612af8576040517f08c379a0000000000000000000000000000000000000000000000000000000008152600401612aef906146e9565b60405180910390fd5b805181602001fd5b63150b7a0260e01b7bffffffffffffffffffffffffffffffffffffffffffffffffffffffff1916817bffffffffffffffffffffffffffffffffffffffffffffffffffffffff191614915050612b55565b600190505b949350505050565b612b678383612ed6565b612b7460008484846129c6565b612bb3576040517f08c379a0000000000000000000000000000000000000000000000000000000008152600401612baa906146e9565b60405180910390fd5b505050565b505050565b6008805490506009600083815260200190815260200160002081905550600881908060018154018082558091505060019003906000526020600020016000909190919091505550565b60006001612c1384610cf7565b612c1d91906143cb565b9050600060076000848152602001908152602001600020549050818114612d02576000600660008673ffffffffffffffffffffffffffffffffffffffff1673ffffffffffffffffffffffffffffffffffffffff168152602001908152602001600020600084815260200190815260200160002054905080600660008773ffffffffffffffffffffffffffffffffffffffff1673ffffffffffffffffffffffffffffffffffffffff168152602001908152602001600020600084815260200190815260200160002081905550816007600083815260200190815260200160002081905550505b6007600084815260200190815260200160002060009055600660008573ffffffffffffffffffffffffffffffffffffffff1673ffffffffffffffffffffffffffffffffffffffff16815260200190815260200160002060008381526020019081526020016000206000905550505050565b60006001600880549050612d8791906143cb565b9050600060096000848152602001908152602001600020549050600060088381548110612db757612db6613d8f565b5b906000526020600020015490508060088381548110612dd957612dd8613d8f565b5b906000526020600020018190555081600960008381526020019081526020016000208190555060096000858152602001908152602001600020600090556008805480612e2857612e27614a0d565b5b6001900381819060005260206000200160009055905550505050565b6000612e4f83610cf7565b905081600660008573ffffffffffffffffffffffffffffffffffffffff1673ffffffffffffffffffffffffffffffffffffffff168152602001908152602001600020600083815260200190815260200160002081905550806007600084815260200190815260200160002081905550505050565b600080823b905060008111915050919050565b600073ffffffffffffffffffffffffffffffffffffffff168273ffffffffffffffffffffffffffffffffffffffff161415612f46576040517f08c379a0000000000000000000000000000000000000000000000000000000008152600401612f3d90614a88565b60405180910390fd5b612f4f81611bf9565b15612f8f576040517f08c379a0000000000000000000000000000000000000000000000000000000008152600401612f8690614af4565b60405180910390fd5b612f9b600083836128b2565b6001600360008473ffffffffffffffffffffffffffffffffffffffff1673ffffffffffffffffffffffffffffffffffffffff1681526020019081526020016000206000828254612feb91906145b5565b92505081905550816002600083815260200190815260200160002060006101000a81548173ffffffffffffffffffffffffffffffffffffffff021916908373ffffffffffffffffffffffffffffffffffffffff160217905550808273ffffffffffffffffffffffffffffffffffffffff16600073ffffffffffffffffffffffffffffffffffffffff167fddf252ad1be2c89b69c2b068fc378daa952ba7f163c4a11628f55a4df523b3ef60405160405180910390a45050565b6040518060600160405280600060048111156130c3576130c26134a9565b5b8152602001600060ff168152602001600060068111156130e6576130e56134a9565b5b81525090565b6000604051905090565b600080fd5b600080fd5b60007fffffffff0000000000000000000000000000000000000000000000000000000082169050919050565b61313581613100565b811461314057600080fd5b50565b6000813590506131528161312c565b92915050565b60006020828403121561316e5761316d6130f6565b5b600061317c84828501613143565b91505092915050565b60008115159050919050565b61319a81613185565b82525050565b60006020820190506131b56000830184613191565b92915050565b600081519050919050565b600082825260208201905092915050565b60005b838110156131f55780820151818401526020810190506131da565b83811115613204576000848401525b50505050565b6000601f19601f8301169050919050565b6000613226826131bb565b61323081856131c6565b93506132408185602086016131d7565b6132498161320a565b840191505092915050565b6000602082019050818103600083015261326e818461321b565b905092915050565b6000819050919050565b61328981613276565b811461329457600080fd5b50565b6000813590506132a681613280565b92915050565b6000602082840312156132c2576132c16130f6565b5b60006132d084828501613297565b91505092915050565b600073ffffffffffffffffffffffffffffffffffffffff82169050919050565b6000613304826132d9565b9050919050565b613314816132f9565b82525050565b600060208201905061332f600083018461330b565b92915050565b61333e816132f9565b811461334957600080fd5b50565b60008135905061335b81613335565b92915050565b60008060408385031215613378576133776130f6565b5b60006133868582860161334c565b925050602061339785828601613297565b9150509250929050565b6133aa81613276565b82525050565b60006020820190506133c560008301846133a1565b92915050565b6000806000606084860312156133e4576133e36130f6565b5b60006133f28682870161334c565b93505060206134038682870161334c565b925050604061341486828701613297565b9150509250925092565b600080600060608486031215613437576134366130f6565b5b600061344586828701613297565b935050602061345686828701613297565b925050604061346786828701613297565b9150509250925092565b600061ffff82169050919050565b61348881613471565b82525050565b60006020820190506134a3600083018461347f565b92915050565b7f4e487b7100000000000000000000000000000000000000000000000000000000600052602160045260246000fd5b600581106134e9576134e86134a9565b5b50565b60008190506134fa826134d8565b919050565b600061350a826134ec565b9050919050565b61351a816134ff565b82525050565b600060ff82169050919050565b61353681613520565b82525050565b6007811061354d5761354c6134a9565b5b50565b600081905061355e8261353c565b919050565b600061356e82613550565b9050919050565b61357e81613563565b82525050565b60006060820190506135996000830186613511565b6135a6602083018561352d565b6135b36040830184613575565b949350505050565b6000602082840312156135d1576135d06130f6565b5b60006135df8482850161334c565b91505092915050565b6135f181613185565b81146135fc57600080fd5b50565b60008135905061360e816135e8565b92915050565b6000806040838503121561362b5761362a6130f6565b5b60006136398582860161334c565b925050602061364a858286016135ff565b9150509250929050565b600080fd5b600080fd5b7f4e487b7100000000000000000000000000000000000000000000000000000000600052604160045260246000fd5b6136968261320a565b810181811067ffffffffffffffff821117156136b5576136b461365e565b5b80604052505050565b60006136c86130ec565b90506136d4828261368d565b919050565b600067ffffffffffffffff8211156136f4576136f361365e565b5b6136fd8261320a565b9050602081019050919050565b82818337600083830152505050565b600061372c613727846136d9565b6136be565b90508281526020810184848401111561374857613747613659565b5b61375384828561370a565b509392505050565b600082601f8301126137705761376f613654565b5b8135613780848260208601613719565b91505092915050565b600080600080608085870312156137a3576137a26130f6565b5b60006137b18782880161334c565b94505060206137c28782880161334c565b93505060406137d387828801613297565b925050606085013567ffffffffffffffff8111156137f4576137f36130fb565b5b6138008782880161375b565b91505092959194509250565b6005811061381957600080fd5b50565b60008135905061382b8161380c565b92915050565b600060208284031215613847576138466130f6565b5b60006138558482850161381c565b91505092915050565b60008060408385031215613875576138746130f6565b5b60006138838582860161334c565b92505060206138948582860161334c565b9150509250929050565b7f4e487b7100000000000000000000000000000000000000000000000000000000600052602260045260246000fd5b600060028204905060018216806138e557607f821691505b602082108114156138f9576138f861389e565b5b50919050565b7f4552433732313a20617070726f76656420717565727920666f72206e6f6e657860008201527f697374656e7420746f6b656e0000000000000000000000000000000000000000602082015250565b600061395b602c836131c6565b9150613966826138ff565b604082019050919050565b6000602082019050818103600083015261398a8161394e565b9050919050565b7f4552433732313a20617070726f76616c20746f2063757272656e74206f776e6560008201527f7200000000000000000000000000000000000000000000000000000000000000602082015250565b60006139ed6021836131c6565b91506139f882613991565b604082019050919050565b60006020820190508181036000830152613a1c816139e0565b9050919050565b7f4552433732313a20617070726f76652063616c6c6572206973206e6f74206f7760008201527f6e6572206e6f7220617070726f76656420666f7220616c6c0000000000000000602082015250565b6000613a7f6038836131c6565b9150613a8a82613a23565b604082019050919050565b60006020820190508181036000830152613aae81613a72565b9050919050565b7f426c61636b4d61726b657420636f6e74726163742061646472657373206e6f7460008201527f2073657420796574000000000000000000000000000000000000000000000000602082015250565b6000613b116028836131c6565b9150613b1c82613ab5565b604082019050919050565b60006020820190508181036000830152613b4081613b04565b9050919050565b7f4f6e6c7920426c61636b4d61726b657420636f6e74726163742063616e20636160008201527f6c6c20746869732066756e6374696f6e00000000000000000000000000000000602082015250565b6000613ba36030836131c6565b9150613bae82613b47565b604082019050919050565b60006020820190508181036000830152613bd281613b96565b9050919050565b7f4552433732313a207472616e736665722063616c6c6572206973206e6f74206f60008201527f776e6572206e6f7220617070726f766564000000000000000000000000000000602082015250565b6000613c356031836131c6565b9150613c4082613bd9565b604082019050919050565b60006020820190508181036000830152613c6481613c28565b9050919050565b7f455243373231456e756d657261626c653a206f776e657220696e646578206f7560008201527f74206f6620626f756e6473000000000000000000000000000000000000000000602082015250565b6000613cc7602b836131c6565b9150613cd282613c6b565b604082019050919050565b60006020820190508181036000830152613cf681613cba565b9050919050565b7f455243373231456e756d657261626c653a20676c6f62616c20696e646578206f60008201527f7574206f6620626f756e64730000000000000000000000000000000000000000602082015250565b6000613d59602c836131c6565b9150613d6482613cfd565b604082019050919050565b60006020820190508181036000830152613d8881613d4c565b9050919050565b7f4e487b7100000000000000000000000000000000000000000000000000000000600052603260045260246000fd5b7f4552433732313a206f776e657220717565727920666f72206e6f6e657869737460008201527f656e7420746f6b656e0000000000000000000000000000000000000000000000602082015250565b6000613e1a6029836131c6565b9150613e2582613dbe565b604082019050919050565b60006020820190508181036000830152613e4981613e0d565b9050919050565b7f4552433732313a2062616c616e636520717565727920666f7220746865207a6560008201527f726f206164647265737300000000000000000000000000000000000000000000602082015250565b6000613eac602a836131c6565b9150613eb782613e50565b604082019050919050565b60006020820190508181036000830152613edb81613e9f565b9050919050565b7f4f776e61626c653a2063616c6c6572206973206e6f7420746865206f776e6572600082015250565b6000613f186020836131c6565b9150613f2382613ee2565b602082019050919050565b60006020820190508181036000830152613f4781613f0b565b9050919050565b7f616c726561647920736574204e465220636f6e74726163742061646472657373600082015250565b6000613f846020836131c6565b9150613f8f82613f4e565b602082019050919050565b60006020820190508181036000830152613fb381613f77565b9050919050565b7f4552433732314d657461646174613a2055524920717565727920666f72206e6f60008201527f6e6578697374656e7420746f6b656e0000000000000000000000000000000000602082015250565b6000614016602f836131c6565b915061402182613fba565b604082019050919050565b6000602082019050818103600083015261404581614009565b9050919050565b600081905092915050565b6000614062826131bb565b61406c818561404c565b935061407c8185602086016131d7565b80840191505092915050565b60006140948285614057565b91506140a08284614057565b91508190509392505050565b7f616c72656164792073657420426c61636b4d61726b657420636f6e747261637460008201527f2061646472657373000000000000000000000000000000000000000000000000602082015250565b60006141086028836131c6565b9150614113826140ac565b604082019050919050565b60006020820190508181036000830152614137816140fb565b9050919050565b6000819050919050565b6000819050919050565b600061416d6141686141638461413e565b614148565b613276565b9050919050565b61417d81614152565b82525050565b6000604082019050614198600083018561330b565b6141a56020830184614174565b9392505050565b7f4e465220636f6e74726163742061646472657373206e6f742073657420796574600082015250565b60006141e26020836131c6565b91506141ed826141ac565b602082019050919050565b60006020820190508181036000830152614211816141d5565b9050919050565b7f4f6e6c79204e465220636f6e74726163742063616e2063616c6c20746869732060008201527f66756e6374696f6e000000000000000000000000000000000000000000000000602082015250565b60006142746028836131c6565b915061427f82614218565b604082019050919050565b600060208201905081810360008301526142a381614267565b9050919050565b7f4e487b7100000000000000000000000000000000000000000000000000000000600052601260045260246000fd5b60006142e482613276565b91506142ef83613276565b9250826142ff576142fe6142aa565b5b828206905092915050565b7f4f776e61626c653a206e6577206f776e657220697320746865207a65726f206160008201527f6464726573730000000000000000000000000000000000000000000000000000602082015250565b60006143666026836131c6565b91506143718261430a565b604082019050919050565b6000602082019050818103600083015261439581614359565b9050919050565b7f4e487b7100000000000000000000000000000000000000000000000000000000600052601160045260246000fd5b60006143d682613276565b91506143e183613276565b9250828210156143f4576143f361439c565b5b828203905092915050565b7f4552433732313a206f70657261746f7220717565727920666f72206e6f6e657860008201527f697374656e7420746f6b656e0000000000000000000000000000000000000000602082015250565b600061445b602c836131c6565b9150614466826143ff565b604082019050919050565b6000602082019050818103600083015261448a8161444e565b9050919050565b7f4552433732313a207472616e73666572206f6620746f6b656e2074686174206960008201527f73206e6f74206f776e0000000000000000000000000000000000000000000000602082015250565b60006144ed6029836131c6565b91506144f882614491565b604082019050919050565b6000602082019050818103600083015261451c816144e0565b9050919050565b7f4552433732313a207472616e7366657220746f20746865207a65726f2061646460008201527f7265737300000000000000000000000000000000000000000000000000000000602082015250565b600061457f6024836131c6565b915061458a82614523565b604082019050919050565b600060208201905081810360008301526145ae81614572565b9050919050565b60006145c082613276565b91506145cb83613276565b9250827fffffffffffffffffffffffffffffffffffffffffffffffffffffffffffffffff03821115614600576145ff61439c565b5b828201905092915050565b7f4552433732313a20617070726f766520746f2063616c6c657200000000000000600082015250565b60006146416019836131c6565b915061464c8261460b565b602082019050919050565b6000602082019050818103600083015261467081614634565b9050919050565b7f4552433732313a207472616e7366657220746f206e6f6e20455243373231526560008201527f63656976657220696d706c656d656e7465720000000000000000000000000000602082015250565b60006146d36032836131c6565b91506146de82614677565b604082019050919050565b60006020820190508181036000830152614702816146c6565b9050919050565b600061471482613276565b91507fffffffffffffffffffffffffffffffffffffffffffffffffffffffffffffffff8214156147475761474661439c565b5b600182019050919050565b600061475d82613276565b915061476883613276565b925082614778576147776142aa565b5b828204905092915050565b600061478e82613520565b915061479983613520565b9250828210156147ac576147ab61439c565b5b828203905092915050565b60006147c282613520565b915060ff8214156147d6576147d561439c565b5b600182019050919050565b7f536f6d657468696e672077656e742077726f6e672067657474696e672061207260008201527f616e646f6d206e756d6265720000000000000000000000000000000000000000602082015250565b600061483d602c836131c6565b9150614848826147e1565b604082019050919050565b6000602082019050818103600083015261486c81614830565b9050919050565b6000819050919050565b61488e61488982613276565b614873565b82525050565b60008160601b9050919050565b60006148ac82614894565b9050919050565b60006148be826148a1565b9050919050565b6148d66148d1826132f9565b6148b3565b82525050565b60006148e8828761487d565b6020820191506148f8828661487d565b602082019150614908828561487d565b60208201915061491882846148c5565b60148201915081905095945050505050565b600081519050919050565b600082825260208201905092915050565b60006149518261492a565b61495b8185614935565b935061496b8185602086016131d7565b6149748161320a565b840191505092915050565b6000608082019050614994600083018761330b565b6149a1602083018661330b565b6149ae60408301856133a1565b81810360608301526149c08184614946565b905095945050505050565b6000815190506149da8161312c565b92915050565b6000602082840312156149f6576149f56130f6565b5b6000614a04848285016149cb565b91505092915050565b7f4e487b7100000000000000000000000000000000000000000000000000000000600052603160045260246000fd5b7f4552433732313a206d696e7420746f20746865207a65726f2061646472657373600082015250565b6000614a726020836131c6565b9150614a7d82614a3c565b602082019050919050565b60006020820190508181036000830152614aa181614a65565b9050919050565b7f4552433732313a20746f6b656e20616c7265616479206d696e74656400000000600082015250565b6000614ade601c836131c6565b9150614ae982614aa8565b602082019050919050565b60006020820190508181036000830152614b0d81614ad1565b905091905056fea264697066735822122048e5cec0d77f4dea27c04aa77ce6fd4045633e986ad36f84ba331c6340ec393364736f6c63430008090033",
  "immutableReferences": {},
  "source": "pragma solidity ^0.8.0;\nimport \"@openzeppelin/contracts/token/ERC721/ERC721.sol\";\nimport \"@openzeppelin/contracts/token/ERC721/extensions/ERC721Enumerable.sol\";\nimport \"@openzeppelin/contracts/access/Ownable.sol\";\nimport \"@openzeppelin/contracts/utils/Counters.sol\";\nimport \"./NFRTypes.sol\";\nimport \"./MERGE.sol\";\n\ncontract RareRelics is ERC721Enumerable, Ownable {\n    using Counters for Counters.Counter;\n    Counters.Counter private _tokenIds;\n\n    enum SpellTypes{DEFEND, STEAL, SWAP, DUPLICATE, TRANSFORM}\n\n    struct Spell {\n        SpellTypes spellType;\n        uint8 numCardsAffected;\n        NFRTypes.Ranks rankAffected;\n    }\n\n    mapping(uint256 => Spell) public spells;\n\n    MERGE merge;\n    address NFRAddress;\n    bool NFRAddressSet;\n\n    address BlackMarketAddress;\n    bool BlackMarketAddressSet;\n\n    uint16[3][7][5] public SPELL_MINT_PERCENT_CHANCE = [\n        //  F        D            C               B            A           S          SS\n        //1 2 3    1 2 3     1    2    3     1    2   3     1  2  3     1  2  3    1  2  3\n        [[uint16(0),0,0], [uint16(0),0,0], [uint16(250), 100,75], [uint16(150), 75, 50], [uint16(75),50,35], [uint16(50),25,20], [uint16(25),15,5]], // defend\n        [[uint16(0),0,0], [uint16(0),0,0], [uint16(250), 100,75], [uint16(150), 75, 50], [uint16(75),50,35], [uint16(50),25,20], [uint16(25),15,5]], // steal\n        [[uint16(0),0,0], [uint16(0),0,0], [uint16(350), 100, 50], [uint16(250), 50, 30], [uint16(50),30,10], [uint16(39),20,5], [uint16(10),5,1]],  // swap\n        [[uint16(0),0,0], [uint16(0),0,0], [uint16(350), 100, 50], [uint16(250), 50, 30], [uint16(55),30,10], [uint16(40),20,15], [uint16(0),0,0]],  // duplicate\n        [[uint16(0),0,0], [uint16(0),0,0], [uint16(450), 150, 100], [uint16(125),65,25], [uint16(50),25,10], [uint16(0),0,0], [uint16(0),0,0]]      // transform\n    ];\n\n    uint256 private _nonce;\n\n    constructor(address _merge) ERC721(\"Rare Relics\", \"RARERELICS\"){\n        merge = MERGE(_merge);\n        NFRAddressSet = false;\n        BlackMarketAddressSet = false;\n    }\n\n    function setNFRAddress(address _NFRAddress) external onlyOwner {\n        require (NFRAddressSet == false, \"already set NFR contract address\");\n        NFRAddress = _NFRAddress;\n        NFRAddressSet = true;\n    }\n\n    function setBlackMarketAddress(address _BlackMarketAddress) external onlyOwner {\n        require (BlackMarketAddressSet == false, \"already set BlackMarket contract address\");\n        BlackMarketAddress = _BlackMarketAddress;\n        BlackMarketAddressSet = true;\n    }\n\n    function useSpell(uint tokenID) external {\n        require(BlackMarketAddressSet == true, \"BlackMarket contract address not set yet\");\n        require(msg.sender == BlackMarketAddress, \"Only BlackMarket contract can call this function\");\n        _burn(tokenID);\n    }\n\n    function mintFromPack(address to) external {\n        require(NFRAddressSet == true, \"NFR contract address not set yet\");\n        require(msg.sender == NFRAddress, \"Only NFR contract can call this function\");\n        uint percentageChance = random() % 1000;\n        Spell memory newSpell;\n        if (percentageChance < 350) {\n            newSpell = getRandomSpellAttributes(SpellTypes.DEFEND);\n        }\n        else if (percentageChance < 700){\n            newSpell = getRandomSpellAttributes(SpellTypes.STEAL);\n        }\n        else if (percentageChance < 950){\n            newSpell = getRandomSpellAttributes(SpellTypes.SWAP);\n        }\n        else if (percentageChance < 995){\n            newSpell = getRandomSpellAttributes(SpellTypes.DUPLICATE);\n        }\n        else {\n            newSpell = getRandomSpellAttributes(SpellTypes.TRANSFORM);\n        }\n        _tokenIds.increment();\n        spells[_tokenIds.current()] = newSpell;\n        _safeMint(to, _tokenIds.current());\n    }\n\n    function mintFromStore(SpellTypes spellType) external payable {\n        Spell memory newSpell;\n        if (spellType == SpellTypes.DEFEND) {\n            newSpell = getRandomSpellAttributes(SpellTypes.DEFEND);\n            merge.burn(_msgSender(),10000);\n        }\n        else if (spellType == SpellTypes.STEAL){\n            newSpell = getRandomSpellAttributes(SpellTypes.STEAL);\n            merge.burn(_msgSender(),10000);\n        }\n        else if (spellType == SpellTypes.SWAP){\n            newSpell = getRandomSpellAttributes(SpellTypes.SWAP);\n            merge.burn(_msgSender(),10000);\n        }\n        else if (spellType == SpellTypes.DUPLICATE){\n            newSpell = getRandomSpellAttributes(SpellTypes.DUPLICATE);\n            merge.burn(_msgSender(),10000);\n        }\n        else {\n            newSpell = getRandomSpellAttributes(SpellTypes.TRANSFORM);\n            merge.burn(_msgSender(),10000);\n        }\n        _tokenIds.increment();\n        spells[_tokenIds.current()] = newSpell;\n        _safeMint(_msgSender(), _tokenIds.current());\n    }\n\n    function getRandomSpellAttributes(SpellTypes spellType) internal returns(Spell memory) {\n        uint randomPercentage = random() % 1000;\n        for (uint8 rankAffected = 0; rankAffected <= uint8(NFRTypes.Ranks.SS); rankAffected++) {\n            for (uint8 numCardsAffected = 1; numCardsAffected <= 3; numCardsAffected++ ) { // up to 3 num cards affected\n                if (randomPercentage < SPELL_MINT_PERCENT_CHANCE[uint8(spellType)][rankAffected][numCardsAffected-1]) {\n                   return Spell({\n                        spellType: spellType,\n                        numCardsAffected: numCardsAffected,\n                        rankAffected: NFRTypes.Ranks(1) // TODO: change back to rankAffected\n                   });\n                }\n                randomPercentage -= SPELL_MINT_PERCENT_CHANCE[uint8(spellType)][rankAffected][numCardsAffected-1];\n            }\n        }\n        revert('Something went wrong getting a random number');\n    }\n\n    function random() internal returns(uint){\n        _nonce += 1;\n        return uint(keccak256(abi.encodePacked(block.difficulty, block.timestamp, _nonce, _msgSender())));\n    }\n}\n",
  "sourcePath": "/home/prateek/NFR/onchain/contracts/RareRelics.sol",
  "compiler": {
    "name": "solc",
    "version": "0.8.9+commit.e5eed63a.Emscripten.clang"
  },
  "schemaVersion": "3.4.3",
  "updatedAt": "2022-07-26T23:10:17.210Z",
  "networkType": "ethereum",
  "devdoc": {
    "kind": "dev",
    "methods": {
      "approve(address,uint256)": {
        "details": "See {IERC721-approve}."
      },
      "balanceOf(address)": {
        "details": "See {IERC721-balanceOf}."
      },
      "getApproved(uint256)": {
        "details": "See {IERC721-getApproved}."
      },
      "isApprovedForAll(address,address)": {
        "details": "See {IERC721-isApprovedForAll}."
      },
      "name()": {
        "details": "See {IERC721Metadata-name}."
      },
      "owner()": {
        "details": "Returns the address of the current owner."
      },
      "ownerOf(uint256)": {
        "details": "See {IERC721-ownerOf}."
      },
      "renounceOwnership()": {
        "details": "Leaves the contract without owner. It will not be possible to call `onlyOwner` functions anymore. Can only be called by the current owner. NOTE: Renouncing ownership will leave the contract without an owner, thereby removing any functionality that is only available to the owner."
      },
      "safeTransferFrom(address,address,uint256)": {
        "details": "See {IERC721-safeTransferFrom}."
      },
      "safeTransferFrom(address,address,uint256,bytes)": {
        "details": "See {IERC721-safeTransferFrom}."
      },
      "setApprovalForAll(address,bool)": {
        "details": "See {IERC721-setApprovalForAll}."
      },
      "supportsInterface(bytes4)": {
        "details": "See {IERC165-supportsInterface}."
      },
      "symbol()": {
        "details": "See {IERC721Metadata-symbol}."
      },
      "tokenByIndex(uint256)": {
        "details": "See {IERC721Enumerable-tokenByIndex}."
      },
      "tokenOfOwnerByIndex(address,uint256)": {
        "details": "See {IERC721Enumerable-tokenOfOwnerByIndex}."
      },
      "tokenURI(uint256)": {
        "details": "See {IERC721Metadata-tokenURI}."
      },
      "totalSupply()": {
        "details": "See {IERC721Enumerable-totalSupply}."
      },
      "transferFrom(address,address,uint256)": {
        "details": "See {IERC721-transferFrom}."
      },
      "transferOwnership(address)": {
        "details": "Transfers ownership of the contract to a new account (`newOwner`). Can only be called by the current owner."
      }
    },
    "version": 1
  },
  "userdoc": {
    "kind": "user",
    "methods": {},
    "version": 1
  }
}