{
  "contractName": "Verifier",
  "abi": [
    {
      "inputs": [
        {
          "components": [
            {
              "components": [
                {
                  "internalType": "uint256",
                  "name": "X",
                  "type": "uint256"
                },
                {
                  "internalType": "uint256",
                  "name": "Y",
                  "type": "uint256"
                }
              ],
              "internalType": "struct Pairing.G1Point",
              "name": "a",
              "type": "tuple"
            },
            {
              "components": [
                {
                  "internalType": "uint256[2]",
                  "name": "X",
                  "type": "uint256[2]"
                },
                {
                  "internalType": "uint256[2]",
                  "name": "Y",
                  "type": "uint256[2]"
                }
              ],
              "internalType": "struct Pairing.G2Point",
              "name": "b",
              "type": "tuple"
            },
            {
              "components": [
                {
                  "internalType": "uint256",
                  "name": "X",
                  "type": "uint256"
                },
                {
                  "internalType": "uint256",
                  "name": "Y",
                  "type": "uint256"
                }
              ],
              "internalType": "struct Pairing.G1Point",
              "name": "c",
              "type": "tuple"
            }
          ],
          "internalType": "struct Verifier.Proof",
          "name": "proof",
          "type": "tuple"
        },
        {
          "internalType": "uint256[40]",
          "name": "input",
          "type": "uint256[40]"
        }
      ],
      "name": "verifyTx",
      "outputs": [
        {
          "internalType": "bool",
          "name": "r",
          "type": "bool"
        }
      ],
      "stateMutability": "view",
      "type": "function",
      "constant": true
    }
  ],
  "bytecode": "0x608060405234801561001057600080fd5b5061273e806100206000396000f3fe608060405234801561001057600080fd5b506004361061002b5760003560e01c8063582c790614610030575b600080fd5b61004a600480360381019061004591906124a5565b610060565b6040516100579190612502565b60405180910390f35b600080602867ffffffffffffffff81111561007e5761007d612183565b5b6040519080825280602002602001820160405280156100ac5781602001602082028036833780820191505090505b50905060005b6028811015610105578381602881106100ce576100cd61251d565b5b60200201518282815181106100e6576100e561251d565b5b60200260200101818152505080806100fd9061257b565b9150506100b2565b506000610112828661012e565b1415610122576001915050610128565b60009150505b92915050565b6000807f30644e72e131a029b85045b68181585d2833e84879b9709143e1f593f00000019050600061015e6102c5565b90508060800151516001865161017491906125c4565b1461017e57600080fd5b60006040518060400160405280600081526020016000815250905060005b865181101561023757838782815181106101b9576101b861251d565b5b6020026020010151106101cb57600080fd5b6102228261021d85608001516001856101e491906125c4565b815181106101f5576101f461251d565b5b60200260200101518a85815181106102105761020f61251d565b5b602002602001015161190e565b6119b5565b9150808061022f9061257b565b91505061019c565b506102618183608001516000815181106102545761025361251d565b5b60200260200101516119b5565b90506102a78560000151866020015161027984611a82565b856040015161028b8a60400151611a82565b876060015161029d8960000151611a82565b8960200151611b27565b6102b757600193505050506102bf565b600093505050505b92915050565b6102cd61204f565b60405180604001604052807f0c46c02f2fbdc9c7cd15261a21b54d042e7bfb5c790e56565880ced6dac3250181526020017f20d5b3e52fd1aadf7fab4df611ef7f339c7b91ef8bf49ead7bfd42079819426d8152508160000181905250604051806040016040528060405180604001604052807f23158db97bff1282c7920406583f3def1205c1766e59104c6f327de34615f4aa81526020017f2968e2d8bed65d7fe9169870fb12810d9baac9c0985235b4073d557a0b9d0c5f815250815260200160405180604001604052807e62ad797cd8c0b12efa92943f4462ea01995c614beb8159acf3442bc3f6c4de81526020017f11ba39c03c5474a09b776dcae292606cc94cf7972f76a54b23c3e2a6b33779c88152508152508160200181905250604051806040016040528060405180604001604052807f185d1e448eab424159c6b7f91968543e1f50c54c877d433056946b40b88bc39281526020017f021a13c6fd0c549e0eeac86a0f08fe8d5dbe312046b0843a100a34260c8c7f45815250815260200160405180604001604052807f0fb12cf0b384f2a890493f2b96676d54a0401811447efa72b488924f71fa4b7881526020017f0f64931226225f3935cffff58256c48c6f6d3616fe2e518fe2fc11ddc2c7b9528152508152508160400181905250604051806040016040528060405180604001604052807f092b2ebe549dec9e3f4be90a0c0d40ba0deeeae7b5f21471478f511a19a3e93081526020017f20024edda3f867fac83a313ce42df4e3f721d47f621e2a70e203be76ac12e929815250815260200160405180604001604052807f28bf41d4aa9bc88ef2141d48b6087b7897bd65c59c226f3f4b5b043aa4b4687681526020017f2512e84d3345a2a0fb1c43fba20ef28647b5a695bedc0e88dfe862a3437bb7f28152508152508160600181905250602967ffffffffffffffff81111561059357610592612183565b5b6040519080825280602002602001820160405280156105cc57816020015b6105b9612096565b8152602001906001900390816105b15790505b50816080018190525060405180604001604052807f02839f87bb97741c36e8be54752079173238f2786b3794cc924845e43531d1bc81526020017f0909f10924760b3ebea8908d3ef64d52ea021ae473465a780a9ba81dec08999e81525081608001516000815181106106425761064161251d565b5b602002602001018190525060405180604001604052807f139091ad73832c08341559617608e01fe06e2103fd9f744b6580bdeea5c6e3d281526020017f03d29d1f3522ec3f93184daf484446c35283a3266fd41b55d9789cbfa7e3c3b381525081608001516001815181106106ba576106b961251d565b5b602002602001018190525060405180604001604052807f0df77c7692725819d7a05f692e042b91b209c2dae9919395f2d811f3163fce3881526020017f2782ca95e2fe7fb7f0d8126d4a220937d980510e79124bb0d2ebaf81344abef081525081608001516002815181106107325761073161251d565b5b602002602001018190525060405180604001604052807f1de80e2427395d81b5ae84c729540ed4c40a2e66abe77956bda29c274f27728a81526020017f265addb8effb0c3f69395c229a8f70c6dc0c4ef628761ff968e49edc95ceb0c281525081608001516003815181106107aa576107a961251d565b5b602002602001018190525060405180604001604052807f0f461300ac21408f117e9639db1e2b1b12a9287127809e0b716cddb2a90f1bed81526020017f0100b4344b1583d5f5046e320ad0797303cb5bda0f5344718bf01a09dc18b9be81525081608001516004815181106108225761082161251d565b5b602002602001018190525060405180604001604052807f1a758429ea02f225f4966b9d36df022c6e2bed6f936dd42c4f1a781d9baeb3e081526020017ea5b0895fdbd4a960c94f1418d2cee34cb4b12ec6a76e4d47e8a8c5205c156081525081608001516005815181106108995761089861251d565b5b602002602001018190525060405180604001604052807f277ebc8ba0c165cfd2900f172c1b540cf087efea41ff84c34e04225cd34aa93781526020017f265b69a5870fcccb597af1164155b71cf1c92bd6a11f8d207bd1d74d7f99beec81525081608001516006815181106109115761091061251d565b5b602002602001018190525060405180604001604052807f2aa554aae339280fbd9e27be74c32f1f091dc73a2929aeebee7da430098be54081526020017f2e56170399e18f4136493bb3bcd8c4170232dd9459d469e6067149d786362ad381525081608001516007815181106109895761098861251d565b5b602002602001018190525060405180604001604052807f23ed1bc77ed684af668c69911520285371be63e185e410046dc2ec380a1978fd81526020017f1eda8fc98683dcc3f9bd024977f688e08e0d07ac37d1633c654fd707b2ec42ac8152508160800151600881518110610a0157610a0061251d565b5b602002602001018190525060405180604001604052807f2a82df9d1b2431f4d9879b5a2a3bece6e890665ac99419a34da62bcf34fde2d981526020017f2ce7003a90c2836ffc19a32d8adcf97871f9d2d4c8ad30d039a0fb34596d8aa58152508160800151600981518110610a7957610a7861251d565b5b602002602001018190525060405180604001604052807f283b3ca4f3524ab11a9c8079f2993f80656e21c42a2f88f9332cf1ee73c131a281526020017f1f994ece4620ec536d1f2e29ddb7dda44b71472af5cbc1f8d54b5f44a980cba78152508160800151600a81518110610af157610af061251d565b5b602002602001018190525060405180604001604052807f0ab1d8eb929fcd2cbe391ef48cbca56c6829621b9d450f9a07dde32937b1b5c181526020017f2a3a44f7e6c4572a0d728984807774f112ecd0881d8531e31d1e65a78a1ac4758152508160800151600b81518110610b6957610b6861251d565b5b602002602001018190525060405180604001604052807f0f70aff8ec36dfb27b4fc35eee8fbf86e05f21df395ef747869ba579b45c714581526020017f03d7f5980a708ccd02997410332c8e213eee460ea318923156a71c30125e2abd8152508160800151600c81518110610be157610be061251d565b5b602002602001018190525060405180604001604052807f1951e5df99b7ed9181a26dec5a6b31515ffa5a443c55e887291c35fd0b4135e981526020017f1569e779adf4fedba43b3f3a8a57297352948aed20a4f279faf5e5b8f79392018152508160800151600d81518110610c5957610c5861251d565b5b602002602001018190525060405180604001604052807f02c15023abd6032d1b3a3de318bd650bcc879ee2951df3f6a66666fd0adc885381526020017f09d72e4598f222a68d8d11f8e73559aab93932ef3d61b48c8c4d0cdb54bdf4708152508160800151600e81518110610cd157610cd061251d565b5b602002602001018190525060405180604001604052807f0763744bd020d2743e2ed7cf79d76388f605dddf2fa39efe0a40f4971855cc3481526020017f0f051a84fac83fb370cb4d92992aee69d607d1cba6ceec9a8567704870d8b4498152508160800151600f81518110610d4957610d4861251d565b5b602002602001018190525060405180604001604052807f2f7dfdc731874e7d403fd72db2a89f2dd1a096d3cca15d19e44f9e0da19c6cc281526020017f17b03087546fa851d0bed2a243805d3dec7aa4686dd3df32d6f48676a5b0fc4e8152508160800151601081518110610dc157610dc061251d565b5b602002602001018190525060405180604001604052807f2c7548f4fd8e171c186a9d2079fc4c518d50656679cbdee56a06e25af1e4acf681526020017f0de9b7896b9ce64c67305214729953433c61ee5ee888b0bac3976681659feb4c8152508160800151601181518110610e3957610e3861251d565b5b602002602001018190525060405180604001604052807f303ff3117f6a5ab46d6d8ce1f8ea5fbc7dad5084a60aa6ae3f903c2dc47fb46f81526020017f0ca55f7c2ea8b09884f5f7646fb524248475a087d09c3d23fd60e8319602be7b8152508160800151601281518110610eb157610eb061251d565b5b602002602001018190525060405180604001604052807f2b86a1dc4f82b78941b0fd7e1ad6d40e1e2a9ef67dd8ad87decfdc484343620781526020017f0b9453c5322cc64c4c610df127b106675b4fc176899d9d0b124cb03030d8f5b38152508160800151601381518110610f2957610f2861251d565b5b602002602001018190525060405180604001604052807f0a5cf66a82082d3431c9e41f3f6e44a545935d7f8d6b5972f89d8515ed01948d81526020017f2935396c29e4ebff4e27be03c136f05c163b32034300dacf38e34ce110bcc1778152508160800151601481518110610fa157610fa061251d565b5b602002602001018190525060405180604001604052807f2777482054ecf13ab7d7d28f3df4deffc7770042191015dad25f226cfa56f9ef81526020017f03fb853ce29c7e0073b697e033262bb023bbe31414f90c83158d704fc0c5522d81525081608001516015815181106110195761101861251d565b5b602002602001018190525060405180604001604052807f0bbe27002a00a780ab95ebe39ced7cea5292f281c924097de732ea27ece3f56c81526020017f06210e48f5e3e4abac677486c442cae3e2ce69a0d8ab3e8ceb0df0034352d3b781525081608001516016815181106110915761109061251d565b5b602002602001018190525060405180604001604052807f1b4b98b5950f2932873ee79636311268b45d1f1dc59b036bcd3de49add37ab3f81526020017f03dc8322d383ee8b080d8ae9c58f8d655a8a6b14b98f56170e6eb39921211cf381525081608001516017815181106111095761110861251d565b5b602002602001018190525060405180604001604052807f094907ba7e83fb2cd2281e6605c213d2560c0002d673b366f423b3585dc0dbfc81526020017f16c57b502233c41beb9123df34927895d0500f5d8ae59ae0cce363bb0c1e873981525081608001516018815181106111815761118061251d565b5b602002602001018190525060405180604001604052807f1efca27e1e576b2cce269ba566d21442352dbaf8b7aba4b9965f030cf452decc81526020017f185c31da9c14cd463ca7b011078b0c69374b17e056bdc627828ae6cf673dd7c281525081608001516019815181106111f9576111f861251d565b5b602002602001018190525060405180604001604052807f218d60ad2a93b35f2017dd41a4ba6c0e1a95e1812e4c029dc4ec656ba229dbf181526020017f0e87a5320005d00fc1c19339efaa6cc7b7177db499fa6d547c154482e096c3a08152508160800151601a815181106112715761127061251d565b5b602002602001018190525060405180604001604052807f2a17946429765bdd530e2c84a43d19d685c3d5779a31f17a1a8ba3fd96e6caa881526020017f0352090b3b8bf0d8a79da77a56b2ea8f42ab230650ec5cd6ebb2c1f21ca01f288152508160800151601b815181106112e9576112e861251d565b5b602002602001018190525060405180604001604052807f14ff2946c41b41b2d1d691d2a38e52b3d3935e97919c2f0b36a85469bd7c035881526020017f1b3a76372e309439e324777916715cef28a5090dd9ed00f57f11a6f2b456ae788152508160800151601c815181106113615761136061251d565b5b602002602001018190525060405180604001604052807f0f99c13453cbd4bcc868b9461f1edb04c710f7ed1f6bf78e84d929d36d63cfce81526020017f063eb7aafe4379a2bde4c7b9475b91d2d687d761f92135ff5992afef39350efd8152508160800151601d815181106113d9576113d861251d565b5b602002602001018190525060405180604001604052807f171ab8098ad70eee142033405174162940e5a1b06a6d639c289467513234189181526020017f119a981f95dbc2c1e1f0ed21a1a6a5519edb6e21d6f860f8b2ca6afc57179ca68152508160800151601e815181106114515761145061251d565b5b602002602001018190525060405180604001604052807f1ab4541d18ea05c33270f65dcb624b81e07ef01851c8dca47f36cd4d5560816081526020017f239411b5b4f377b7bc453d84416a91ba6d617554142b4ae0a197172c30e228108152508160800151601f815181106114c9576114c861251d565b5b602002602001018190525060405180604001604052807f01d38f93722a6a825d77f9cac380c99c9884fbbf7ec9a576150a4496ab0ba4e981526020017f26fe32630ccfc1793ca0ef118bcc367c49bd3d2d76f27ab35e3ee445bfd4ce7681525081608001516020815181106115415761154061251d565b5b602002602001018190525060405180604001604052807f2c33da4373779716342ad679e0322d59f50c7b2d848d9753c60b5f45c307665c81526020017f18b47cc007a1865e6937625d63474b30004ca077149b72f6cfbbbafc4d9aae9381525081608001516021815181106115b9576115b861251d565b5b602002602001018190525060405180604001604052807f24000e081a987d288a9ce00a84e988e91818d2ca6e2cc84d4e904709f010eb1481526020017f0dc494d8f054176b60df9f62c3f56c2a878a04f64b275f929a9b4ed7c6d9a76681525081608001516022815181106116315761163061251d565b5b602002602001018190525060405180604001604052807f1d23a68ac447394cbe8afa24f8fef35798c640741eaed16ace3f36d06dea6cae81526020017f189925a465dd5e6398c4788f9be004d9b091c51602ba7552a13d2eac82b6349a81525081608001516023815181106116a9576116a861251d565b5b602002602001018190525060405180604001604052807f017d1340c2496d10262ba04953fc0f76a19f0d7cde79d3664b5204e922924d9881526020017f2a06bf0db8a744a1a7b559757386054d365522ffde269e4648d334c240a3846481525081608001516024815181106117215761172061251d565b5b602002602001018190525060405180604001604052807f1b24b366b2fc5de41cae4be89d4929fda8af640c24e4689ccbc8c5f2724b922581526020017f15579b0a4c8342eb1a16c5daa79a216fccb83e82fd4c59871f0a54c57d38b6e281525081608001516025815181106117995761179861251d565b5b602002602001018190525060405180604001604052807f2ac5b4cc14ac752ea4c22d7a8a64984c79f36cbfc9987d19d82e8bbf292c74b981526020017e8d561ae461588999c4f6a3edb7be9fa2beeae81293560437872e303dae01d581525081608001516026815181106118105761180f61251d565b5b602002602001018190525060405180604001604052807f18d08dcc2db44165eef7490bd1c6e66127932365391a7efdf802227404efbce881526020017f091cf3380c2d71a48009b861b082465b777feb1aa2fcecb2bde0d113e470d7e381525081608001516027815181106118885761188761251d565b5b602002602001018190525060405180604001604052807f188a57f2a100fe58d5e3d594ef2ae19db7a237dc6dabc78a76c251eeaa97f20381526020017f2db39551c3a3ec7364523d79a45dbec27088f2e647cac8f5400431997a8bd33c8152508160800151602881518110611900576118ff61251d565b5b602002602001018190525090565b611916612096565b61191e6120b0565b8360000151816000600381106119375761193661251d565b5b6020020181815250508360200151816001600381106119595761195861251d565b5b60200201818152505082816002600381106119775761197661251d565b5b602002018181525050600060608360808460076107d05a03fa905080600081146119a0576119a2565bfe5b50806119ad57600080fd5b505092915050565b6119bd612096565b6119c56120d2565b8360000151816000600481106119de576119dd61251d565b5b602002018181525050836020015181600160048110611a00576119ff61251d565b5b602002018181525050826000015181600260048110611a2257611a2161251d565b5b602002018181525050826020015181600360048110611a4457611a4361251d565b5b602002018181525050600060608360c08460066107d05a03fa90508060008114611a6d57611a6f565bfe5b5080611a7a57600080fd5b505092915050565b611a8a612096565b60007f30644e72e131a029b85045b68181585d97816a916871ca8d3c208c16d87cfd47905060008360000151148015611ac7575060008360200151145b15611aeb576040518060400160405280600081526020016000815250915050611b22565b604051806040016040528084600001518152602001828560200151611b109190612649565b83611b1b919061267a565b8152509150505b919050565b600080600467ffffffffffffffff811115611b4557611b44612183565b5b604051908082528060200260200182016040528015611b7e57816020015b611b6b612096565b815260200190600190039081611b635790505b5090506000600467ffffffffffffffff811115611b9e57611b9d612183565b5b604051908082528060200260200182016040528015611bd757816020015b611bc46120f4565b815260200190600190039081611bbc5790505b5090508a82600081518110611bef57611bee61251d565b5b60200260200101819052508882600181518110611c0f57611c0e61251d565b5b60200260200101819052508682600281518110611c2f57611c2e61251d565b5b60200260200101819052508482600381518110611c4f57611c4e61251d565b5b60200260200101819052508981600081518110611c6f57611c6e61251d565b5b60200260200101819052508781600181518110611c8f57611c8e61251d565b5b60200260200101819052508581600281518110611caf57611cae61251d565b5b60200260200101819052508381600381518110611ccf57611cce61251d565b5b6020026020010181905250611ce48282611cf4565b9250505098975050505050505050565b60008151835114611d0457600080fd5b6000835190506000600682611d1991906126ae565b905060008167ffffffffffffffff811115611d3757611d36612183565b5b604051908082528060200260200182016040528015611d655781602001602082028036833780820191505090505b50905060005b83811015611fea57868181518110611d8657611d8561251d565b5b602002602001015160000151826000600684611da291906126ae565b611dac91906125c4565b81518110611dbd57611dbc61251d565b5b602002602001018181525050868181518110611ddc57611ddb61251d565b5b602002602001015160200151826001600684611df891906126ae565b611e0291906125c4565b81518110611e1357611e1261251d565b5b602002602001018181525050858181518110611e3257611e3161251d565b5b602002602001015160000151600160028110611e5157611e5061251d565b5b6020020151826002600684611e6691906126ae565b611e7091906125c4565b81518110611e8157611e8061251d565b5b602002602001018181525050858181518110611ea057611e9f61251d565b5b602002602001015160000151600060028110611ebf57611ebe61251d565b5b6020020151826003600684611ed491906126ae565b611ede91906125c4565b81518110611eef57611eee61251d565b5b602002602001018181525050858181518110611f0e57611f0d61251d565b5b602002602001015160200151600160028110611f2d57611f2c61251d565b5b6020020151826004600684611f4291906126ae565b611f4c91906125c4565b81518110611f5d57611f5c61251d565b5b602002602001018181525050858181518110611f7c57611f7b61251d565b5b602002602001015160200151600060028110611f9b57611f9a61251d565b5b6020020151826005600684611fb091906126ae565b611fba91906125c4565b81518110611fcb57611fca61251d565b5b6020026020010181815250508080611fe29061257b565b915050611d6b565b50611ff361211a565b6000602082602086026020860160086107d05a03fa905080600081146120185761201a565bfe5b508061202557600080fd5b60008260006001811061203b5761203a61251d565b5b602002015114159550505050505092915050565b6040518060a00160405280612062612096565b815260200161206f6120f4565b815260200161207c6120f4565b81526020016120896120f4565b8152602001606081525090565b604051806040016040528060008152602001600081525090565b6040518060600160405280600390602082028036833780820191505090505090565b6040518060800160405280600490602082028036833780820191505090505090565b604051806040016040528061210761213c565b815260200161211461213c565b81525090565b6040518060200160405280600190602082028036833780820191505090505090565b6040518060400160405280600290602082028036833780820191505090505090565b6000604051905090565b600080fd5b600080fd5b6000601f19601f8301169050919050565b7f4e487b7100000000000000000000000000000000000000000000000000000000600052604160045260246000fd5b6121bb82612172565b810181811067ffffffffffffffff821117156121da576121d9612183565b5b80604052505050565b60006121ed61215e565b90506121f982826121b2565b919050565b6000819050919050565b612211816121fe565b811461221c57600080fd5b50565b60008135905061222e81612208565b92915050565b60006040828403121561224a5761224961216d565b5b61225460406121e3565b905060006122648482850161221f565b60008301525060206122788482850161221f565b60208301525092915050565b600080fd5b600067ffffffffffffffff8211156122a4576122a3612183565b5b602082029050919050565b600080fd5b60006122c76122c284612289565b6121e3565b905080602084028301858111156122e1576122e06122af565b5b835b8181101561230a57806122f6888261221f565b8452602084019350506020810190506122e3565b5050509392505050565b600082601f83011261232957612328612284565b5b60026123368482856122b4565b91505092915050565b6000608082840312156123555761235461216d565b5b61235f60406121e3565b9050600061236f84828501612314565b600083015250604061238384828501612314565b60208301525092915050565b600061010082840312156123a6576123a561216d565b5b6123b060606121e3565b905060006123c084828501612234565b60008301525060406123d48482850161233f565b60208301525060c06123e884828501612234565b60408301525092915050565b600067ffffffffffffffff82111561240f5761240e612183565b5b602082029050919050565b600061242d612428846123f4565b6121e3565b90508060208402830185811115612447576124466122af565b5b835b81811015612470578061245c888261221f565b845260208401935050602081019050612449565b5050509392505050565b600082601f83011261248f5761248e612284565b5b602861249c84828561241a565b91505092915050565b60008061060083850312156124bd576124bc612168565b5b60006124cb8582860161238f565b9250506101006124dd8582860161247a565b9150509250929050565b60008115159050919050565b6124fc816124e7565b82525050565b600060208201905061251760008301846124f3565b92915050565b7f4e487b7100000000000000000000000000000000000000000000000000000000600052603260045260246000fd5b7f4e487b7100000000000000000000000000000000000000000000000000000000600052601160045260246000fd5b6000612586826121fe565b91507fffffffffffffffffffffffffffffffffffffffffffffffffffffffffffffffff8214156125b9576125b861254c565b5b600182019050919050565b60006125cf826121fe565b91506125da836121fe565b9250827fffffffffffffffffffffffffffffffffffffffffffffffffffffffffffffffff0382111561260f5761260e61254c565b5b828201905092915050565b7f4e487b7100000000000000000000000000000000000000000000000000000000600052601260045260246000fd5b6000612654826121fe565b915061265f836121fe565b92508261266f5761266e61261a565b5b828206905092915050565b6000612685826121fe565b9150612690836121fe565b9250828210156126a3576126a261254c565b5b828203905092915050565b60006126b9826121fe565b91506126c4836121fe565b9250817fffffffffffffffffffffffffffffffffffffffffffffffffffffffffffffffff04831182151516156126fd576126fc61254c565b5b82820290509291505056fea26469706673582212200d42e778b6cd21d1609302cee0152ffd8c6e46e0d4336d6c8de9c1799cac26ba64736f6c63430008090033",
  "immutableReferences": {},
  "source": "// This file is MIT Licensed.\n//\n// Copyright 2017 Christian Reitwiessner\n// Permission is hereby granted, free of charge, to any person obtaining a copy of this software and associated documentation files (the \"Software\"), to deal in the Software without restriction, including without limitation the rights to use, copy, modify, merge, publish, distribute, sublicense, and/or sell copies of the Software, and to permit persons to whom the Software is furnished to do so, subject to the following conditions:\n// The above copyright notice and this permission notice shall be included in all copies or substantial portions of the Software.\n// THE SOFTWARE IS PROVIDED \"AS IS\", WITHOUT WARRANTY OF ANY KIND, EXPRESS OR IMPLIED, INCLUDING BUT NOT LIMITED TO THE WARRANTIES OF MERCHANTABILITY, FITNESS FOR A PARTICULAR PURPOSE AND NONINFRINGEMENT. IN NO EVENT SHALL THE AUTHORS OR COPYRIGHT HOLDERS BE LIABLE FOR ANY CLAIM, DAMAGES OR OTHER LIABILITY, WHETHER IN AN ACTION OF CONTRACT, TORT OR OTHERWISE, ARISING FROM, OUT OF OR IN CONNECTION WITH THE SOFTWARE OR THE USE OR OTHER DEALINGS IN THE SOFTWARE.\npragma solidity ^0.8.0;\nlibrary Pairing {\n    struct G1Point {\n        uint X;\n        uint Y;\n    }\n    // Encoding of field elements is: X[0] * z + X[1]\n    struct G2Point {\n        uint[2] X;\n        uint[2] Y;\n    }\n    /// @return the generator of G1\n    function P1() pure internal returns (G1Point memory) {\n        return G1Point(1, 2);\n    }\n    /// @return the generator of G2\n    function P2() pure internal returns (G2Point memory) {\n        return G2Point(\n            [10857046999023057135944570762232829481370756359578518086990519993285655852781,\n             11559732032986387107991004021392285783925812861821192530917403151452391805634],\n            [8495653923123431417604973247489272438418190587263600148770280649306958101930,\n             4082367875863433681332203403145435568316851327593401208105741076214120093531]\n        );\n    }\n    /// @return the negation of p, i.e. p.addition(p.negate()) should be zero.\n    function negate(G1Point memory p) pure internal returns (G1Point memory) {\n        // The prime q in the base field F_q for G1\n        uint q = 21888242871839275222246405745257275088696311157297823662689037894645226208583;\n        if (p.X == 0 && p.Y == 0)\n            return G1Point(0, 0);\n        return G1Point(p.X, q - (p.Y % q));\n    }\n    /// @return r the sum of two points of G1\n    function addition(G1Point memory p1, G1Point memory p2) internal view returns (G1Point memory r) {\n        uint[4] memory input;\n        input[0] = p1.X;\n        input[1] = p1.Y;\n        input[2] = p2.X;\n        input[3] = p2.Y;\n        bool success;\n        assembly {\n            success := staticcall(sub(gas(), 2000), 6, input, 0xc0, r, 0x60)\n            // Use \"invalid\" to make gas estimation work\n            switch success case 0 { invalid() }\n        }\n        require(success);\n    }\n\n\n    /// @return r the product of a point on G1 and a scalar, i.e.\n    /// p == p.scalar_mul(1) and p.addition(p) == p.scalar_mul(2) for all points p.\n    function scalar_mul(G1Point memory p, uint s) internal view returns (G1Point memory r) {\n        uint[3] memory input;\n        input[0] = p.X;\n        input[1] = p.Y;\n        input[2] = s;\n        bool success;\n        assembly {\n            success := staticcall(sub(gas(), 2000), 7, input, 0x80, r, 0x60)\n            // Use \"invalid\" to make gas estimation work\n            switch success case 0 { invalid() }\n        }\n        require (success);\n    }\n    /// @return the result of computing the pairing check\n    /// e(p1[0], p2[0]) *  .... * e(p1[n], p2[n]) == 1\n    /// For example pairing([P1(), P1().negate()], [P2(), P2()]) should\n    /// return true.\n    function pairing(G1Point[] memory p1, G2Point[] memory p2) internal view returns (bool) {\n        require(p1.length == p2.length);\n        uint elements = p1.length;\n        uint inputSize = elements * 6;\n        uint[] memory input = new uint[](inputSize);\n        for (uint i = 0; i < elements; i++)\n        {\n            input[i * 6 + 0] = p1[i].X;\n            input[i * 6 + 1] = p1[i].Y;\n            input[i * 6 + 2] = p2[i].X[1];\n            input[i * 6 + 3] = p2[i].X[0];\n            input[i * 6 + 4] = p2[i].Y[1];\n            input[i * 6 + 5] = p2[i].Y[0];\n        }\n        uint[1] memory out;\n        bool success;\n        assembly {\n            success := staticcall(sub(gas(), 2000), 8, add(input, 0x20), mul(inputSize, 0x20), out, 0x20)\n            // Use \"invalid\" to make gas estimation work\n            switch success case 0 { invalid() }\n        }\n        require(success);\n        return out[0] != 0;\n    }\n    /// Convenience method for a pairing check for two pairs.\n    function pairingProd2(G1Point memory a1, G2Point memory a2, G1Point memory b1, G2Point memory b2) internal view returns (bool) {\n        G1Point[] memory p1 = new G1Point[](2);\n        G2Point[] memory p2 = new G2Point[](2);\n        p1[0] = a1;\n        p1[1] = b1;\n        p2[0] = a2;\n        p2[1] = b2;\n        return pairing(p1, p2);\n    }\n    /// Convenience method for a pairing check for three pairs.\n    function pairingProd3(\n            G1Point memory a1, G2Point memory a2,\n            G1Point memory b1, G2Point memory b2,\n            G1Point memory c1, G2Point memory c2\n    ) internal view returns (bool) {\n        G1Point[] memory p1 = new G1Point[](3);\n        G2Point[] memory p2 = new G2Point[](3);\n        p1[0] = a1;\n        p1[1] = b1;\n        p1[2] = c1;\n        p2[0] = a2;\n        p2[1] = b2;\n        p2[2] = c2;\n        return pairing(p1, p2);\n    }\n    /// Convenience method for a pairing check for four pairs.\n    function pairingProd4(\n            G1Point memory a1, G2Point memory a2,\n            G1Point memory b1, G2Point memory b2,\n            G1Point memory c1, G2Point memory c2,\n            G1Point memory d1, G2Point memory d2\n    ) internal view returns (bool) {\n        G1Point[] memory p1 = new G1Point[](4);\n        G2Point[] memory p2 = new G2Point[](4);\n        p1[0] = a1;\n        p1[1] = b1;\n        p1[2] = c1;\n        p1[3] = d1;\n        p2[0] = a2;\n        p2[1] = b2;\n        p2[2] = c2;\n        p2[3] = d2;\n        return pairing(p1, p2);\n    }\n}\n\ncontract Verifier {\n    using Pairing for *;\n    struct VerifyingKey {\n        Pairing.G1Point alpha;\n        Pairing.G2Point beta;\n        Pairing.G2Point gamma;\n        Pairing.G2Point delta;\n        Pairing.G1Point[] gamma_abc;\n    }\n    struct Proof {\n        Pairing.G1Point a;\n        Pairing.G2Point b;\n        Pairing.G1Point c;\n    }\n    function verifyingKey() pure internal returns (VerifyingKey memory vk) {\n        vk.alpha = Pairing.G1Point(uint256(0x0c46c02f2fbdc9c7cd15261a21b54d042e7bfb5c790e56565880ced6dac32501), uint256(0x20d5b3e52fd1aadf7fab4df611ef7f339c7b91ef8bf49ead7bfd42079819426d));\n        vk.beta = Pairing.G2Point([uint256(0x23158db97bff1282c7920406583f3def1205c1766e59104c6f327de34615f4aa), uint256(0x2968e2d8bed65d7fe9169870fb12810d9baac9c0985235b4073d557a0b9d0c5f)], [uint256(0x0062ad797cd8c0b12efa92943f4462ea01995c614beb8159acf3442bc3f6c4de), uint256(0x11ba39c03c5474a09b776dcae292606cc94cf7972f76a54b23c3e2a6b33779c8)]);\n        vk.gamma = Pairing.G2Point([uint256(0x185d1e448eab424159c6b7f91968543e1f50c54c877d433056946b40b88bc392), uint256(0x021a13c6fd0c549e0eeac86a0f08fe8d5dbe312046b0843a100a34260c8c7f45)], [uint256(0x0fb12cf0b384f2a890493f2b96676d54a0401811447efa72b488924f71fa4b78), uint256(0x0f64931226225f3935cffff58256c48c6f6d3616fe2e518fe2fc11ddc2c7b952)]);\n        vk.delta = Pairing.G2Point([uint256(0x092b2ebe549dec9e3f4be90a0c0d40ba0deeeae7b5f21471478f511a19a3e930), uint256(0x20024edda3f867fac83a313ce42df4e3f721d47f621e2a70e203be76ac12e929)], [uint256(0x28bf41d4aa9bc88ef2141d48b6087b7897bd65c59c226f3f4b5b043aa4b46876), uint256(0x2512e84d3345a2a0fb1c43fba20ef28647b5a695bedc0e88dfe862a3437bb7f2)]);\n        vk.gamma_abc = new Pairing.G1Point[](41);\n        vk.gamma_abc[0] = Pairing.G1Point(uint256(0x02839f87bb97741c36e8be54752079173238f2786b3794cc924845e43531d1bc), uint256(0x0909f10924760b3ebea8908d3ef64d52ea021ae473465a780a9ba81dec08999e));\n        vk.gamma_abc[1] = Pairing.G1Point(uint256(0x139091ad73832c08341559617608e01fe06e2103fd9f744b6580bdeea5c6e3d2), uint256(0x03d29d1f3522ec3f93184daf484446c35283a3266fd41b55d9789cbfa7e3c3b3));\n        vk.gamma_abc[2] = Pairing.G1Point(uint256(0x0df77c7692725819d7a05f692e042b91b209c2dae9919395f2d811f3163fce38), uint256(0x2782ca95e2fe7fb7f0d8126d4a220937d980510e79124bb0d2ebaf81344abef0));\n        vk.gamma_abc[3] = Pairing.G1Point(uint256(0x1de80e2427395d81b5ae84c729540ed4c40a2e66abe77956bda29c274f27728a), uint256(0x265addb8effb0c3f69395c229a8f70c6dc0c4ef628761ff968e49edc95ceb0c2));\n        vk.gamma_abc[4] = Pairing.G1Point(uint256(0x0f461300ac21408f117e9639db1e2b1b12a9287127809e0b716cddb2a90f1bed), uint256(0x0100b4344b1583d5f5046e320ad0797303cb5bda0f5344718bf01a09dc18b9be));\n        vk.gamma_abc[5] = Pairing.G1Point(uint256(0x1a758429ea02f225f4966b9d36df022c6e2bed6f936dd42c4f1a781d9baeb3e0), uint256(0x00a5b0895fdbd4a960c94f1418d2cee34cb4b12ec6a76e4d47e8a8c5205c1560));\n        vk.gamma_abc[6] = Pairing.G1Point(uint256(0x277ebc8ba0c165cfd2900f172c1b540cf087efea41ff84c34e04225cd34aa937), uint256(0x265b69a5870fcccb597af1164155b71cf1c92bd6a11f8d207bd1d74d7f99beec));\n        vk.gamma_abc[7] = Pairing.G1Point(uint256(0x2aa554aae339280fbd9e27be74c32f1f091dc73a2929aeebee7da430098be540), uint256(0x2e56170399e18f4136493bb3bcd8c4170232dd9459d469e6067149d786362ad3));\n        vk.gamma_abc[8] = Pairing.G1Point(uint256(0x23ed1bc77ed684af668c69911520285371be63e185e410046dc2ec380a1978fd), uint256(0x1eda8fc98683dcc3f9bd024977f688e08e0d07ac37d1633c654fd707b2ec42ac));\n        vk.gamma_abc[9] = Pairing.G1Point(uint256(0x2a82df9d1b2431f4d9879b5a2a3bece6e890665ac99419a34da62bcf34fde2d9), uint256(0x2ce7003a90c2836ffc19a32d8adcf97871f9d2d4c8ad30d039a0fb34596d8aa5));\n        vk.gamma_abc[10] = Pairing.G1Point(uint256(0x283b3ca4f3524ab11a9c8079f2993f80656e21c42a2f88f9332cf1ee73c131a2), uint256(0x1f994ece4620ec536d1f2e29ddb7dda44b71472af5cbc1f8d54b5f44a980cba7));\n        vk.gamma_abc[11] = Pairing.G1Point(uint256(0x0ab1d8eb929fcd2cbe391ef48cbca56c6829621b9d450f9a07dde32937b1b5c1), uint256(0x2a3a44f7e6c4572a0d728984807774f112ecd0881d8531e31d1e65a78a1ac475));\n        vk.gamma_abc[12] = Pairing.G1Point(uint256(0x0f70aff8ec36dfb27b4fc35eee8fbf86e05f21df395ef747869ba579b45c7145), uint256(0x03d7f5980a708ccd02997410332c8e213eee460ea318923156a71c30125e2abd));\n        vk.gamma_abc[13] = Pairing.G1Point(uint256(0x1951e5df99b7ed9181a26dec5a6b31515ffa5a443c55e887291c35fd0b4135e9), uint256(0x1569e779adf4fedba43b3f3a8a57297352948aed20a4f279faf5e5b8f7939201));\n        vk.gamma_abc[14] = Pairing.G1Point(uint256(0x02c15023abd6032d1b3a3de318bd650bcc879ee2951df3f6a66666fd0adc8853), uint256(0x09d72e4598f222a68d8d11f8e73559aab93932ef3d61b48c8c4d0cdb54bdf470));\n        vk.gamma_abc[15] = Pairing.G1Point(uint256(0x0763744bd020d2743e2ed7cf79d76388f605dddf2fa39efe0a40f4971855cc34), uint256(0x0f051a84fac83fb370cb4d92992aee69d607d1cba6ceec9a8567704870d8b449));\n        vk.gamma_abc[16] = Pairing.G1Point(uint256(0x2f7dfdc731874e7d403fd72db2a89f2dd1a096d3cca15d19e44f9e0da19c6cc2), uint256(0x17b03087546fa851d0bed2a243805d3dec7aa4686dd3df32d6f48676a5b0fc4e));\n        vk.gamma_abc[17] = Pairing.G1Point(uint256(0x2c7548f4fd8e171c186a9d2079fc4c518d50656679cbdee56a06e25af1e4acf6), uint256(0x0de9b7896b9ce64c67305214729953433c61ee5ee888b0bac3976681659feb4c));\n        vk.gamma_abc[18] = Pairing.G1Point(uint256(0x303ff3117f6a5ab46d6d8ce1f8ea5fbc7dad5084a60aa6ae3f903c2dc47fb46f), uint256(0x0ca55f7c2ea8b09884f5f7646fb524248475a087d09c3d23fd60e8319602be7b));\n        vk.gamma_abc[19] = Pairing.G1Point(uint256(0x2b86a1dc4f82b78941b0fd7e1ad6d40e1e2a9ef67dd8ad87decfdc4843436207), uint256(0x0b9453c5322cc64c4c610df127b106675b4fc176899d9d0b124cb03030d8f5b3));\n        vk.gamma_abc[20] = Pairing.G1Point(uint256(0x0a5cf66a82082d3431c9e41f3f6e44a545935d7f8d6b5972f89d8515ed01948d), uint256(0x2935396c29e4ebff4e27be03c136f05c163b32034300dacf38e34ce110bcc177));\n        vk.gamma_abc[21] = Pairing.G1Point(uint256(0x2777482054ecf13ab7d7d28f3df4deffc7770042191015dad25f226cfa56f9ef), uint256(0x03fb853ce29c7e0073b697e033262bb023bbe31414f90c83158d704fc0c5522d));\n        vk.gamma_abc[22] = Pairing.G1Point(uint256(0x0bbe27002a00a780ab95ebe39ced7cea5292f281c924097de732ea27ece3f56c), uint256(0x06210e48f5e3e4abac677486c442cae3e2ce69a0d8ab3e8ceb0df0034352d3b7));\n        vk.gamma_abc[23] = Pairing.G1Point(uint256(0x1b4b98b5950f2932873ee79636311268b45d1f1dc59b036bcd3de49add37ab3f), uint256(0x03dc8322d383ee8b080d8ae9c58f8d655a8a6b14b98f56170e6eb39921211cf3));\n        vk.gamma_abc[24] = Pairing.G1Point(uint256(0x094907ba7e83fb2cd2281e6605c213d2560c0002d673b366f423b3585dc0dbfc), uint256(0x16c57b502233c41beb9123df34927895d0500f5d8ae59ae0cce363bb0c1e8739));\n        vk.gamma_abc[25] = Pairing.G1Point(uint256(0x1efca27e1e576b2cce269ba566d21442352dbaf8b7aba4b9965f030cf452decc), uint256(0x185c31da9c14cd463ca7b011078b0c69374b17e056bdc627828ae6cf673dd7c2));\n        vk.gamma_abc[26] = Pairing.G1Point(uint256(0x218d60ad2a93b35f2017dd41a4ba6c0e1a95e1812e4c029dc4ec656ba229dbf1), uint256(0x0e87a5320005d00fc1c19339efaa6cc7b7177db499fa6d547c154482e096c3a0));\n        vk.gamma_abc[27] = Pairing.G1Point(uint256(0x2a17946429765bdd530e2c84a43d19d685c3d5779a31f17a1a8ba3fd96e6caa8), uint256(0x0352090b3b8bf0d8a79da77a56b2ea8f42ab230650ec5cd6ebb2c1f21ca01f28));\n        vk.gamma_abc[28] = Pairing.G1Point(uint256(0x14ff2946c41b41b2d1d691d2a38e52b3d3935e97919c2f0b36a85469bd7c0358), uint256(0x1b3a76372e309439e324777916715cef28a5090dd9ed00f57f11a6f2b456ae78));\n        vk.gamma_abc[29] = Pairing.G1Point(uint256(0x0f99c13453cbd4bcc868b9461f1edb04c710f7ed1f6bf78e84d929d36d63cfce), uint256(0x063eb7aafe4379a2bde4c7b9475b91d2d687d761f92135ff5992afef39350efd));\n        vk.gamma_abc[30] = Pairing.G1Point(uint256(0x171ab8098ad70eee142033405174162940e5a1b06a6d639c2894675132341891), uint256(0x119a981f95dbc2c1e1f0ed21a1a6a5519edb6e21d6f860f8b2ca6afc57179ca6));\n        vk.gamma_abc[31] = Pairing.G1Point(uint256(0x1ab4541d18ea05c33270f65dcb624b81e07ef01851c8dca47f36cd4d55608160), uint256(0x239411b5b4f377b7bc453d84416a91ba6d617554142b4ae0a197172c30e22810));\n        vk.gamma_abc[32] = Pairing.G1Point(uint256(0x01d38f93722a6a825d77f9cac380c99c9884fbbf7ec9a576150a4496ab0ba4e9), uint256(0x26fe32630ccfc1793ca0ef118bcc367c49bd3d2d76f27ab35e3ee445bfd4ce76));\n        vk.gamma_abc[33] = Pairing.G1Point(uint256(0x2c33da4373779716342ad679e0322d59f50c7b2d848d9753c60b5f45c307665c), uint256(0x18b47cc007a1865e6937625d63474b30004ca077149b72f6cfbbbafc4d9aae93));\n        vk.gamma_abc[34] = Pairing.G1Point(uint256(0x24000e081a987d288a9ce00a84e988e91818d2ca6e2cc84d4e904709f010eb14), uint256(0x0dc494d8f054176b60df9f62c3f56c2a878a04f64b275f929a9b4ed7c6d9a766));\n        vk.gamma_abc[35] = Pairing.G1Point(uint256(0x1d23a68ac447394cbe8afa24f8fef35798c640741eaed16ace3f36d06dea6cae), uint256(0x189925a465dd5e6398c4788f9be004d9b091c51602ba7552a13d2eac82b6349a));\n        vk.gamma_abc[36] = Pairing.G1Point(uint256(0x017d1340c2496d10262ba04953fc0f76a19f0d7cde79d3664b5204e922924d98), uint256(0x2a06bf0db8a744a1a7b559757386054d365522ffde269e4648d334c240a38464));\n        vk.gamma_abc[37] = Pairing.G1Point(uint256(0x1b24b366b2fc5de41cae4be89d4929fda8af640c24e4689ccbc8c5f2724b9225), uint256(0x15579b0a4c8342eb1a16c5daa79a216fccb83e82fd4c59871f0a54c57d38b6e2));\n        vk.gamma_abc[38] = Pairing.G1Point(uint256(0x2ac5b4cc14ac752ea4c22d7a8a64984c79f36cbfc9987d19d82e8bbf292c74b9), uint256(0x008d561ae461588999c4f6a3edb7be9fa2beeae81293560437872e303dae01d5));\n        vk.gamma_abc[39] = Pairing.G1Point(uint256(0x18d08dcc2db44165eef7490bd1c6e66127932365391a7efdf802227404efbce8), uint256(0x091cf3380c2d71a48009b861b082465b777feb1aa2fcecb2bde0d113e470d7e3));\n        vk.gamma_abc[40] = Pairing.G1Point(uint256(0x188a57f2a100fe58d5e3d594ef2ae19db7a237dc6dabc78a76c251eeaa97f203), uint256(0x2db39551c3a3ec7364523d79a45dbec27088f2e647cac8f5400431997a8bd33c));\n    }\n    function verify(uint[] memory input, Proof memory proof) internal view returns (uint) {\n        uint256 snark_scalar_field = 21888242871839275222246405745257275088548364400416034343698204186575808495617;\n        VerifyingKey memory vk = verifyingKey();\n        require(input.length + 1 == vk.gamma_abc.length);\n        // Compute the linear combination vk_x\n        Pairing.G1Point memory vk_x = Pairing.G1Point(0, 0);\n        for (uint i = 0; i < input.length; i++) {\n            require(input[i] < snark_scalar_field);\n            vk_x = Pairing.addition(vk_x, Pairing.scalar_mul(vk.gamma_abc[i + 1], input[i]));\n        }\n        vk_x = Pairing.addition(vk_x, vk.gamma_abc[0]);\n        if(!Pairing.pairingProd4(\n             proof.a, proof.b,\n             Pairing.negate(vk_x), vk.gamma,\n             Pairing.negate(proof.c), vk.delta,\n             Pairing.negate(vk.alpha), vk.beta)) return 1;\n        return 0;\n    }\n    function verifyTx(\n            Proof memory proof, uint[40] memory input\n        ) public view returns (bool r) {\n        uint[] memory inputValues = new uint[](40);\n        \n        for(uint i = 0; i < input.length; i++){\n            inputValues[i] = input[i];\n        }\n        if (verify(inputValues, proof) == 0) {\n            return true;\n        } else {\n            return false;\n        }\n    }\n}\n",
  "sourcePath": "/home/prateek/NFR/onchain/contracts/Verifier.sol",
  "compiler": {
    "name": "solc",
    "version": "0.8.9+commit.e5eed63a.Emscripten.clang"
  },
  "schemaVersion": "3.4.3",
  "updatedAt": "2021-12-23T02:35:50.909Z",
  "networkType": "ethereum",
  "devdoc": {
    "kind": "dev",
    "methods": {},
    "version": 1
  },
  "userdoc": {
    "kind": "user",
    "methods": {},
    "version": 1
  }
}