{
  "contractName": "NFR",
  "abi": [
    {
      "inputs": [
        {
          "internalType": "address",
          "name": "_merge",
          "type": "address"
        },
        {
          "internalType": "address",
          "name": "_rareRelics",
          "type": "address"
        }
      ],
      "stateMutability": "nonpayable",
      "type": "constructor"
    },
    {
      "anonymous": false,
      "inputs": [
        {
          "indexed": true,
          "internalType": "address",
          "name": "owner",
          "type": "address"
        },
        {
          "indexed": true,
          "internalType": "address",
          "name": "approved",
          "type": "address"
        },
        {
          "indexed": true,
          "internalType": "uint256",
          "name": "tokenId",
          "type": "uint256"
        }
      ],
      "name": "Approval",
      "type": "event"
    },
    {
      "anonymous": false,
      "inputs": [
        {
          "indexed": true,
          "internalType": "address",
          "name": "owner",
          "type": "address"
        },
        {
          "indexed": true,
          "internalType": "address",
          "name": "operator",
          "type": "address"
        },
        {
          "indexed": false,
          "internalType": "bool",
          "name": "approved",
          "type": "bool"
        }
      ],
      "name": "ApprovalForAll",
      "type": "event"
    },
    {
      "anonymous": false,
      "inputs": [
        {
          "indexed": true,
          "internalType": "address",
          "name": "previousOwner",
          "type": "address"
        },
        {
          "indexed": true,
          "internalType": "address",
          "name": "newOwner",
          "type": "address"
        }
      ],
      "name": "OwnershipTransferred",
      "type": "event"
    },
    {
      "anonymous": false,
      "inputs": [
        {
          "indexed": false,
          "internalType": "uint256[4]",
          "name": "tokens",
          "type": "uint256[4]"
        }
      ],
      "name": "PackMinted",
      "type": "event"
    },
    {
      "anonymous": false,
      "inputs": [
        {
          "indexed": true,
          "internalType": "address",
          "name": "from",
          "type": "address"
        },
        {
          "indexed": true,
          "internalType": "address",
          "name": "to",
          "type": "address"
        },
        {
          "indexed": true,
          "internalType": "uint256",
          "name": "tokenId",
          "type": "uint256"
        }
      ],
      "name": "Transfer",
      "type": "event"
    },
    {
      "anonymous": false,
      "inputs": [
        {
          "indexed": false,
          "internalType": "address",
          "name": "owner",
          "type": "address"
        },
        {
          "indexed": false,
          "internalType": "uint256",
          "name": "tokenId",
          "type": "uint256"
        }
      ],
      "name": "cardBurnt",
      "type": "event"
    },
    {
      "anonymous": false,
      "inputs": [
        {
          "indexed": false,
          "internalType": "address",
          "name": "from",
          "type": "address"
        },
        {
          "indexed": false,
          "internalType": "address",
          "name": "to",
          "type": "address"
        },
        {
          "indexed": false,
          "internalType": "uint256",
          "name": "tokenId",
          "type": "uint256"
        }
      ],
      "name": "cardStolen",
      "type": "event"
    },
    {
      "inputs": [],
      "name": "MAX_MINTABLE",
      "outputs": [
        {
          "internalType": "uint16",
          "name": "",
          "type": "uint16"
        }
      ],
      "stateMutability": "view",
      "type": "function",
      "constant": true
    },
    {
      "inputs": [],
      "name": "MINT_PRICE",
      "outputs": [
        {
          "internalType": "uint256",
          "name": "",
          "type": "uint256"
        }
      ],
      "stateMutability": "view",
      "type": "function",
      "constant": true
    },
    {
      "inputs": [
        {
          "internalType": "address",
          "name": "to",
          "type": "address"
        },
        {
          "internalType": "uint256",
          "name": "tokenId",
          "type": "uint256"
        }
      ],
      "name": "approve",
      "outputs": [],
      "stateMutability": "nonpayable",
      "type": "function"
    },
    {
      "inputs": [
        {
          "internalType": "address",
          "name": "owner",
          "type": "address"
        }
      ],
      "name": "balanceOf",
      "outputs": [
        {
          "internalType": "uint256",
          "name": "",
          "type": "uint256"
        }
      ],
      "stateMutability": "view",
      "type": "function",
      "constant": true
    },
    {
      "inputs": [
        {
          "internalType": "uint256",
          "name": "",
          "type": "uint256"
        }
      ],
      "name": "baseCardCopyCounts",
      "outputs": [
        {
          "internalType": "uint16",
          "name": "",
          "type": "uint16"
        }
      ],
      "stateMutability": "view",
      "type": "function",
      "constant": true
    },
    {
      "inputs": [
        {
          "internalType": "uint256",
          "name": "",
          "type": "uint256"
        }
      ],
      "name": "baseCardHashedDescription",
      "outputs": [
        {
          "internalType": "uint256",
          "name": "",
          "type": "uint256"
        }
      ],
      "stateMutability": "view",
      "type": "function",
      "constant": true
    },
    {
      "inputs": [],
      "name": "cardCopiesHashed",
      "outputs": [
        {
          "internalType": "uint256",
          "name": "",
          "type": "uint256"
        }
      ],
      "stateMutability": "view",
      "type": "function",
      "constant": true
    },
    {
      "inputs": [],
      "name": "gameOngoing",
      "outputs": [
        {
          "internalType": "bool",
          "name": "",
          "type": "bool"
        }
      ],
      "stateMutability": "view",
      "type": "function",
      "constant": true
    },
    {
      "inputs": [
        {
          "internalType": "uint256",
          "name": "tokenId",
          "type": "uint256"
        }
      ],
      "name": "getApproved",
      "outputs": [
        {
          "internalType": "address",
          "name": "",
          "type": "address"
        }
      ],
      "stateMutability": "view",
      "type": "function",
      "constant": true
    },
    {
      "inputs": [
        {
          "internalType": "address",
          "name": "owner",
          "type": "address"
        },
        {
          "internalType": "address",
          "name": "operator",
          "type": "address"
        }
      ],
      "name": "isApprovedForAll",
      "outputs": [
        {
          "internalType": "bool",
          "name": "",
          "type": "bool"
        }
      ],
      "stateMutability": "view",
      "type": "function",
      "constant": true
    },
    {
      "inputs": [],
      "name": "name",
      "outputs": [
        {
          "internalType": "string",
          "name": "",
          "type": "string"
        }
      ],
      "stateMutability": "view",
      "type": "function",
      "constant": true
    },
    {
      "inputs": [],
      "name": "owner",
      "outputs": [
        {
          "internalType": "address",
          "name": "",
          "type": "address"
        }
      ],
      "stateMutability": "view",
      "type": "function",
      "constant": true
    },
    {
      "inputs": [
        {
          "internalType": "uint256",
          "name": "tokenId",
          "type": "uint256"
        }
      ],
      "name": "ownerOf",
      "outputs": [
        {
          "internalType": "address",
          "name": "",
          "type": "address"
        }
      ],
      "stateMutability": "view",
      "type": "function",
      "constant": true
    },
    {
      "inputs": [],
      "name": "packsMinted",
      "outputs": [
        {
          "internalType": "uint16",
          "name": "",
          "type": "uint16"
        }
      ],
      "stateMutability": "view",
      "type": "function",
      "constant": true
    },
    {
      "inputs": [
        {
          "internalType": "uint256",
          "name": "",
          "type": "uint256"
        }
      ],
      "name": "publicArtifacts",
      "outputs": [
        {
          "internalType": "uint32",
          "name": "num",
          "type": "uint32"
        },
        {
          "internalType": "uint32",
          "name": "copyNum",
          "type": "uint32"
        },
        {
          "internalType": "uint256",
          "name": "longDescriptionHashed",
          "type": "uint256"
        },
        {
          "internalType": "uint256",
          "name": "privateKey",
          "type": "uint256"
        }
      ],
      "stateMutability": "view",
      "type": "function",
      "constant": true
    },
    {
      "inputs": [],
      "name": "renounceOwnership",
      "outputs": [],
      "stateMutability": "nonpayable",
      "type": "function"
    },
    {
      "inputs": [
        {
          "internalType": "address",
          "name": "from",
          "type": "address"
        },
        {
          "internalType": "address",
          "name": "to",
          "type": "address"
        },
        {
          "internalType": "uint256",
          "name": "tokenId",
          "type": "uint256"
        }
      ],
      "name": "safeTransferFrom",
      "outputs": [],
      "stateMutability": "nonpayable",
      "type": "function"
    },
    {
      "inputs": [
        {
          "internalType": "address",
          "name": "from",
          "type": "address"
        },
        {
          "internalType": "address",
          "name": "to",
          "type": "address"
        },
        {
          "internalType": "uint256",
          "name": "tokenId",
          "type": "uint256"
        },
        {
          "internalType": "bytes",
          "name": "_data",
          "type": "bytes"
        }
      ],
      "name": "safeTransferFrom",
      "outputs": [],
      "stateMutability": "nonpayable",
      "type": "function"
    },
    {
      "inputs": [
        {
          "internalType": "address",
          "name": "operator",
          "type": "address"
        },
        {
          "internalType": "bool",
          "name": "approved",
          "type": "bool"
        }
      ],
      "name": "setApprovalForAll",
      "outputs": [],
      "stateMutability": "nonpayable",
      "type": "function"
    },
    {
      "inputs": [
        {
          "internalType": "bytes4",
          "name": "interfaceId",
          "type": "bytes4"
        }
      ],
      "name": "supportsInterface",
      "outputs": [
        {
          "internalType": "bool",
          "name": "",
          "type": "bool"
        }
      ],
      "stateMutability": "view",
      "type": "function",
      "constant": true
    },
    {
      "inputs": [],
      "name": "symbol",
      "outputs": [
        {
          "internalType": "string",
          "name": "",
          "type": "string"
        }
      ],
      "stateMutability": "view",
      "type": "function",
      "constant": true
    },
    {
      "inputs": [
        {
          "internalType": "uint256",
          "name": "index",
          "type": "uint256"
        }
      ],
      "name": "tokenByIndex",
      "outputs": [
        {
          "internalType": "uint256",
          "name": "",
          "type": "uint256"
        }
      ],
      "stateMutability": "view",
      "type": "function",
      "constant": true
    },
    {
      "inputs": [
        {
          "internalType": "address",
          "name": "owner",
          "type": "address"
        },
        {
          "internalType": "uint256",
          "name": "index",
          "type": "uint256"
        }
      ],
      "name": "tokenOfOwnerByIndex",
      "outputs": [
        {
          "internalType": "uint256",
          "name": "",
          "type": "uint256"
        }
      ],
      "stateMutability": "view",
      "type": "function",
      "constant": true
    },
    {
      "inputs": [
        {
          "internalType": "uint256",
          "name": "tokenId",
          "type": "uint256"
        }
      ],
      "name": "tokenURI",
      "outputs": [
        {
          "internalType": "string",
          "name": "",
          "type": "string"
        }
      ],
      "stateMutability": "view",
      "type": "function",
      "constant": true
    },
    {
      "inputs": [],
      "name": "totalSupply",
      "outputs": [
        {
          "internalType": "uint256",
          "name": "",
          "type": "uint256"
        }
      ],
      "stateMutability": "view",
      "type": "function",
      "constant": true
    },
    {
      "inputs": [
        {
          "internalType": "address",
          "name": "from",
          "type": "address"
        },
        {
          "internalType": "address",
          "name": "to",
          "type": "address"
        },
        {
          "internalType": "uint256",
          "name": "tokenId",
          "type": "uint256"
        }
      ],
      "name": "transferFrom",
      "outputs": [],
      "stateMutability": "nonpayable",
      "type": "function"
    },
    {
      "inputs": [
        {
          "internalType": "address",
          "name": "newOwner",
          "type": "address"
        }
      ],
      "name": "transferOwnership",
      "outputs": [],
      "stateMutability": "nonpayable",
      "type": "function"
    },
    {
      "inputs": [
        {
          "internalType": "uint8[4]",
          "name": "artifactNums",
          "type": "uint8[4]"
        }
      ],
      "name": "mintPack",
      "outputs": [
        {
          "internalType": "uint256[4]",
          "name": "",
          "type": "uint256[4]"
        }
      ],
      "stateMutability": "payable",
      "type": "function",
      "payable": true
    },
    {
      "inputs": [
        {
          "internalType": "uint256",
          "name": "tokenId",
          "type": "uint256"
        },
        {
          "internalType": "uint8",
          "name": "num",
          "type": "uint8"
        },
        {
          "internalType": "uint16",
          "name": "copyNum",
          "type": "uint16"
        },
        {
          "internalType": "uint256",
          "name": "longDescriptionHashed",
          "type": "uint256"
        },
        {
          "internalType": "uint256",
          "name": "privateKey",
          "type": "uint256"
        }
      ],
      "name": "revealArtifact",
      "outputs": [],
      "stateMutability": "nonpayable",
      "type": "function"
    },
    {
      "inputs": [
        {
          "internalType": "uint256[5]",
          "name": "tokenIds",
          "type": "uint256[5]"
        },
        {
          "components": [
            {
              "internalType": "uint32",
              "name": "num",
              "type": "uint32"
            },
            {
              "internalType": "uint32",
              "name": "copyNum",
              "type": "uint32"
            },
            {
              "internalType": "uint256",
              "name": "longDescriptionHashed",
              "type": "uint256"
            },
            {
              "internalType": "uint256",
              "name": "privateKey",
              "type": "uint256"
            }
          ],
          "internalType": "struct NFR.Artifact[5]",
          "name": "genesisArtifacts",
          "type": "tuple[5]"
        }
      ],
      "name": "endGame",
      "outputs": [],
      "stateMutability": "nonpayable",
      "type": "function"
    },
    {
      "inputs": [
        {
          "internalType": "address",
          "name": "from",
          "type": "address"
        },
        {
          "internalType": "address",
          "name": "to",
          "type": "address"
        },
        {
          "internalType": "uint256",
          "name": "tokenId",
          "type": "uint256"
        }
      ],
      "name": "stealCard",
      "outputs": [],
      "stateMutability": "nonpayable",
      "type": "function"
    },
    {
      "inputs": [
        {
          "internalType": "uint256",
          "name": "tokenId",
          "type": "uint256"
        }
      ],
      "name": "duplicateCard",
      "outputs": [],
      "stateMutability": "nonpayable",
      "type": "function"
    },
    {
      "inputs": [
        {
          "internalType": "uint256",
          "name": "inputTokenId",
          "type": "uint256"
        },
        {
          "internalType": "uint256",
          "name": "targetTokenId",
          "type": "uint256"
        }
      ],
      "name": "transformCard",
      "outputs": [],
      "stateMutability": "nonpayable",
      "type": "function"
    },
    {
      "inputs": [
        {
          "internalType": "address",
          "name": "_BlackMarketAddress",
          "type": "address"
        }
      ],
      "name": "setBlackMarketAddress",
      "outputs": [],
      "stateMutability": "nonpayable",
      "type": "function"
    },
    {
      "inputs": [
        {
          "internalType": "address",
          "name": "_MergerAddress",
          "type": "address"
        }
      ],
      "name": "setMergerAddress",
      "outputs": [],
      "stateMutability": "nonpayable",
      "type": "function"
    },
    {
      "inputs": [
        {
          "internalType": "uint256[2]",
          "name": "inputTokens",
          "type": "uint256[2]"
        },
        {
          "internalType": "uint256[3]",
          "name": "resultTokens",
          "type": "uint256[3]"
        },
        {
          "internalType": "bool[3]",
          "name": "resultTokensMint",
          "type": "bool[3]"
        }
      ],
      "name": "doMerge",
      "outputs": [],
      "stateMutability": "nonpayable",
      "type": "function"
    }
  ],
  "bytecode": "0x6080604052604051806101200160405280600060ff168152602001600060ff168152602001600060ff168152602001600060ff168152602001600060ff168152602001600060ff168152602001600060ff168152602001600060ff168152602001600060ff16815250600b9060096200007a929190620003ee565b506040518061012001604052807f01649792131254809c4b0f4287aaeb9a5229812249af54b3a86c8dcfecda625a8152602001600481526020016005815260200160068152602001600781526020017f29a6711440fe7a63e9478a2f99eae57b5ba4ec5af8cdca67a922232c71ada9e38152602001600181526020017ff413a42af6f20a53dd943a6835aec02dff9c876f7d7f253670aa07dbaa32b05c81526020016003815250600c9060096200013392919062000491565b503480156200014157600080fd5b5060405162006220380380620062208339818101604052810190620001679190620005f0565b6040518060400160405280600a81526020017f4e46522069736c616e64000000000000000000000000000000000000000000008152506040518060400160405280600381526020017f4e465200000000000000000000000000000000000000000000000000000000008152508160009080519060200190620001eb929190620004d6565b50806001908051906020019062000204929190620004d6565b505050620002276200021b6200032060201b60201c565b6200032860201b60201c565b6000600a60146101000a81548161ffff021916908361ffff1602179055506000600a60166101000a81548160ff02191690831515021790555081601760006101000a81548173ffffffffffffffffffffffffffffffffffffffff021916908373ffffffffffffffffffffffffffffffffffffffff16021790555080601860006101000a81548173ffffffffffffffffffffffffffffffffffffffff021916908373ffffffffffffffffffffffffffffffffffffffff1602179055506000601960146101000a81548160ff0219169083151502179055506000601a60146101000a81548160ff02191690831515021790555050506200069c565b600033905090565b6000600a60009054906101000a900473ffffffffffffffffffffffffffffffffffffffff16905081600a60006101000a81548173ffffffffffffffffffffffffffffffffffffffff021916908373ffffffffffffffffffffffffffffffffffffffff1602179055508173ffffffffffffffffffffffffffffffffffffffff168173ffffffffffffffffffffffffffffffffffffffff167f8be0079c531659141344cd1fd0a4f28419497f9722a3daafe3b4186f6b6457e060405160405180910390a35050565b826009600f016010900481019282156200047e5791602002820160005b838211156200044c57835183826101000a81548161ffff021916908360ff16021790555092602001926002016020816001010492830192600103026200040b565b80156200047c5782816101000a81549061ffff02191690556002016020816001010492830192600103026200044c565b505b5090506200048d919062000567565b5090565b8260098101928215620004c3579160200282015b82811115620004c2578251825591602001919060010190620004a5565b5b509050620004d2919062000567565b5090565b828054620004e49062000666565b90600052602060002090601f01602090048101928262000508576000855562000554565b82601f106200052357805160ff191683800117855562000554565b8280016001018555821562000554579182015b828111156200055357825182559160200191906001019062000536565b5b50905062000563919062000567565b5090565b5b808211156200058257600081600090555060010162000568565b5090565b600080fd5b600073ffffffffffffffffffffffffffffffffffffffff82169050919050565b6000620005b8826200058b565b9050919050565b620005ca81620005ab565b8114620005d657600080fd5b50565b600081519050620005ea81620005bf565b92915050565b600080604083850312156200060a576200060962000586565b5b60006200061a85828601620005d9565b92505060206200062d85828601620005d9565b9150509250929050565b7f4e487b7100000000000000000000000000000000000000000000000000000000600052602260045260246000fd5b600060028204905060018216806200067f57607f821691505b6020821081141562000696576200069562000637565b5b50919050565b615b7480620006ac6000396000f3fe60806040526004361061020f5760003560e01c806371851cfa11610118578063c87b56dd116100a0578063e985e9c51161006f578063e985e9c5146107b2578063efde66ec146107ef578063f2fde38b1461082f578063f70b71bf14610858578063fee94c82146108955761020f565b8063c87b56dd146106fa578063d5ae05ea14610737578063dcb9a6eb14610760578063e8ce4c23146107895761020f565b80638da5cb5b116100e75780638da5cb5b1461062757806395d89b4114610652578063a22cb4651461067d578063b88d4fde146106a6578063c002d23d146106cf5761020f565b806371851cfa146105815780637372d34b146105ac5780637ed6d2eb146105d5578063830b0d7e146105fe5761020f565b80632f745c591161019b57806352d09b4a1161016a57806352d09b4a146104955780636352211e146104c557806365f819461461050257806370a082311461052d578063715018a61461056a5761020f565b80632f745c59146103c75780633f879faf1461040457806342842e0e1461042f5780634f6ccce7146104585761020f565b8063095ea7b3116101e2578063095ea7b3146102e457806318160ddd1461030d5780631c9b78e314610338578063234bfab61461037557806323b872dd1461039e5761020f565b806301ffc9a714610214578063026113d81461025157806306fdde031461027c578063081812fc146102a7575b600080fd5b34801561022057600080fd5b5061023b6004803603810190610236919061395a565b6108be565b60405161024891906139a2565b60405180910390f35b34801561025d57600080fd5b50610266610938565b60405161027391906139d6565b60405180910390f35b34801561028857600080fd5b5061029161093e565b60405161029e9190613a8a565b60405180910390f35b3480156102b357600080fd5b506102ce60048036038101906102c99190613ad8565b6109d0565b6040516102db9190613b46565b60405180910390f35b3480156102f057600080fd5b5061030b60048036038101906103069190613b8d565b610a55565b005b34801561031957600080fd5b50610322610b6d565b60405161032f91906139d6565b60405180910390f35b34801561034457600080fd5b5061035f600480360381019061035a9190613ad8565b610b7a565b60405161036c9190613bea565b60405180910390f35b34801561038157600080fd5b5061039c60048036038101906103979190613c05565b610ba8565b005b3480156103aa57600080fd5b506103c560048036038101906103c09190613c05565b610cd9565b005b3480156103d357600080fd5b506103ee60048036038101906103e99190613b8d565b610d39565b6040516103fb91906139d6565b60405180910390f35b34801561041057600080fd5b50610419610dde565b6040516104269190613bea565b60405180910390f35b34801561043b57600080fd5b5061045660048036038101906104519190613c05565b610de4565b005b34801561046457600080fd5b5061047f600480360381019061047a9190613ad8565b610e04565b60405161048c91906139d6565b60405180910390f35b6104af60048036038101906104aa9190613dc7565b610e75565b6040516104bc9190613e9f565b60405180910390f35b3480156104d157600080fd5b506104ec60048036038101906104e79190613ad8565b6113ca565b6040516104f99190613b46565b60405180910390f35b34801561050e57600080fd5b5061051761147c565b60405161052491906139a2565b60405180910390f35b34801561053957600080fd5b50610554600480360381019061054f9190613eba565b61148f565b60405161056191906139d6565b60405180910390f35b34801561057657600080fd5b5061057f611547565b005b34801561058d57600080fd5b506105966115cf565b6040516105a39190613bea565b60405180910390f35b3480156105b857600080fd5b506105d360048036038101906105ce9190613f13565b6115e3565b005b3480156105e157600080fd5b506105fc60048036038101906105f79190613eba565b6116f6565b005b34801561060a57600080fd5b50610625600480360381019061062091906141cd565b611827565b005b34801561063357600080fd5b5061063c611abb565b6040516106499190613b46565b60405180910390f35b34801561065e57600080fd5b50610667611ae5565b6040516106749190613a8a565b60405180910390f35b34801561068957600080fd5b506106a4600480360381019061069f9190614221565b611b77565b005b3480156106b257600080fd5b506106cd60048036038101906106c89190614316565b611b8d565b005b3480156106db57600080fd5b506106e4611bef565b6040516106f191906139d6565b60405180910390f35b34801561070657600080fd5b50610721600480360381019061071c9190613ad8565b611bfa565b60405161072e9190613a8a565b60405180910390f35b34801561074357600080fd5b5061075e60048036038101906107599190613eba565b611ca1565b005b34801561076c57600080fd5b5061078760048036038101906107829190613ad8565b611dd2565b005b34801561079557600080fd5b506107b060048036038101906107ab9190614399565b611ebb565b005b3480156107be57600080fd5b506107d960048036038101906107d491906143d9565b611fe6565b6040516107e691906139a2565b60405180910390f35b3480156107fb57600080fd5b5061081660048036038101906108119190613ad8565b61207a565b6040516108269493929190614438565b60405180910390f35b34801561083b57600080fd5b5061085660048036038101906108519190613eba565b6120ca565b005b34801561086457600080fd5b5061087f600480360381019061087a9190613ad8565b6121c2565b60405161088c91906139d6565b60405180910390f35b3480156108a157600080fd5b506108bc60048036038101906108b79190614688565b6121dd565b005b60007f780e9d63000000000000000000000000000000000000000000000000000000007bffffffffffffffffffffffffffffffffffffffffffffffffffffffff1916827bffffffffffffffffffffffffffffffffffffffffffffffffffffffff191614806109315750610930826124fa565b5b9050919050565b60165481565b60606000805461094d906146f8565b80601f0160208091040260200160405190810160405280929190818152602001828054610979906146f8565b80156109c65780601f1061099b576101008083540402835291602001916109c6565b820191906000526020600020905b8154815290600101906020018083116109a957829003601f168201915b5050505050905090565b60006109db826125dc565b610a1a576040517f08c379a0000000000000000000000000000000000000000000000000000000008152600401610a119061479c565b60405180910390fd5b6004600083815260200190815260200160002060009054906101000a900473ffffffffffffffffffffffffffffffffffffffff169050919050565b6000610a60826113ca565b90508073ffffffffffffffffffffffffffffffffffffffff168373ffffffffffffffffffffffffffffffffffffffff161415610ad1576040517f08c379a0000000000000000000000000000000000000000000000000000000008152600401610ac89061482e565b60405180910390fd5b8073ffffffffffffffffffffffffffffffffffffffff16610af0612648565b73ffffffffffffffffffffffffffffffffffffffff161480610b1f5750610b1e81610b19612648565b611fe6565b5b610b5e576040517f08c379a0000000000000000000000000000000000000000000000000000000008152600401610b55906148c0565b60405180910390fd5b610b688383612650565b505050565b6000600880549050905090565b600b8160098110610b8a57600080fd5b60109182820401919006600202915054906101000a900461ffff1681565b60011515601960149054906101000a900460ff16151514610bfe576040517f08c379a0000000000000000000000000000000000000000000000000000000008152600401610bf59061492c565b60405180910390fd5b601960009054906101000a900473ffffffffffffffffffffffffffffffffffffffff1673ffffffffffffffffffffffffffffffffffffffff163373ffffffffffffffffffffffffffffffffffffffff1614610c8e576040517f08c379a0000000000000000000000000000000000000000000000000000000008152600401610c85906149be565b60405180910390fd5b7f89665ba37e1d52f304a954987e0fdc0cdc63e3f97a6371821c6d8e42e9f112de838383604051610cc1939291906149de565b60405180910390a1610cd4838383610cd9565b505050565b610cea610ce4612648565b82612709565b610d29576040517f08c379a0000000000000000000000000000000000000000000000000000000008152600401610d2090614a87565b60405180910390fd5b610d348383836127e7565b505050565b6000610d448361148f565b8210610d85576040517f08c379a0000000000000000000000000000000000000000000000000000000008152600401610d7c90614b19565b60405180910390fd5b600660008473ffffffffffffffffffffffffffffffffffffffff1673ffffffffffffffffffffffffffffffffffffffff168152602001908152602001600020600083815260200190815260200160002054905092915050565b61138881565b610dff83838360405180602001604052806000815250611b8d565b505050565b6000610e0e610b6d565b8210610e4f576040517f08c379a0000000000000000000000000000000000000000000000000000000008152600401610e4690614bab565b60405180910390fd5b60088281548110610e6357610e62614bcb565b5b90600052602060002001549050919050565b610e7d613898565b61138861ffff16600a60149054906101000a900461ffff1661ffff1610610ed9576040517f08c379a0000000000000000000000000000000000000000000000000000000008152600401610ed090614c46565b60405180910390fd5b60005b60048160ff161015610f86576032838260ff1660048110610f0057610eff614bcb565b5b602002015160ff1611158015610f345750602a838260ff1660048110610f2957610f28614bcb565b5b602002015160ff1610155b610f73576040517f08c379a0000000000000000000000000000000000000000000000000000000008152600401610f6a90614cb2565b60405180910390fd5b8080610f7e90614d01565b915050610edc565b50610f8f613898565b60005b60048110156111d357610fa36138ba565b848260048110610fb657610fb5614bcb565b5b602002015160ff16816000019063ffffffff16908163ffffffff16815250506001600b602a878560048110610fee57610fed614bcb565b5b6020020151610ffd9190614d2b565b60ff166009811061101157611010614bcb565b5b601091828204019190066002028282829054906101000a900461ffff166110389190614d5f565b92506101000a81548161ffff021916908361ffff160217905550600b602a86846004811061106957611068614bcb565b5b60200201516110789190614d2b565b60ff166009811061108c5761108b614bcb565b5b601091828204019190066002029054906101000a900461ffff1661ffff16816020019063ffffffff16908163ffffffff1681525050600c602a8684600481106110d8576110d7614bcb565b5b60200201516110e79190614d2b565b60ff16600981106110fb576110fa614bcb565b5b01548160400181815250506000816060018181525050600061111c82612a43565b9050816015600083815260200190815260200160002060008201518160000160006101000a81548163ffffffff021916908363ffffffff16021790555060208201518160000160046101000a81548163ffffffff021916908363ffffffff16021790555060408201518160010155606082015181600201559050506111a13382612ae9565b808484600481106111b5576111b4614bcb565b5b602002018181525050505080806111cb90614d97565b915050610f92565b50611201601960009054906101000a900473ffffffffffffffffffffffffffffffffffffffff166001611b77565b601860009054906101000a900473ffffffffffffffffffffffffffffffffffffffff1673ffffffffffffffffffffffffffffffffffffffff1663f0460ef9336040518263ffffffff1660e01b815260040161125c9190613b46565b600060405180830381600087803b15801561127657600080fd5b505af115801561128a573d6000803e3d6000fd5b50505050601760009054906101000a900473ffffffffffffffffffffffffffffffffffffffff1673ffffffffffffffffffffffffffffffffffffffff166340c10f1933674563918244f400006040518363ffffffff1660e01b81526004016112f3929190614e25565b600060405180830381600087803b15801561130d57600080fd5b505af1158015611321573d6000803e3d6000fd5b505050506001600a60148282829054906101000a900461ffff166113459190614d5f565b92506101000a81548161ffff021916908361ffff16021790555061138861ffff16600a60149054906101000a900461ffff1661ffff16141561138a57611389612b07565b5b7ffa296698c8503f65c303b3298374f783646c3df216c78583a46a08d488b5cf76816040516113b99190613e9f565b60405180910390a180915050919050565b6000806002600084815260200190815260200160002060009054906101000a900473ffffffffffffffffffffffffffffffffffffffff169050600073ffffffffffffffffffffffffffffffffffffffff168173ffffffffffffffffffffffffffffffffffffffff161415611473576040517f08c379a000000000000000000000000000000000000000000000000000000000815260040161146a90614ec0565b60405180910390fd5b80915050919050565b600a60169054906101000a900460ff1681565b60008073ffffffffffffffffffffffffffffffffffffffff168273ffffffffffffffffffffffffffffffffffffffff161415611500576040517f08c379a00000000000000000000000000000000000000000000000000000000081526004016114f790614f52565b60405180910390fd5b600360008373ffffffffffffffffffffffffffffffffffffffff1673ffffffffffffffffffffffffffffffffffffffff168152602001908152602001600020549050919050565b61154f612648565b73ffffffffffffffffffffffffffffffffffffffff1661156d611abb565b73ffffffffffffffffffffffffffffffffffffffff16146115c3576040517f08c379a00000000000000000000000000000000000000000000000000000000081526004016115ba90614fbe565b60405180910390fd5b6115cd6000612b24565b565b600a60149054906101000a900461ffff1681565b3373ffffffffffffffffffffffffffffffffffffffff16611603866113ca565b73ffffffffffffffffffffffffffffffffffffffff161461162357600080fd5b600060405180608001604052808660ff1663ffffffff1681526020018561ffff1663ffffffff168152602001848152602001838152509050600061166682612a43565b905080871461167457600080fd5b816015600083815260200190815260200160002060008201518160000160006101000a81548163ffffffff021916908363ffffffff16021790555060208201518160000160046101000a81548163ffffffff021916908363ffffffff160217905550604082015181600101556060820151816002015590505050505050505050565b6116fe612648565b73ffffffffffffffffffffffffffffffffffffffff1661171c611abb565b73ffffffffffffffffffffffffffffffffffffffff1614611772576040517f08c379a000000000000000000000000000000000000000000000000000000000815260040161176990614fbe565b60405180910390fd5b60001515601a60149054906101000a900460ff161515146117c8576040517f08c379a00000000000000000000000000000000000000000000000000000000081526004016117bf90615050565b60405180910390fd5b80601a60006101000a81548173ffffffffffffffffffffffffffffffffffffffff021916908373ffffffffffffffffffffffffffffffffffffffff1602179055506001601a60146101000a81548160ff02191690831515021790555050565b60011515601a60149054906101000a900460ff1615151461187d576040517f08c379a0000000000000000000000000000000000000000000000000000000008152600401611874906150bc565b60405180910390fd5b601a60009054906101000a900473ffffffffffffffffffffffffffffffffffffffff1673ffffffffffffffffffffffffffffffffffffffff163373ffffffffffffffffffffffffffffffffffffffff161461190d576040517f08c379a00000000000000000000000000000000000000000000000000000000081526004016119049061514e565b60405180910390fd5b60006119308460006002811061192657611925614bcb565b5b60200201516113ca565b90507f05910ad4fa157f54cf547755367786ba2f613a82c439009ed9313a3c66f6747a6119748560006002811061196a57611969614bcb565b5b60200201516113ca565b8560006002811061198857611987614bcb565b5b602002015160405161199b92919061516e565b60405180910390a17f05910ad4fa157f54cf547755367786ba2f613a82c439009ed9313a3c66f6747a6119e5856001600281106119db576119da614bcb565b5b60200201516113ca565b856001600281106119f9576119f8614bcb565b5b6020020151604051611a0c92919061516e565b60405180910390a1611a3584600060028110611a2b57611a2a614bcb565b5b6020020151612bea565b611a5684600160028110611a4c57611a4b614bcb565b5b6020020151612bea565b60005b6003811015611ab457828160038110611a7557611a74614bcb565b5b602002015115611aa157611aa082858360038110611a9657611a95614bcb565b5b6020020151612ae9565b5b8080611aac90614d97565b915050611a59565b5050505050565b6000600a60009054906101000a900473ffffffffffffffffffffffffffffffffffffffff16905090565b606060018054611af4906146f8565b80601f0160208091040260200160405190810160405280929190818152602001828054611b20906146f8565b8015611b6d5780601f10611b4257610100808354040283529160200191611b6d565b820191906000526020600020905b815481529060010190602001808311611b5057829003601f168201915b5050505050905090565b611b89611b82612648565b8383612cfb565b5050565b611b9e611b98612648565b83612709565b611bdd576040517f08c379a0000000000000000000000000000000000000000000000000000000008152600401611bd490614a87565b60405180910390fd5b611be984848484612e68565b50505050565b66b1a2bc2ec5000081565b6060611c05826125dc565b611c44576040517f08c379a0000000000000000000000000000000000000000000000000000000008152600401611c3b90615209565b60405180910390fd5b6000611c4e612ec4565b90506000815111611c6e5760405180602001604052806000815250611c99565b80611c7884612edb565b604051602001611c89929190615265565b6040516020818303038152906040525b915050919050565b611ca9612648565b73ffffffffffffffffffffffffffffffffffffffff16611cc7611abb565b73ffffffffffffffffffffffffffffffffffffffff1614611d1d576040517f08c379a0000000000000000000000000000000000000000000000000000000008152600401611d1490614fbe565b60405180910390fd5b60001515601960149054906101000a900460ff16151514611d73576040517f08c379a0000000000000000000000000000000000000000000000000000000008152600401611d6a906152fb565b60405180910390fd5b80601960006101000a81548173ffffffffffffffffffffffffffffffffffffffff021916908373ffffffffffffffffffffffffffffffffffffffff1602179055506001601960146101000a81548160ff02191690831515021790555050565b60011515601960149054906101000a900460ff16151514611e28576040517f08c379a0000000000000000000000000000000000000000000000000000000008152600401611e1f9061492c565b60405180910390fd5b601960009054906101000a900473ffffffffffffffffffffffffffffffffffffffff1673ffffffffffffffffffffffffffffffffffffffff163373ffffffffffffffffffffffffffffffffffffffff1614611eb8576040517f08c379a0000000000000000000000000000000000000000000000000000000008152600401611eaf906149be565b60405180910390fd5b50565b60011515601960149054906101000a900460ff16151514611f11576040517f08c379a0000000000000000000000000000000000000000000000000000000008152600401611f089061492c565b60405180910390fd5b601960009054906101000a900473ffffffffffffffffffffffffffffffffffffffff1673ffffffffffffffffffffffffffffffffffffffff163373ffffffffffffffffffffffffffffffffffffffff1614611fa1576040517f08c379a0000000000000000000000000000000000000000000000000000000008152600401611f98906149be565b60405180910390fd5b7f05910ad4fa157f54cf547755367786ba2f613a82c439009ed9313a3c66f6747a611fcb836113ca565b83604051611fda92919061516e565b60405180910390a15050565b6000600560008473ffffffffffffffffffffffffffffffffffffffff1673ffffffffffffffffffffffffffffffffffffffff16815260200190815260200160002060008373ffffffffffffffffffffffffffffffffffffffff1673ffffffffffffffffffffffffffffffffffffffff16815260200190815260200160002060009054906101000a900460ff16905092915050565b60156020528060005260406000206000915090508060000160009054906101000a900463ffffffff16908060000160049054906101000a900463ffffffff16908060010154908060020154905084565b6120d2612648565b73ffffffffffffffffffffffffffffffffffffffff166120f0611abb565b73ffffffffffffffffffffffffffffffffffffffff1614612146576040517f08c379a000000000000000000000000000000000000000000000000000000000815260040161213d90614fbe565b60405180910390fd5b600073ffffffffffffffffffffffffffffffffffffffff168173ffffffffffffffffffffffffffffffffffffffff1614156121b6576040517f08c379a00000000000000000000000000000000000000000000000000000000081526004016121ad9061538d565b60405180910390fd5b6121bf81612b24565b50565b600c81600981106121d257600080fd5b016000915090505481565b600a60169054906101000a900460ff1661222c576040517f08c379a0000000000000000000000000000000000000000000000000000000008152600401612223906153f9565b60405180910390fd5b60006040518060a001604052806000151515158152602001600015151515815260200160001515151581526020016000151515158152602001600015151515815250905060005b60058160ff1610156123ea573373ffffffffffffffffffffffffffffffffffffffff166122b9858360ff16600581106122af576122ae614bcb565b5b60200201516113ca565b73ffffffffffffffffffffffffffffffffffffffff16146122d957600080fd5b6122fc838260ff16600581106122f2576122f1614bcb565b5b6020020151612a43565b848260ff166005811061231257612311614bcb565b5b60200201511461232157600080fd5b6005838260ff166005811061233957612338614bcb565b5b60200201516000015163ffffffff161115801561237a57506000838260ff166005811061236957612368614bcb565b5b60200201516000015163ffffffff16115b61238357600080fd5b6001826001858460ff166005811061239e5761239d614bcb565b5b6020020151600001516123b19190615419565b63ffffffff16600581106123c8576123c7614bcb565b5b60200201901515908115158152505080806123e290614d01565b915050612273565b5060005b60058160ff16101561243157818160ff16600581106124105761240f614bcb565b5b602002015161241e57600080fd5b808061242990614d01565b9150506123ee565b5060011515600a60169054906101000a900460ff1615151461245257600080fd5b66b1a2bc2ec5000061138861ffff1661246b919061544d565b47101561247b5761247a6154a7565b5b6000600a60166101000a81548160ff0219169083151502179055503373ffffffffffffffffffffffffffffffffffffffff166108fc66b1a2bc2ec5000061138861ffff166124c9919061544d565b9081150290604051600060405180830381858888f193505050501580156124f4573d6000803e3d6000fd5b50505050565b60007f80ac58cd000000000000000000000000000000000000000000000000000000007bffffffffffffffffffffffffffffffffffffffffffffffffffffffff1916827bffffffffffffffffffffffffffffffffffffffffffffffffffffffff191614806125c557507f5b5e139f000000000000000000000000000000000000000000000000000000007bffffffffffffffffffffffffffffffffffffffffffffffffffffffff1916827bffffffffffffffffffffffffffffffffffffffffffffffffffffffff1916145b806125d557506125d48261303c565b5b9050919050565b60008073ffffffffffffffffffffffffffffffffffffffff166002600084815260200190815260200160002060009054906101000a900473ffffffffffffffffffffffffffffffffffffffff1673ffffffffffffffffffffffffffffffffffffffff1614159050919050565b600033905090565b816004600083815260200190815260200160002060006101000a81548173ffffffffffffffffffffffffffffffffffffffff021916908373ffffffffffffffffffffffffffffffffffffffff160217905550808273ffffffffffffffffffffffffffffffffffffffff166126c3836113ca565b73ffffffffffffffffffffffffffffffffffffffff167f8c5be1e5ebec7d5bd14f71427d1e84f3dd0314c0f7b2291e5b200ac8c7c3b92560405160405180910390a45050565b6000612714826125dc565b612753576040517f08c379a000000000000000000000000000000000000000000000000000000000815260040161274a90615548565b60405180910390fd5b600061275e836113ca565b90508073ffffffffffffffffffffffffffffffffffffffff168473ffffffffffffffffffffffffffffffffffffffff1614806127cd57508373ffffffffffffffffffffffffffffffffffffffff166127b5846109d0565b73ffffffffffffffffffffffffffffffffffffffff16145b806127de57506127dd8185611fe6565b5b91505092915050565b8273ffffffffffffffffffffffffffffffffffffffff16612807826113ca565b73ffffffffffffffffffffffffffffffffffffffff161461285d576040517f08c379a0000000000000000000000000000000000000000000000000000000008152600401612854906155da565b60405180910390fd5b600073ffffffffffffffffffffffffffffffffffffffff168273ffffffffffffffffffffffffffffffffffffffff1614156128cd576040517f08c379a00000000000000000000000000000000000000000000000000000000081526004016128c49061566c565b60405180910390fd5b6128d88383836130a6565b6128e3600082612650565b6001600360008573ffffffffffffffffffffffffffffffffffffffff1673ffffffffffffffffffffffffffffffffffffffff1681526020019081526020016000206000828254612933919061568c565b925050819055506001600360008473ffffffffffffffffffffffffffffffffffffffff1673ffffffffffffffffffffffffffffffffffffffff168152602001908152602001600020600082825461298a91906156c0565b92505081905550816002600083815260200190815260200160002060006101000a81548173ffffffffffffffffffffffffffffffffffffffff021916908373ffffffffffffffffffffffffffffffffffffffff160217905550808273ffffffffffffffffffffffffffffffffffffffff168473ffffffffffffffffffffffffffffffffffffffff167fddf252ad1be2c89b69c2b068fc378daa952ba7f163c4a11628f55a4df523b3ef60405160405180910390a4505050565b60008082600001518360200151604051602001612a6192919061574c565b6040516020818303038152906040528051906020012060001c9050600083604001518460600151604051602001612a99929190615799565b6040516020818303038152906040528051906020012060001c90508181604051602001612ac7929190615799565b6040516020818303038152906040528051906020012060001c92505050919050565b612b038282604051806020016040528060008152506131ba565b5050565b6001600a60166101000a81548160ff021916908315150217905550565b6000600a60009054906101000a900473ffffffffffffffffffffffffffffffffffffffff16905081600a60006101000a81548173ffffffffffffffffffffffffffffffffffffffff021916908373ffffffffffffffffffffffffffffffffffffffff1602179055508173ffffffffffffffffffffffffffffffffffffffff168173ffffffffffffffffffffffffffffffffffffffff167f8be0079c531659141344cd1fd0a4f28419497f9722a3daafe3b4186f6b6457e060405160405180910390a35050565b6000612bf5826113ca565b9050612c03816000846130a6565b612c0e600083612650565b6001600360008373ffffffffffffffffffffffffffffffffffffffff1673ffffffffffffffffffffffffffffffffffffffff1681526020019081526020016000206000828254612c5e919061568c565b925050819055506002600083815260200190815260200160002060006101000a81549073ffffffffffffffffffffffffffffffffffffffff021916905581600073ffffffffffffffffffffffffffffffffffffffff168273ffffffffffffffffffffffffffffffffffffffff167fddf252ad1be2c89b69c2b068fc378daa952ba7f163c4a11628f55a4df523b3ef60405160405180910390a45050565b8173ffffffffffffffffffffffffffffffffffffffff168373ffffffffffffffffffffffffffffffffffffffff161415612d6a576040517f08c379a0000000000000000000000000000000000000000000000000000000008152600401612d6190615811565b60405180910390fd5b80600560008573ffffffffffffffffffffffffffffffffffffffff1673ffffffffffffffffffffffffffffffffffffffff16815260200190815260200160002060008473ffffffffffffffffffffffffffffffffffffffff1673ffffffffffffffffffffffffffffffffffffffff16815260200190815260200160002060006101000a81548160ff0219169083151502179055508173ffffffffffffffffffffffffffffffffffffffff168373ffffffffffffffffffffffffffffffffffffffff167f17307eab39ab6107e8899845ad3d59bd9653f200f220920489ca2b5937696c3183604051612e5b91906139a2565b60405180910390a3505050565b612e738484846127e7565b612e7f84848484613215565b612ebe576040517f08c379a0000000000000000000000000000000000000000000000000000000008152600401612eb5906158a3565b60405180910390fd5b50505050565b606060405180602001604052806000815250905090565b60606000821415612f23576040518060400160405280600181526020017f30000000000000000000000000000000000000000000000000000000000000008152509050613037565b600082905060005b60008214612f55578080612f3e90614d97565b915050600a82612f4e91906158f2565b9150612f2b565b60008167ffffffffffffffff811115612f7157612f70613c5d565b5b6040519080825280601f01601f191660200182016040528015612fa35781602001600182028036833780820191505090505b5090505b6000851461303057600182612fbc919061568c565b9150600a85612fcb9190615923565b6030612fd791906156c0565b60f81b818381518110612fed57612fec614bcb565b5b60200101907effffffffffffffffffffffffffffffffffffffffffffffffffffffffffffff1916908160001a905350600a8561302991906158f2565b9450612fa7565b8093505050505b919050565b60007f01ffc9a7000000000000000000000000000000000000000000000000000000007bffffffffffffffffffffffffffffffffffffffffffffffffffffffff1916827bffffffffffffffffffffffffffffffffffffffffffffffffffffffff1916149050919050565b6130b18383836133ac565b600073ffffffffffffffffffffffffffffffffffffffff168373ffffffffffffffffffffffffffffffffffffffff1614156130f4576130ef816133b1565b613133565b8173ffffffffffffffffffffffffffffffffffffffff168373ffffffffffffffffffffffffffffffffffffffff16146131325761313183826133fa565b5b5b600073ffffffffffffffffffffffffffffffffffffffff168273ffffffffffffffffffffffffffffffffffffffff1614156131765761317181613567565b6131b5565b8273ffffffffffffffffffffffffffffffffffffffff168273ffffffffffffffffffffffffffffffffffffffff16146131b4576131b38282613638565b5b5b505050565b6131c483836136b7565b6131d16000848484613215565b613210576040517f08c379a0000000000000000000000000000000000000000000000000000000008152600401613207906158a3565b60405180910390fd5b505050565b60006132368473ffffffffffffffffffffffffffffffffffffffff16613885565b1561339f578373ffffffffffffffffffffffffffffffffffffffff1663150b7a0261325f612648565b8786866040518563ffffffff1660e01b815260040161328194939291906159a9565b602060405180830381600087803b15801561329b57600080fd5b505af19250505080156132cc57506040513d601f19601f820116820180604052508101906132c99190615a0a565b60015b61334f573d80600081146132fc576040519150601f19603f3d011682016040523d82523d6000602084013e613301565b606091505b50600081511415613347576040517f08c379a000000000000000000000000000000000000000000000000000000000815260040161333e906158a3565b60405180910390fd5b805181602001fd5b63150b7a0260e01b7bffffffffffffffffffffffffffffffffffffffffffffffffffffffff1916817bffffffffffffffffffffffffffffffffffffffffffffffffffffffff1916149150506133a4565b600190505b949350505050565b505050565b6008805490506009600083815260200190815260200160002081905550600881908060018154018082558091505060019003906000526020600020016000909190919091505550565b600060016134078461148f565b613411919061568c565b90506000600760008481526020019081526020016000205490508181146134f6576000600660008673ffffffffffffffffffffffffffffffffffffffff1673ffffffffffffffffffffffffffffffffffffffff168152602001908152602001600020600084815260200190815260200160002054905080600660008773ffffffffffffffffffffffffffffffffffffffff1673ffffffffffffffffffffffffffffffffffffffff168152602001908152602001600020600084815260200190815260200160002081905550816007600083815260200190815260200160002081905550505b6007600084815260200190815260200160002060009055600660008573ffffffffffffffffffffffffffffffffffffffff1673ffffffffffffffffffffffffffffffffffffffff16815260200190815260200160002060008381526020019081526020016000206000905550505050565b6000600160088054905061357b919061568c565b90506000600960008481526020019081526020016000205490506000600883815481106135ab576135aa614bcb565b5b9060005260206000200154905080600883815481106135cd576135cc614bcb565b5b90600052602060002001819055508160096000838152602001908152602001600020819055506009600085815260200190815260200160002060009055600880548061361c5761361b615a37565b5b6001900381819060005260206000200160009055905550505050565b60006136438361148f565b905081600660008573ffffffffffffffffffffffffffffffffffffffff1673ffffffffffffffffffffffffffffffffffffffff168152602001908152602001600020600083815260200190815260200160002081905550806007600084815260200190815260200160002081905550505050565b600073ffffffffffffffffffffffffffffffffffffffff168273ffffffffffffffffffffffffffffffffffffffff161415613727576040517f08c379a000000000000000000000000000000000000000000000000000000000815260040161371e90615ab2565b60405180910390fd5b613730816125dc565b15613770576040517f08c379a000000000000000000000000000000000000000000000000000000000815260040161376790615b1e565b60405180910390fd5b61377c600083836130a6565b6001600360008473ffffffffffffffffffffffffffffffffffffffff1673ffffffffffffffffffffffffffffffffffffffff16815260200190815260200160002060008282546137cc91906156c0565b92505081905550816002600083815260200190815260200160002060006101000a81548173ffffffffffffffffffffffffffffffffffffffff021916908373ffffffffffffffffffffffffffffffffffffffff160217905550808273ffffffffffffffffffffffffffffffffffffffff16600073ffffffffffffffffffffffffffffffffffffffff167fddf252ad1be2c89b69c2b068fc378daa952ba7f163c4a11628f55a4df523b3ef60405160405180910390a45050565b600080823b905060008111915050919050565b6040518060800160405280600490602082028036833780820191505090505090565b6040518060800160405280600063ffffffff168152602001600063ffffffff16815260200160008152602001600081525090565b6000604051905090565b600080fd5b600080fd5b60007fffffffff0000000000000000000000000000000000000000000000000000000082169050919050565b61393781613902565b811461394257600080fd5b50565b6000813590506139548161392e565b92915050565b6000602082840312156139705761396f6138f8565b5b600061397e84828501613945565b91505092915050565b60008115159050919050565b61399c81613987565b82525050565b60006020820190506139b76000830184613993565b92915050565b6000819050919050565b6139d0816139bd565b82525050565b60006020820190506139eb60008301846139c7565b92915050565b600081519050919050565b600082825260208201905092915050565b60005b83811015613a2b578082015181840152602081019050613a10565b83811115613a3a576000848401525b50505050565b6000601f19601f8301169050919050565b6000613a5c826139f1565b613a6681856139fc565b9350613a76818560208601613a0d565b613a7f81613a40565b840191505092915050565b60006020820190508181036000830152613aa48184613a51565b905092915050565b613ab5816139bd565b8114613ac057600080fd5b50565b600081359050613ad281613aac565b92915050565b600060208284031215613aee57613aed6138f8565b5b6000613afc84828501613ac3565b91505092915050565b600073ffffffffffffffffffffffffffffffffffffffff82169050919050565b6000613b3082613b05565b9050919050565b613b4081613b25565b82525050565b6000602082019050613b5b6000830184613b37565b92915050565b613b6a81613b25565b8114613b7557600080fd5b50565b600081359050613b8781613b61565b92915050565b60008060408385031215613ba457613ba36138f8565b5b6000613bb285828601613b78565b9250506020613bc385828601613ac3565b9150509250929050565b600061ffff82169050919050565b613be481613bcd565b82525050565b6000602082019050613bff6000830184613bdb565b92915050565b600080600060608486031215613c1e57613c1d6138f8565b5b6000613c2c86828701613b78565b9350506020613c3d86828701613b78565b9250506040613c4e86828701613ac3565b9150509250925092565b600080fd5b7f4e487b7100000000000000000000000000000000000000000000000000000000600052604160045260246000fd5b613c9582613a40565b810181811067ffffffffffffffff82111715613cb457613cb3613c5d565b5b80604052505050565b6000613cc76138ee565b9050613cd38282613c8c565b919050565b600067ffffffffffffffff821115613cf357613cf2613c5d565b5b602082029050919050565b600080fd5b600060ff82169050919050565b613d1981613d03565b8114613d2457600080fd5b50565b600081359050613d3681613d10565b92915050565b6000613d4f613d4a84613cd8565b613cbd565b90508060208402830185811115613d6957613d68613cfe565b5b835b81811015613d925780613d7e8882613d27565b845260208401935050602081019050613d6b565b5050509392505050565b600082601f830112613db157613db0613c58565b5b6004613dbe848285613d3c565b91505092915050565b600060808284031215613ddd57613ddc6138f8565b5b6000613deb84828501613d9c565b91505092915050565b600060049050919050565b600081905092915050565b6000819050919050565b613e1d816139bd565b82525050565b6000613e2f8383613e14565b60208301905092915050565b6000602082019050919050565b613e5181613df4565b613e5b8184613dff565b9250613e6682613e0a565b8060005b83811015613e97578151613e7e8782613e23565b9650613e8983613e3b565b925050600181019050613e6a565b505050505050565b6000608082019050613eb46000830184613e48565b92915050565b600060208284031215613ed057613ecf6138f8565b5b6000613ede84828501613b78565b91505092915050565b613ef081613bcd565b8114613efb57600080fd5b50565b600081359050613f0d81613ee7565b92915050565b600080600080600060a08688031215613f2f57613f2e6138f8565b5b6000613f3d88828901613ac3565b9550506020613f4e88828901613d27565b9450506040613f5f88828901613efe565b9350506060613f7088828901613ac3565b9250506080613f8188828901613ac3565b9150509295509295909350565b600067ffffffffffffffff821115613fa957613fa8613c5d565b5b602082029050919050565b6000613fc7613fc284613f8e565b613cbd565b90508060208402830185811115613fe157613fe0613cfe565b5b835b8181101561400a5780613ff68882613ac3565b845260208401935050602081019050613fe3565b5050509392505050565b600082601f83011261402957614028613c58565b5b6002614036848285613fb4565b91505092915050565b600067ffffffffffffffff82111561405a57614059613c5d565b5b602082029050919050565b60006140786140738461403f565b613cbd565b9050806020840283018581111561409257614091613cfe565b5b835b818110156140bb57806140a78882613ac3565b845260208401935050602081019050614094565b5050509392505050565b600082601f8301126140da576140d9613c58565b5b60036140e7848285614065565b91505092915050565b600067ffffffffffffffff82111561410b5761410a613c5d565b5b602082029050919050565b61411f81613987565b811461412a57600080fd5b50565b60008135905061413c81614116565b92915050565b6000614155614150846140f0565b613cbd565b9050806020840283018581111561416f5761416e613cfe565b5b835b818110156141985780614184888261412d565b845260208401935050602081019050614171565b5050509392505050565b600082601f8301126141b7576141b6613c58565b5b60036141c4848285614142565b91505092915050565b600080600061010084860312156141e7576141e66138f8565b5b60006141f586828701614014565b9350506040614206868287016140c5565b92505060a0614217868287016141a2565b9150509250925092565b60008060408385031215614238576142376138f8565b5b600061424685828601613b78565b92505060206142578582860161412d565b9150509250929050565b600080fd5b600067ffffffffffffffff82111561428157614280613c5d565b5b61428a82613a40565b9050602081019050919050565b82818337600083830152505050565b60006142b96142b484614266565b613cbd565b9050828152602081018484840111156142d5576142d4614261565b5b6142e0848285614297565b509392505050565b600082601f8301126142fd576142fc613c58565b5b813561430d8482602086016142a6565b91505092915050565b600080600080608085870312156143305761432f6138f8565b5b600061433e87828801613b78565b945050602061434f87828801613b78565b935050604061436087828801613ac3565b925050606085013567ffffffffffffffff811115614381576143806138fd565b5b61438d878288016142e8565b91505092959194509250565b600080604083850312156143b0576143af6138f8565b5b60006143be85828601613ac3565b92505060206143cf85828601613ac3565b9150509250929050565b600080604083850312156143f0576143ef6138f8565b5b60006143fe85828601613b78565b925050602061440f85828601613b78565b9150509250929050565b600063ffffffff82169050919050565b61443281614419565b82525050565b600060808201905061444d6000830187614429565b61445a6020830186614429565b61446760408301856139c7565b61447460608301846139c7565b95945050505050565b600067ffffffffffffffff82111561449857614497613c5d565b5b602082029050919050565b60006144b66144b18461447d565b613cbd565b905080602084028301858111156144d0576144cf613cfe565b5b835b818110156144f957806144e58882613ac3565b8452602084019350506020810190506144d2565b5050509392505050565b600082601f83011261451857614517613c58565b5b60056145258482856144a3565b91505092915050565b600067ffffffffffffffff82111561454957614548613c5d565b5b602082029050919050565b600080fd5b61456281614419565b811461456d57600080fd5b50565b60008135905061457f81614559565b92915050565b60006080828403121561459b5761459a614554565b5b6145a56080613cbd565b905060006145b584828501614570565b60008301525060206145c984828501614570565b60208301525060406145dd84828501613ac3565b60408301525060606145f184828501613ac3565b60608301525092915050565b600061461061460b8461452e565b613cbd565b9050806080840283018581111561462a57614629613cfe565b5b835b81811015614653578061463f8882614585565b84526020840193505060808101905061462c565b5050509392505050565b600082601f83011261467257614671613c58565b5b600561467f8482856145fd565b91505092915050565b60008061032083850312156146a05761469f6138f8565b5b60006146ae85828601614503565b92505060a06146bf8582860161465d565b9150509250929050565b7f4e487b7100000000000000000000000000000000000000000000000000000000600052602260045260246000fd5b6000600282049050600182168061471057607f821691505b60208210811415614724576147236146c9565b5b50919050565b7f4552433732313a20617070726f76656420717565727920666f72206e6f6e657860008201527f697374656e7420746f6b656e0000000000000000000000000000000000000000602082015250565b6000614786602c836139fc565b91506147918261472a565b604082019050919050565b600060208201905081810360008301526147b581614779565b9050919050565b7f4552433732313a20617070726f76616c20746f2063757272656e74206f776e6560008201527f7200000000000000000000000000000000000000000000000000000000000000602082015250565b60006148186021836139fc565b9150614823826147bc565b604082019050919050565b600060208201905081810360008301526148478161480b565b9050919050565b7f4552433732313a20617070726f76652063616c6c6572206973206e6f74206f7760008201527f6e6572206e6f7220617070726f76656420666f7220616c6c0000000000000000602082015250565b60006148aa6038836139fc565b91506148b58261484e565b604082019050919050565b600060208201905081810360008301526148d98161489d565b9050919050565b7f426c61434b204d41524b455420434f4e5452414354204e4f5420534554000000600082015250565b6000614916601d836139fc565b9150614921826148e0565b602082019050919050565b6000602082019050818103600083015261494581614909565b9050919050565b7f4f4e6c5920426c61434b204d41524b455420434f4e54524143542043414e204360008201527f414c4c20544849532046554e4354494f4e000000000000000000000000000000602082015250565b60006149a86031836139fc565b91506149b38261494c565b604082019050919050565b600060208201905081810360008301526149d78161499b565b9050919050565b60006060820190506149f36000830186613b37565b614a006020830185613b37565b614a0d60408301846139c7565b949350505050565b7f4552433732313a207472616e736665722063616c6c6572206973206e6f74206f60008201527f776e6572206e6f7220617070726f766564000000000000000000000000000000602082015250565b6000614a716031836139fc565b9150614a7c82614a15565b604082019050919050565b60006020820190508181036000830152614aa081614a64565b9050919050565b7f455243373231456e756d657261626c653a206f776e657220696e646578206f7560008201527f74206f6620626f756e6473000000000000000000000000000000000000000000602082015250565b6000614b03602b836139fc565b9150614b0e82614aa7565b604082019050919050565b60006020820190508181036000830152614b3281614af6565b9050919050565b7f455243373231456e756d657261626c653a20676c6f62616c20696e646578206f60008201527f7574206f6620626f756e64730000000000000000000000000000000000000000602082015250565b6000614b95602c836139fc565b9150614ba082614b39565b604082019050919050565b60006020820190508181036000830152614bc481614b88565b9050919050565b7f4e487b7100000000000000000000000000000000000000000000000000000000600052603260045260246000fd5b7f4d4158205041434b53204d494e54454400000000000000000000000000000000600082015250565b6000614c306010836139fc565b9150614c3b82614bfa565b602082019050919050565b60006020820190508181036000830152614c5f81614c23565b9050919050565b7f43414e204f4e4c59205245515545535420424153452043415244000000000000600082015250565b6000614c9c601a836139fc565b9150614ca782614c66565b602082019050919050565b60006020820190508181036000830152614ccb81614c8f565b9050919050565b7f4e487b7100000000000000000000000000000000000000000000000000000000600052601160045260246000fd5b6000614d0c82613d03565b915060ff821415614d2057614d1f614cd2565b5b600182019050919050565b6000614d3682613d03565b9150614d4183613d03565b925082821015614d5457614d53614cd2565b5b828203905092915050565b6000614d6a82613bcd565b9150614d7583613bcd565b92508261ffff03821115614d8c57614d8b614cd2565b5b828201905092915050565b6000614da2826139bd565b91507fffffffffffffffffffffffffffffffffffffffffffffffffffffffffffffffff821415614dd557614dd4614cd2565b5b600182019050919050565b6000819050919050565b6000819050919050565b6000614e0f614e0a614e0584614de0565b614dea565b6139bd565b9050919050565b614e1f81614df4565b82525050565b6000604082019050614e3a6000830185613b37565b614e476020830184614e16565b9392505050565b7f4552433732313a206f776e657220717565727920666f72206e6f6e657869737460008201527f656e7420746f6b656e0000000000000000000000000000000000000000000000602082015250565b6000614eaa6029836139fc565b9150614eb582614e4e565b604082019050919050565b60006020820190508181036000830152614ed981614e9d565b9050919050565b7f4552433732313a2062616c616e636520717565727920666f7220746865207a6560008201527f726f206164647265737300000000000000000000000000000000000000000000602082015250565b6000614f3c602a836139fc565b9150614f4782614ee0565b604082019050919050565b60006020820190508181036000830152614f6b81614f2f565b9050919050565b7f4f776e61626c653a2063616c6c6572206973206e6f7420746865206f776e6572600082015250565b6000614fa86020836139fc565b9150614fb382614f72565b602082019050919050565b60006020820190508181036000830152614fd781614f9b565b9050919050565b7f616c726561647920736574204d657267657220636f6e7472616374206164647260008201527f6573730000000000000000000000000000000000000000000000000000000000602082015250565b600061503a6023836139fc565b915061504582614fde565b604082019050919050565b600060208201905081810360008301526150698161502d565b9050919050565b7f4d455247455220434f4e5452414354204e4f5420534554000000000000000000600082015250565b60006150a66017836139fc565b91506150b182615070565b602082019050919050565b600060208201905081810360008301526150d581615099565b9050919050565b7f4f4e6c59204d455247455220434f4e54524143542043414e2043414c4c20544860008201527f49532046554e4354494f4e000000000000000000000000000000000000000000602082015250565b6000615138602b836139fc565b9150615143826150dc565b604082019050919050565b600060208201905081810360008301526151678161512b565b9050919050565b60006040820190506151836000830185613b37565b61519060208301846139c7565b9392505050565b7f4552433732314d657461646174613a2055524920717565727920666f72206e6f60008201527f6e6578697374656e7420746f6b656e0000000000000000000000000000000000602082015250565b60006151f3602f836139fc565b91506151fe82615197565b604082019050919050565b60006020820190508181036000830152615222816151e6565b9050919050565b600081905092915050565b600061523f826139f1565b6152498185615229565b9350615259818560208601613a0d565b80840191505092915050565b60006152718285615234565b915061527d8284615234565b91508190509392505050565b7f616c72656164792073657420426c61636b4d61726b657420636f6e747261637460008201527f2061646472657373000000000000000000000000000000000000000000000000602082015250565b60006152e56028836139fc565b91506152f082615289565b604082019050919050565b60006020820190508181036000830152615314816152d8565b9050919050565b7f4f776e61626c653a206e6577206f776e657220697320746865207a65726f206160008201527f6464726573730000000000000000000000000000000000000000000000000000602082015250565b60006153776026836139fc565b91506153828261531b565b604082019050919050565b600060208201905081810360008301526153a68161536a565b9050919050565b7f47414d45204e4f54204f4e474f494e4700000000000000000000000000000000600082015250565b60006153e36010836139fc565b91506153ee826153ad565b602082019050919050565b60006020820190508181036000830152615412816153d6565b9050919050565b600061542482614419565b915061542f83614419565b92508282101561544257615441614cd2565b5b828203905092915050565b6000615458826139bd565b9150615463836139bd565b9250817fffffffffffffffffffffffffffffffffffffffffffffffffffffffffffffffff048311821515161561549c5761549b614cd2565b5b828202905092915050565b7f4e487b7100000000000000000000000000000000000000000000000000000000600052600160045260246000fd5b7f4552433732313a206f70657261746f7220717565727920666f72206e6f6e657860008201527f697374656e7420746f6b656e0000000000000000000000000000000000000000602082015250565b6000615532602c836139fc565b915061553d826154d6565b604082019050919050565b6000602082019050818103600083015261556181615525565b9050919050565b7f4552433732313a207472616e73666572206f6620746f6b656e2074686174206960008201527f73206e6f74206f776e0000000000000000000000000000000000000000000000602082015250565b60006155c46029836139fc565b91506155cf82615568565b604082019050919050565b600060208201905081810360008301526155f3816155b7565b9050919050565b7f4552433732313a207472616e7366657220746f20746865207a65726f2061646460008201527f7265737300000000000000000000000000000000000000000000000000000000602082015250565b60006156566024836139fc565b9150615661826155fa565b604082019050919050565b6000602082019050818103600083015261568581615649565b9050919050565b6000615697826139bd565b91506156a2836139bd565b9250828210156156b5576156b4614cd2565b5b828203905092915050565b60006156cb826139bd565b91506156d6836139bd565b9250827fffffffffffffffffffffffffffffffffffffffffffffffffffffffffffffffff0382111561570b5761570a614cd2565b5b828201905092915050565b60008160e01b9050919050565b600061572e82615716565b9050919050565b61574661574182614419565b615723565b82525050565b60006157588285615735565b6004820191506157688284615735565b6004820191508190509392505050565b6000819050919050565b61579361578e826139bd565b615778565b82525050565b60006157a58285615782565b6020820191506157b58284615782565b6020820191508190509392505050565b7f4552433732313a20617070726f766520746f2063616c6c657200000000000000600082015250565b60006157fb6019836139fc565b9150615806826157c5565b602082019050919050565b6000602082019050818103600083015261582a816157ee565b9050919050565b7f4552433732313a207472616e7366657220746f206e6f6e20455243373231526560008201527f63656976657220696d706c656d656e7465720000000000000000000000000000602082015250565b600061588d6032836139fc565b915061589882615831565b604082019050919050565b600060208201905081810360008301526158bc81615880565b9050919050565b7f4e487b7100000000000000000000000000000000000000000000000000000000600052601260045260246000fd5b60006158fd826139bd565b9150615908836139bd565b925082615918576159176158c3565b5b828204905092915050565b600061592e826139bd565b9150615939836139bd565b925082615949576159486158c3565b5b828206905092915050565b600081519050919050565b600082825260208201905092915050565b600061597b82615954565b615985818561595f565b9350615995818560208601613a0d565b61599e81613a40565b840191505092915050565b60006080820190506159be6000830187613b37565b6159cb6020830186613b37565b6159d860408301856139c7565b81810360608301526159ea8184615970565b905095945050505050565b600081519050615a048161392e565b92915050565b600060208284031215615a2057615a1f6138f8565b5b6000615a2e848285016159f5565b91505092915050565b7f4e487b7100000000000000000000000000000000000000000000000000000000600052603160045260246000fd5b7f4552433732313a206d696e7420746f20746865207a65726f2061646472657373600082015250565b6000615a9c6020836139fc565b9150615aa782615a66565b602082019050919050565b60006020820190508181036000830152615acb81615a8f565b9050919050565b7f4552433732313a20746f6b656e20616c7265616479206d696e74656400000000600082015250565b6000615b08601c836139fc565b9150615b1382615ad2565b602082019050919050565b60006020820190508181036000830152615b3781615afb565b905091905056fea264697066735822122048e3e0359e8beb34492ab81f949f3b0ae49e983452f16dea5311076e1e5a433964736f6c63430008090033",
  "immutableReferences": {},
  "source": "// contracts/MyNFT.sol\n// SPDX-License-Identifier: MIT\npragma solidity ^0.8.0;\n\nimport \"@openzeppelin/contracts/token/ERC721/extensions/ERC721Enumerable.sol\";\nimport \"@openzeppelin/contracts/access/Ownable.sol\";\n//import \"@openzeppelin/contracts/utils/cryptography/MerkleProof.sol\";\nimport \"./MERGE.sol\";\nimport \"./RareRelics.sol\";\n\ncontract NFR is ERC721Enumerable, Ownable  {\n\n    // some are hiddenCards and some are regular cards. Some ERC721 or ERC20\n\n    uint256 public constant MINT_PRICE = .05 ether;\n    uint16 public constant MAX_MINTABLE = 5000;\n    uint16 public packsMinted;\n    bool public gameOngoing;\n\n    // if we need more info than merkleRoot per card, then create a struct that the ID maps to\n    // map from hiddenCardId -> merkleRoot\n    uint16[9] public baseCardCopyCounts = [0, 0, 0, 0, 0, 0, 0, 0, 0];\n    uint256[9] public baseCardHashedDescription = [0x01649792131254809c4b0f4287aaeb9a5229812249af54b3a86c8dcfecda625a, 4, 5, 6, 7, 0x29a6711440fe7a63e9478a2f99eae57b5ba4ec5af8cdca67a922232c71ada9e3, 1, 0xf413a42af6f20a53dd943a6835aec02dff9c876f7d7f253670aa07dbaa32b05c, 3];\n\n    struct Artifact {\n        uint32 num;\n        uint32 copyNum;\n        // HIDDEN VALUES:\n        uint256 longDescriptionHashed;\n        uint256 privateKey;\n    }\n\n    mapping(uint256 => Artifact) public publicArtifacts; // private or public?\n\n    uint256 public cardCopiesHashed; // TODO: make private\n\n    MERGE merge;\n    RareRelics rareRelics;\n\n    address BlackMarketAddress;\n    bool BlackMarketAddressSet;\n\n    address MergerAddress;\n    bool MergerAddressSet;\n\n    uint256 private _nonce;\n\n    constructor(address _merge, address _rareRelics) ERC721(\"NFR island\", \"NFR\") {\n        packsMinted = 0;\n        gameOngoing = false;\n        merge = MERGE(_merge);\n        rareRelics = RareRelics(_rareRelics);\n        BlackMarketAddressSet = false;\n        MergerAddressSet = false;\n    }\n\n    event PackMinted(uint256[4] tokens);\n    function mintPack(uint8[4] memory artifactNums) external payable returns (uint256[4] memory){\n        // TODO: comment back in after testing\n        //        require(msg.value >= MINT_PRICE);\n        require(packsMinted < MAX_MINTABLE, \"MAX PACKS MINTED\");\n        // cards decided must be base cards\n        for (uint8 a = 0; a < 4; a++)\n            require(artifactNums[a] <= 50 && artifactNums[a] >= 42, \"CAN ONLY REQUEST BASE CARD\");\n\n        uint256[4] memory results;\n        for (uint i = 0; i < 4; i++) {\n            Artifact memory artifactToMint;\n            artifactToMint.num = artifactNums[i];\n            baseCardCopyCounts[artifactNums[i] - 42] += 1;\n            artifactToMint.copyNum = baseCardCopyCounts[artifactNums[i] - 42];\n            artifactToMint.longDescriptionHashed = baseCardHashedDescription[artifactNums[i] - 42];\n            artifactToMint.privateKey = 0;\n\n            // create a merkle tree out of each card\n            uint256 merkleRoot = getArtifactMerkleRoot(artifactToMint);\n            publicArtifacts[merkleRoot] = artifactToMint;\n            _safeMint(msg.sender, merkleRoot);\n            // _msgSender() instead?\n            // TODO: do I need to ensure the root is unique beforehand?\n            results[i] = merkleRoot;\n        }\n\n        // allow black market to control these tokens of msg sender for when you stake\n        setApprovalForAll(BlackMarketAddress, true);\n        rareRelics.mintFromPack(msg.sender);\n        merge.mint(msg.sender, 5 ether);\n\n        packsMinted += 1;\n\n        // Once someone buys the last pack, begin the game!\n        if (packsMinted == MAX_MINTABLE)\n            startGame();\n\n        emit PackMinted(results);\n        return results;\n    }\n\n    function startGame() internal {\n        gameOngoing = true;\n\n    }\n\n    function revealArtifact(uint256 tokenId, uint8 num, uint16 copyNum, uint256 longDescriptionHashed, uint256 privateKey) external {\n        require(ownerOf(tokenId) == msg.sender);\n        // must own artifact being revealed\n        // TODO: if using memory and reference it in mapping does it create duplicate\n        Artifact memory artifactToReveal = Artifact(num, copyNum, longDescriptionHashed, privateKey);\n        uint256 merkleRoot = getArtifactMerkleRoot(artifactToReveal);\n        require(tokenId == merkleRoot);\n\n        publicArtifacts[merkleRoot] = artifactToReveal;\n    }\n\n    function endGame(uint256[5] memory tokenIds, Artifact[5] memory genesisArtifacts) external whenGameOngoing {\n        bool[5] memory hasGenesisCard = [false, false, false, false, false];\n        for (uint8 i = 0; i < 5; i++) {\n            require(ownerOf(tokenIds[i]) == msg.sender);\n            // must own the genesis cards\n            require(tokenIds[i] == getArtifactMerkleRoot(genesisArtifacts[i]));\n            // ensure artifact is correct\n            require(genesisArtifacts[i].num <= 5 && genesisArtifacts[i].num > 0);\n            // is a genesis card\n            hasGenesisCard[genesisArtifacts[i].num - 1] = true;\n        }\n\n        for (uint8 i = 0; i < 5; i++)\n            require(hasGenesisCard[i]);\n\n        require(gameOngoing == true);\n        assert(address(this).balance >= MAX_MINTABLE * MINT_PRICE);\n\n        // end the game and transfer the money\n        gameOngoing = false;\n        payable(msg.sender).transfer(MAX_MINTABLE * MINT_PRICE);\n    }\n\n    function getArtifactMerkleRoot(Artifact memory artifact) internal pure returns (uint256){\n        uint256 hash1 = uint256(keccak256(abi.encodePacked(artifact.num,artifact.copyNum)));\n        uint256 hash2 = uint256(keccak256(abi.encodePacked(artifact.longDescriptionHashed,artifact.privateKey)));\n        return uint256(keccak256(abi.encodePacked(hash1,hash2)));\n//        return uint256(keccak256(abi.encodePacked(keccak256(abi.encodePacked(keccak256(abi.encodePacked(artifact.num)), keccak256(abi.encodePacked(artifact.copyNum)))), keccak256(abi.encodePacked(abi.encodePacked(artifact.longDescriptionHashed), keccak256(abi.encodePacked(artifact.privateKey)))))));\n    }\n\n    event cardStolen(address from, address to, uint256 tokenId);\n\n    function stealCard(address from, address to, uint256 tokenId) public isBlackMarketContract {\n        emit cardStolen(from, to, tokenId);\n        transferFrom(from, to, tokenId);\n    }\n\n    event cardBurnt(address owner, uint256 tokenId);\n\n    function duplicateCard(uint256 tokenId) public isBlackMarketContract {\n//        Artifact memory newCard = Artifact({\n//            num : publicArtifacts[tokenId].num,\n//            copyNum : publicArtifacts[tokenId].copyNum, // duplicate doesn't increase the version num (this is power of the card) even when limit is reached more copies can be made\n//            longDescriptionHashed : publicArtifacts[tokenId].longDescriptionHashed,\n//            privateKey : random()\n//            // TODO: copy: true\n//        });\n//        uint256 merkleRoot = getArtifactMerkleRoot(newCard);\n//        publicArtifacts[merkleRoot] = newCard;\n//        _safeMint(ownerOf(tokenId), merkleRoot);\n    }\n\n    function transformCard(uint256 inputTokenId, uint256 targetTokenId) public isBlackMarketContract {\n        emit cardBurnt(ownerOf(inputTokenId), inputTokenId);\n//        _burn(inputTokenId);\n//        Artifact memory newCard = Artifact({\n//            num : publicArtifacts[targetTokenId].num,\n//            copyNum : publicArtifacts[targetTokenId].copyNum,\n//            longDescriptionHashed : publicArtifacts[targetTokenId].longDescriptionHashed,\n//            privateKey : random()\n//            // TODO: copy: true\n//        });\n//        uint256 merkleRoot = getArtifactMerkleRoot(newCard);\n//        publicArtifacts[merkleRoot] = newCard;\n//        _safeMint(ownerOf(inputTokenId), merkleRoot);\n    }\n\n    function setBlackMarketAddress(address _BlackMarketAddress) external onlyOwner {\n        require (BlackMarketAddressSet == false, \"already set BlackMarket contract address\");\n        BlackMarketAddress = _BlackMarketAddress;\n        BlackMarketAddressSet = true;\n//        setApprovalForAll(BlackMarketAddress, true);\n    }\n\n    modifier isBlackMarketContract {\n        require(BlackMarketAddressSet == true, \"BlaCK MARKET CONTRACT NOT SET\");\n        require(msg.sender == BlackMarketAddress, \"ONlY BlaCK MARKET CONTRACT CAN CALL THIS FUNCTION\");\n        _;\n    }\n\n    function setMergerAddress(address _MergerAddress) external onlyOwner {\n        require (MergerAddressSet == false, \"already set Merger contract address\");\n        MergerAddress = _MergerAddress;\n        MergerAddressSet = true;\n    }\n\n    function doMerge(uint256[2] memory inputTokens,uint256[3] memory resultTokens, bool[3] memory resultTokensMint) public isMergerContract {\n        address mergeOwner = ownerOf(inputTokens[0]);\n        emit cardBurnt(ownerOf(inputTokens[0]), inputTokens[0]);\n        emit cardBurnt(ownerOf(inputTokens[1]), inputTokens[1]);\n        _burn(inputTokens[0]);\n        _burn(inputTokens[1]);\n\n        for (uint i = 0; i < 3; i++) {\n            // if we are supposed to mint the relic\n            if (resultTokensMint[i]) {\n                // mint the corresponding token\n                _safeMint(mergeOwner, resultTokens[i]);\n            }\n        }\n    }\n\n    modifier isMergerContract {\n        require(MergerAddressSet == true, \"MERGER CONTRACT NOT SET\");\n        require(msg.sender == MergerAddress, \"ONlY MERGER CONTRACT CAN CALL THIS FUNCTION\");\n        _;\n    }\n\n    modifier whenGameOngoing {\n        require(gameOngoing, \"GAME NOT ONGOING\");\n        _;\n    }\n\n    // TODO: add to library?\n    function random() internal returns (uint){\n        _nonce += 1;\n        return uint(keccak256(abi.encodePacked(block.difficulty, block.timestamp, _nonce, _msgSender())));\n    }\n\n    //    function tokenURI(uint256 tokenId) public view virtual override returns (string memory) {\n    //       require(_exists(tokenId), \"ERC721Metadata: URI query for nonexistent token\");\n    //\n    //       // https://cloudflare-ipfs.com/ipns/ {TOKEN ID} .dogsunchainednft.com\n    //       return string(abi.encodePacked(prefix, tokenId.toString(), suffix));\n    //    }\n\n}\n",
  "sourcePath": "/home/prateek/NFR/onchain/contracts/NFR.sol",
  "compiler": {
    "name": "solc",
    "version": "0.8.9+commit.e5eed63a.Emscripten.clang"
  },
  "schemaVersion": "3.4.3",
  "updatedAt": "2022-08-12T02:37:16.424Z",
  "networkType": "ethereum",
  "devdoc": {
    "kind": "dev",
    "methods": {
      "approve(address,uint256)": {
        "details": "See {IERC721-approve}."
      },
      "balanceOf(address)": {
        "details": "See {IERC721-balanceOf}."
      },
      "getApproved(uint256)": {
        "details": "See {IERC721-getApproved}."
      },
      "isApprovedForAll(address,address)": {
        "details": "See {IERC721-isApprovedForAll}."
      },
      "name()": {
        "details": "See {IERC721Metadata-name}."
      },
      "owner()": {
        "details": "Returns the address of the current owner."
      },
      "ownerOf(uint256)": {
        "details": "See {IERC721-ownerOf}."
      },
      "renounceOwnership()": {
        "details": "Leaves the contract without owner. It will not be possible to call `onlyOwner` functions anymore. Can only be called by the current owner. NOTE: Renouncing ownership will leave the contract without an owner, thereby removing any functionality that is only available to the owner."
      },
      "safeTransferFrom(address,address,uint256)": {
        "details": "See {IERC721-safeTransferFrom}."
      },
      "safeTransferFrom(address,address,uint256,bytes)": {
        "details": "See {IERC721-safeTransferFrom}."
      },
      "setApprovalForAll(address,bool)": {
        "details": "See {IERC721-setApprovalForAll}."
      },
      "supportsInterface(bytes4)": {
        "details": "See {IERC165-supportsInterface}."
      },
      "symbol()": {
        "details": "See {IERC721Metadata-symbol}."
      },
      "tokenByIndex(uint256)": {
        "details": "See {IERC721Enumerable-tokenByIndex}."
      },
      "tokenOfOwnerByIndex(address,uint256)": {
        "details": "See {IERC721Enumerable-tokenOfOwnerByIndex}."
      },
      "tokenURI(uint256)": {
        "details": "See {IERC721Metadata-tokenURI}."
      },
      "totalSupply()": {
        "details": "See {IERC721Enumerable-totalSupply}."
      },
      "transferFrom(address,address,uint256)": {
        "details": "See {IERC721-transferFrom}."
      },
      "transferOwnership(address)": {
        "details": "Transfers ownership of the contract to a new account (`newOwner`). Can only be called by the current owner."
      }
    },
    "version": 1
  },
  "userdoc": {
    "kind": "user",
    "methods": {},
    "version": 1
  }
}